{
  "_format": "hh-sol-artifact-1",
  "contractName": "Auction",
  "sourceName": "contracts/Auction.sol",
  "abi": [
    {
      "anonymous": false,
      "inputs": [
        {
          "indexed": false,
          "internalType": "address",
          "name": "bidder",
          "type": "address"
        },
        {
          "indexed": false,
          "internalType": "uint256",
          "name": "amount",
          "type": "uint256"
        }
      ],
      "name": "Bid",
      "type": "event"
    },
    {
      "anonymous": false,
      "inputs": [
        {
          "indexed": false,
          "internalType": "address",
          "name": "highestbidder",
          "type": "address"
        },
        {
          "indexed": false,
          "internalType": "uint256",
          "name": "",
          "type": "uint256"
        }
      ],
      "name": "End",
      "type": "event"
    },
    {
      "anonymous": false,
      "inputs": [],
      "name": "Started",
      "type": "event"
    },
    {
      "anonymous": false,
      "inputs": [
        {
          "indexed": false,
          "internalType": "address",
          "name": "bidder",
          "type": "address"
        },
        {
          "indexed": false,
          "internalType": "uint256",
          "name": "amount",
          "type": "uint256"
        }
      ],
      "name": "Withdraw",
      "type": "event"
    },
    {
      "inputs": [
        {
          "internalType": "address",
          "name": "",
          "type": "address"
        }
      ],
      "name": "addressAuctionId",
      "outputs": [
        {
          "internalType": "uint256",
          "name": "",
          "type": "uint256"
        }
      ],
      "stateMutability": "view",
      "type": "function"
    },
    {
      "inputs": [],
      "name": "auctionInfo",
      "outputs": [
        {
          "internalType": "uint256",
          "name": "endAt",
          "type": "uint256"
        },
        {
          "internalType": "uint256",
          "name": "startDate",
          "type": "uint256"
        },
        {
          "internalType": "bool",
          "name": "started",
          "type": "bool"
        },
        {
          "internalType": "bool",
          "name": "ended",
          "type": "bool"
        },
        {
          "internalType": "address",
          "name": "highestBidder",
          "type": "address"
        },
        {
          "internalType": "uint256",
          "name": "highestBid",
          "type": "uint256"
        }
      ],
      "stateMutability": "view",
      "type": "function"
    },
    {
      "inputs": [
        {
          "internalType": "uint256",
          "name": "",
          "type": "uint256"
        }
      ],
      "name": "autionItemsId",
      "outputs": [
        {
          "internalType": "uint256",
          "name": "auctionId",
          "type": "uint256"
        },
        {
          "internalType": "uint256",
          "name": "bid",
          "type": "uint256"
        },
        {
          "internalType": "address",
          "name": "bidder",
          "type": "address"
        },
        {
          "internalType": "uint256",
          "name": "marketId",
          "type": "uint256"
        }
      ],
      "stateMutability": "view",
      "type": "function"
    },
    {
      "inputs": [
        {
          "internalType": "uint256",
          "name": "marketId",
          "type": "uint256"
        }
      ],
      "name": "bid",
      "outputs": [],
      "stateMutability": "payable",
      "type": "function"
    },
    {
      "inputs": [
        {
          "internalType": "address",
          "name": "",
          "type": "address"
        }
      ],
      "name": "bids",
      "outputs": [
        {
          "internalType": "uint256",
          "name": "",
          "type": "uint256"
        }
      ],
      "stateMutability": "view",
      "type": "function"
    },
    {
      "inputs": [
        {
          "internalType": "address",
          "name": "_nftContract",
          "type": "address"
        },
        {
          "internalType": "uint256",
          "name": "_tokenId",
          "type": "uint256"
        },
        {
          "internalType": "uint256",
          "name": "marketId",
          "type": "uint256"
        },
        {
          "internalType": "address",
          "name": "marketNftAddress",
          "type": "address"
        }
      ],
      "name": "end",
      "outputs": [],
      "stateMutability": "nonpayable",
      "type": "function"
    },
    {
      "inputs": [
        {
          "internalType": "uint256",
          "name": "marketId",
          "type": "uint256"
        }
      ],
      "name": "fetchBidder",
      "outputs": [
        {
          "components": [
            {
              "internalType": "uint256",
              "name": "auctionId",
              "type": "uint256"
            },
            {
              "internalType": "uint256",
              "name": "bid",
              "type": "uint256"
            },
            {
              "internalType": "address",
              "name": "bidder",
              "type": "address"
            },
            {
              "internalType": "uint256",
              "name": "marketId",
              "type": "uint256"
            }
          ],
          "internalType": "struct Auction.AuctionItem[]",
          "name": "",
          "type": "tuple[]"
        }
      ],
      "stateMutability": "view",
      "type": "function"
    },
    {
      "inputs": [
        {
          "internalType": "uint256",
          "name": "id",
          "type": "uint256"
        }
      ],
      "name": "getBidInfo",
      "outputs": [
        {
          "components": [
            {
              "internalType": "uint256",
              "name": "endAt",
              "type": "uint256"
            },
            {
              "internalType": "uint256",
              "name": "startDate",
              "type": "uint256"
            },
            {
              "internalType": "bool",
              "name": "started",
              "type": "bool"
            },
            {
              "internalType": "bool",
              "name": "ended",
              "type": "bool"
            },
            {
              "internalType": "address",
              "name": "highestBidder",
              "type": "address"
            },
            {
              "internalType": "uint256",
              "name": "highestBid",
              "type": "uint256"
            }
          ],
          "internalType": "struct Auction.Bidinfo",
          "name": "",
          "type": "tuple"
        }
      ],
      "stateMutability": "view",
      "type": "function"
    },
    {
      "inputs": [
        {
          "internalType": "uint256",
          "name": "",
          "type": "uint256"
        }
      ],
      "name": "marketItemInfo",
      "outputs": [
        {
          "internalType": "uint256",
          "name": "endAt",
          "type": "uint256"
        },
        {
          "internalType": "uint256",
          "name": "startDate",
          "type": "uint256"
        },
        {
          "internalType": "bool",
          "name": "started",
          "type": "bool"
        },
        {
          "internalType": "bool",
          "name": "ended",
          "type": "bool"
        },
        {
          "internalType": "address",
          "name": "highestBidder",
          "type": "address"
        },
        {
          "internalType": "uint256",
          "name": "highestBid",
          "type": "uint256"
        }
      ],
      "stateMutability": "view",
      "type": "function"
    },
    {
      "inputs": [],
      "name": "nft",
      "outputs": [
        {
          "internalType": "contract IERC721",
          "name": "",
          "type": "address"
        }
      ],
      "stateMutability": "view",
      "type": "function"
    },
    {
      "inputs": [],
      "name": "seller",
      "outputs": [
        {
          "internalType": "address payable",
          "name": "",
          "type": "address"
        }
      ],
      "stateMutability": "view",
      "type": "function"
    },
    {
      "inputs": [
        {
          "internalType": "address",
          "name": "_nftContract",
          "type": "address"
        },
        {
          "internalType": "uint256",
          "name": "_tokenId",
          "type": "uint256"
        },
        {
          "internalType": "uint256",
          "name": "_startingBid",
          "type": "uint256"
        },
        {
          "internalType": "address",
          "name": "nftMarket",
          "type": "address"
        },
        {
          "internalType": "uint256",
          "name": "marketId",
          "type": "uint256"
        }
      ],
      "name": "startBid",
      "outputs": [],
      "stateMutability": "nonpayable",
      "type": "function"
    },
    {
      "inputs": [
        {
          "internalType": "uint256",
          "name": "",
          "type": "uint256"
        },
        {
          "internalType": "uint256",
          "name": "",
          "type": "uint256"
        }
      ],
      "name": "trackMarketAuction",
      "outputs": [
        {
          "internalType": "uint256",
          "name": "",
          "type": "uint256"
        }
      ],
      "stateMutability": "view",
      "type": "function"
    },
    {
      "inputs": [],
      "name": "withdraw",
      "outputs": [],
      "stateMutability": "payable",
      "type": "function"
    }
  ],
  "bytecode": "0x608060405234801561001057600080fd5b506001600055611535806100256000396000f3fe6080604052600436106100bd5760003560e01c806362ea82db1161006f57806362ea82db146102eb57806363d6a2b21461032657806383a9b432146103535780639649c27714610380578063bf37ea15146103e2578063ce735ea51461045f578063f97a2f4c1461047f57600080fd5b806308551a53146100c25780632201db31146100ff5780632fdce7a3146102105780633ccfd60b14610232578063454a2ab31461023a57806347ccca021461024d57806355d64d031461026d575b600080fd5b3480156100ce57600080fd5b506009546100e2906001600160a01b031681565b6040516001600160a01b0390911681526020015b60405180910390f35b34801561010b57600080fd5b506101bc61011a3660046112f2565b6040805160c081018252600080825260208201819052918101829052606081018290526080810182905260a0810191909152506000908152600c6020908152604091829020825160c08101845281548152600182015492810192909252600281015460ff808216151594840194909452610100810490931615156060830152620100009092046001600160a01b0316608082015260039091015460a082015290565b6040516100f6919081518152602080830151908201526040808301511515908201526060808301511515908201526080808301516001600160a01b03169082015260a0918201519181019190915260c00190565b34801561021c57600080fd5b5061023061022b3660046112a5565b61049f565b005b610230610783565b6102306102483660046112f2565b6108ae565b34801561025957600080fd5b506006546100e2906001600160a01b031681565b34801561027957600080fd5b506002546003546004546005546102ae93929160ff808216926101008304909116916201000090046001600160a01b03169086565b60408051968752602087019590955292151593850193909352151560608401526001600160a01b03909116608083015260a082015260c0016100f6565b3480156102f757600080fd5b5061031861030636600461123f565b600a6020526000908152604090205481565b6040519081526020016100f6565b34801561033257600080fd5b5061031861034136600461123f565b600d6020526000908152604090205481565b34801561035f57600080fd5b5061037361036e3660046112f2565b610b56565b6040516100f691906113b3565b34801561038c57600080fd5b506102ae61039b3660046112f2565b600c6020526000908152604090208054600182015460028301546003909301549192909160ff80831692610100810490911691620100009091046001600160a01b03169086565b3480156103ee57600080fd5b506104306103fd3660046112f2565b600e602052600090815260409020805460018201546002830154600390930154919290916001600160a01b039091169084565b6040516100f6949392919093845260208401929092526001600160a01b03166040830152606082015260800190565b34801561046b57600080fd5b5061031861047a36600461130a565b610d49565b34801561048b57600080fd5b5061023061049a366004611260565b610d7a565b6000818152600c60208181526040808420815160c08101835281548152600182015481850152600282015460ff80821680151584870152610100830490911615156060840152620100009091046001600160a01b0316608083015260039092015460a082015282518084019093526004835263696e666f60e01b83850152948690529290915261052e916110d8565b80604001511561057b5760405162461bcd60e51b8152602060048201526013602482015272109a5908185b1c9958591e481cdd185c9d1959606a1b60448201526064015b60405180910390fd5b600980546001600160a01b0319163317905561059b600180546001019055565b60006105a660015490565b90506105b3813385611121565b60408051608081018252828152602080820188815233838501908152606084018881526000878152600e909452928590209351845590516001840155516002830180546001600160a01b0319166001600160a01b039283161790559051600390920191909155600887905590516323b872dd60e01b8152908816906323b872dd9061064690879030908b9060040161138f565b600060405180830381600087803b15801561066057600080fd5b505af1158015610674573d6000803e3d6000fd5b505050506040518060c00160405280426107086106919190611490565b81524260208083019190915260016040808401829052600060608086018290523360808088019190915260a09687018d90528a8352600c865283832088518155888701518187015588850151600282018054948b0151938b01516001600160a01b0316620100000262010000600160b01b03199415156101000261ff00199315159390931661ffff199096169590951791909117929092169290921790559590940151600390950194909455600b82528383208054918201815583529082200183905590517fd8cea0ecd56872ff072e771658b5682ffe4de16d752947f79597d600ea56f7a99190a150505050505050565b600260005414156107d65760405162461bcd60e51b815260206004820152601f60248201527f5265656e7472616e637947756172643a207265656e7472616e742063616c6c006044820152606401610572565b60026000818155338152600d6020908152604080832054808452600e9092528083206001810180549085905594015490519193926001600160a01b03909116916108fc84150291849190818181858888f1935050505015801561083d573d6000803e3d6000fd5b50604051339082156108fc029083906000818181858888f1935050505015801561086b573d6000803e3d6000fd5b507f884edad9ce6fa2440d8a54cc123490eb96d2768479d49ff9c7366125a9424364338260405161089d929190611376565b60405180910390a150506001600055565b6000818152600c6020908152604091829020825160c08101845281548152600182015492810192909252600281015460ff8082161515948401859052610100820416151560608401526201000090046001600160a01b031660808301526003015460a0820152906109535760405162461bcd60e51b815260206004820152600f60248201526e109a59081b9bdd081cdd185c9d1959608a1b6044820152606401610572565b805142106109935760405162461bcd60e51b815260206004820152600d60248201526c109a59081a185cc8195b991959609a1b6044820152606401610572565b60085434116109e45760405162461bcd60e51b815260206004820152601c60248201527f76616c7565206973206c657373207468616e20686967686573426964000000006044820152606401610572565b336000908152600d602052604090205415610a3657336000908152600d6020908152604080832054808452600e9092528220600101805491923492610a2a908490611490565b90915550610ae2915050565b610a44600180546001019055565b6000610a4f60015490565b6040805160808101825282815234602080830191825233838501818152606085018a81526000888152600e855287812096518755945160018088019190915591516002870180546001600160a01b0319166001600160a01b03909216919091179055516003909501949094558252600d8152838220859055878252600b8152928120805492830181558152919091200155505b6000828152600c60205260409081902060028101805462010000600160b01b031916336201000081029190911790915534600390920182905591517fe684a55f31b79eca403df938249029212a5925ec6be8012e099b45bc1019e5d292610b4a929091611376565b60405180910390a15050565b6000818152600b6020908152604080832054815180830190925260068252650d8cadccee8d60d31b928201929092526060929190610b94908261117c565b60008167ffffffffffffffff811115610bbd57634e487b7160e01b600052604160045260246000fd5b604051908082528060200260200182016040528015610c2257816020015b610c0f6040518060800160405280600081526020016000815260200160006001600160a01b03168152602001600081525090565b815260200190600190039081610bdb5790505b50905060005b82811015610d40576000868152600b60205260408120805483908110610c5e57634e487b7160e01b600052603260045260246000fd5b906000526020600020015490506000600e600083815260200190815260200160002090508781600301541415610d1e57610cb96040518060400160405280600581526020016422b73a32b960d91b815250826003015461117c565b60408051608081018252825481526001830154602082015260028301546001600160a01b031691810191909152600382015460608201528451859088908110610d1257634e487b7160e01b600052603260045260246000fd5b60200260200101819052505b610d29600187611490565b955050508080610d38906114a8565b915050610c28565b50949350505050565b600b6020528160005260406000208181548110610d6557600080fd5b90600052602060002001600091509150505481565b6000828152600c6020526040902060020154610100900460ff1615610dce5760405162461bcd60e51b815260206004820152600a602482015269139bdd081cd95b99195960b21b6044820152606401610572565b6000828152600c60205260409020544210610e195760405162461bcd60e51b815260206004820152600b60248201526a109a5908195e1c1a5c995960aa1b6044820152606401610572565b610e43604051806040016040528060088152602001671b585c9ad95d125960c21b8152508361117c565b6000828152600c6020908152604091829020600201805461ff0019166101001790558151606081019092526026808352610ea592916114da908301396000848152600c60205260409020600201546201000090046001600160a01b03166111c1565b6000828152600c60205260409020600201546201000090046001600160a01b031615611013576000828152600c602052604090819020600201549051632142170760e11b81526001600160a01b03808716926342842e0e92610f159230926201000090041690889060040161138f565b600060405180830381600087803b158015610f2f57600080fd5b505af1158015610f43573d6000803e3d6000fd5b50506009546000858152600c60205260408082206003015490516001600160a01b03909316945080156108fc0293509190818181858888f19350505050158015610f91573d6000803e3d6000fd5b506000828152600c602052604090819020600201549051637192711f60e01b815260048101849052620100009091046001600160a01b039081166024830152821690637192711f90604401600060405180830381600087803b158015610ff657600080fd5b505af115801561100a573d6000803e3d6000fd5b5050505061107a565b600954604051632142170760e11b81526001600160a01b03808716926342842e0e926110479230921690889060040161138f565b600060405180830381600087803b15801561106157600080fd5b505af1158015611075573d6000803e3d6000fd5b505050505b6009546000838152600c6020526040908190206003015490517f7d7570b046e5ead3a4f3fbc9fa2445113625a1e79823776146316bafed6b8cc5926110ca926001600160a01b0390911691611376565b60405180910390a150505050565b61111d82826040516024016110ee92919061144a565b60408051601f198184030181529190526020810180516001600160e01b031663c3b5563560e01b179052611202565b5050565b604051602481018490526001600160a01b0383166044820152606481018290526111779060840160408051601f198184030181529190526020810180516001600160e01b0316634421a1d560e11b179052611202565b505050565b61111d828260405160240161119292919061146e565b60408051601f198184030181529190526020810180516001600160e01b03166309710a9d60e41b179052611202565b61111d82826040516024016111d7929190611420565b60408051601f198184030181529190526020810180516001600160e01b031663319af33360e01b1790525b80516a636f6e736f6c652e6c6f67602083016000808483855afa5050505050565b80356001600160a01b038116811461123a57600080fd5b919050565b600060208284031215611250578081fd5b61125982611223565b9392505050565b60008060008060808587031215611275578283fd5b61127e85611223565b9350602085013592506040850135915061129a60608601611223565b905092959194509250565b600080600080600060a086880312156112bc578081fd5b6112c586611223565b945060208601359350604086013592506112e160608701611223565b949793965091946080013592915050565b600060208284031215611303578081fd5b5035919050565b6000806040838503121561131c578182fd5b50508035926020909101359150565b60008151808452815b8181101561135057602081850181015186830182015201611334565b818111156113615782602083870101525b50601f01601f19169290920160200192915050565b6001600160a01b03929092168252602082015260400190565b6001600160a01b039384168152919092166020820152604081019190915260600190565b602080825282518282018190526000919060409081850190868401855b82811015611413578151805185528681015187860152858101516001600160a01b03168686015260609081015190850152608090930192908501906001016113d0565b5091979650505050505050565b604081526000611433604083018561132b565b905060018060a01b03831660208301529392505050565b60408152600061145d604083018561132b565b905082151560208301529392505050565b604081526000611481604083018561132b565b90508260208301529392505050565b600082198211156114a3576114a36114c3565b500190565b60006000198214156114bc576114bc6114c3565b5060010190565b634e487b7160e01b600052601160045260246000fdfe6d61726b65744974656d496e666f5b6d61726b657449645d2e68696768657374426964646572a264697066735822122028d23c1924a05e150eab6cd88a316c3914c580de385e25f5028795a76dc4c00664736f6c63430008040033",
  "linkReferences": {},
  "deployedLinkReferences": {}
}