{
  "_format": "hh-sol-artifact-1",
  "contractName": "Auction",
  "sourceName": "contracts/Auction.sol",
  "abi": [
    {
      "anonymous": false,
      "inputs": [
        {
          "indexed": false,
          "internalType": "address",
          "name": "bidder",
          "type": "address"
        },
        {
          "indexed": false,
          "internalType": "uint256",
          "name": "amount",
          "type": "uint256"
        }
      ],
      "name": "Bid",
      "type": "event"
    },
    {
      "anonymous": false,
      "inputs": [
        {
          "indexed": false,
          "internalType": "address",
          "name": "highestbidder",
          "type": "address"
        },
        {
          "indexed": false,
          "internalType": "uint256",
          "name": "",
          "type": "uint256"
        }
      ],
      "name": "End",
      "type": "event"
    },
    {
      "anonymous": false,
      "inputs": [],
      "name": "Started",
      "type": "event"
    },
    {
      "anonymous": false,
      "inputs": [
        {
          "indexed": false,
          "internalType": "address",
          "name": "bidder",
          "type": "address"
        },
        {
          "indexed": false,
          "internalType": "uint256",
          "name": "amount",
          "type": "uint256"
        }
      ],
      "name": "Withdraw",
      "type": "event"
    },
    {
      "inputs": [
        {
          "internalType": "address",
          "name": "",
          "type": "address"
        }
      ],
      "name": "addressAuctionId",
      "outputs": [
        {
          "internalType": "uint256",
          "name": "",
          "type": "uint256"
        }
      ],
      "stateMutability": "view",
      "type": "function"
    },
    {
      "inputs": [],
      "name": "auctionInfo",
      "outputs": [
        {
          "internalType": "uint256",
          "name": "endAt",
          "type": "uint256"
        },
        {
          "internalType": "uint256",
          "name": "startDate",
          "type": "uint256"
        },
        {
          "internalType": "bool",
          "name": "started",
          "type": "bool"
        },
        {
          "internalType": "bool",
          "name": "ended",
          "type": "bool"
        },
        {
          "internalType": "address",
          "name": "highestBidder",
          "type": "address"
        },
        {
          "internalType": "uint256",
          "name": "highestBid",
          "type": "uint256"
        }
      ],
      "stateMutability": "view",
      "type": "function"
    },
    {
      "inputs": [
        {
          "internalType": "uint256",
          "name": "",
          "type": "uint256"
        }
      ],
      "name": "autionItemsId",
      "outputs": [
        {
          "internalType": "uint256",
          "name": "auctionId",
          "type": "uint256"
        },
        {
          "internalType": "uint256",
          "name": "bid",
          "type": "uint256"
        },
        {
          "internalType": "address",
          "name": "bidder",
          "type": "address"
        },
        {
          "internalType": "uint256",
          "name": "marketId",
          "type": "uint256"
        }
      ],
      "stateMutability": "view",
      "type": "function"
    },
    {
      "inputs": [
        {
          "internalType": "uint256",
          "name": "marketId",
          "type": "uint256"
        }
      ],
      "name": "bid",
      "outputs": [],
      "stateMutability": "payable",
      "type": "function"
    },
    {
      "inputs": [
        {
          "internalType": "address",
          "name": "",
          "type": "address"
        }
      ],
      "name": "bids",
      "outputs": [
        {
          "internalType": "uint256",
          "name": "",
          "type": "uint256"
        }
      ],
      "stateMutability": "view",
      "type": "function"
    },
    {
      "inputs": [
        {
          "internalType": "address",
          "name": "_nftContract",
          "type": "address"
        },
        {
          "internalType": "uint256",
          "name": "_tokenId",
          "type": "uint256"
        },
        {
          "internalType": "uint256",
          "name": "marketId",
          "type": "uint256"
        }
      ],
      "name": "end",
      "outputs": [],
      "stateMutability": "nonpayable",
      "type": "function"
    },
    {
      "inputs": [
        {
          "internalType": "uint256",
          "name": "marketId",
          "type": "uint256"
        }
      ],
      "name": "fetchBidder",
      "outputs": [
        {
          "components": [
            {
              "internalType": "uint256",
              "name": "auctionId",
              "type": "uint256"
            },
            {
              "internalType": "uint256",
              "name": "bid",
              "type": "uint256"
            },
            {
              "internalType": "address",
              "name": "bidder",
              "type": "address"
            },
            {
              "internalType": "uint256",
              "name": "marketId",
              "type": "uint256"
            }
          ],
          "internalType": "struct Auction.AuctionItem[]",
          "name": "",
          "type": "tuple[]"
        }
      ],
      "stateMutability": "view",
      "type": "function"
    },
    {
      "inputs": [
        {
          "internalType": "uint256",
          "name": "id",
          "type": "uint256"
        }
      ],
      "name": "getBidInfo",
      "outputs": [
        {
          "components": [
            {
              "internalType": "uint256",
              "name": "endAt",
              "type": "uint256"
            },
            {
              "internalType": "uint256",
              "name": "startDate",
              "type": "uint256"
            },
            {
              "internalType": "bool",
              "name": "started",
              "type": "bool"
            },
            {
              "internalType": "bool",
              "name": "ended",
              "type": "bool"
            },
            {
              "internalType": "address",
              "name": "highestBidder",
              "type": "address"
            },
            {
              "internalType": "uint256",
              "name": "highestBid",
              "type": "uint256"
            }
          ],
          "internalType": "struct Auction.Bidinfo",
          "name": "",
          "type": "tuple"
        }
      ],
      "stateMutability": "view",
      "type": "function"
    },
    {
      "inputs": [
        {
          "internalType": "uint256",
          "name": "",
          "type": "uint256"
        }
      ],
      "name": "marketItemInfo",
      "outputs": [
        {
          "internalType": "uint256",
          "name": "endAt",
          "type": "uint256"
        },
        {
          "internalType": "uint256",
          "name": "startDate",
          "type": "uint256"
        },
        {
          "internalType": "bool",
          "name": "started",
          "type": "bool"
        },
        {
          "internalType": "bool",
          "name": "ended",
          "type": "bool"
        },
        {
          "internalType": "address",
          "name": "highestBidder",
          "type": "address"
        },
        {
          "internalType": "uint256",
          "name": "highestBid",
          "type": "uint256"
        }
      ],
      "stateMutability": "view",
      "type": "function"
    },
    {
      "inputs": [],
      "name": "nft",
      "outputs": [
        {
          "internalType": "contract IERC721",
          "name": "",
          "type": "address"
        }
      ],
      "stateMutability": "view",
      "type": "function"
    },
    {
      "inputs": [],
      "name": "seller",
      "outputs": [
        {
          "internalType": "address payable",
          "name": "",
          "type": "address"
        }
      ],
      "stateMutability": "view",
      "type": "function"
    },
    {
      "inputs": [
        {
          "internalType": "address",
          "name": "_nftContract",
          "type": "address"
        },
        {
          "internalType": "uint256",
          "name": "_tokenId",
          "type": "uint256"
        },
        {
          "internalType": "uint256",
          "name": "_startingBid",
          "type": "uint256"
        },
        {
          "internalType": "address",
          "name": "nftMarket",
          "type": "address"
        },
        {
          "internalType": "uint256",
          "name": "marketId",
          "type": "uint256"
        }
      ],
      "name": "startBid",
      "outputs": [],
      "stateMutability": "nonpayable",
      "type": "function"
    },
    {
      "inputs": [
        {
          "internalType": "uint256",
          "name": "",
          "type": "uint256"
        },
        {
          "internalType": "uint256",
          "name": "",
          "type": "uint256"
        }
      ],
      "name": "trackMarketAuction",
      "outputs": [
        {
          "internalType": "uint256",
          "name": "",
          "type": "uint256"
        }
      ],
      "stateMutability": "view",
      "type": "function"
    },
    {
      "inputs": [],
      "name": "withdraw",
      "outputs": [],
      "stateMutability": "payable",
      "type": "function"
    }
  ],
  "bytecode": "0x608060405234801561001057600080fd5b506001600055611392806100256000396000f3fe6080604052600436106100bd5760003560e01c806355d64d031161006f57806355d64d031461028d57806362ea82db1461030b57806363d6a2b21461034657806383a9b432146103735780639649c277146103a0578063bf37ea1514610402578063ce735ea51461047f57600080fd5b806308551a53146100c25780631db2e520146100ff5780632201db31146101215780632fdce7a3146102325780633ccfd60b14610252578063454a2ab31461025a57806347ccca021461026d575b600080fd5b3480156100ce57600080fd5b506009546100e2906001600160a01b031681565b6040516001600160a01b0390911681526020015b60405180910390f35b34801561010b57600080fd5b5061011f61011a366004611120565b61049f565b005b34801561012d57600080fd5b506101de61013c36600461119f565b6040805160c081018252600080825260208201819052918101829052606081018290526080810182905260a0810191909152506000908152600c6020908152604091829020825160c08101845281548152600182015492810192909252600281015460ff808216151594840194909452610100810490931615156060830152620100009092046001600160a01b0316608082015260039091015460a082015290565b6040516100f6919081518152602080830151908201526040808301511515908201526060808301511515908201526080808301516001600160a01b03169082015260a0918201519181019190915260c00190565b34801561023e57600080fd5b5061011f61024d366004611152565b610707565b61011f6109e6565b61011f61026836600461119f565b610b11565b34801561027957600080fd5b506006546100e2906001600160a01b031681565b34801561029957600080fd5b506002546003546004546005546102ce93929160ff808216926101008304909116916201000090046001600160a01b03169086565b60408051968752602087019590955292151593850193909352151560608401526001600160a01b03909116608083015260a082015260c0016100f6565b34801561031757600080fd5b506103386103263660046110ff565b600a6020526000908152604090205481565b6040519081526020016100f6565b34801561035257600080fd5b506103386103613660046110ff565b600d6020526000908152604090205481565b34801561037f57600080fd5b5061039361038e36600461119f565b610db9565b6040516100f69190611260565b3480156103ac57600080fd5b506102ce6103bb36600461119f565b600c6020526000908152604090208054600182015460028301546003909301549192909160ff80831692610100810490911691620100009091046001600160a01b03169086565b34801561040e57600080fd5b5061045061041d36600461119f565b600e602052600090815260409020805460018201546002830154600390930154919290916001600160a01b039091169084565b6040516100f6949392919093845260208401929092526001600160a01b03166040830152606082015260800190565b34801561048b57600080fd5b5061033861049a3660046111b7565b610fac565b6000818152600c6020526040902060020154610100900460ff16156104f85760405162461bcd60e51b815260206004820152600a602482015269139bdd081cd95b99195960b21b60448201526064015b60405180910390fd5b6000818152600c602052604090205442106105435760405162461bcd60e51b815260206004820152600b60248201526a109a5908195e1c1a5c995960aa1b60448201526064016104ef565b6000818152600c60205260409020600201805461ff00191661010017908190556201000090046001600160a01b031615610643576000818152600c602052604090819020600201549051632142170760e11b81526001600160a01b03808616926342842e0e926105c19230926201000090041690879060040161123c565b600060405180830381600087803b1580156105db57600080fd5b505af11580156105ef573d6000803e3d6000fd5b50506009546000848152600c60205260408082206003015490516001600160a01b03909316945080156108fc0293509190818181858888f1935050505015801561063d573d6000803e3d6000fd5b506106aa565b600954604051632142170760e11b81526001600160a01b03808616926342842e0e926106779230921690879060040161123c565b600060405180830381600087803b15801561069157600080fd5b505af11580156106a5573d6000803e3d6000fd5b505050505b6009546000828152600c6020526040908190206003015490517f7d7570b046e5ead3a4f3fbc9fa2445113625a1e79823776146316bafed6b8cc5926106fa926001600160a01b0390911691611223565b60405180910390a1505050565b6000818152600c60208181526040808420815160c08101835281548152600182015481850152600282015460ff80821680151584870152610100830490911615156060840152620100009091046001600160a01b0316608083015260039092015460a082015282518084019093526004835263696e666f60e01b83850152948690529290915261079691610fdd565b8060400151156107de5760405162461bcd60e51b8152602060048201526013602482015272109a5908185b1c9958591e481cdd185c9d1959606a1b60448201526064016104ef565b600980546001600160a01b031916331790556107fe600180546001019055565b600061080960015490565b9050610816813385611026565b60408051608081018252828152602080820188815233838501908152606084018881526000878152600e909452928590209351845590516001840155516002830180546001600160a01b0319166001600160a01b039283161790559051600390920191909155600887905590516323b872dd60e01b8152908816906323b872dd906108a990879030908b9060040161123c565b600060405180830381600087803b1580156108c357600080fd5b505af11580156108d7573d6000803e3d6000fd5b505050506040518060c00160405280426107086108f49190611313565b81524260208083019190915260016040808401829052600060608086018290523360808088019190915260a09687018d90528a8352600c865283832088518155888701518187015588850151600282018054948b0151938b01516001600160a01b0316620100000262010000600160b01b03199415156101000261ff00199315159390931661ffff199096169590951791909117929092169290921790559590940151600390950194909455600b82528383208054918201815583529082200183905590517fd8cea0ecd56872ff072e771658b5682ffe4de16d752947f79597d600ea56f7a99190a150505050505050565b60026000541415610a395760405162461bcd60e51b815260206004820152601f60248201527f5265656e7472616e637947756172643a207265656e7472616e742063616c6c0060448201526064016104ef565b60026000818155338152600d6020908152604080832054808452600e9092528083206001810180549085905594015490519193926001600160a01b03909116916108fc84150291849190818181858888f19350505050158015610aa0573d6000803e3d6000fd5b50604051339082156108fc029083906000818181858888f19350505050158015610ace573d6000803e3d6000fd5b507f884edad9ce6fa2440d8a54cc123490eb96d2768479d49ff9c7366125a94243643382604051610b00929190611223565b60405180910390a150506001600055565b6000818152600c6020908152604091829020825160c08101845281548152600182015492810192909252600281015460ff8082161515948401859052610100820416151560608401526201000090046001600160a01b031660808301526003015460a082015290610bb65760405162461bcd60e51b815260206004820152600f60248201526e109a59081b9bdd081cdd185c9d1959608a1b60448201526064016104ef565b80514210610bf65760405162461bcd60e51b815260206004820152600d60248201526c109a59081a185cc8195b991959609a1b60448201526064016104ef565b6008543411610c475760405162461bcd60e51b815260206004820152601c60248201527f76616c7565206973206c657373207468616e206869676865734269640000000060448201526064016104ef565b336000908152600d602052604090205415610c9957336000908152600d6020908152604080832054808452600e9092528220600101805491923492610c8d908490611313565b90915550610d45915050565b610ca7600180546001019055565b6000610cb260015490565b6040805160808101825282815234602080830191825233838501818152606085018a81526000888152600e855287812096518755945160018088019190915591516002870180546001600160a01b0319166001600160a01b03909216919091179055516003909501949094558252600d8152838220859055878252600b8152928120805492830181558152919091200155505b6000828152600c60205260409081902060028101805462010000600160b01b031916336201000081029190911790915534600390920182905591517fe684a55f31b79eca403df938249029212a5925ec6be8012e099b45bc1019e5d292610dad929091611223565b60405180910390a15050565b6000818152600b6020908152604080832054815180830190925260068252650d8cadccee8d60d31b928201929092526060929190610df79082611081565b60008167ffffffffffffffff811115610e2057634e487b7160e01b600052604160045260246000fd5b604051908082528060200260200182016040528015610e8557816020015b610e726040518060800160405280600081526020016000815260200160006001600160a01b03168152602001600081525090565b815260200190600190039081610e3e5790505b50905060005b82811015610fa3576000868152600b60205260408120805483908110610ec157634e487b7160e01b600052603260045260246000fd5b906000526020600020015490506000600e600083815260200190815260200160002090508781600301541415610f8157610f1c6040518060400160405280600581526020016422b73a32b960d91b8152508260030154611081565b60408051608081018252825481526001830154602082015260028301546001600160a01b031691810191909152600382015460608201528451859088908110610f7557634e487b7160e01b600052603260045260246000fd5b60200260200101819052505b610f8c600187611313565b955050508080610f9b9061132b565b915050610e8b565b50949350505050565b600b6020528160005260406000208181548110610fc857600080fd5b90600052602060002001600091509150505481565b6110228282604051602401610ff39291906112cd565b60408051601f198184030181529190526020810180516001600160e01b031663c3b5563560e01b1790526110c2565b5050565b604051602481018490526001600160a01b03831660448201526064810182905261107c9060840160408051601f198184030181529190526020810180516001600160e01b0316634421a1d560e11b1790526110c2565b505050565b61102282826040516024016110979291906112f1565b60408051601f198184030181529190526020810180516001600160e01b03166309710a9d60e41b1790525b80516a636f6e736f6c652e6c6f67602083016000808483855afa5050505050565b80356001600160a01b03811681146110fa57600080fd5b919050565b600060208284031215611110578081fd5b611119826110e3565b9392505050565b600080600060608486031215611134578182fd5b61113d846110e3565b95602085013595506040909401359392505050565b600080600080600060a08688031215611169578081fd5b611172866110e3565b9450602086013593506040860135925061118e606087016110e3565b949793965091946080013592915050565b6000602082840312156111b0578081fd5b5035919050565b600080604083850312156111c9578182fd5b50508035926020909101359150565b60008151808452815b818110156111fd576020818501810151868301820152016111e1565b8181111561120e5782602083870101525b50601f01601f19169290920160200192915050565b6001600160a01b03929092168252602082015260400190565b6001600160a01b039384168152919092166020820152604081019190915260600190565b602080825282518282018190526000919060409081850190868401855b828110156112c0578151805185528681015187860152858101516001600160a01b031686860152606090810151908501526080909301929085019060010161127d565b5091979650505050505050565b6040815260006112e060408301856111d8565b905082151560208301529392505050565b60408152600061130460408301856111d8565b90508260208301529392505050565b6000821982111561132657611326611346565b500190565b600060001982141561133f5761133f611346565b5060010190565b634e487b7160e01b600052601160045260246000fdfea26469706673582212207ad81484a9274e874b0aa435a202266ecef3ac41f7430bfdf5debdab11edd6f964736f6c63430008040033",
  "linkReferences": {},
  "deployedLinkReferences": {}
}