{
  "_format": "hh-sol-artifact-1",
  "contractName": "Auction",
  "sourceName": "contracts/Auction.sol",
  "abi": [
    {
      "anonymous": false,
      "inputs": [
        {
          "indexed": false,
          "internalType": "address",
          "name": "bidder",
          "type": "address"
        },
        {
          "indexed": false,
          "internalType": "uint256",
          "name": "amount",
          "type": "uint256"
        }
      ],
      "name": "Bid",
      "type": "event"
    },
    {
      "anonymous": false,
      "inputs": [
        {
          "indexed": false,
          "internalType": "address",
          "name": "highestbidder",
          "type": "address"
        },
        {
          "indexed": false,
          "internalType": "uint256",
          "name": "",
          "type": "uint256"
        }
      ],
      "name": "End",
      "type": "event"
    },
    {
      "anonymous": false,
      "inputs": [],
      "name": "Started",
      "type": "event"
    },
    {
      "anonymous": false,
      "inputs": [
        {
          "indexed": false,
          "internalType": "address",
          "name": "bidder",
          "type": "address"
        },
        {
          "indexed": false,
          "internalType": "uint256",
          "name": "amount",
          "type": "uint256"
        }
      ],
      "name": "Withdraw",
      "type": "event"
    },
    {
      "inputs": [
        {
          "internalType": "address",
          "name": "",
          "type": "address"
        }
      ],
      "name": "addressAuctionId",
      "outputs": [
        {
          "internalType": "uint256",
          "name": "",
          "type": "uint256"
        }
      ],
      "stateMutability": "view",
      "type": "function"
    },
    {
      "inputs": [],
      "name": "auctionInfo",
      "outputs": [
        {
          "internalType": "uint256",
          "name": "endAt",
          "type": "uint256"
        },
        {
          "internalType": "uint256",
          "name": "startDate",
          "type": "uint256"
        },
        {
          "internalType": "bool",
          "name": "started",
          "type": "bool"
        },
        {
          "internalType": "bool",
          "name": "ended",
          "type": "bool"
        },
        {
          "internalType": "address",
          "name": "highestBidder",
          "type": "address"
        },
        {
          "internalType": "uint256",
          "name": "highestBid",
          "type": "uint256"
        }
      ],
      "stateMutability": "view",
      "type": "function"
    },
    {
      "inputs": [
        {
          "internalType": "uint256",
          "name": "",
          "type": "uint256"
        }
      ],
      "name": "autionItemsId",
      "outputs": [
        {
          "internalType": "uint256",
          "name": "auctionId",
          "type": "uint256"
        },
        {
          "internalType": "uint256",
          "name": "bid",
          "type": "uint256"
        },
        {
          "internalType": "address",
          "name": "bidder",
          "type": "address"
        },
        {
          "internalType": "uint256",
          "name": "marketId",
          "type": "uint256"
        }
      ],
      "stateMutability": "view",
      "type": "function"
    },
    {
      "inputs": [
        {
          "internalType": "uint256",
          "name": "marketId",
          "type": "uint256"
        }
      ],
      "name": "bid",
      "outputs": [],
      "stateMutability": "payable",
      "type": "function"
    },
    {
      "inputs": [
        {
          "internalType": "address",
          "name": "",
          "type": "address"
        }
      ],
      "name": "bids",
      "outputs": [
        {
          "internalType": "uint256",
          "name": "",
          "type": "uint256"
        }
      ],
      "stateMutability": "view",
      "type": "function"
    },
    {
      "inputs": [
        {
          "internalType": "address",
          "name": "_nftContract",
          "type": "address"
        },
        {
          "internalType": "uint256",
          "name": "_tokenId",
          "type": "uint256"
        },
        {
          "internalType": "uint256",
          "name": "marketId",
          "type": "uint256"
        }
      ],
      "name": "end",
      "outputs": [],
      "stateMutability": "nonpayable",
      "type": "function"
    },
    {
      "inputs": [
        {
          "internalType": "uint256",
          "name": "marketId",
          "type": "uint256"
        }
      ],
      "name": "fetchBidder",
      "outputs": [
        {
          "components": [
            {
              "internalType": "uint256",
              "name": "auctionId",
              "type": "uint256"
            },
            {
              "internalType": "uint256",
              "name": "bid",
              "type": "uint256"
            },
            {
              "internalType": "address",
              "name": "bidder",
              "type": "address"
            },
            {
              "internalType": "uint256",
              "name": "marketId",
              "type": "uint256"
            }
          ],
          "internalType": "struct Auction.AuctionItem[]",
          "name": "",
          "type": "tuple[]"
        }
      ],
      "stateMutability": "view",
      "type": "function"
    },
    {
      "inputs": [
        {
          "internalType": "uint256",
          "name": "id",
          "type": "uint256"
        }
      ],
      "name": "getBidInfo",
      "outputs": [
        {
          "components": [
            {
              "internalType": "uint256",
              "name": "endAt",
              "type": "uint256"
            },
            {
              "internalType": "uint256",
              "name": "startDate",
              "type": "uint256"
            },
            {
              "internalType": "bool",
              "name": "started",
              "type": "bool"
            },
            {
              "internalType": "bool",
              "name": "ended",
              "type": "bool"
            },
            {
              "internalType": "address",
              "name": "highestBidder",
              "type": "address"
            },
            {
              "internalType": "uint256",
              "name": "highestBid",
              "type": "uint256"
            }
          ],
          "internalType": "struct Auction.Bidinfo",
          "name": "",
          "type": "tuple"
        }
      ],
      "stateMutability": "view",
      "type": "function"
    },
    {
      "inputs": [
        {
          "internalType": "uint256",
          "name": "",
          "type": "uint256"
        }
      ],
      "name": "marketItemInfo",
      "outputs": [
        {
          "internalType": "uint256",
          "name": "endAt",
          "type": "uint256"
        },
        {
          "internalType": "uint256",
          "name": "startDate",
          "type": "uint256"
        },
        {
          "internalType": "bool",
          "name": "started",
          "type": "bool"
        },
        {
          "internalType": "bool",
          "name": "ended",
          "type": "bool"
        },
        {
          "internalType": "address",
          "name": "highestBidder",
          "type": "address"
        },
        {
          "internalType": "uint256",
          "name": "highestBid",
          "type": "uint256"
        }
      ],
      "stateMutability": "view",
      "type": "function"
    },
    {
      "inputs": [],
      "name": "nft",
      "outputs": [
        {
          "internalType": "contract IERC721",
          "name": "",
          "type": "address"
        }
      ],
      "stateMutability": "view",
      "type": "function"
    },
    {
      "inputs": [],
      "name": "seller",
      "outputs": [
        {
          "internalType": "address payable",
          "name": "",
          "type": "address"
        }
      ],
      "stateMutability": "view",
      "type": "function"
    },
    {
      "inputs": [
        {
          "internalType": "address",
          "name": "_nftContract",
          "type": "address"
        },
        {
          "internalType": "uint256",
          "name": "_tokenId",
          "type": "uint256"
        },
        {
          "internalType": "uint256",
          "name": "_startingBid",
          "type": "uint256"
        },
        {
          "internalType": "address",
          "name": "nftMarket",
          "type": "address"
        },
        {
          "internalType": "uint256",
          "name": "marketId",
          "type": "uint256"
        }
      ],
      "name": "startBid",
      "outputs": [],
      "stateMutability": "nonpayable",
      "type": "function"
    },
    {
      "inputs": [],
      "name": "withdraw",
      "outputs": [],
      "stateMutability": "payable",
      "type": "function"
    }
  ],
  "bytecode": "0x608060405234801561001057600080fd5b506001600081905550612141806100286000396000f3fe6080604052600436106100c25760003560e01c806347ccca021161007f57806363d6a2b21161005957806363d6a2b21461023f57806383a9b4321461027c5780639649c277146102b9578063bf37ea15146102fb576100c2565b806347ccca02146101a757806355d64d03146101d257806362ea82db14610202576100c2565b806308551a53146100c75780631db2e520146100f25780632201db311461011b5780632fdce7a3146101585780633ccfd60b14610181578063454a2ab31461018b575b600080fd5b3480156100d357600080fd5b506100dc61033b565b6040516100e99190611a91565b60405180910390f35b3480156100fe57600080fd5b50610119600480360381019061011491906116a7565b610361565b005b34801561012757600080fd5b50610142600480360381019061013d919061176d565b610697565b60405161014f9190611cc7565b60405180910390f35b34801561016457600080fd5b5061017f600480360381019061017a91906116f6565b61076e565b005b610189610bce565b005b6101a560048036038101906101a0919061176d565b610da0565b005b3480156101b357600080fd5b506101bc611101565b6040516101c99190611b8e565b60405180910390f35b3480156101de57600080fd5b506101e7611127565b6040516101f996959493929190611d42565b60405180910390f35b34801561020e57600080fd5b506102296004803603810190610224919061167e565b61118b565b6040516102369190611ce2565b60405180910390f35b34801561024b57600080fd5b506102666004803603810190610261919061167e565b6111a3565b6040516102739190611ce2565b60405180910390f35b34801561028857600080fd5b506102a3600480360381019061029e919061176d565b6111bb565b6040516102b09190611b6c565b60405180910390f35b3480156102c557600080fd5b506102e060048036038101906102db919061176d565b611378565b6040516102f296959493929190611d42565b60405180910390f35b34801561030757600080fd5b50610322600480360381019061031d919061176d565b6113ee565b6040516103329493929190611cfd565b60405180910390f35b600960009054906101000a900473ffffffffffffffffffffffffffffffffffffffff1681565b600b600082815260200190815260200160002060020160019054906101000a900460ff16156103c5576040517f08c379a00000000000000000000000000000000000000000000000000000000081526004016103bc90611be7565b60405180910390fd5b600b600082815260200190815260200160002060000154421061041d576040517f08c379a000000000000000000000000000000000000000000000000000000000815260040161041490611c27565b60405180910390fd5b6001600b600083815260200190815260200160002060020160016101000a81548160ff021916908315150217905550600073ffffffffffffffffffffffffffffffffffffffff16600760009054906101000a900473ffffffffffffffffffffffffffffffffffffffff1673ffffffffffffffffffffffffffffffffffffffff16146105a3578273ffffffffffffffffffffffffffffffffffffffff166342842e0e30600760009054906101000a900473ffffffffffffffffffffffffffffffffffffffff16856040518463ffffffff1660e01b815260040161050193929190611b0c565b600060405180830381600087803b15801561051b57600080fd5b505af115801561052f573d6000803e3d6000fd5b50505050600960009054906101000a900473ffffffffffffffffffffffffffffffffffffffff1673ffffffffffffffffffffffffffffffffffffffff166108fc6008549081150290604051600060405180830381858888f1935050505015801561059d573d6000803e3d6000fd5b50610635565b8273ffffffffffffffffffffffffffffffffffffffff166342842e0e30600960009054906101000a900473ffffffffffffffffffffffffffffffffffffffff16856040518463ffffffff1660e01b815260040161060293929190611ad5565b600060405180830381600087803b15801561061c57600080fd5b505af1158015610630573d6000803e3d6000fd5b505050505b7f7d7570b046e5ead3a4f3fbc9fa2445113625a1e79823776146316bafed6b8cc5600960009054906101000a900473ffffffffffffffffffffffffffffffffffffffff1660085460405161068a929190611aac565b60405180910390a1505050565b61069f6115c6565b600b60008381526020019081526020016000206040518060c001604052908160008201548152602001600182015481526020016002820160009054906101000a900460ff161515151581526020016002820160019054906101000a900460ff161515151581526020016002820160029054906101000a900473ffffffffffffffffffffffffffffffffffffffff1673ffffffffffffffffffffffffffffffffffffffff1673ffffffffffffffffffffffffffffffffffffffff1681526020016003820154815250509050919050565b6107d06040518060400160405280600681526020017f73656c6c6572000000000000000000000000000000000000000000000000000081525033600960009054906101000a900473ffffffffffffffffffffffffffffffffffffffff1661143e565b6002800160009054906101000a900460ff1615610822576040517f08c379a000000000000000000000000000000000000000000000000000000000815260040161081990611c87565b60405180910390fd5b33600960006101000a81548173ffffffffffffffffffffffffffffffffffffffff021916908373ffffffffffffffffffffffffffffffffffffffff16021790555061086d60016114dd565b600061087960016114f3565b905060405180608001604052808281526020018581526020013373ffffffffffffffffffffffffffffffffffffffff16815260200183815250600d6000838152602001908152602001600020600082015181600001556020820151816001015560408201518160020160006101000a81548173ffffffffffffffffffffffffffffffffffffffff021916908373ffffffffffffffffffffffffffffffffffffffff16021790555060608201518160030155905050836008819055508573ffffffffffffffffffffffffffffffffffffffff166323b872dd8430886040518463ffffffff1660e01b815260040161097193929190611b0c565b600060405180830381600087803b15801561098b57600080fd5b505af115801561099f573d6000803e3d6000fd5b505050506040518060c00160405280610708426109bc9190611df8565b81526020014281526020016001151581526020016000151581526020013373ffffffffffffffffffffffffffffffffffffffff168152602001858152506002600082015181600001556020820151816001015560408201518160020160006101000a81548160ff02191690831515021790555060608201518160020160016101000a81548160ff02191690831515021790555060808201518160020160026101000a81548173ffffffffffffffffffffffffffffffffffffffff021916908373ffffffffffffffffffffffffffffffffffffffff16021790555060a082015181600301559050506002600b600084815260200190815260200160002060008201548160000155600182015481600101556002820160009054906101000a900460ff168160020160006101000a81548160ff0219169083151502179055506002820160019054906101000a900460ff168160020160016101000a81548160ff0219169083151502179055506002820160029054906101000a900473ffffffffffffffffffffffffffffffffffffffff168160020160026101000a81548173ffffffffffffffffffffffffffffffffffffffff021916908373ffffffffffffffffffffffffffffffffffffffff160217905550600382015481600301559050507fd8cea0ecd56872ff072e771658b5682ffe4de16d752947f79597d600ea56f7a960405160405180910390a1505050505050565b60026000541415610c14576040517f08c379a0000000000000000000000000000000000000000000000000000000008152600401610c0b90611ca7565b60405180910390fd5b60026000819055506000600c60003373ffffffffffffffffffffffffffffffffffffffff1673ffffffffffffffffffffffffffffffffffffffff1681526020019081526020016000205490506000600d60008381526020019081526020016000206001015490506000600d600084815260200190815260200160002060010181905550600d600083815260200190815260200160002060020160009054906101000a900473ffffffffffffffffffffffffffffffffffffffff1673ffffffffffffffffffffffffffffffffffffffff166108fc829081150290604051600060405180830381858888f19350505050158015610d13573d6000803e3d6000fd5b503373ffffffffffffffffffffffffffffffffffffffff166108fc829081150290604051600060405180830381858888f19350505050158015610d5a573d6000803e3d6000fd5b507f884edad9ce6fa2440d8a54cc123490eb96d2768479d49ff9c7366125a94243643382604051610d8c929190611b43565b60405180910390a150506001600081905550565b610daa3334611501565b6002800160009054906101000a900460ff16610dfb576040517f08c379a0000000000000000000000000000000000000000000000000000000008152600401610df290611c07565b60405180910390fd5b6002600001544210610e42576040517f08c379a0000000000000000000000000000000000000000000000000000000008152600401610e3990611c67565b60405180910390fd5b6008543411610e86576040517f08c379a0000000000000000000000000000000000000000000000000000000008152600401610e7d90611c47565b60405180910390fd5b6000600c60003373ffffffffffffffffffffffffffffffffffffffff1673ffffffffffffffffffffffffffffffffffffffff168152602001908152602001600020541115610f45576000600c60003373ffffffffffffffffffffffffffffffffffffffff1673ffffffffffffffffffffffffffffffffffffffff16815260200190815260200160002054905034600d60008381526020019081526020016000206001016000828254610f389190611df8565b9250508190555050611055565b610f4f60016114dd565b6000610f5b60016114f3565b905060405180608001604052808281526020013481526020013373ffffffffffffffffffffffffffffffffffffffff16815260200183815250600d6000838152602001908152602001600020600082015181600001556020820151816001015560408201518160020160006101000a81548173ffffffffffffffffffffffffffffffffffffffff021916908373ffffffffffffffffffffffffffffffffffffffff1602179055506060820151816003015590505080600c60003373ffffffffffffffffffffffffffffffffffffffff1673ffffffffffffffffffffffffffffffffffffffff16815260200190815260200160002081905550505b33600b600083815260200190815260200160002060020160026101000a81548173ffffffffffffffffffffffffffffffffffffffff021916908373ffffffffffffffffffffffffffffffffffffffff16021790555034600b6000838152602001908152602001600020600301819055507fe684a55f31b79eca403df938249029212a5925ec6be8012e099b45bc1019e5d233346040516110f6929190611b43565b60405180910390a150565b600660009054906101000a900473ffffffffffffffffffffffffffffffffffffffff1681565b60028060000154908060010154908060020160009054906101000a900460ff16908060020160019054906101000a900460ff16908060020160029054906101000a900473ffffffffffffffffffffffffffffffffffffffff16908060030154905086565b600a6020528060005260406000206000915090505481565b600c6020528060005260406000206000915090505481565b606060006111c960016114f3565b90506000808267ffffffffffffffff81111561120e577f4e487b7100000000000000000000000000000000000000000000000000000000600052604160045260246000fd5b60405190808252806020026020018201604052801561124757816020015b611234611616565b81526020019060019003908161122c5790505b50905060005b8381101561136c576000600d60006001846112689190611df8565b815260200190815260200160002090508681600301541415611349578060405180608001604052908160008201548152602001600182015481526020016002820160009054906101000a900473ffffffffffffffffffffffffffffffffffffffff1673ffffffffffffffffffffffffffffffffffffffff1673ffffffffffffffffffffffffffffffffffffffff16815260200160038201548152505083858151811061133d577f4e487b7100000000000000000000000000000000000000000000000000000000600052603260045260246000fd5b60200260200101819052505b6001846113569190611df8565b935050808061136490611f35565b91505061124d565b50809350505050919050565b600b6020528060005260406000206000915090508060000154908060010154908060020160009054906101000a900460ff16908060020160019054906101000a900460ff16908060020160029054906101000a900473ffffffffffffffffffffffffffffffffffffffff16908060030154905086565b600d6020528060005260406000206000915090508060000154908060010154908060020160009054906101000a900473ffffffffffffffffffffffffffffffffffffffff16908060030154905084565b6114d883838360405160240161145693929190611ba9565b6040516020818303038152906040527ffcec75e0000000000000000000000000000000000000000000000000000000007bffffffffffffffffffffffffffffffffffffffffffffffffffffffff19166020820180517bffffffffffffffffffffffffffffffffffffffffffffffffffffffff838183161783525050505061159d565b505050565b6001816000016000828254019250508190555050565b600081600001549050919050565b6115998282604051602401611517929190611b43565b6040516020818303038152906040527f2243cfa3000000000000000000000000000000000000000000000000000000007bffffffffffffffffffffffffffffffffffffffffffffffffffffffff19166020820180517bffffffffffffffffffffffffffffffffffffffffffffffffffffffff838183161783525050505061159d565b5050565b60008151905060006a636f6e736f6c652e6c6f679050602083016000808483855afa5050505050565b6040518060c001604052806000815260200160008152602001600015158152602001600015158152602001600073ffffffffffffffffffffffffffffffffffffffff168152602001600081525090565b60405180608001604052806000815260200160008152602001600073ffffffffffffffffffffffffffffffffffffffff168152602001600081525090565b600081359050611663816120dd565b92915050565b600081359050611678816120f4565b92915050565b60006020828403121561169057600080fd5b600061169e84828501611654565b91505092915050565b6000806000606084860312156116bc57600080fd5b60006116ca86828701611654565b93505060206116db86828701611669565b92505060406116ec86828701611669565b9150509250925092565b600080600080600060a0868803121561170e57600080fd5b600061171c88828901611654565b955050602061172d88828901611669565b945050604061173e88828901611669565b935050606061174f88828901611654565b925050608061176088828901611669565b9150509295509295909350565b60006020828403121561177f57600080fd5b600061178d84828501611669565b91505092915050565b60006117a283836119a3565b60808301905092915050565b6117b781611ea8565b82525050565b6117c681611e60565b82525050565b6117d581611e4e565b82525050565b6117e481611e4e565b82525050565b60006117f582611db3565b6117ff8185611dd6565b935061180a83611da3565b8060005b8381101561183b5781516118228882611796565b975061182d83611dc9565b92505060018101905061180e565b5085935050505092915050565b61185181611e72565b82525050565b61186081611e72565b82525050565b61186f81611eba565b82525050565b600061188082611dbe565b61188a8185611de7565b935061189a818560208601611f02565b6118a381611fad565b840191505092915050565b60006118bb600a83611de7565b91506118c682611fbe565b602082019050919050565b60006118de600f83611de7565b91506118e982611fe7565b602082019050919050565b6000611901600b83611de7565b915061190c82612010565b602082019050919050565b6000611924601c83611de7565b915061192f82612039565b602082019050919050565b6000611947600d83611de7565b915061195282612062565b602082019050919050565b600061196a601383611de7565b91506119758261208b565b602082019050919050565b600061198d601f83611de7565b9150611998826120b4565b602082019050919050565b6080820160008201516119b96000850182611a73565b5060208201516119cc6020850182611a73565b5060408201516119df60408501826117cc565b5060608201516119f26060850182611a73565b50505050565b60c082016000820151611a0e6000850182611a73565b506020820151611a216020850182611a73565b506040820151611a346040850182611848565b506060820151611a476060850182611848565b506080820151611a5a60808501826117cc565b5060a0820151611a6d60a0850182611a73565b50505050565b611a7c81611e9e565b82525050565b611a8b81611e9e565b82525050565b6000602082019050611aa660008301846117bd565b92915050565b6000604082019050611ac160008301856117ae565b611ace6020830184611a82565b9392505050565b6000606082019050611aea60008301866117db565b611af760208301856117ae565b611b046040830184611a82565b949350505050565b6000606082019050611b2160008301866117db565b611b2e60208301856117db565b611b3b6040830184611a82565b949350505050565b6000604082019050611b5860008301856117db565b611b656020830184611a82565b9392505050565b60006020820190508181036000830152611b8681846117ea565b905092915050565b6000602082019050611ba36000830184611866565b92915050565b60006060820190508181036000830152611bc38186611875565b9050611bd260208301856117db565b611bdf60408301846117db565b949350505050565b60006020820190508181036000830152611c00816118ae565b9050919050565b60006020820190508181036000830152611c20816118d1565b9050919050565b60006020820190508181036000830152611c40816118f4565b9050919050565b60006020820190508181036000830152611c6081611917565b9050919050565b60006020820190508181036000830152611c808161193a565b9050919050565b60006020820190508181036000830152611ca08161195d565b9050919050565b60006020820190508181036000830152611cc081611980565b9050919050565b600060c082019050611cdc60008301846119f8565b92915050565b6000602082019050611cf76000830184611a82565b92915050565b6000608082019050611d126000830187611a82565b611d1f6020830186611a82565b611d2c60408301856117db565b611d396060830184611a82565b95945050505050565b600060c082019050611d576000830189611a82565b611d646020830188611a82565b611d716040830187611857565b611d7e6060830186611857565b611d8b60808301856117db565b611d9860a0830184611a82565b979650505050505050565b6000819050602082019050919050565b600081519050919050565b600081519050919050565b6000602082019050919050565b600082825260208201905092915050565b600082825260208201905092915050565b6000611e0382611e9e565b9150611e0e83611e9e565b9250827fffffffffffffffffffffffffffffffffffffffffffffffffffffffffffffffff03821115611e4357611e42611f7e565b5b828201905092915050565b6000611e5982611e7e565b9050919050565b6000611e6b82611e7e565b9050919050565b60008115159050919050565b600073ffffffffffffffffffffffffffffffffffffffff82169050919050565b6000819050919050565b6000611eb382611ede565b9050919050565b6000611ec582611ecc565b9050919050565b6000611ed782611e7e565b9050919050565b6000611ee982611ef0565b9050919050565b6000611efb82611e7e565b9050919050565b60005b83811015611f20578082015181840152602081019050611f05565b83811115611f2f576000848401525b50505050565b6000611f4082611e9e565b91507fffffffffffffffffffffffffffffffffffffffffffffffffffffffffffffffff821415611f7357611f72611f7e565b5b600182019050919050565b7f4e487b7100000000000000000000000000000000000000000000000000000000600052601160045260246000fd5b6000601f19601f8301169050919050565b7f4e6f742073656e64656400000000000000000000000000000000000000000000600082015250565b7f426964206e6f7420737461727465640000000000000000000000000000000000600082015250565b7f4269642065787069726564000000000000000000000000000000000000000000600082015250565b7f76616c7565206973206c657373207468616e2068696768657342696400000000600082015250565b7f4269642068617320656e64656400000000000000000000000000000000000000600082015250565b7f42696420616c7265616479207374617274656400000000000000000000000000600082015250565b7f5265656e7472616e637947756172643a207265656e7472616e742063616c6c00600082015250565b6120e681611e4e565b81146120f157600080fd5b50565b6120fd81611e9e565b811461210857600080fd5b5056fea26469706673582212205710898370e3533306aaac8aec6d37618af1ecbe17455693c1a2bf83c92d023f64736f6c63430008040033",
  "linkReferences": {},
  "deployedLinkReferences": {}
}