{
  "_format": "hh-sol-artifact-1",
  "contractName": "Auction",
  "sourceName": "contracts/Auction.sol",
  "abi": [
    {
      "anonymous": false,
      "inputs": [
        {
          "indexed": false,
          "internalType": "address",
          "name": "bidder",
          "type": "address"
        },
        {
          "indexed": false,
          "internalType": "uint256",
          "name": "amount",
          "type": "uint256"
        }
      ],
      "name": "Bid",
      "type": "event"
    },
    {
      "anonymous": false,
      "inputs": [
        {
          "indexed": false,
          "internalType": "address",
          "name": "highestbidder",
          "type": "address"
        },
        {
          "indexed": false,
          "internalType": "uint256",
          "name": "",
          "type": "uint256"
        }
      ],
      "name": "End",
      "type": "event"
    },
    {
      "anonymous": false,
      "inputs": [],
      "name": "Started",
      "type": "event"
    },
    {
      "anonymous": false,
      "inputs": [
        {
          "indexed": false,
          "internalType": "address",
          "name": "bidder",
          "type": "address"
        },
        {
          "indexed": false,
          "internalType": "uint256",
          "name": "amount",
          "type": "uint256"
        }
      ],
      "name": "Withdraw",
      "type": "event"
    },
    {
      "inputs": [
        {
          "internalType": "address",
          "name": "",
          "type": "address"
        }
      ],
      "name": "addressAuctionId",
      "outputs": [
        {
          "internalType": "uint256",
          "name": "",
          "type": "uint256"
        }
      ],
      "stateMutability": "view",
      "type": "function"
    },
    {
      "inputs": [],
      "name": "auctionInfo",
      "outputs": [
        {
          "internalType": "uint256",
          "name": "endAt",
          "type": "uint256"
        },
        {
          "internalType": "uint256",
          "name": "startDate",
          "type": "uint256"
        },
        {
          "internalType": "bool",
          "name": "started",
          "type": "bool"
        },
        {
          "internalType": "bool",
          "name": "ended",
          "type": "bool"
        },
        {
          "internalType": "address",
          "name": "highestBidder",
          "type": "address"
        },
        {
          "internalType": "uint256",
          "name": "highestBid",
          "type": "uint256"
        }
      ],
      "stateMutability": "view",
      "type": "function"
    },
    {
      "inputs": [
        {
          "internalType": "uint256",
          "name": "",
          "type": "uint256"
        }
      ],
      "name": "autionItemsId",
      "outputs": [
        {
          "internalType": "uint256",
          "name": "auctionId",
          "type": "uint256"
        },
        {
          "internalType": "uint256",
          "name": "bid",
          "type": "uint256"
        },
        {
          "internalType": "address",
          "name": "bidder",
          "type": "address"
        },
        {
          "internalType": "uint256",
          "name": "marketId",
          "type": "uint256"
        }
      ],
      "stateMutability": "view",
      "type": "function"
    },
    {
      "inputs": [
        {
          "internalType": "uint256",
          "name": "marketId",
          "type": "uint256"
        }
      ],
      "name": "bid",
      "outputs": [],
      "stateMutability": "payable",
      "type": "function"
    },
    {
      "inputs": [
        {
          "internalType": "address",
          "name": "",
          "type": "address"
        }
      ],
      "name": "bids",
      "outputs": [
        {
          "internalType": "uint256",
          "name": "",
          "type": "uint256"
        }
      ],
      "stateMutability": "view",
      "type": "function"
    },
    {
      "inputs": [
        {
          "internalType": "address",
          "name": "_nftContract",
          "type": "address"
        },
        {
          "internalType": "uint256",
          "name": "_tokenId",
          "type": "uint256"
        },
        {
          "internalType": "uint256",
          "name": "marketId",
          "type": "uint256"
        }
      ],
      "name": "end",
      "outputs": [],
      "stateMutability": "nonpayable",
      "type": "function"
    },
    {
      "inputs": [
        {
          "internalType": "uint256",
          "name": "marketId",
          "type": "uint256"
        }
      ],
      "name": "fetchBidder",
      "outputs": [
        {
          "components": [
            {
              "internalType": "uint256",
              "name": "auctionId",
              "type": "uint256"
            },
            {
              "internalType": "uint256",
              "name": "bid",
              "type": "uint256"
            },
            {
              "internalType": "address",
              "name": "bidder",
              "type": "address"
            },
            {
              "internalType": "uint256",
              "name": "marketId",
              "type": "uint256"
            }
          ],
          "internalType": "struct Auction.AuctionItem[]",
          "name": "",
          "type": "tuple[]"
        }
      ],
      "stateMutability": "view",
      "type": "function"
    },
    {
      "inputs": [
        {
          "internalType": "uint256",
          "name": "id",
          "type": "uint256"
        }
      ],
      "name": "getBidInfo",
      "outputs": [
        {
          "components": [
            {
              "internalType": "uint256",
              "name": "endAt",
              "type": "uint256"
            },
            {
              "internalType": "uint256",
              "name": "startDate",
              "type": "uint256"
            },
            {
              "internalType": "bool",
              "name": "started",
              "type": "bool"
            },
            {
              "internalType": "bool",
              "name": "ended",
              "type": "bool"
            },
            {
              "internalType": "address",
              "name": "highestBidder",
              "type": "address"
            },
            {
              "internalType": "uint256",
              "name": "highestBid",
              "type": "uint256"
            }
          ],
          "internalType": "struct Auction.Bidinfo",
          "name": "",
          "type": "tuple"
        }
      ],
      "stateMutability": "view",
      "type": "function"
    },
    {
      "inputs": [
        {
          "internalType": "uint256",
          "name": "",
          "type": "uint256"
        }
      ],
      "name": "marketItemInfo",
      "outputs": [
        {
          "internalType": "uint256",
          "name": "endAt",
          "type": "uint256"
        },
        {
          "internalType": "uint256",
          "name": "startDate",
          "type": "uint256"
        },
        {
          "internalType": "bool",
          "name": "started",
          "type": "bool"
        },
        {
          "internalType": "bool",
          "name": "ended",
          "type": "bool"
        },
        {
          "internalType": "address",
          "name": "highestBidder",
          "type": "address"
        },
        {
          "internalType": "uint256",
          "name": "highestBid",
          "type": "uint256"
        }
      ],
      "stateMutability": "view",
      "type": "function"
    },
    {
      "inputs": [],
      "name": "nft",
      "outputs": [
        {
          "internalType": "contract IERC721",
          "name": "",
          "type": "address"
        }
      ],
      "stateMutability": "view",
      "type": "function"
    },
    {
      "inputs": [],
      "name": "seller",
      "outputs": [
        {
          "internalType": "address payable",
          "name": "",
          "type": "address"
        }
      ],
      "stateMutability": "view",
      "type": "function"
    },
    {
      "inputs": [
        {
          "internalType": "address",
          "name": "_nftContract",
          "type": "address"
        },
        {
          "internalType": "uint256",
          "name": "_tokenId",
          "type": "uint256"
        },
        {
          "internalType": "uint256",
          "name": "_startingBid",
          "type": "uint256"
        },
        {
          "internalType": "address",
          "name": "nftMarket",
          "type": "address"
        },
        {
          "internalType": "uint256",
          "name": "marketId",
          "type": "uint256"
        }
      ],
      "name": "startBid",
      "outputs": [],
      "stateMutability": "nonpayable",
      "type": "function"
    },
    {
      "inputs": [
        {
          "internalType": "uint256",
          "name": "",
          "type": "uint256"
        },
        {
          "internalType": "uint256",
          "name": "",
          "type": "uint256"
        }
      ],
      "name": "trackMarketAuction",
      "outputs": [
        {
          "internalType": "uint256",
          "name": "",
          "type": "uint256"
        }
      ],
      "stateMutability": "view",
      "type": "function"
    },
    {
      "inputs": [],
      "name": "withdraw",
      "outputs": [],
      "stateMutability": "payable",
      "type": "function"
    }
  ],
  "bytecode": "0x608060405234801561001057600080fd5b506001600081905550612537806100286000396000f3fe6080604052600436106100dd5760003560e01c806355d64d031161007f57806383a9b4321161005957806383a9b432146102975780639649c277146102d4578063bf37ea1514610316578063ce735ea514610356576100dd565b806355d64d03146101ed57806362ea82db1461021d57806363d6a2b21461025a576100dd565b80632fdce7a3116100bb5780632fdce7a3146101735780633ccfd60b1461019c578063454a2ab3146101a657806347ccca02146101c2576100dd565b806308551a53146100e25780631db2e5201461010d5780632201db3114610136575b600080fd5b3480156100ee57600080fd5b506100f7610393565b6040516101049190611e2e565b60405180910390f35b34801561011957600080fd5b50610134600480360381019061012f9190611a08565b6103b9565b005b34801561014257600080fd5b5061015d60048036038101906101589190611ace565b61073f565b60405161016a9190612086565b60405180910390f35b34801561017f57600080fd5b5061019a60048036038101906101959190611a57565b610816565b005b6101a4610c95565b005b6101c060048036038101906101bb9190611ace565b610e67565b005b3480156101ce57600080fd5b506101d76112b7565b6040516101e49190611f2b565b60405180910390f35b3480156101f957600080fd5b506102026112dd565b60405161021496959493929190612138565b60405180910390f35b34801561022957600080fd5b50610244600480360381019061023f91906119df565b611341565b60405161025191906120a1565b60405180910390f35b34801561026657600080fd5b50610281600480360381019061027c91906119df565b611359565b60405161028e91906120a1565b60405180910390f35b3480156102a357600080fd5b506102be60048036038101906102b99190611ace565b611371565b6040516102cb9190611f09565b60405180910390f35b3480156102e057600080fd5b506102fb60048036038101906102f69190611ace565b61160c565b60405161030d96959493929190612138565b60405180910390f35b34801561032257600080fd5b5061033d60048036038101906103389190611ace565b611682565b60405161034d94939291906120f3565b60405180910390f35b34801561036257600080fd5b5061037d60048036038101906103789190611af7565b6116d2565b60405161038a91906120a1565b60405180910390f35b600960009054906101000a900473ffffffffffffffffffffffffffffffffffffffff1681565b600c600082815260200190815260200160002060020160019054906101000a900460ff161561041d576040517f08c379a000000000000000000000000000000000000000000000000000000000815260040161041490611fa6565b60405180910390fd5b600c6000828152602001908152602001600020600001544210610475576040517f08c379a000000000000000000000000000000000000000000000000000000000815260040161046c90611fe6565b60405180910390fd5b6001600c600083815260200190815260200160002060020160016101000a81548160ff021916908315150217905550600073ffffffffffffffffffffffffffffffffffffffff16600c600083815260200190815260200160002060020160029054906101000a900473ffffffffffffffffffffffffffffffffffffffff1673ffffffffffffffffffffffffffffffffffffffff1614610637578273ffffffffffffffffffffffffffffffffffffffff166342842e0e30600c600085815260200190815260200160002060020160029054906101000a900473ffffffffffffffffffffffffffffffffffffffff16856040518463ffffffff1660e01b815260040161058193929190611ea9565b600060405180830381600087803b15801561059b57600080fd5b505af11580156105af573d6000803e3d6000fd5b50505050600960009054906101000a900473ffffffffffffffffffffffffffffffffffffffff1673ffffffffffffffffffffffffffffffffffffffff166108fc600c6000848152602001908152602001600020600301549081150290604051600060405180830381858888f19350505050158015610631573d6000803e3d6000fd5b506106c9565b8273ffffffffffffffffffffffffffffffffffffffff166342842e0e30600960009054906101000a900473ffffffffffffffffffffffffffffffffffffffff16856040518463ffffffff1660e01b815260040161069693929190611e72565b600060405180830381600087803b1580156106b057600080fd5b505af11580156106c4573d6000803e3d6000fd5b505050505b7f7d7570b046e5ead3a4f3fbc9fa2445113625a1e79823776146316bafed6b8cc5600960009054906101000a900473ffffffffffffffffffffffffffffffffffffffff16600c600084815260200190815260200160002060030154604051610732929190611e49565b60405180910390a1505050565b610747611927565b600c60008381526020019081526020016000206040518060c001604052908160008201548152602001600182015481526020016002820160009054906101000a900460ff161515151581526020016002820160019054906101000a900460ff161515151581526020016002820160029054906101000a900473ffffffffffffffffffffffffffffffffffffffff1673ffffffffffffffffffffffffffffffffffffffff1673ffffffffffffffffffffffffffffffffffffffff1681526020016003820154815250509050919050565b6000600c60008381526020019081526020016000206040518060c001604052908160008201548152602001600182015481526020016002820160009054906101000a900460ff161515151581526020016002820160019054906101000a900460ff161515151581526020016002820160029054906101000a900473ffffffffffffffffffffffffffffffffffffffff1673ffffffffffffffffffffffffffffffffffffffff1673ffffffffffffffffffffffffffffffffffffffff16815260200160038201548152505090506109446040518060400160405280600481526020017f696e666f00000000000000000000000000000000000000000000000000000000815250600c600085815260200190815260200160002060020160009054906101000a900460ff16611703565b806040015115610989576040517f08c379a000000000000000000000000000000000000000000000000000000000815260040161098090612046565b60405180910390fd5b33600960006101000a81548173ffffffffffffffffffffffffffffffffffffffff021916908373ffffffffffffffffffffffffffffffffffffffff1602179055506109d4600161179f565b60006109e060016117b5565b90506109ed8133856117c3565b60405180608001604052808281526020018681526020013373ffffffffffffffffffffffffffffffffffffffff16815260200184815250600e6000838152602001908152602001600020600082015181600001556020820151816001015560408201518160020160006101000a81548173ffffffffffffffffffffffffffffffffffffffff021916908373ffffffffffffffffffffffffffffffffffffffff16021790555060608201518160030155905050846008819055508673ffffffffffffffffffffffffffffffffffffffff166323b872dd8530896040518463ffffffff1660e01b8152600401610ae393929190611ea9565b600060405180830381600087803b158015610afd57600080fd5b505af1158015610b11573d6000803e3d6000fd5b505050506040518060c0016040528061070842610b2e91906121ee565b81526020014281526020016001151581526020016000151581526020013373ffffffffffffffffffffffffffffffffffffffff16815260200186815250600c6000858152602001908152602001600020600082015181600001556020820151816001015560408201518160020160006101000a81548160ff02191690831515021790555060608201518160020160016101000a81548160ff02191690831515021790555060808201518160020160026101000a81548173ffffffffffffffffffffffffffffffffffffffff021916908373ffffffffffffffffffffffffffffffffffffffff16021790555060a08201518160030155905050600b60008481526020019081526020016000208190806001815401808255809150506001900390600052602060002001600090919091909150557fd8cea0ecd56872ff072e771658b5682ffe4de16d752947f79597d600ea56f7a960405160405180910390a150505050505050565b60026000541415610cdb576040517f08c379a0000000000000000000000000000000000000000000000000000000008152600401610cd290612066565b60405180910390fd5b60026000819055506000600d60003373ffffffffffffffffffffffffffffffffffffffff1673ffffffffffffffffffffffffffffffffffffffff1681526020019081526020016000205490506000600e60008381526020019081526020016000206001015490506000600e600084815260200190815260200160002060010181905550600e600083815260200190815260200160002060020160009054906101000a900473ffffffffffffffffffffffffffffffffffffffff1673ffffffffffffffffffffffffffffffffffffffff166108fc829081150290604051600060405180830381858888f19350505050158015610dda573d6000803e3d6000fd5b503373ffffffffffffffffffffffffffffffffffffffff166108fc829081150290604051600060405180830381858888f19350505050158015610e21573d6000803e3d6000fd5b507f884edad9ce6fa2440d8a54cc123490eb96d2768479d49ff9c7366125a94243643382604051610e53929190611ee0565b60405180910390a150506001600081905550565b6000600c60008381526020019081526020016000206040518060c001604052908160008201548152602001600182015481526020016002820160009054906101000a900460ff161515151581526020016002820160019054906101000a900460ff161515151581526020016002820160029054906101000a900473ffffffffffffffffffffffffffffffffffffffff1673ffffffffffffffffffffffffffffffffffffffff1673ffffffffffffffffffffffffffffffffffffffff16815260200160038201548152505090508060400151610f77576040517f08c379a0000000000000000000000000000000000000000000000000000000008152600401610f6e90611fc6565b60405180910390fd5b80600001514210610fbd576040517f08c379a0000000000000000000000000000000000000000000000000000000008152600401610fb490612026565b60405180910390fd5b6008543411611001576040517f08c379a0000000000000000000000000000000000000000000000000000000008152600401610ff890612006565b60405180910390fd5b6000600d60003373ffffffffffffffffffffffffffffffffffffffff1673ffffffffffffffffffffffffffffffffffffffff1681526020019081526020016000205411156110c0576000600d60003373ffffffffffffffffffffffffffffffffffffffff1673ffffffffffffffffffffffffffffffffffffffff16815260200190815260200160002054905034600e600083815260200190815260200160002060010160008282546110b391906121ee565b925050819055505061120a565b6110ca600161179f565b60006110d660016117b5565b905060405180608001604052808281526020013481526020013373ffffffffffffffffffffffffffffffffffffffff16815260200184815250600e6000838152602001908152602001600020600082015181600001556020820151816001015560408201518160020160006101000a81548173ffffffffffffffffffffffffffffffffffffffff021916908373ffffffffffffffffffffffffffffffffffffffff1602179055506060820151816003015590505080600d60003373ffffffffffffffffffffffffffffffffffffffff1673ffffffffffffffffffffffffffffffffffffffff16815260200190815260200160002081905550600b6000848152602001908152602001600020819080600181540180825580915050600190039060005260206000200160009091909190915055505b33600c600084815260200190815260200160002060020160026101000a81548173ffffffffffffffffffffffffffffffffffffffff021916908373ffffffffffffffffffffffffffffffffffffffff16021790555034600c6000848152602001908152602001600020600301819055507fe684a55f31b79eca403df938249029212a5925ec6be8012e099b45bc1019e5d233346040516112ab929190611ee0565b60405180910390a15050565b600660009054906101000a900473ffffffffffffffffffffffffffffffffffffffff1681565b60028060000154908060010154908060020160009054906101000a900460ff16908060020160019054906101000a900460ff16908060020160029054906101000a900473ffffffffffffffffffffffffffffffffffffffff16908060030154905086565b600a6020528060005260406000206000915090505481565b600d6020528060005260406000206000915090505481565b6060600080600b60008581526020019081526020016000208054905090506113ce6040518060400160405280600681526020017f6c656e677468000000000000000000000000000000000000000000000000000081525082611862565b60008167ffffffffffffffff811115611410577f4e487b7100000000000000000000000000000000000000000000000000000000600052604160045260246000fd5b60405190808252806020026020018201604052801561144957816020015b611436611977565b81526020019060019003908161142e5790505b50905060005b82811015611600576000600b600088815260200190815260200160002082815481106114a4577f4e487b7100000000000000000000000000000000000000000000000000000000600052603260045260246000fd5b906000526020600020015490506000600e6000838152602001908152602001600020905087816003015414156115dc576115176040518060400160405280600581526020017f456e7465720000000000000000000000000000000000000000000000000000008152508260030154611862565b8060405180608001604052908160008201548152602001600182015481526020016002820160009054906101000a900473ffffffffffffffffffffffffffffffffffffffff1673ffffffffffffffffffffffffffffffffffffffff1673ffffffffffffffffffffffffffffffffffffffff1681526020016003820154815250508487815181106115d0577f4e487b7100000000000000000000000000000000000000000000000000000000600052603260045260246000fd5b60200260200101819052505b6001866115e991906121ee565b9550505080806115f89061232b565b91505061144f565b50809350505050919050565b600c6020528060005260406000206000915090508060000154908060010154908060020160009054906101000a900460ff16908060020160019054906101000a900460ff16908060020160029054906101000a900473ffffffffffffffffffffffffffffffffffffffff16908060030154905086565b600e6020528060005260406000206000915090508060000154908060010154908060020160009054906101000a900473ffffffffffffffffffffffffffffffffffffffff16908060030154905084565b600b60205281600052604060002081815481106116ee57600080fd5b90600052602060002001600091509150505481565b61179b8282604051602401611719929190611f46565b6040516020818303038152906040527fc3b55635000000000000000000000000000000000000000000000000000000007bffffffffffffffffffffffffffffffffffffffffffffffffffffffff19166020820180517bffffffffffffffffffffffffffffffffffffffffffffffffffffffff83818316178352505050506118fe565b5050565b6001816000016000828254019250508190555050565b600081600001549050919050565b61185d8383836040516024016117db939291906120bc565b6040516020818303038152906040527f884343aa000000000000000000000000000000000000000000000000000000007bffffffffffffffffffffffffffffffffffffffffffffffffffffffff19166020820180517bffffffffffffffffffffffffffffffffffffffffffffffffffffffff83818316178352505050506118fe565b505050565b6118fa8282604051602401611878929190611f76565b6040516020818303038152906040527f9710a9d0000000000000000000000000000000000000000000000000000000007bffffffffffffffffffffffffffffffffffffffffffffffffffffffff19166020820180517bffffffffffffffffffffffffffffffffffffffffffffffffffffffff83818316178352505050506118fe565b5050565b60008151905060006a636f6e736f6c652e6c6f679050602083016000808483855afa5050505050565b6040518060c001604052806000815260200160008152602001600015158152602001600015158152602001600073ffffffffffffffffffffffffffffffffffffffff168152602001600081525090565b60405180608001604052806000815260200160008152602001600073ffffffffffffffffffffffffffffffffffffffff168152602001600081525090565b6000813590506119c4816124d3565b92915050565b6000813590506119d9816124ea565b92915050565b6000602082840312156119f157600080fd5b60006119ff848285016119b5565b91505092915050565b600080600060608486031215611a1d57600080fd5b6000611a2b868287016119b5565b9350506020611a3c868287016119ca565b9250506040611a4d868287016119ca565b9150509250925092565b600080600080600060a08688031215611a6f57600080fd5b6000611a7d888289016119b5565b9550506020611a8e888289016119ca565b9450506040611a9f888289016119ca565b9350506060611ab0888289016119b5565b9250506080611ac1888289016119ca565b9150509295509295909350565b600060208284031215611ae057600080fd5b6000611aee848285016119ca565b91505092915050565b60008060408385031215611b0a57600080fd5b6000611b18858286016119ca565b9250506020611b29858286016119ca565b9150509250929050565b6000611b3f8383611d40565b60808301905092915050565b611b548161229e565b82525050565b611b6381612256565b82525050565b611b7281612244565b82525050565b611b8181612244565b82525050565b6000611b92826121a9565b611b9c81856121cc565b9350611ba783612199565b8060005b83811015611bd8578151611bbf8882611b33565b9750611bca836121bf565b925050600181019050611bab565b5085935050505092915050565b611bee81612268565b82525050565b611bfd81612268565b82525050565b611c0c816122b0565b82525050565b6000611c1d826121b4565b611c2781856121dd565b9350611c378185602086016122f8565b611c40816123a3565b840191505092915050565b6000611c58600a836121dd565b9150611c63826123b4565b602082019050919050565b6000611c7b600f836121dd565b9150611c86826123dd565b602082019050919050565b6000611c9e600b836121dd565b9150611ca982612406565b602082019050919050565b6000611cc1601c836121dd565b9150611ccc8261242f565b602082019050919050565b6000611ce4600d836121dd565b9150611cef82612458565b602082019050919050565b6000611d076013836121dd565b9150611d1282612481565b602082019050919050565b6000611d2a601f836121dd565b9150611d35826124aa565b602082019050919050565b608082016000820151611d566000850182611e10565b506020820151611d696020850182611e10565b506040820151611d7c6040850182611b69565b506060820151611d8f6060850182611e10565b50505050565b60c082016000820151611dab6000850182611e10565b506020820151611dbe6020850182611e10565b506040820151611dd16040850182611be5565b506060820151611de46060850182611be5565b506080820151611df76080850182611b69565b5060a0820151611e0a60a0850182611e10565b50505050565b611e1981612294565b82525050565b611e2881612294565b82525050565b6000602082019050611e436000830184611b5a565b92915050565b6000604082019050611e5e6000830185611b4b565b611e6b6020830184611e1f565b9392505050565b6000606082019050611e876000830186611b78565b611e946020830185611b4b565b611ea16040830184611e1f565b949350505050565b6000606082019050611ebe6000830186611b78565b611ecb6020830185611b78565b611ed86040830184611e1f565b949350505050565b6000604082019050611ef56000830185611b78565b611f026020830184611e1f565b9392505050565b60006020820190508181036000830152611f238184611b87565b905092915050565b6000602082019050611f406000830184611c03565b92915050565b60006040820190508181036000830152611f608185611c12565b9050611f6f6020830184611bf4565b9392505050565b60006040820190508181036000830152611f908185611c12565b9050611f9f6020830184611e1f565b9392505050565b60006020820190508181036000830152611fbf81611c4b565b9050919050565b60006020820190508181036000830152611fdf81611c6e565b9050919050565b60006020820190508181036000830152611fff81611c91565b9050919050565b6000602082019050818103600083015261201f81611cb4565b9050919050565b6000602082019050818103600083015261203f81611cd7565b9050919050565b6000602082019050818103600083015261205f81611cfa565b9050919050565b6000602082019050818103600083015261207f81611d1d565b9050919050565b600060c08201905061209b6000830184611d95565b92915050565b60006020820190506120b66000830184611e1f565b92915050565b60006060820190506120d16000830186611e1f565b6120de6020830185611b78565b6120eb6040830184611e1f565b949350505050565b60006080820190506121086000830187611e1f565b6121156020830186611e1f565b6121226040830185611b78565b61212f6060830184611e1f565b95945050505050565b600060c08201905061214d6000830189611e1f565b61215a6020830188611e1f565b6121676040830187611bf4565b6121746060830186611bf4565b6121816080830185611b78565b61218e60a0830184611e1f565b979650505050505050565b6000819050602082019050919050565b600081519050919050565b600081519050919050565b6000602082019050919050565b600082825260208201905092915050565b600082825260208201905092915050565b60006121f982612294565b915061220483612294565b9250827fffffffffffffffffffffffffffffffffffffffffffffffffffffffffffffffff0382111561223957612238612374565b5b828201905092915050565b600061224f82612274565b9050919050565b600061226182612274565b9050919050565b60008115159050919050565b600073ffffffffffffffffffffffffffffffffffffffff82169050919050565b6000819050919050565b60006122a9826122d4565b9050919050565b60006122bb826122c2565b9050919050565b60006122cd82612274565b9050919050565b60006122df826122e6565b9050919050565b60006122f182612274565b9050919050565b60005b838110156123165780820151818401526020810190506122fb565b83811115612325576000848401525b50505050565b600061233682612294565b91507fffffffffffffffffffffffffffffffffffffffffffffffffffffffffffffffff82141561236957612368612374565b5b600182019050919050565b7f4e487b7100000000000000000000000000000000000000000000000000000000600052601160045260246000fd5b6000601f19601f8301169050919050565b7f4e6f742073656e64656400000000000000000000000000000000000000000000600082015250565b7f426964206e6f7420737461727465640000000000000000000000000000000000600082015250565b7f4269642065787069726564000000000000000000000000000000000000000000600082015250565b7f76616c7565206973206c657373207468616e2068696768657342696400000000600082015250565b7f4269642068617320656e64656400000000000000000000000000000000000000600082015250565b7f42696420616c7265616479207374617274656400000000000000000000000000600082015250565b7f5265656e7472616e637947756172643a207265656e7472616e742063616c6c00600082015250565b6124dc81612244565b81146124e757600080fd5b50565b6124f381612294565b81146124fe57600080fd5b5056fea264697066735822122097c86d2830191061ab8d88f59921f7ee3f62bcc63c5d974cd60431b2b04adff964736f6c63430008040033",
  "linkReferences": {},
  "deployedLinkReferences": {}
}