{
  "_format": "hh-sol-artifact-1",
  "contractName": "NFT",
  "sourceName": "contracts/NFT.sol",
  "abi": [
    {
      "inputs": [
        {
          "internalType": "address",
          "name": "_marketplaceAddress",
          "type": "address"
        },
        {
          "internalType": "address",
          "name": "_auctionAddress",
          "type": "address"
        }
      ],
      "stateMutability": "nonpayable",
      "type": "constructor"
    },
    {
      "anonymous": false,
      "inputs": [
        {
          "indexed": true,
          "internalType": "address",
          "name": "owner",
          "type": "address"
        },
        {
          "indexed": true,
          "internalType": "address",
          "name": "approved",
          "type": "address"
        },
        {
          "indexed": true,
          "internalType": "uint256",
          "name": "tokenId",
          "type": "uint256"
        }
      ],
      "name": "Approval",
      "type": "event"
    },
    {
      "anonymous": false,
      "inputs": [
        {
          "indexed": true,
          "internalType": "address",
          "name": "owner",
          "type": "address"
        },
        {
          "indexed": true,
          "internalType": "address",
          "name": "operator",
          "type": "address"
        },
        {
          "indexed": false,
          "internalType": "bool",
          "name": "approved",
          "type": "bool"
        }
      ],
      "name": "ApprovalForAll",
      "type": "event"
    },
    {
      "anonymous": false,
      "inputs": [
        {
          "indexed": true,
          "internalType": "address",
          "name": "from",
          "type": "address"
        },
        {
          "indexed": true,
          "internalType": "address",
          "name": "to",
          "type": "address"
        },
        {
          "indexed": true,
          "internalType": "uint256",
          "name": "tokenId",
          "type": "uint256"
        }
      ],
      "name": "Transfer",
      "type": "event"
    },
    {
      "inputs": [
        {
          "internalType": "address",
          "name": "to",
          "type": "address"
        },
        {
          "internalType": "uint256",
          "name": "tokenId",
          "type": "uint256"
        }
      ],
      "name": "approve",
      "outputs": [],
      "stateMutability": "nonpayable",
      "type": "function"
    },
    {
      "inputs": [],
      "name": "auctionAddress",
      "outputs": [
        {
          "internalType": "address",
          "name": "",
          "type": "address"
        }
      ],
      "stateMutability": "view",
      "type": "function"
    },
    {
      "inputs": [
        {
          "internalType": "address",
          "name": "owner",
          "type": "address"
        }
      ],
      "name": "balanceOf",
      "outputs": [
        {
          "internalType": "uint256",
          "name": "",
          "type": "uint256"
        }
      ],
      "stateMutability": "view",
      "type": "function"
    },
    {
      "inputs": [],
      "name": "contractAddress",
      "outputs": [
        {
          "internalType": "address",
          "name": "",
          "type": "address"
        }
      ],
      "stateMutability": "view",
      "type": "function"
    },
    {
      "inputs": [
        {
          "internalType": "string",
          "name": "tokenURI",
          "type": "string"
        }
      ],
      "name": "createToken",
      "outputs": [
        {
          "internalType": "uint256",
          "name": "",
          "type": "uint256"
        }
      ],
      "stateMutability": "nonpayable",
      "type": "function"
    },
    {
      "inputs": [
        {
          "internalType": "uint256",
          "name": "tokenId",
          "type": "uint256"
        }
      ],
      "name": "getApproved",
      "outputs": [
        {
          "internalType": "address",
          "name": "",
          "type": "address"
        }
      ],
      "stateMutability": "view",
      "type": "function"
    },
    {
      "inputs": [
        {
          "internalType": "address",
          "name": "owner",
          "type": "address"
        },
        {
          "internalType": "address",
          "name": "operator",
          "type": "address"
        }
      ],
      "name": "isApprovedForAll",
      "outputs": [
        {
          "internalType": "bool",
          "name": "",
          "type": "bool"
        }
      ],
      "stateMutability": "view",
      "type": "function"
    },
    {
      "inputs": [],
      "name": "name",
      "outputs": [
        {
          "internalType": "string",
          "name": "",
          "type": "string"
        }
      ],
      "stateMutability": "view",
      "type": "function"
    },
    {
      "inputs": [
        {
          "internalType": "uint256",
          "name": "tokenId",
          "type": "uint256"
        }
      ],
      "name": "ownerOf",
      "outputs": [
        {
          "internalType": "address",
          "name": "",
          "type": "address"
        }
      ],
      "stateMutability": "view",
      "type": "function"
    },
    {
      "inputs": [
        {
          "internalType": "uint256",
          "name": "id",
          "type": "uint256"
        }
      ],
      "name": "registerAuction",
      "outputs": [],
      "stateMutability": "nonpayable",
      "type": "function"
    },
    {
      "inputs": [
        {
          "internalType": "address",
          "name": "from",
          "type": "address"
        },
        {
          "internalType": "address",
          "name": "to",
          "type": "address"
        },
        {
          "internalType": "uint256",
          "name": "tokenId",
          "type": "uint256"
        }
      ],
      "name": "safeTransferFrom",
      "outputs": [],
      "stateMutability": "nonpayable",
      "type": "function"
    },
    {
      "inputs": [
        {
          "internalType": "address",
          "name": "from",
          "type": "address"
        },
        {
          "internalType": "address",
          "name": "to",
          "type": "address"
        },
        {
          "internalType": "uint256",
          "name": "tokenId",
          "type": "uint256"
        },
        {
          "internalType": "bytes",
          "name": "_data",
          "type": "bytes"
        }
      ],
      "name": "safeTransferFrom",
      "outputs": [],
      "stateMutability": "nonpayable",
      "type": "function"
    },
    {
      "inputs": [
        {
          "internalType": "address",
          "name": "operator",
          "type": "address"
        },
        {
          "internalType": "bool",
          "name": "approved",
          "type": "bool"
        }
      ],
      "name": "setApprovalForAll",
      "outputs": [],
      "stateMutability": "nonpayable",
      "type": "function"
    },
    {
      "inputs": [
        {
          "internalType": "bytes4",
          "name": "interfaceId",
          "type": "bytes4"
        }
      ],
      "name": "supportsInterface",
      "outputs": [
        {
          "internalType": "bool",
          "name": "",
          "type": "bool"
        }
      ],
      "stateMutability": "view",
      "type": "function"
    },
    {
      "inputs": [],
      "name": "symbol",
      "outputs": [
        {
          "internalType": "string",
          "name": "",
          "type": "string"
        }
      ],
      "stateMutability": "view",
      "type": "function"
    },
    {
      "inputs": [
        {
          "internalType": "uint256",
          "name": "tokenId",
          "type": "uint256"
        }
      ],
      "name": "tokenURI",
      "outputs": [
        {
          "internalType": "string",
          "name": "",
          "type": "string"
        }
      ],
      "stateMutability": "view",
      "type": "function"
    },
    {
      "inputs": [
        {
          "internalType": "address",
          "name": "from",
          "type": "address"
        },
        {
          "internalType": "address",
          "name": "to",
          "type": "address"
        },
        {
          "internalType": "uint256",
          "name": "tokenId",
          "type": "uint256"
        }
      ],
      "name": "transferFrom",
      "outputs": [],
      "stateMutability": "nonpayable",
      "type": "function"
    }
  ],
  "bytecode": "0x60806040523480156200001157600080fd5b5060405162001b1538038062001b1583398101604081905262000034916200028a565b604080518082018252600f81526e4d79206d61726b657420706c61636560881b60208083019182528351808501909452600384526204d4b560ec1b9084015281519192916200008691600091620001c7565b5080516200009c906001906020840190620001c7565b5050600880546001600160a01b038086166001600160a01b031992831617909255600980549285169290911682179055620000da91506001620000e2565b5050620002fe565b620000ef338383620000f3565b5050565b816001600160a01b0316836001600160a01b031614156200015a5760405162461bcd60e51b815260206004820152601960248201527f4552433732313a20617070726f766520746f2063616c6c657200000000000000604482015260640160405180910390fd5b6001600160a01b03838116600081815260056020908152604080832094871680845294825291829020805460ff191686151590811790915591519182527f17307eab39ab6107e8899845ad3d59bd9653f200f220920489ca2b5937696c31910160405180910390a3505050565b828054620001d590620002c1565b90600052602060002090601f016020900481019282620001f9576000855562000244565b82601f106200021457805160ff191683800117855562000244565b8280016001018555821562000244579182015b828111156200024457825182559160200191906001019062000227565b506200025292915062000256565b5090565b5b8082111562000252576000815560010162000257565b80516001600160a01b03811681146200028557600080fd5b919050565b600080604083850312156200029d578182fd5b620002a8836200026d565b9150620002b8602084016200026d565b90509250929050565b600181811c90821680620002d657607f821691505b60208210811415620002f857634e487b7160e01b600052602260045260246000fd5b50919050565b611807806200030e6000396000f3fe608060405234801561001057600080fd5b50600436106100eb5760003560e01c80636352211e116100925780636352211e146101c757806370a08231146101da57806395d89b41146101ed578063a22cb465146101f5578063afe0026a14610208578063b88d4fde1461021b578063c87b56dd1461022e578063e985e9c514610241578063f6b4dfb41461025457600080fd5b806301ffc9a7146100f057806306fdde0314610118578063081812fc1461012d578063095ea7b31461015857806323b872dd1461016d57806342842e0e1461018057806345576f94146101935780635476ea9e146101b4575b600080fd5b6101036100fe366004611489565b610267565b60405190151581526020015b60405180910390f35b6101206102b9565b60405161010f91906115b7565b61014061013b366004611507565b61034b565b6040516001600160a01b03909116815260200161010f565b61016b610166366004611460565b6103d8565b005b61016b61017b366004611372565b6104e9565b61016b61018e366004611372565b61051a565b6101a66101a13660046114c1565b610535565b60405190815260200161010f565b600954610140906001600160a01b031681565b6101406101d5366004611507565b6105cf565b6101a66101e8366004611326565b610646565b6101206106cd565b61016b610203366004611426565b6106dc565b61016b610216366004611507565b6106eb565b61016b6102293660046113ad565b61070b565b61012061023c366004611507565b610743565b61010361024f366004611340565b6108ba565b600854610140906001600160a01b031681565b60006001600160e01b031982166380ac58cd60e01b148061029857506001600160e01b03198216635b5e139f60e01b145b806102b357506301ffc9a760e01b6001600160e01b03198316145b92915050565b6060600080546102c89061170f565b80601f01602080910402602001604051908101604052809291908181526020018280546102f49061170f565b80156103415780601f1061031657610100808354040283529160200191610341565b820191906000526020600020905b81548152906001019060200180831161032457829003601f168201915b5050505050905090565b6000610356826108e8565b6103bc5760405162461bcd60e51b815260206004820152602c60248201527f4552433732313a20617070726f76656420717565727920666f72206e6f6e657860448201526b34b9ba32b73a103a37b5b2b760a11b60648201526084015b60405180910390fd5b506000908152600460205260409020546001600160a01b031690565b60006103e3826105cf565b9050806001600160a01b0316836001600160a01b031614156104515760405162461bcd60e51b815260206004820152602160248201527f4552433732313a20617070726f76616c20746f2063757272656e74206f776e656044820152603960f91b60648201526084016103b3565b336001600160a01b038216148061046d575061046d81336108ba565b6104da5760405162461bcd60e51b815260206004820152603860248201527f4552433732313a20617070726f76652063616c6c6572206973206e6f74206f776044820152771b995c881b9bdc88185c1c1c9bdd995908199bdc88185b1b60421b60648201526084016103b3565b6104e48383610905565b505050565b6104f33382610973565b61050f5760405162461bcd60e51b81526004016103b39061164f565b6104e4838383610a3c565b6104e48383836040518060200160405280600081525061070b565b6000610545600780546001019055565b600061055060075490565b905061055c3382610bd8565b6105668184610d0b565b60085461057d906001600160a01b031660016106dc565b600954610594906001600160a01b031660016106dc565b60408051808201909152600781526630bab1ba34b7b760c91b60208201526009546008546102b392916001600160a01b039081169116610d96565b6000818152600260205260408120546001600160a01b0316806102b35760405162461bcd60e51b815260206004820152602960248201527f4552433732313a206f776e657220717565727920666f72206e6f6e657869737460448201526832b73a103a37b5b2b760b91b60648201526084016103b3565b60006001600160a01b0382166106b15760405162461bcd60e51b815260206004820152602a60248201527f4552433732313a2062616c616e636520717565727920666f7220746865207a65604482015269726f206164647265737360b01b60648201526084016103b3565b506001600160a01b031660009081526003602052604090205490565b6060600180546102c89061170f565b6106e7338383610ddd565b5050565b600854600954610708916001600160a01b039081169116836104e9565b50565b6107153383610973565b6107315760405162461bcd60e51b81526004016103b39061164f565b61073d84848484610ea8565b50505050565b606061074e826108e8565b6107b45760405162461bcd60e51b815260206004820152603160248201527f45524337323155524953746f726167653a2055524920717565727920666f72206044820152703737b732bc34b9ba32b73a103a37b5b2b760791b60648201526084016103b3565b600082815260066020526040812080546107cd9061170f565b80601f01602080910402602001604051908101604052809291908181526020018280546107f99061170f565b80156108465780601f1061081b57610100808354040283529160200191610846565b820191906000526020600020905b81548152906001019060200180831161082957829003601f168201915b50505050509050600061086460408051602081019091526000815290565b9050805160001415610877575092915050565b8151156108a957808260405160200161089192919061154b565b60405160208183030381529060405292505050919050565b6108b284610edb565b949350505050565b6001600160a01b03918216600090815260056020908152604080832093909416825291909152205460ff1690565b6000908152600260205260409020546001600160a01b0316151590565b600081815260046020526040902080546001600160a01b0319166001600160a01b038416908117909155819061093a826105cf565b6001600160a01b03167f8c5be1e5ebec7d5bd14f71427d1e84f3dd0314c0f7b2291e5b200ac8c7c3b92560405160405180910390a45050565b600061097e826108e8565b6109df5760405162461bcd60e51b815260206004820152602c60248201527f4552433732313a206f70657261746f7220717565727920666f72206e6f6e657860448201526b34b9ba32b73a103a37b5b2b760a11b60648201526084016103b3565b60006109ea836105cf565b9050806001600160a01b0316846001600160a01b03161480610a115750610a1181856108ba565b806108b25750836001600160a01b0316610a2a8461034b565b6001600160a01b031614949350505050565b826001600160a01b0316610a4f826105cf565b6001600160a01b031614610ab35760405162461bcd60e51b815260206004820152602560248201527f4552433732313a207472616e736665722066726f6d20696e636f72726563742060448201526437bbb732b960d91b60648201526084016103b3565b6001600160a01b038216610b155760405162461bcd60e51b8152602060048201526024808201527f4552433732313a207472616e7366657220746f20746865207a65726f206164646044820152637265737360e01b60648201526084016103b3565b610b20600082610905565b6001600160a01b0383166000908152600360205260408120805460019290610b499084906116cc565b90915550506001600160a01b0382166000908152600360205260408120805460019290610b779084906116a0565b909155505060008181526002602052604080822080546001600160a01b0319166001600160a01b0386811691821790925591518493918716917fddf252ad1be2c89b69c2b068fc378daa952ba7f163c4a11628f55a4df523b3ef91a4505050565b6001600160a01b038216610c2e5760405162461bcd60e51b815260206004820181905260248201527f4552433732313a206d696e7420746f20746865207a65726f206164647265737360448201526064016103b3565b610c37816108e8565b15610c845760405162461bcd60e51b815260206004820152601c60248201527f4552433732313a20746f6b656e20616c7265616479206d696e7465640000000060448201526064016103b3565b6001600160a01b0382166000908152600360205260408120805460019290610cad9084906116a0565b909155505060008181526002602052604080822080546001600160a01b0319166001600160a01b03861690811790915590518392907fddf252ad1be2c89b69c2b068fc378daa952ba7f163c4a11628f55a4df523b3ef908290a45050565b610d14826108e8565b610d775760405162461bcd60e51b815260206004820152602e60248201527f45524337323155524953746f726167653a2055524920736574206f66206e6f6e60448201526d32bc34b9ba32b73a103a37b5b2b760911b60648201526084016103b3565b600082815260066020908152604090912082516104e4928401906111fb565b6104e4838383604051602401610dae939291906115ca565b60408051601f198184030181529190526020810180516001600160e01b03166307e763af60e51b179052610fb3565b816001600160a01b0316836001600160a01b03161415610e3b5760405162461bcd60e51b815260206004820152601960248201527822a9219b99189d1030b8383937bb32903a379031b0b63632b960391b60448201526064016103b3565b6001600160a01b03838116600081815260056020908152604080832094871680845294825291829020805460ff191686151590811790915591519182527f17307eab39ab6107e8899845ad3d59bd9653f200f220920489ca2b5937696c31910160405180910390a3505050565b610eb3848484610a3c565b610ebf84848484610fd4565b61073d5760405162461bcd60e51b81526004016103b3906115fd565b6060610ee6826108e8565b610f4a5760405162461bcd60e51b815260206004820152602f60248201527f4552433732314d657461646174613a2055524920717565727920666f72206e6f60448201526e3732bc34b9ba32b73a103a37b5b2b760891b60648201526084016103b3565b6000610f6160408051602081019091526000815290565b90506000815111610f815760405180602001604052806000815250610fac565b80610f8b846110e1565b604051602001610f9c92919061154b565b6040516020818303038152906040525b9392505050565b80516a636f6e736f6c652e6c6f67602083016000808483855afa5050505050565b60006001600160a01b0384163b156110d657604051630a85bd0160e11b81526001600160a01b0385169063150b7a029061101890339089908890889060040161157a565b602060405180830381600087803b15801561103257600080fd5b505af1925050508015611062575060408051601f3d908101601f1916820190925261105f918101906114a5565b60015b6110bc573d808015611090576040519150601f19603f3d011682016040523d82523d6000602084013e611095565b606091505b5080516110b45760405162461bcd60e51b81526004016103b3906115fd565b805181602001fd5b6001600160e01b031916630a85bd0160e11b1490506108b2565b506001949350505050565b6060816111055750506040805180820190915260018152600360fc1b602082015290565b8160005b811561112f57806111198161174a565b91506111289050600a836116b8565b9150611109565b60008167ffffffffffffffff81111561115857634e487b7160e01b600052604160045260246000fd5b6040519080825280601f01601f191660200182016040528015611182576020820181803683370190505b5090505b84156108b2576111976001836116cc565b91506111a4600a86611765565b6111af9060306116a0565b60f81b8183815181106111d257634e487b7160e01b600052603260045260246000fd5b60200101906001600160f81b031916908160001a9053506111f4600a866116b8565b9450611186565b8280546112079061170f565b90600052602060002090601f016020900481019282611229576000855561126f565b82601f1061124257805160ff191683800117855561126f565b8280016001018555821561126f579182015b8281111561126f578251825591602001919060010190611254565b5061127b92915061127f565b5090565b5b8082111561127b5760008155600101611280565b600067ffffffffffffffff808411156112af576112af6117a5565b604051601f8501601f19908116603f011681019082821181831017156112d7576112d76117a5565b816040528093508581528686860111156112f057600080fd5b858560208301376000602087830101525050509392505050565b80356001600160a01b038116811461132157600080fd5b919050565b600060208284031215611337578081fd5b610fac8261130a565b60008060408385031215611352578081fd5b61135b8361130a565b91506113696020840161130a565b90509250929050565b600080600060608486031215611386578081fd5b61138f8461130a565b925061139d6020850161130a565b9150604084013590509250925092565b600080600080608085870312156113c2578081fd5b6113cb8561130a565b93506113d96020860161130a565b925060408501359150606085013567ffffffffffffffff8111156113fb578182fd5b8501601f8101871361140b578182fd5b61141a87823560208401611294565b91505092959194509250565b60008060408385031215611438578182fd5b6114418361130a565b915060208301358015158114611455578182fd5b809150509250929050565b60008060408385031215611472578182fd5b61147b8361130a565b946020939093013593505050565b60006020828403121561149a578081fd5b8135610fac816117bb565b6000602082840312156114b6578081fd5b8151610fac816117bb565b6000602082840312156114d2578081fd5b813567ffffffffffffffff8111156114e8578182fd5b8201601f810184136114f8578182fd5b6108b284823560208401611294565b600060208284031215611518578081fd5b5035919050565b600081518084526115378160208601602086016116e3565b601f01601f19169290920160200192915050565b6000835161155d8184602088016116e3565b8351908301906115718183602088016116e3565b01949350505050565b6001600160a01b03858116825284166020820152604081018390526080606082018190526000906115ad9083018461151f565b9695505050505050565b602081526000610fac602083018461151f565b6060815260006115dd606083018661151f565b6001600160a01b0394851660208401529290931660409091015292915050565b60208082526032908201527f4552433732313a207472616e7366657220746f206e6f6e20455243373231526560408201527131b2b4bb32b91034b6b83632b6b2b73a32b960711b606082015260800190565b60208082526031908201527f4552433732313a207472616e736665722063616c6c6572206973206e6f74206f6040820152701ddb995c881b9bdc88185c1c1c9bdd9959607a1b606082015260800190565b600082198211156116b3576116b3611779565b500190565b6000826116c7576116c761178f565b500490565b6000828210156116de576116de611779565b500390565b60005b838110156116fe5781810151838201526020016116e6565b8381111561073d5750506000910152565b600181811c9082168061172357607f821691505b6020821081141561174457634e487b7160e01b600052602260045260246000fd5b50919050565b600060001982141561175e5761175e611779565b5060010190565b6000826117745761177461178f565b500690565b634e487b7160e01b600052601160045260246000fd5b634e487b7160e01b600052601260045260246000fd5b634e487b7160e01b600052604160045260246000fd5b6001600160e01b03198116811461070857600080fdfea26469706673582212203904c99105db0e163258b3fb97d9f0e33c67c640e6f77ff6852280950306e2a064736f6c63430008040033",
  "linkReferences": {},
  "deployedLinkReferences": {}
}