{
  "_format": "hh-sol-artifact-1",
  "contractName": "NFT",
  "sourceName": "contracts/NFT.sol",
  "abi": [
    {
      "inputs": [
        {
          "internalType": "address",
          "name": "_marketplaceAddress",
          "type": "address"
        },
        {
          "internalType": "address",
          "name": "_auctionAddress",
          "type": "address"
        }
      ],
      "stateMutability": "nonpayable",
      "type": "constructor"
    },
    {
      "anonymous": false,
      "inputs": [
        {
          "indexed": true,
          "internalType": "address",
          "name": "owner",
          "type": "address"
        },
        {
          "indexed": true,
          "internalType": "address",
          "name": "approved",
          "type": "address"
        },
        {
          "indexed": true,
          "internalType": "uint256",
          "name": "tokenId",
          "type": "uint256"
        }
      ],
      "name": "Approval",
      "type": "event"
    },
    {
      "anonymous": false,
      "inputs": [
        {
          "indexed": true,
          "internalType": "address",
          "name": "owner",
          "type": "address"
        },
        {
          "indexed": true,
          "internalType": "address",
          "name": "operator",
          "type": "address"
        },
        {
          "indexed": false,
          "internalType": "bool",
          "name": "approved",
          "type": "bool"
        }
      ],
      "name": "ApprovalForAll",
      "type": "event"
    },
    {
      "anonymous": false,
      "inputs": [
        {
          "indexed": true,
          "internalType": "address",
          "name": "from",
          "type": "address"
        },
        {
          "indexed": true,
          "internalType": "address",
          "name": "to",
          "type": "address"
        },
        {
          "indexed": true,
          "internalType": "uint256",
          "name": "tokenId",
          "type": "uint256"
        }
      ],
      "name": "Transfer",
      "type": "event"
    },
    {
      "inputs": [
        {
          "internalType": "address",
          "name": "to",
          "type": "address"
        },
        {
          "internalType": "uint256",
          "name": "tokenId",
          "type": "uint256"
        }
      ],
      "name": "approve",
      "outputs": [],
      "stateMutability": "nonpayable",
      "type": "function"
    },
    {
      "inputs": [],
      "name": "auctionAddress",
      "outputs": [
        {
          "internalType": "address",
          "name": "",
          "type": "address"
        }
      ],
      "stateMutability": "view",
      "type": "function"
    },
    {
      "inputs": [
        {
          "internalType": "address",
          "name": "owner",
          "type": "address"
        }
      ],
      "name": "balanceOf",
      "outputs": [
        {
          "internalType": "uint256",
          "name": "",
          "type": "uint256"
        }
      ],
      "stateMutability": "view",
      "type": "function"
    },
    {
      "inputs": [],
      "name": "contractAddress",
      "outputs": [
        {
          "internalType": "address",
          "name": "",
          "type": "address"
        }
      ],
      "stateMutability": "view",
      "type": "function"
    },
    {
      "inputs": [
        {
          "internalType": "string",
          "name": "tokenUrl",
          "type": "string"
        }
      ],
      "name": "createToken",
      "outputs": [
        {
          "internalType": "uint256",
          "name": "",
          "type": "uint256"
        }
      ],
      "stateMutability": "nonpayable",
      "type": "function"
    },
    {
      "inputs": [
        {
          "internalType": "uint256",
          "name": "tokenId",
          "type": "uint256"
        }
      ],
      "name": "getApproved",
      "outputs": [
        {
          "internalType": "address",
          "name": "",
          "type": "address"
        }
      ],
      "stateMutability": "view",
      "type": "function"
    },
    {
      "inputs": [
        {
          "internalType": "address",
          "name": "owner",
          "type": "address"
        },
        {
          "internalType": "address",
          "name": "operator",
          "type": "address"
        }
      ],
      "name": "isApprovedForAll",
      "outputs": [
        {
          "internalType": "bool",
          "name": "",
          "type": "bool"
        }
      ],
      "stateMutability": "view",
      "type": "function"
    },
    {
      "inputs": [],
      "name": "name",
      "outputs": [
        {
          "internalType": "string",
          "name": "",
          "type": "string"
        }
      ],
      "stateMutability": "view",
      "type": "function"
    },
    {
      "inputs": [
        {
          "internalType": "uint256",
          "name": "tokenId",
          "type": "uint256"
        }
      ],
      "name": "ownerOf",
      "outputs": [
        {
          "internalType": "address",
          "name": "",
          "type": "address"
        }
      ],
      "stateMutability": "view",
      "type": "function"
    },
    {
      "inputs": [
        {
          "internalType": "uint256",
          "name": "id",
          "type": "uint256"
        }
      ],
      "name": "registerAuction",
      "outputs": [],
      "stateMutability": "nonpayable",
      "type": "function"
    },
    {
      "inputs": [
        {
          "internalType": "address",
          "name": "from",
          "type": "address"
        },
        {
          "internalType": "address",
          "name": "to",
          "type": "address"
        },
        {
          "internalType": "uint256",
          "name": "tokenId",
          "type": "uint256"
        }
      ],
      "name": "safeTransferFrom",
      "outputs": [],
      "stateMutability": "nonpayable",
      "type": "function"
    },
    {
      "inputs": [
        {
          "internalType": "address",
          "name": "from",
          "type": "address"
        },
        {
          "internalType": "address",
          "name": "to",
          "type": "address"
        },
        {
          "internalType": "uint256",
          "name": "tokenId",
          "type": "uint256"
        },
        {
          "internalType": "bytes",
          "name": "_data",
          "type": "bytes"
        }
      ],
      "name": "safeTransferFrom",
      "outputs": [],
      "stateMutability": "nonpayable",
      "type": "function"
    },
    {
      "inputs": [
        {
          "internalType": "address",
          "name": "operator",
          "type": "address"
        },
        {
          "internalType": "bool",
          "name": "approved",
          "type": "bool"
        }
      ],
      "name": "setApprovalForAll",
      "outputs": [],
      "stateMutability": "nonpayable",
      "type": "function"
    },
    {
      "inputs": [
        {
          "internalType": "bytes4",
          "name": "interfaceId",
          "type": "bytes4"
        }
      ],
      "name": "supportsInterface",
      "outputs": [
        {
          "internalType": "bool",
          "name": "",
          "type": "bool"
        }
      ],
      "stateMutability": "view",
      "type": "function"
    },
    {
      "inputs": [],
      "name": "symbol",
      "outputs": [
        {
          "internalType": "string",
          "name": "",
          "type": "string"
        }
      ],
      "stateMutability": "view",
      "type": "function"
    },
    {
      "inputs": [
        {
          "internalType": "uint256",
          "name": "index",
          "type": "uint256"
        }
      ],
      "name": "tokenByIndex",
      "outputs": [
        {
          "internalType": "uint256",
          "name": "",
          "type": "uint256"
        }
      ],
      "stateMutability": "view",
      "type": "function"
    },
    {
      "inputs": [
        {
          "internalType": "address",
          "name": "owner",
          "type": "address"
        },
        {
          "internalType": "uint256",
          "name": "index",
          "type": "uint256"
        }
      ],
      "name": "tokenOfOwnerByIndex",
      "outputs": [
        {
          "internalType": "uint256",
          "name": "",
          "type": "uint256"
        }
      ],
      "stateMutability": "view",
      "type": "function"
    },
    {
      "inputs": [
        {
          "internalType": "uint256",
          "name": "tokenId",
          "type": "uint256"
        }
      ],
      "name": "tokenURI",
      "outputs": [
        {
          "internalType": "string",
          "name": "",
          "type": "string"
        }
      ],
      "stateMutability": "view",
      "type": "function"
    },
    {
      "inputs": [],
      "name": "totalSupply",
      "outputs": [
        {
          "internalType": "uint256",
          "name": "",
          "type": "uint256"
        }
      ],
      "stateMutability": "view",
      "type": "function"
    },
    {
      "inputs": [
        {
          "internalType": "address",
          "name": "from",
          "type": "address"
        },
        {
          "internalType": "address",
          "name": "to",
          "type": "address"
        },
        {
          "internalType": "uint256",
          "name": "tokenId",
          "type": "uint256"
        }
      ],
      "name": "transferFrom",
      "outputs": [],
      "stateMutability": "nonpayable",
      "type": "function"
    }
  ],
  "bytecode": "0x60806040523480156200001157600080fd5b5060405162001f0e38038062001f0e83398101604081905262000034916200028a565b604080518082018252600f81526e4d79206d61726b657420706c61636560881b60208083019182528351808501909452600384526204d4b560ec1b9084015281519192916200008691600091620001c7565b5080516200009c906001906020840190620001c7565b5050600c80546001600160a01b038086166001600160a01b031992831617909255600d80549285169290911682179055620000da91506001620000e2565b5050620002fe565b620000ef338383620000f3565b5050565b816001600160a01b0316836001600160a01b031614156200015a5760405162461bcd60e51b815260206004820152601960248201527f4552433732313a20617070726f766520746f2063616c6c657200000000000000604482015260640160405180910390fd5b6001600160a01b03838116600081815260056020908152604080832094871680845294825291829020805460ff191686151590811790915591519182527f17307eab39ab6107e8899845ad3d59bd9653f200f220920489ca2b5937696c31910160405180910390a3505050565b828054620001d590620002c1565b90600052602060002090601f016020900481019282620001f9576000855562000244565b82601f106200021457805160ff191683800117855562000244565b8280016001018555821562000244579182015b828111156200024457825182559160200191906001019062000227565b506200025292915062000256565b5090565b5b8082111562000252576000815560010162000257565b80516001600160a01b03811681146200028557600080fd5b919050565b600080604083850312156200029d578182fd5b620002a8836200026d565b9150620002b8602084016200026d565b90509250929050565b600181811c90821680620002d657607f821691505b60208210811415620002f857634e487b7160e01b600052602260045260246000fd5b50919050565b611c00806200030e6000396000f3fe608060405234801561001057600080fd5b506004361061012c5760003560e01c80635476ea9e116100ad578063afe0026a11610071578063afe0026a14610273578063b88d4fde14610286578063c87b56dd14610299578063e985e9c5146102ac578063f6b4dfb4146102bf57600080fd5b80635476ea9e1461021f5780636352211e1461023257806370a082311461024557806395d89b4114610258578063a22cb4651461026057600080fd5b806323b872dd116100f457806323b872dd146101c05780632f745c59146101d357806342842e0e146101e657806345576f94146101f95780634f6ccce71461020c57600080fd5b806301ffc9a71461013157806306fdde0314610159578063081812fc1461016e578063095ea7b31461019957806318160ddd146101ae575b600080fd5b61014461013f366004611882565b6102d2565b60405190151581526020015b60405180910390f35b6101616102e3565b60405161015091906119b0565b61018161017c366004611900565b610375565b6040516001600160a01b039091168152602001610150565b6101ac6101a7366004611859565b610402565b005b6009545b604051908152602001610150565b6101ac6101ce36600461176b565b610513565b6101b26101e1366004611859565b610544565b6101ac6101f436600461176b565b6105da565b6101b26102073660046118ba565b6105f5565b6101b261021a366004611900565b61068f565b600d54610181906001600160a01b031681565b610181610240366004611900565b610730565b6101b261025336600461171f565b6107a7565b61016161082e565b6101ac61026e36600461181f565b61083d565b6101ac610281366004611900565b61084c565b6101ac6102943660046117a6565b61086c565b6101616102a7366004611900565b6108a4565b6101446102ba366004611739565b6108af565b600c54610181906001600160a01b031681565b60006102dd826102d2565b92915050565b6060600080546102f290611b08565b80601f016020809104026020016040519081016040528092919081815260200182805461031e90611b08565b801561036b5780601f106103405761010080835404028352916020019161036b565b820191906000526020600020905b81548152906001019060200180831161034e57829003601f168201915b5050505050905090565b6000610380826108dd565b6103e65760405162461bcd60e51b815260206004820152602c60248201527f4552433732313a20617070726f76656420717565727920666f72206e6f6e657860448201526b34b9ba32b73a103a37b5b2b760a11b60648201526084015b60405180910390fd5b506000908152600460205260409020546001600160a01b031690565b600061040d82610730565b9050806001600160a01b0316836001600160a01b0316141561047b5760405162461bcd60e51b815260206004820152602160248201527f4552433732313a20617070726f76616c20746f2063757272656e74206f776e656044820152603960f91b60648201526084016103dd565b336001600160a01b0382161480610497575061049781336108af565b6105045760405162461bcd60e51b815260206004820152603860248201527f4552433732313a20617070726f76652063616c6c6572206973206e6f74206f776044820152771b995c881b9bdc88185c1c1c9bdd995908199bdc88185b1b60421b60648201526084016103dd565b61050e83836108fa565b505050565b61051d3382610968565b6105395760405162461bcd60e51b81526004016103dd90611a48565b61050e838383610a32565b600061054f836107a7565b82106105b15760405162461bcd60e51b815260206004820152602b60248201527f455243373231456e756d657261626c653a206f776e657220696e646578206f7560448201526a74206f6620626f756e647360a81b60648201526084016103dd565b506001600160a01b03919091166000908152600760209081526040808320938352929052205490565b61050e8383836040518060200160405280600081525061086c565b6000610605600b80546001019055565b6000610610600b5490565b905061061c3382610bd9565b6106268184610d18565b600c5461063d906001600160a01b0316600161083d565b600d54610654906001600160a01b0316600161083d565b60408051808201909152600781526630bab1ba34b7b760c91b6020820152600d54600c546102dd92916001600160a01b039081169116610da3565b600061069a60095490565b82106106fd5760405162461bcd60e51b815260206004820152602c60248201527f455243373231456e756d657261626c653a20676c6f62616c20696e646578206f60448201526b7574206f6620626f756e647360a01b60648201526084016103dd565b6009828154811061071e57634e487b7160e01b600052603260045260246000fd5b90600052602060002001549050919050565b6000818152600260205260408120546001600160a01b0316806102dd5760405162461bcd60e51b815260206004820152602960248201527f4552433732313a206f776e657220717565727920666f72206e6f6e657869737460448201526832b73a103a37b5b2b760b91b60648201526084016103dd565b60006001600160a01b0382166108125760405162461bcd60e51b815260206004820152602a60248201527f4552433732313a2062616c616e636520717565727920666f7220746865207a65604482015269726f206164647265737360b01b60648201526084016103dd565b506001600160a01b031660009081526003602052604090205490565b6060600180546102f290611b08565b610848338383610dea565b5050565b600c54600d54610869916001600160a01b03908116911683610513565b50565b6108763383610968565b6108925760405162461bcd60e51b81526004016103dd90611a48565b61089e84848484610eb5565b50505050565b60606102dd82610ee8565b6001600160a01b03918216600090815260056020908152604080832093909416825291909152205460ff1690565b6000908152600260205260409020546001600160a01b0316151590565b600081815260046020526040902080546001600160a01b0319166001600160a01b038416908117909155819061092f82610730565b6001600160a01b03167f8c5be1e5ebec7d5bd14f71427d1e84f3dd0314c0f7b2291e5b200ac8c7c3b92560405160405180910390a45050565b6000610973826108dd565b6109d45760405162461bcd60e51b815260206004820152602c60248201527f4552433732313a206f70657261746f7220717565727920666f72206e6f6e657860448201526b34b9ba32b73a103a37b5b2b760a11b60648201526084016103dd565b60006109df83610730565b9050806001600160a01b0316846001600160a01b03161480610a065750610a0681856108af565b80610a2a5750836001600160a01b0316610a1f84610375565b6001600160a01b0316145b949350505050565b826001600160a01b0316610a4582610730565b6001600160a01b031614610aa95760405162461bcd60e51b815260206004820152602560248201527f4552433732313a207472616e736665722066726f6d20696e636f72726563742060448201526437bbb732b960d91b60648201526084016103dd565b6001600160a01b038216610b0b5760405162461bcd60e51b8152602060048201526024808201527f4552433732313a207472616e7366657220746f20746865207a65726f206164646044820152637265737360e01b60648201526084016103dd565b610b16838383611057565b610b216000826108fa565b6001600160a01b0383166000908152600360205260408120805460019290610b4a908490611ac5565b90915550506001600160a01b0382166000908152600360205260408120805460019290610b78908490611a99565b909155505060008181526002602052604080822080546001600160a01b0319166001600160a01b0386811691821790925591518493918716917fddf252ad1be2c89b69c2b068fc378daa952ba7f163c4a11628f55a4df523b3ef91a4505050565b6001600160a01b038216610c2f5760405162461bcd60e51b815260206004820181905260248201527f4552433732313a206d696e7420746f20746865207a65726f206164647265737360448201526064016103dd565b610c38816108dd565b15610c855760405162461bcd60e51b815260206004820152601c60248201527f4552433732313a20746f6b656e20616c7265616479206d696e7465640000000060448201526064016103dd565b610c9160008383611057565b6001600160a01b0382166000908152600360205260408120805460019290610cba908490611a99565b909155505060008181526002602052604080822080546001600160a01b0319166001600160a01b03861690811790915590518392907fddf252ad1be2c89b69c2b068fc378daa952ba7f163c4a11628f55a4df523b3ef908290a45050565b610d21826108dd565b610d845760405162461bcd60e51b815260206004820152602e60248201527f45524337323155524953746f726167653a2055524920736574206f66206e6f6e60448201526d32bc34b9ba32b73a103a37b5b2b760911b60648201526084016103dd565b6000828152600660209081526040909120825161050e928401906115f4565b61050e838383604051602401610dbb939291906119c3565b60408051601f198184030181529190526020810180516001600160e01b03166307e763af60e51b179052611062565b816001600160a01b0316836001600160a01b03161415610e485760405162461bcd60e51b815260206004820152601960248201527822a9219b99189d1030b8383937bb32903a379031b0b63632b960391b60448201526064016103dd565b6001600160a01b03838116600081815260056020908152604080832094871680845294825291829020805460ff191686151590811790915591519182527f17307eab39ab6107e8899845ad3d59bd9653f200f220920489ca2b5937696c31910160405180910390a3505050565b610ec0848484610a32565b610ecc84848484611083565b61089e5760405162461bcd60e51b81526004016103dd906119f6565b6060610ef3826108dd565b610f595760405162461bcd60e51b815260206004820152603160248201527f45524337323155524953746f726167653a2055524920717565727920666f72206044820152703737b732bc34b9ba32b73a103a37b5b2b760791b60648201526084016103dd565b60008281526006602052604081208054610f7290611b08565b80601f0160208091040260200160405190810160405280929190818152602001828054610f9e90611b08565b8015610feb5780601f10610fc057610100808354040283529160200191610feb565b820191906000526020600020905b815481529060010190602001808311610fce57829003601f168201915b50505050509050600061100960408051602081019091526000815290565b905080516000141561101c575092915050565b81511561104e578082604051602001611036929190611944565b60405160208183030381529060405292505050919050565b610a2a84611190565b61050e838383611268565b80516a636f6e736f6c652e6c6f67602083016000808483855afa5050505050565b60006001600160a01b0384163b1561118557604051630a85bd0160e11b81526001600160a01b0385169063150b7a02906110c7903390899088908890600401611973565b602060405180830381600087803b1580156110e157600080fd5b505af1925050508015611111575060408051601f3d908101601f1916820190925261110e9181019061189e565b60015b61116b573d80801561113f576040519150601f19603f3d011682016040523d82523d6000602084013e611144565b606091505b5080516111635760405162461bcd60e51b81526004016103dd906119f6565b805181602001fd5b6001600160e01b031916630a85bd0160e11b149050610a2a565b506001949350505050565b606061119b826108dd565b6111ff5760405162461bcd60e51b815260206004820152602f60248201527f4552433732314d657461646174613a2055524920717565727920666f72206e6f60448201526e3732bc34b9ba32b73a103a37b5b2b760891b60648201526084016103dd565b600061121660408051602081019091526000815290565b905060008151116112365760405180602001604052806000815250611261565b8061124084611320565b604051602001611251929190611944565b6040516020818303038152906040525b9392505050565b6001600160a01b0383166112c3576112be81600980546000838152600a60205260408120829055600182018355919091527f6e1540171b6c0c960b71a7020d9f60077f6af931a8bbf590da0223dacf75c7af0155565b6112e6565b816001600160a01b0316836001600160a01b0316146112e6576112e6838261143a565b6001600160a01b0382166112fd5761050e816114d7565b826001600160a01b0316826001600160a01b03161461050e5761050e82826115b0565b6060816113445750506040805180820190915260018152600360fc1b602082015290565b8160005b811561136e578061135881611b43565b91506113679050600a83611ab1565b9150611348565b60008167ffffffffffffffff81111561139757634e487b7160e01b600052604160045260246000fd5b6040519080825280601f01601f1916602001820160405280156113c1576020820181803683370190505b5090505b8415610a2a576113d6600183611ac5565b91506113e3600a86611b5e565b6113ee906030611a99565b60f81b81838151811061141157634e487b7160e01b600052603260045260246000fd5b60200101906001600160f81b031916908160001a905350611433600a86611ab1565b94506113c5565b60006001611447846107a7565b6114519190611ac5565b6000838152600860205260409020549091508082146114a4576001600160a01b03841660009081526007602090815260408083208584528252808320548484528184208190558352600890915290208190555b5060009182526008602090815260408084208490556001600160a01b039094168352600781528383209183525290812055565b6009546000906114e990600190611ac5565b6000838152600a60205260408120546009805493945090928490811061151f57634e487b7160e01b600052603260045260246000fd5b90600052602060002001549050806009838154811061154e57634e487b7160e01b600052603260045260246000fd5b6000918252602080832090910192909255828152600a9091526040808220849055858252812055600980548061159457634e487b7160e01b600052603160045260246000fd5b6001900381819060005260206000200160009055905550505050565b60006115bb836107a7565b6001600160a01b039093166000908152600760209081526040808320868452825280832085905593825260089052919091209190915550565b82805461160090611b08565b90600052602060002090601f0160209004810192826116225760008555611668565b82601f1061163b57805160ff1916838001178555611668565b82800160010185558215611668579182015b8281111561166857825182559160200191906001019061164d565b50611674929150611678565b5090565b5b808211156116745760008155600101611679565b600067ffffffffffffffff808411156116a8576116a8611b9e565b604051601f8501601f19908116603f011681019082821181831017156116d0576116d0611b9e565b816040528093508581528686860111156116e957600080fd5b858560208301376000602087830101525050509392505050565b80356001600160a01b038116811461171a57600080fd5b919050565b600060208284031215611730578081fd5b61126182611703565b6000806040838503121561174b578081fd5b61175483611703565b915061176260208401611703565b90509250929050565b60008060006060848603121561177f578081fd5b61178884611703565b925061179660208501611703565b9150604084013590509250925092565b600080600080608085870312156117bb578081fd5b6117c485611703565b93506117d260208601611703565b925060408501359150606085013567ffffffffffffffff8111156117f4578182fd5b8501601f81018713611804578182fd5b6118138782356020840161168d565b91505092959194509250565b60008060408385031215611831578182fd5b61183a83611703565b91506020830135801515811461184e578182fd5b809150509250929050565b6000806040838503121561186b578182fd5b61187483611703565b946020939093013593505050565b600060208284031215611893578081fd5b813561126181611bb4565b6000602082840312156118af578081fd5b815161126181611bb4565b6000602082840312156118cb578081fd5b813567ffffffffffffffff8111156118e1578182fd5b8201601f810184136118f1578182fd5b610a2a8482356020840161168d565b600060208284031215611911578081fd5b5035919050565b60008151808452611930816020860160208601611adc565b601f01601f19169290920160200192915050565b60008351611956818460208801611adc565b83519083019061196a818360208801611adc565b01949350505050565b6001600160a01b03858116825284166020820152604081018390526080606082018190526000906119a690830184611918565b9695505050505050565b6020815260006112616020830184611918565b6060815260006119d66060830186611918565b6001600160a01b0394851660208401529290931660409091015292915050565b60208082526032908201527f4552433732313a207472616e7366657220746f206e6f6e20455243373231526560408201527131b2b4bb32b91034b6b83632b6b2b73a32b960711b606082015260800190565b60208082526031908201527f4552433732313a207472616e736665722063616c6c6572206973206e6f74206f6040820152701ddb995c881b9bdc88185c1c1c9bdd9959607a1b606082015260800190565b60008219821115611aac57611aac611b72565b500190565b600082611ac057611ac0611b88565b500490565b600082821015611ad757611ad7611b72565b500390565b60005b83811015611af7578181015183820152602001611adf565b8381111561089e5750506000910152565b600181811c90821680611b1c57607f821691505b60208210811415611b3d57634e487b7160e01b600052602260045260246000fd5b50919050565b6000600019821415611b5757611b57611b72565b5060010190565b600082611b6d57611b6d611b88565b500690565b634e487b7160e01b600052601160045260246000fd5b634e487b7160e01b600052601260045260246000fd5b634e487b7160e01b600052604160045260246000fd5b6001600160e01b03198116811461086957600080fdfea26469706673582212207d38d3e489d86f5aeafb79b52737797b4d556529cac603d28ef34cbc397d2e8464736f6c63430008040033",
  "linkReferences": {},
  "deployedLinkReferences": {}
}