{
  "_format": "hh-sol-artifact-1",
  "contractName": "NFT",
  "sourceName": "contracts/NFT.sol",
  "abi": [
    {
      "inputs": [
        {
          "internalType": "address",
          "name": "_marketplaceAddress",
          "type": "address"
        },
        {
          "internalType": "address",
          "name": "_auctionAddress",
          "type": "address"
        }
      ],
      "stateMutability": "nonpayable",
      "type": "constructor"
    },
    {
      "anonymous": false,
      "inputs": [
        {
          "indexed": true,
          "internalType": "address",
          "name": "owner",
          "type": "address"
        },
        {
          "indexed": true,
          "internalType": "address",
          "name": "approved",
          "type": "address"
        },
        {
          "indexed": true,
          "internalType": "uint256",
          "name": "tokenId",
          "type": "uint256"
        }
      ],
      "name": "Approval",
      "type": "event"
    },
    {
      "anonymous": false,
      "inputs": [
        {
          "indexed": true,
          "internalType": "address",
          "name": "owner",
          "type": "address"
        },
        {
          "indexed": true,
          "internalType": "address",
          "name": "operator",
          "type": "address"
        },
        {
          "indexed": false,
          "internalType": "bool",
          "name": "approved",
          "type": "bool"
        }
      ],
      "name": "ApprovalForAll",
      "type": "event"
    },
    {
      "anonymous": false,
      "inputs": [
        {
          "indexed": true,
          "internalType": "address",
          "name": "from",
          "type": "address"
        },
        {
          "indexed": true,
          "internalType": "address",
          "name": "to",
          "type": "address"
        },
        {
          "indexed": true,
          "internalType": "uint256",
          "name": "tokenId",
          "type": "uint256"
        }
      ],
      "name": "Transfer",
      "type": "event"
    },
    {
      "inputs": [
        {
          "internalType": "address",
          "name": "to",
          "type": "address"
        },
        {
          "internalType": "uint256",
          "name": "tokenId",
          "type": "uint256"
        }
      ],
      "name": "approve",
      "outputs": [],
      "stateMutability": "nonpayable",
      "type": "function"
    },
    {
      "inputs": [],
      "name": "auctionAddress",
      "outputs": [
        {
          "internalType": "address",
          "name": "",
          "type": "address"
        }
      ],
      "stateMutability": "view",
      "type": "function"
    },
    {
      "inputs": [
        {
          "internalType": "address",
          "name": "owner",
          "type": "address"
        }
      ],
      "name": "balanceOf",
      "outputs": [
        {
          "internalType": "uint256",
          "name": "",
          "type": "uint256"
        }
      ],
      "stateMutability": "view",
      "type": "function"
    },
    {
      "inputs": [],
      "name": "contractAddress",
      "outputs": [
        {
          "internalType": "address",
          "name": "",
          "type": "address"
        }
      ],
      "stateMutability": "view",
      "type": "function"
    },
    {
      "inputs": [
        {
          "internalType": "string",
          "name": "tokenURI",
          "type": "string"
        }
      ],
      "name": "createToken",
      "outputs": [
        {
          "internalType": "uint256",
          "name": "",
          "type": "uint256"
        }
      ],
      "stateMutability": "nonpayable",
      "type": "function"
    },
    {
      "inputs": [
        {
          "internalType": "uint256",
          "name": "tokenId",
          "type": "uint256"
        }
      ],
      "name": "getApproved",
      "outputs": [
        {
          "internalType": "address",
          "name": "",
          "type": "address"
        }
      ],
      "stateMutability": "view",
      "type": "function"
    },
    {
      "inputs": [
        {
          "internalType": "address",
          "name": "owner",
          "type": "address"
        },
        {
          "internalType": "address",
          "name": "operator",
          "type": "address"
        }
      ],
      "name": "isApprovedForAll",
      "outputs": [
        {
          "internalType": "bool",
          "name": "",
          "type": "bool"
        }
      ],
      "stateMutability": "view",
      "type": "function"
    },
    {
      "inputs": [],
      "name": "name",
      "outputs": [
        {
          "internalType": "string",
          "name": "",
          "type": "string"
        }
      ],
      "stateMutability": "view",
      "type": "function"
    },
    {
      "inputs": [
        {
          "internalType": "uint256",
          "name": "tokenId",
          "type": "uint256"
        }
      ],
      "name": "ownerOf",
      "outputs": [
        {
          "internalType": "address",
          "name": "",
          "type": "address"
        }
      ],
      "stateMutability": "view",
      "type": "function"
    },
    {
      "inputs": [
        {
          "internalType": "uint256",
          "name": "id",
          "type": "uint256"
        }
      ],
      "name": "registerAuction",
      "outputs": [],
      "stateMutability": "nonpayable",
      "type": "function"
    },
    {
      "inputs": [
        {
          "internalType": "address",
          "name": "from",
          "type": "address"
        },
        {
          "internalType": "address",
          "name": "to",
          "type": "address"
        },
        {
          "internalType": "uint256",
          "name": "tokenId",
          "type": "uint256"
        }
      ],
      "name": "safeTransferFrom",
      "outputs": [],
      "stateMutability": "nonpayable",
      "type": "function"
    },
    {
      "inputs": [
        {
          "internalType": "address",
          "name": "from",
          "type": "address"
        },
        {
          "internalType": "address",
          "name": "to",
          "type": "address"
        },
        {
          "internalType": "uint256",
          "name": "tokenId",
          "type": "uint256"
        },
        {
          "internalType": "bytes",
          "name": "_data",
          "type": "bytes"
        }
      ],
      "name": "safeTransferFrom",
      "outputs": [],
      "stateMutability": "nonpayable",
      "type": "function"
    },
    {
      "inputs": [
        {
          "internalType": "address",
          "name": "operator",
          "type": "address"
        },
        {
          "internalType": "bool",
          "name": "approved",
          "type": "bool"
        }
      ],
      "name": "setApprovalForAll",
      "outputs": [],
      "stateMutability": "nonpayable",
      "type": "function"
    },
    {
      "inputs": [
        {
          "internalType": "bytes4",
          "name": "interfaceId",
          "type": "bytes4"
        }
      ],
      "name": "supportsInterface",
      "outputs": [
        {
          "internalType": "bool",
          "name": "",
          "type": "bool"
        }
      ],
      "stateMutability": "view",
      "type": "function"
    },
    {
      "inputs": [],
      "name": "symbol",
      "outputs": [
        {
          "internalType": "string",
          "name": "",
          "type": "string"
        }
      ],
      "stateMutability": "view",
      "type": "function"
    },
    {
      "inputs": [
        {
          "internalType": "uint256",
          "name": "tokenId",
          "type": "uint256"
        }
      ],
      "name": "tokenURI",
      "outputs": [
        {
          "internalType": "string",
          "name": "",
          "type": "string"
        }
      ],
      "stateMutability": "view",
      "type": "function"
    },
    {
      "inputs": [
        {
          "internalType": "address",
          "name": "from",
          "type": "address"
        },
        {
          "internalType": "address",
          "name": "to",
          "type": "address"
        },
        {
          "internalType": "uint256",
          "name": "tokenId",
          "type": "uint256"
        }
      ],
      "name": "transferFrom",
      "outputs": [],
      "stateMutability": "nonpayable",
      "type": "function"
    }
  ],
  "bytecode": "0x60806040523480156200001157600080fd5b506040516200343f3803806200343f8339818101604052810190620000379190620003fd565b6040518060400160405280600f81526020017f4d79206d61726b657420706c61636500000000000000000000000000000000008152506040518060400160405280600381526020017f4d4b5000000000000000000000000000000000000000000000000000000000008152508160009080519060200190620000bb92919062000336565b508060019080519060200190620000d492919062000336565b50505081600860006101000a81548173ffffffffffffffffffffffffffffffffffffffff021916908373ffffffffffffffffffffffffffffffffffffffff16021790555080600960006101000a81548173ffffffffffffffffffffffffffffffffffffffff021916908373ffffffffffffffffffffffffffffffffffffffff1602179055506200018e600960009054906101000a900473ffffffffffffffffffffffffffffffffffffffff1660016200019660201b60201c565b5050620005ae565b620001b8620001aa620001bc60201b60201c565b8383620001c460201b60201c565b5050565b600033905090565b8173ffffffffffffffffffffffffffffffffffffffff168373ffffffffffffffffffffffffffffffffffffffff16141562000236576040517f08c379a00000000000000000000000000000000000000000000000000000000081526004016200022d9062000493565b60405180910390fd5b80600560008573ffffffffffffffffffffffffffffffffffffffff1673ffffffffffffffffffffffffffffffffffffffff16815260200190815260200160002060008473ffffffffffffffffffffffffffffffffffffffff1673ffffffffffffffffffffffffffffffffffffffff16815260200190815260200160002060006101000a81548160ff0219169083151502179055508173ffffffffffffffffffffffffffffffffffffffff168373ffffffffffffffffffffffffffffffffffffffff167f17307eab39ab6107e8899845ad3d59bd9653f200f220920489ca2b5937696c318360405162000329919062000476565b60405180910390a3505050565b828054620003449062000506565b90600052602060002090601f016020900481019282620003685760008555620003b4565b82601f106200038357805160ff1916838001178555620003b4565b82800160010185558215620003b4579182015b82811115620003b357825182559160200191906001019062000396565b5b509050620003c39190620003c7565b5090565b5b80821115620003e2576000816000905550600101620003c8565b5090565b600081519050620003f78162000594565b92915050565b600080604083850312156200041157600080fd5b60006200042185828601620003e6565b92505060206200043485828601620003e6565b9150509250929050565b6200044981620004da565b82525050565b60006200045e601983620004b5565b91506200046b826200056b565b602082019050919050565b60006020820190506200048d60008301846200043e565b92915050565b60006020820190508181036000830152620004ae816200044f565b9050919050565b600082825260208201905092915050565b6000620004d382620004e6565b9050919050565b60008115159050919050565b600073ffffffffffffffffffffffffffffffffffffffff82169050919050565b600060028204905060018216806200051f57607f821691505b602082108114156200053657620005356200053c565b5b50919050565b7f4e487b7100000000000000000000000000000000000000000000000000000000600052602260045260246000fd5b7f4552433732313a20617070726f766520746f2063616c6c657200000000000000600082015250565b6200059f81620004c6565b8114620005ab57600080fd5b50565b612e8180620005be6000396000f3fe608060405234801561001057600080fd5b506004361061010b5760003560e01c80636352211e116100a2578063afe0026a11610071578063afe0026a146102ca578063b88d4fde146102e6578063c87b56dd14610302578063e985e9c514610332578063f6b4dfb4146103625761010b565b80636352211e1461023057806370a082311461026057806395d89b4114610290578063a22cb465146102ae5761010b565b806323b872dd116100de57806323b872dd146101aa57806342842e0e146101c657806345576f94146101e25780635476ea9e146102125761010b565b806301ffc9a71461011057806306fdde0314610140578063081812fc1461015e578063095ea7b31461018e575b600080fd5b61012a60048036038101906101259190611eaf565b610380565b60405161013791906122f6565b60405180910390f35b610148610462565b6040516101559190612311565b60405180910390f35b61017860048036038101906101739190611f42565b6104f4565b604051610185919061228f565b60405180910390f35b6101a860048036038101906101a39190611e73565b610579565b005b6101c460048036038101906101bf9190611d6d565b610691565b005b6101e060048036038101906101db9190611d6d565b6106f1565b005b6101fc60048036038101906101f79190611f01565b610711565b6040516102099190612571565b60405180910390f35b61021a610826565b604051610227919061228f565b60405180910390f35b61024a60048036038101906102459190611f42565b61084c565b604051610257919061228f565b60405180910390f35b61027a60048036038101906102759190611d08565b6108fe565b6040516102879190612571565b60405180910390f35b6102986109b6565b6040516102a59190612311565b60405180910390f35b6102c860048036038101906102c39190611e37565b610a48565b005b6102e460048036038101906102df9190611f42565b610a5e565b005b61030060048036038101906102fb9190611dbc565b610ab0565b005b61031c60048036038101906103179190611f42565b610b12565b6040516103299190612311565b60405180910390f35b61034c60048036038101906103479190611d31565b610c64565b60405161035991906122f6565b60405180910390f35b61036a610cf8565b604051610377919061228f565b60405180910390f35b60007f80ac58cd000000000000000000000000000000000000000000000000000000007bffffffffffffffffffffffffffffffffffffffffffffffffffffffff1916827bffffffffffffffffffffffffffffffffffffffffffffffffffffffff1916148061044b57507f5b5e139f000000000000000000000000000000000000000000000000000000007bffffffffffffffffffffffffffffffffffffffffffffffffffffffff1916827bffffffffffffffffffffffffffffffffffffffffffffffffffffffff1916145b8061045b575061045a82610d1e565b5b9050919050565b606060008054610471906127c7565b80601f016020809104026020016040519081016040528092919081815260200182805461049d906127c7565b80156104ea5780601f106104bf576101008083540402835291602001916104ea565b820191906000526020600020905b8154815290600101906020018083116104cd57829003601f168201915b5050505050905090565b60006104ff82610d88565b61053e576040517f08c379a0000000000000000000000000000000000000000000000000000000008152600401610535906124f1565b60405180910390fd5b6004600083815260200190815260200160002060009054906101000a900473ffffffffffffffffffffffffffffffffffffffff169050919050565b60006105848261084c565b90508073ffffffffffffffffffffffffffffffffffffffff168373ffffffffffffffffffffffffffffffffffffffff1614156105f5576040517f08c379a00000000000000000000000000000000000000000000000000000000081526004016105ec90612531565b60405180910390fd5b8073ffffffffffffffffffffffffffffffffffffffff16610614610df4565b73ffffffffffffffffffffffffffffffffffffffff16148061064357506106428161063d610df4565b610c64565b5b610682576040517f08c379a000000000000000000000000000000000000000000000000000000000815260040161067990612431565b60405180910390fd5b61068c8383610dfc565b505050565b6106a261069c610df4565b82610eb5565b6106e1576040517f08c379a00000000000000000000000000000000000000000000000000000000081526004016106d890612551565b60405180910390fd5b6106ec838383610f93565b505050565b61070c83838360405180602001604052806000815250610ab0565b505050565b600061071d60076111fa565b60006107296007611210565b9050610735338261121e565b61073f81846113f8565b61076c600860009054906101000a900473ffffffffffffffffffffffffffffffffffffffff166001610a48565b610799600960009054906101000a900473ffffffffffffffffffffffffffffffffffffffff166001610a48565b61081d6040518060400160405280600781526020017f61756374696f6e00000000000000000000000000000000000000000000000000815250600960009054906101000a900473ffffffffffffffffffffffffffffffffffffffff16600860009054906101000a900473ffffffffffffffffffffffffffffffffffffffff1661146c565b80915050919050565b600960009054906101000a900473ffffffffffffffffffffffffffffffffffffffff1681565b6000806002600084815260200190815260200160002060009054906101000a900473ffffffffffffffffffffffffffffffffffffffff169050600073ffffffffffffffffffffffffffffffffffffffff168173ffffffffffffffffffffffffffffffffffffffff1614156108f5576040517f08c379a00000000000000000000000000000000000000000000000000000000081526004016108ec90612471565b60405180910390fd5b80915050919050565b60008073ffffffffffffffffffffffffffffffffffffffff168273ffffffffffffffffffffffffffffffffffffffff16141561096f576040517f08c379a000000000000000000000000000000000000000000000000000000000815260040161096690612451565b60405180910390fd5b600360008373ffffffffffffffffffffffffffffffffffffffff1673ffffffffffffffffffffffffffffffffffffffff168152602001908152602001600020549050919050565b6060600180546109c5906127c7565b80601f01602080910402602001604051908101604052809291908181526020018280546109f1906127c7565b8015610a3e5780601f10610a1357610100808354040283529160200191610a3e565b820191906000526020600020905b815481529060010190602001808311610a2157829003601f168201915b5050505050905090565b610a5a610a53610df4565b838361150b565b5050565b610aad600860009054906101000a900473ffffffffffffffffffffffffffffffffffffffff16600960009054906101000a900473ffffffffffffffffffffffffffffffffffffffff1683610691565b50565b610ac1610abb610df4565b83610eb5565b610b00576040517f08c379a0000000000000000000000000000000000000000000000000000000008152600401610af790612551565b60405180910390fd5b610b0c84848484611678565b50505050565b6060610b1d82610d88565b610b5c576040517f08c379a0000000000000000000000000000000000000000000000000000000008152600401610b53906124d1565b60405180910390fd5b6000600660008481526020019081526020016000208054610b7c906127c7565b80601f0160208091040260200160405190810160405280929190818152602001828054610ba8906127c7565b8015610bf55780601f10610bca57610100808354040283529160200191610bf5565b820191906000526020600020905b815481529060010190602001808311610bd857829003601f168201915b505050505090506000610c066116d4565b9050600081511415610c1c578192505050610c5f565b600082511115610c51578082604051602001610c3992919061226b565b60405160208183030381529060405292505050610c5f565b610c5a846116eb565b925050505b919050565b6000600560008473ffffffffffffffffffffffffffffffffffffffff1673ffffffffffffffffffffffffffffffffffffffff16815260200190815260200160002060008373ffffffffffffffffffffffffffffffffffffffff1673ffffffffffffffffffffffffffffffffffffffff16815260200190815260200160002060009054906101000a900460ff16905092915050565b600860009054906101000a900473ffffffffffffffffffffffffffffffffffffffff1681565b60007f01ffc9a7000000000000000000000000000000000000000000000000000000007bffffffffffffffffffffffffffffffffffffffffffffffffffffffff1916827bffffffffffffffffffffffffffffffffffffffffffffffffffffffff1916149050919050565b60008073ffffffffffffffffffffffffffffffffffffffff166002600084815260200190815260200160002060009054906101000a900473ffffffffffffffffffffffffffffffffffffffff1673ffffffffffffffffffffffffffffffffffffffff1614159050919050565b600033905090565b816004600083815260200190815260200160002060006101000a81548173ffffffffffffffffffffffffffffffffffffffff021916908373ffffffffffffffffffffffffffffffffffffffff160217905550808273ffffffffffffffffffffffffffffffffffffffff16610e6f8361084c565b73ffffffffffffffffffffffffffffffffffffffff167f8c5be1e5ebec7d5bd14f71427d1e84f3dd0314c0f7b2291e5b200ac8c7c3b92560405160405180910390a45050565b6000610ec082610d88565b610eff576040517f08c379a0000000000000000000000000000000000000000000000000000000008152600401610ef690612411565b60405180910390fd5b6000610f0a8361084c565b90508073ffffffffffffffffffffffffffffffffffffffff168473ffffffffffffffffffffffffffffffffffffffff161480610f4c5750610f4b8185610c64565b5b80610f8a57508373ffffffffffffffffffffffffffffffffffffffff16610f72846104f4565b73ffffffffffffffffffffffffffffffffffffffff16145b91505092915050565b8273ffffffffffffffffffffffffffffffffffffffff16610fb38261084c565b73ffffffffffffffffffffffffffffffffffffffff1614611009576040517f08c379a000000000000000000000000000000000000000000000000000000000815260040161100090612391565b60405180910390fd5b600073ffffffffffffffffffffffffffffffffffffffff168273ffffffffffffffffffffffffffffffffffffffff161415611079576040517f08c379a0000000000000000000000000000000000000000000000000000000008152600401611070906123d1565b60405180910390fd5b611084838383611792565b61108f600082610dfc565b6001600360008573ffffffffffffffffffffffffffffffffffffffff1673ffffffffffffffffffffffffffffffffffffffff16815260200190815260200160002060008282546110df91906126dd565b925050819055506001600360008473ffffffffffffffffffffffffffffffffffffffff1673ffffffffffffffffffffffffffffffffffffffff16815260200190815260200160002060008282546111369190612656565b92505081905550816002600083815260200190815260200160002060006101000a81548173ffffffffffffffffffffffffffffffffffffffff021916908373ffffffffffffffffffffffffffffffffffffffff160217905550808273ffffffffffffffffffffffffffffffffffffffff168473ffffffffffffffffffffffffffffffffffffffff167fddf252ad1be2c89b69c2b068fc378daa952ba7f163c4a11628f55a4df523b3ef60405160405180910390a46111f5838383611797565b505050565b6001816000016000828254019250508190555050565b600081600001549050919050565b600073ffffffffffffffffffffffffffffffffffffffff168273ffffffffffffffffffffffffffffffffffffffff16141561128e576040517f08c379a0000000000000000000000000000000000000000000000000000000008152600401611285906124b1565b60405180910390fd5b61129781610d88565b156112d7576040517f08c379a00000000000000000000000000000000000000000000000000000000081526004016112ce906123b1565b60405180910390fd5b6112e360008383611792565b6001600360008473ffffffffffffffffffffffffffffffffffffffff1673ffffffffffffffffffffffffffffffffffffffff16815260200190815260200160002060008282546113339190612656565b92505081905550816002600083815260200190815260200160002060006101000a81548173ffffffffffffffffffffffffffffffffffffffff021916908373ffffffffffffffffffffffffffffffffffffffff160217905550808273ffffffffffffffffffffffffffffffffffffffff16600073ffffffffffffffffffffffffffffffffffffffff167fddf252ad1be2c89b69c2b068fc378daa952ba7f163c4a11628f55a4df523b3ef60405160405180910390a46113f460008383611797565b5050565b61140182610d88565b611440576040517f08c379a000000000000000000000000000000000000000000000000000000000815260040161143790612491565b60405180910390fd5b80600660008481526020019081526020016000209080519060200190611467929190611b2c565b505050565b61150683838360405160240161148493929190612333565b6040516020818303038152906040527ffcec75e0000000000000000000000000000000000000000000000000000000007bffffffffffffffffffffffffffffffffffffffffffffffffffffffff19166020820180517bffffffffffffffffffffffffffffffffffffffffffffffffffffffff838183161783525050505061179c565b505050565b8173ffffffffffffffffffffffffffffffffffffffff168373ffffffffffffffffffffffffffffffffffffffff16141561157a576040517f08c379a0000000000000000000000000000000000000000000000000000000008152600401611571906123f1565b60405180910390fd5b80600560008573ffffffffffffffffffffffffffffffffffffffff1673ffffffffffffffffffffffffffffffffffffffff16815260200190815260200160002060008473ffffffffffffffffffffffffffffffffffffffff1673ffffffffffffffffffffffffffffffffffffffff16815260200190815260200160002060006101000a81548160ff0219169083151502179055508173ffffffffffffffffffffffffffffffffffffffff168373ffffffffffffffffffffffffffffffffffffffff167f17307eab39ab6107e8899845ad3d59bd9653f200f220920489ca2b5937696c318360405161166b91906122f6565b60405180910390a3505050565b611683848484610f93565b61168f848484846117c5565b6116ce576040517f08c379a00000000000000000000000000000000000000000000000000000000081526004016116c590612371565b60405180910390fd5b50505050565b606060405180602001604052806000815250905090565b60606116f682610d88565b611735576040517f08c379a000000000000000000000000000000000000000000000000000000000815260040161172c90612511565b60405180910390fd5b600061173f6116d4565b9050600081511161175f576040518060200160405280600081525061178a565b806117698461195c565b60405160200161177a92919061226b565b6040516020818303038152906040525b915050919050565b505050565b505050565b60008151905060006a636f6e736f6c652e6c6f679050602083016000808483855afa5050505050565b60006117e68473ffffffffffffffffffffffffffffffffffffffff16611b09565b1561194f578373ffffffffffffffffffffffffffffffffffffffff1663150b7a0261180f610df4565b8786866040518563ffffffff1660e01b815260040161183194939291906122aa565b602060405180830381600087803b15801561184b57600080fd5b505af192505050801561187c57506040513d601f19601f820116820180604052508101906118799190611ed8565b60015b6118ff573d80600081146118ac576040519150601f19603f3d011682016040523d82523d6000602084013e6118b1565b606091505b506000815114156118f7576040517f08c379a00000000000000000000000000000000000000000000000000000000081526004016118ee90612371565b60405180910390fd5b805181602001fd5b63150b7a0260e01b7bffffffffffffffffffffffffffffffffffffffffffffffffffffffff1916817bffffffffffffffffffffffffffffffffffffffffffffffffffffffff191614915050611954565b600190505b949350505050565b606060008214156119a4576040518060400160405280600181526020017f30000000000000000000000000000000000000000000000000000000000000008152509050611b04565b600082905060005b600082146119d65780806119bf9061282a565b915050600a826119cf91906126ac565b91506119ac565b60008167ffffffffffffffff811115611a18577f4e487b7100000000000000000000000000000000000000000000000000000000600052604160045260246000fd5b6040519080825280601f01601f191660200182016040528015611a4a5781602001600182028036833780820191505090505b5090505b60008514611afd57600182611a6391906126dd565b9150600a85611a729190612873565b6030611a7e9190612656565b60f81b818381518110611aba577f4e487b7100000000000000000000000000000000000000000000000000000000600052603260045260246000fd5b60200101907effffffffffffffffffffffffffffffffffffffffffffffffffffffffffffff1916908160001a905350600a85611af691906126ac565b9450611a4e565b8093505050505b919050565b6000808273ffffffffffffffffffffffffffffffffffffffff163b119050919050565b828054611b38906127c7565b90600052602060002090601f016020900481019282611b5a5760008555611ba1565b82601f10611b7357805160ff1916838001178555611ba1565b82800160010185558215611ba1579182015b82811115611ba0578251825591602001919060010190611b85565b5b509050611bae9190611bb2565b5090565b5b80821115611bcb576000816000905550600101611bb3565b5090565b6000611be2611bdd846125b1565b61258c565b905082815260208101848484011115611bfa57600080fd5b611c05848285612785565b509392505050565b6000611c20611c1b846125e2565b61258c565b905082815260208101848484011115611c3857600080fd5b611c43848285612785565b509392505050565b600081359050611c5a81612def565b92915050565b600081359050611c6f81612e06565b92915050565b600081359050611c8481612e1d565b92915050565b600081519050611c9981612e1d565b92915050565b600082601f830112611cb057600080fd5b8135611cc0848260208601611bcf565b91505092915050565b600082601f830112611cda57600080fd5b8135611cea848260208601611c0d565b91505092915050565b600081359050611d0281612e34565b92915050565b600060208284031215611d1a57600080fd5b6000611d2884828501611c4b565b91505092915050565b60008060408385031215611d4457600080fd5b6000611d5285828601611c4b565b9250506020611d6385828601611c4b565b9150509250929050565b600080600060608486031215611d8257600080fd5b6000611d9086828701611c4b565b9350506020611da186828701611c4b565b9250506040611db286828701611cf3565b9150509250925092565b60008060008060808587031215611dd257600080fd5b6000611de087828801611c4b565b9450506020611df187828801611c4b565b9350506040611e0287828801611cf3565b925050606085013567ffffffffffffffff811115611e1f57600080fd5b611e2b87828801611c9f565b91505092959194509250565b60008060408385031215611e4a57600080fd5b6000611e5885828601611c4b565b9250506020611e6985828601611c60565b9150509250929050565b60008060408385031215611e8657600080fd5b6000611e9485828601611c4b565b9250506020611ea585828601611cf3565b9150509250929050565b600060208284031215611ec157600080fd5b6000611ecf84828501611c75565b91505092915050565b600060208284031215611eea57600080fd5b6000611ef884828501611c8a565b91505092915050565b600060208284031215611f1357600080fd5b600082013567ffffffffffffffff811115611f2d57600080fd5b611f3984828501611cc9565b91505092915050565b600060208284031215611f5457600080fd5b6000611f6284828501611cf3565b91505092915050565b611f7481612711565b82525050565b611f8381612723565b82525050565b6000611f9482612613565b611f9e8185612629565b9350611fae818560208601612794565b611fb781612960565b840191505092915050565b6000611fcd8261261e565b611fd7818561263a565b9350611fe7818560208601612794565b611ff081612960565b840191505092915050565b60006120068261261e565b612010818561264b565b9350612020818560208601612794565b80840191505092915050565b600061203960328361263a565b915061204482612971565b604082019050919050565b600061205c60258361263a565b9150612067826129c0565b604082019050919050565b600061207f601c8361263a565b915061208a82612a0f565b602082019050919050565b60006120a260248361263a565b91506120ad82612a38565b604082019050919050565b60006120c560198361263a565b91506120d082612a87565b602082019050919050565b60006120e8602c8361263a565b91506120f382612ab0565b604082019050919050565b600061210b60388361263a565b915061211682612aff565b604082019050919050565b600061212e602a8361263a565b915061213982612b4e565b604082019050919050565b600061215160298361263a565b915061215c82612b9d565b604082019050919050565b6000612174602e8361263a565b915061217f82612bec565b604082019050919050565b600061219760208361263a565b91506121a282612c3b565b602082019050919050565b60006121ba60318361263a565b91506121c582612c64565b604082019050919050565b60006121dd602c8361263a565b91506121e882612cb3565b604082019050919050565b6000612200602f8361263a565b915061220b82612d02565b604082019050919050565b600061222360218361263a565b915061222e82612d51565b604082019050919050565b600061224660318361263a565b915061225182612da0565b604082019050919050565b6122658161277b565b82525050565b60006122778285611ffb565b91506122838284611ffb565b91508190509392505050565b60006020820190506122a46000830184611f6b565b92915050565b60006080820190506122bf6000830187611f6b565b6122cc6020830186611f6b565b6122d9604083018561225c565b81810360608301526122eb8184611f89565b905095945050505050565b600060208201905061230b6000830184611f7a565b92915050565b6000602082019050818103600083015261232b8184611fc2565b905092915050565b6000606082019050818103600083015261234d8186611fc2565b905061235c6020830185611f6b565b6123696040830184611f6b565b949350505050565b6000602082019050818103600083015261238a8161202c565b9050919050565b600060208201905081810360008301526123aa8161204f565b9050919050565b600060208201905081810360008301526123ca81612072565b9050919050565b600060208201905081810360008301526123ea81612095565b9050919050565b6000602082019050818103600083015261240a816120b8565b9050919050565b6000602082019050818103600083015261242a816120db565b9050919050565b6000602082019050818103600083015261244a816120fe565b9050919050565b6000602082019050818103600083015261246a81612121565b9050919050565b6000602082019050818103600083015261248a81612144565b9050919050565b600060208201905081810360008301526124aa81612167565b9050919050565b600060208201905081810360008301526124ca8161218a565b9050919050565b600060208201905081810360008301526124ea816121ad565b9050919050565b6000602082019050818103600083015261250a816121d0565b9050919050565b6000602082019050818103600083015261252a816121f3565b9050919050565b6000602082019050818103600083015261254a81612216565b9050919050565b6000602082019050818103600083015261256a81612239565b9050919050565b6000602082019050612586600083018461225c565b92915050565b60006125966125a7565b90506125a282826127f9565b919050565b6000604051905090565b600067ffffffffffffffff8211156125cc576125cb612931565b5b6125d582612960565b9050602081019050919050565b600067ffffffffffffffff8211156125fd576125fc612931565b5b61260682612960565b9050602081019050919050565b600081519050919050565b600081519050919050565b600082825260208201905092915050565b600082825260208201905092915050565b600081905092915050565b60006126618261277b565b915061266c8361277b565b9250827fffffffffffffffffffffffffffffffffffffffffffffffffffffffffffffffff038211156126a1576126a06128a4565b5b828201905092915050565b60006126b78261277b565b91506126c28361277b565b9250826126d2576126d16128d3565b5b828204905092915050565b60006126e88261277b565b91506126f38361277b565b925082821015612706576127056128a4565b5b828203905092915050565b600061271c8261275b565b9050919050565b60008115159050919050565b60007fffffffff0000000000000000000000000000000000000000000000000000000082169050919050565b600073ffffffffffffffffffffffffffffffffffffffff82169050919050565b6000819050919050565b82818337600083830152505050565b60005b838110156127b2578082015181840152602081019050612797565b838111156127c1576000848401525b50505050565b600060028204905060018216806127df57607f821691505b602082108114156127f3576127f2612902565b5b50919050565b61280282612960565b810181811067ffffffffffffffff8211171561282157612820612931565b5b80604052505050565b60006128358261277b565b91507fffffffffffffffffffffffffffffffffffffffffffffffffffffffffffffffff821415612868576128676128a4565b5b600182019050919050565b600061287e8261277b565b91506128898361277b565b925082612899576128986128d3565b5b828206905092915050565b7f4e487b7100000000000000000000000000000000000000000000000000000000600052601160045260246000fd5b7f4e487b7100000000000000000000000000000000000000000000000000000000600052601260045260246000fd5b7f4e487b7100000000000000000000000000000000000000000000000000000000600052602260045260246000fd5b7f4e487b7100000000000000000000000000000000000000000000000000000000600052604160045260246000fd5b6000601f19601f8301169050919050565b7f4552433732313a207472616e7366657220746f206e6f6e20455243373231526560008201527f63656976657220696d706c656d656e7465720000000000000000000000000000602082015250565b7f4552433732313a207472616e736665722066726f6d20696e636f72726563742060008201527f6f776e6572000000000000000000000000000000000000000000000000000000602082015250565b7f4552433732313a20746f6b656e20616c7265616479206d696e74656400000000600082015250565b7f4552433732313a207472616e7366657220746f20746865207a65726f2061646460008201527f7265737300000000000000000000000000000000000000000000000000000000602082015250565b7f4552433732313a20617070726f766520746f2063616c6c657200000000000000600082015250565b7f4552433732313a206f70657261746f7220717565727920666f72206e6f6e657860008201527f697374656e7420746f6b656e0000000000000000000000000000000000000000602082015250565b7f4552433732313a20617070726f76652063616c6c6572206973206e6f74206f7760008201527f6e6572206e6f7220617070726f76656420666f7220616c6c0000000000000000602082015250565b7f4552433732313a2062616c616e636520717565727920666f7220746865207a6560008201527f726f206164647265737300000000000000000000000000000000000000000000602082015250565b7f4552433732313a206f776e657220717565727920666f72206e6f6e657869737460008201527f656e7420746f6b656e0000000000000000000000000000000000000000000000602082015250565b7f45524337323155524953746f726167653a2055524920736574206f66206e6f6e60008201527f6578697374656e7420746f6b656e000000000000000000000000000000000000602082015250565b7f4552433732313a206d696e7420746f20746865207a65726f2061646472657373600082015250565b7f45524337323155524953746f726167653a2055524920717565727920666f722060008201527f6e6f6e6578697374656e7420746f6b656e000000000000000000000000000000602082015250565b7f4552433732313a20617070726f76656420717565727920666f72206e6f6e657860008201527f697374656e7420746f6b656e0000000000000000000000000000000000000000602082015250565b7f4552433732314d657461646174613a2055524920717565727920666f72206e6f60008201527f6e6578697374656e7420746f6b656e0000000000000000000000000000000000602082015250565b7f4552433732313a20617070726f76616c20746f2063757272656e74206f776e6560008201527f7200000000000000000000000000000000000000000000000000000000000000602082015250565b7f4552433732313a207472616e736665722063616c6c6572206973206e6f74206f60008201527f776e6572206e6f7220617070726f766564000000000000000000000000000000602082015250565b612df881612711565b8114612e0357600080fd5b50565b612e0f81612723565b8114612e1a57600080fd5b50565b612e268161272f565b8114612e3157600080fd5b50565b612e3d8161277b565b8114612e4857600080fd5b5056fea264697066735822122041c5dc8cded71d926c0c9aed28fec841b840200ad03e371bde778d15b50e927464736f6c63430008040033",
  "linkReferences": {},
  "deployedLinkReferences": {}
}