{
  "_format": "hh-sol-artifact-1",
  "contractName": "GovernancToken",
  "sourceName": "contracts/dao/GovernaceToken.sol",
  "abi": [
    {
      "inputs": [],
      "stateMutability": "nonpayable",
      "type": "constructor"
    },
    {
      "anonymous": false,
      "inputs": [
        {
          "indexed": true,
          "internalType": "address",
          "name": "owner",
          "type": "address"
        },
        {
          "indexed": true,
          "internalType": "address",
          "name": "spender",
          "type": "address"
        },
        {
          "indexed": false,
          "internalType": "uint256",
          "name": "value",
          "type": "uint256"
        }
      ],
      "name": "Approval",
      "type": "event"
    },
    {
      "anonymous": false,
      "inputs": [
        {
          "indexed": true,
          "internalType": "address",
          "name": "delegator",
          "type": "address"
        },
        {
          "indexed": true,
          "internalType": "address",
          "name": "fromDelegate",
          "type": "address"
        },
        {
          "indexed": true,
          "internalType": "address",
          "name": "toDelegate",
          "type": "address"
        }
      ],
      "name": "DelegateChanged",
      "type": "event"
    },
    {
      "anonymous": false,
      "inputs": [
        {
          "indexed": true,
          "internalType": "address",
          "name": "delegate",
          "type": "address"
        },
        {
          "indexed": false,
          "internalType": "uint256",
          "name": "previousBalance",
          "type": "uint256"
        },
        {
          "indexed": false,
          "internalType": "uint256",
          "name": "newBalance",
          "type": "uint256"
        }
      ],
      "name": "DelegateVotesChanged",
      "type": "event"
    },
    {
      "anonymous": false,
      "inputs": [
        {
          "indexed": true,
          "internalType": "address",
          "name": "from",
          "type": "address"
        },
        {
          "indexed": true,
          "internalType": "address",
          "name": "to",
          "type": "address"
        },
        {
          "indexed": false,
          "internalType": "uint256",
          "name": "value",
          "type": "uint256"
        }
      ],
      "name": "Transfer",
      "type": "event"
    },
    {
      "inputs": [],
      "name": "DOMAIN_SEPARATOR",
      "outputs": [
        {
          "internalType": "bytes32",
          "name": "",
          "type": "bytes32"
        }
      ],
      "stateMutability": "view",
      "type": "function"
    },
    {
      "inputs": [
        {
          "internalType": "address",
          "name": "owner",
          "type": "address"
        },
        {
          "internalType": "address",
          "name": "spender",
          "type": "address"
        }
      ],
      "name": "allowance",
      "outputs": [
        {
          "internalType": "uint256",
          "name": "",
          "type": "uint256"
        }
      ],
      "stateMutability": "view",
      "type": "function"
    },
    {
      "inputs": [
        {
          "internalType": "address",
          "name": "spender",
          "type": "address"
        },
        {
          "internalType": "uint256",
          "name": "amount",
          "type": "uint256"
        }
      ],
      "name": "approve",
      "outputs": [
        {
          "internalType": "bool",
          "name": "",
          "type": "bool"
        }
      ],
      "stateMutability": "nonpayable",
      "type": "function"
    },
    {
      "inputs": [
        {
          "internalType": "address",
          "name": "account",
          "type": "address"
        }
      ],
      "name": "balanceOf",
      "outputs": [
        {
          "internalType": "uint256",
          "name": "",
          "type": "uint256"
        }
      ],
      "stateMutability": "view",
      "type": "function"
    },
    {
      "inputs": [
        {
          "internalType": "address",
          "name": "account",
          "type": "address"
        },
        {
          "internalType": "uint32",
          "name": "pos",
          "type": "uint32"
        }
      ],
      "name": "checkpoints",
      "outputs": [
        {
          "components": [
            {
              "internalType": "uint32",
              "name": "fromBlock",
              "type": "uint32"
            },
            {
              "internalType": "uint224",
              "name": "votes",
              "type": "uint224"
            }
          ],
          "internalType": "struct ERC20Votes.Checkpoint",
          "name": "",
          "type": "tuple"
        }
      ],
      "stateMutability": "view",
      "type": "function"
    },
    {
      "inputs": [],
      "name": "decimals",
      "outputs": [
        {
          "internalType": "uint8",
          "name": "",
          "type": "uint8"
        }
      ],
      "stateMutability": "view",
      "type": "function"
    },
    {
      "inputs": [
        {
          "internalType": "address",
          "name": "spender",
          "type": "address"
        },
        {
          "internalType": "uint256",
          "name": "subtractedValue",
          "type": "uint256"
        }
      ],
      "name": "decreaseAllowance",
      "outputs": [
        {
          "internalType": "bool",
          "name": "",
          "type": "bool"
        }
      ],
      "stateMutability": "nonpayable",
      "type": "function"
    },
    {
      "inputs": [
        {
          "internalType": "address",
          "name": "delegatee",
          "type": "address"
        }
      ],
      "name": "delegate",
      "outputs": [],
      "stateMutability": "nonpayable",
      "type": "function"
    },
    {
      "inputs": [
        {
          "internalType": "address",
          "name": "delegatee",
          "type": "address"
        },
        {
          "internalType": "uint256",
          "name": "nonce",
          "type": "uint256"
        },
        {
          "internalType": "uint256",
          "name": "expiry",
          "type": "uint256"
        },
        {
          "internalType": "uint8",
          "name": "v",
          "type": "uint8"
        },
        {
          "internalType": "bytes32",
          "name": "r",
          "type": "bytes32"
        },
        {
          "internalType": "bytes32",
          "name": "s",
          "type": "bytes32"
        }
      ],
      "name": "delegateBySig",
      "outputs": [],
      "stateMutability": "nonpayable",
      "type": "function"
    },
    {
      "inputs": [
        {
          "internalType": "address",
          "name": "account",
          "type": "address"
        }
      ],
      "name": "delegates",
      "outputs": [
        {
          "internalType": "address",
          "name": "",
          "type": "address"
        }
      ],
      "stateMutability": "view",
      "type": "function"
    },
    {
      "inputs": [
        {
          "internalType": "uint256",
          "name": "blockNumber",
          "type": "uint256"
        }
      ],
      "name": "getPastTotalSupply",
      "outputs": [
        {
          "internalType": "uint256",
          "name": "",
          "type": "uint256"
        }
      ],
      "stateMutability": "view",
      "type": "function"
    },
    {
      "inputs": [
        {
          "internalType": "address",
          "name": "account",
          "type": "address"
        },
        {
          "internalType": "uint256",
          "name": "blockNumber",
          "type": "uint256"
        }
      ],
      "name": "getPastVotes",
      "outputs": [
        {
          "internalType": "uint256",
          "name": "",
          "type": "uint256"
        }
      ],
      "stateMutability": "view",
      "type": "function"
    },
    {
      "inputs": [
        {
          "internalType": "address",
          "name": "account",
          "type": "address"
        }
      ],
      "name": "getVotes",
      "outputs": [
        {
          "internalType": "uint256",
          "name": "",
          "type": "uint256"
        }
      ],
      "stateMutability": "view",
      "type": "function"
    },
    {
      "inputs": [
        {
          "internalType": "address",
          "name": "spender",
          "type": "address"
        },
        {
          "internalType": "uint256",
          "name": "addedValue",
          "type": "uint256"
        }
      ],
      "name": "increaseAllowance",
      "outputs": [
        {
          "internalType": "bool",
          "name": "",
          "type": "bool"
        }
      ],
      "stateMutability": "nonpayable",
      "type": "function"
    },
    {
      "inputs": [],
      "name": "maxSupply",
      "outputs": [
        {
          "internalType": "uint256",
          "name": "",
          "type": "uint256"
        }
      ],
      "stateMutability": "view",
      "type": "function"
    },
    {
      "inputs": [],
      "name": "name",
      "outputs": [
        {
          "internalType": "string",
          "name": "",
          "type": "string"
        }
      ],
      "stateMutability": "view",
      "type": "function"
    },
    {
      "inputs": [
        {
          "internalType": "address",
          "name": "owner",
          "type": "address"
        }
      ],
      "name": "nonces",
      "outputs": [
        {
          "internalType": "uint256",
          "name": "",
          "type": "uint256"
        }
      ],
      "stateMutability": "view",
      "type": "function"
    },
    {
      "inputs": [
        {
          "internalType": "address",
          "name": "account",
          "type": "address"
        }
      ],
      "name": "numCheckpoints",
      "outputs": [
        {
          "internalType": "uint32",
          "name": "",
          "type": "uint32"
        }
      ],
      "stateMutability": "view",
      "type": "function"
    },
    {
      "inputs": [
        {
          "internalType": "address",
          "name": "owner",
          "type": "address"
        },
        {
          "internalType": "address",
          "name": "spender",
          "type": "address"
        },
        {
          "internalType": "uint256",
          "name": "value",
          "type": "uint256"
        },
        {
          "internalType": "uint256",
          "name": "deadline",
          "type": "uint256"
        },
        {
          "internalType": "uint8",
          "name": "v",
          "type": "uint8"
        },
        {
          "internalType": "bytes32",
          "name": "r",
          "type": "bytes32"
        },
        {
          "internalType": "bytes32",
          "name": "s",
          "type": "bytes32"
        }
      ],
      "name": "permit",
      "outputs": [],
      "stateMutability": "nonpayable",
      "type": "function"
    },
    {
      "inputs": [],
      "name": "symbol",
      "outputs": [
        {
          "internalType": "string",
          "name": "",
          "type": "string"
        }
      ],
      "stateMutability": "view",
      "type": "function"
    },
    {
      "inputs": [],
      "name": "totalSupply",
      "outputs": [
        {
          "internalType": "uint256",
          "name": "",
          "type": "uint256"
        }
      ],
      "stateMutability": "view",
      "type": "function"
    },
    {
      "inputs": [
        {
          "internalType": "address",
          "name": "to",
          "type": "address"
        },
        {
          "internalType": "uint256",
          "name": "amount",
          "type": "uint256"
        }
      ],
      "name": "transfer",
      "outputs": [
        {
          "internalType": "bool",
          "name": "",
          "type": "bool"
        }
      ],
      "stateMutability": "nonpayable",
      "type": "function"
    },
    {
      "inputs": [
        {
          "internalType": "address",
          "name": "from",
          "type": "address"
        },
        {
          "internalType": "address",
          "name": "to",
          "type": "address"
        },
        {
          "internalType": "uint256",
          "name": "amount",
          "type": "uint256"
        }
      ],
      "name": "transferFrom",
      "outputs": [
        {
          "internalType": "bool",
          "name": "",
          "type": "bool"
        }
      ],
      "stateMutability": "nonpayable",
      "type": "function"
    }
  ],
  "bytecode": "0x610140604052670de0b6b3a7640000600a553480156200001e57600080fd5b506040518060400160405280601181526020017023b7bb32b93737b93730b1b2aa37b5b2b760791b81525080604051806040016040528060018152602001603160f81b8152506040518060400160405280601181526020017023b7bb32b93737b93730b1b2aa37b5b2b760791b8152506040518060400160405280600281526020016111d560f21b8152508160039080519060200190620000c1929190620007a8565b508051620000d7906004906020840190620007a8565b5050825160208085019190912083518483012060e08290526101008190524660a0818152604080517f8b73c3c69bb8fe3d512ecc4cf759cc79239f7b179b0ffacaa9a75d522b39400f81880181905281830187905260608201869052608082019490945230818401528151808203909301835260c0019052805194019390932091935091906080523060601b60c052610120525050600a54620001809350339250905062000186565b620008cc565b6200019d8282620001a160201b620009d91760201c565b5050565b620001b882826200025860201b62000a691760201c565b6001600160e01b03620001cc620003478216565b1115620002395760405162461bcd60e51b815260206004820152603060248201527f4552433230566f7465733a20746f74616c20737570706c79207269736b73206f60448201526f766572666c6f77696e6720766f74657360801b60648201526084015b60405180910390fd5b62000252600962000b546200034d60201b178362000362565b50505050565b6001600160a01b038216620002b05760405162461bcd60e51b815260206004820152601f60248201527f45524332303a206d696e7420746f20746865207a65726f206164647265737300604482015260640162000230565b8060026000828254620002c4919062000844565b90915550506001600160a01b03821660009081526020819052604081208054839290620002f390849062000844565b90915550506040518181526001600160a01b038316906000907fddf252ad1be2c89b69c2b068fc378daa952ba7f163c4a11628f55a4df523b3ef9060200160405180910390a36200019d600083836200053d565b60025490565b60006200035b828462000844565b9392505050565b825460009081908015620003c057856200037e6001836200085f565b815481106200039d57634e487b7160e01b600052603260045260246000fd5b60009182526020909120015464010000000090046001600160e01b0316620003c3565b60005b6001600160e01b03169250620003da83858760201c565b91506000811180156200042a57504386620003f76001846200085f565b815481106200041657634e487b7160e01b600052603260045260246000fd5b60009182526020909120015463ffffffff16145b15620004aa5762000446826200055560201b62000b601760201c565b86620004546001846200085f565b815481106200047357634e487b7160e01b600052603260045260246000fd5b9060005260206000200160000160046101000a8154816001600160e01b0302191690836001600160e01b031602179055506200052f565b856040518060400160405280620004cc43620005c460201b62000bcd1760201c565b63ffffffff168152602001620004ed856200055560201b62000b601760201c565b6001600160e01b0390811690915282546001810184556000938452602093849020835194909301519091166401000000000263ffffffff909316929092179101555b50935093915050565b505050565b620005388383836200062b60201b62000c321760201c565b60006001600160e01b03821115620005c05760405162461bcd60e51b815260206004820152602760248201527f53616665436173743a2076616c756520646f65736e27742066697420696e20326044820152663234206269747360c81b606482015260840162000230565b5090565b600063ffffffff821115620005c05760405162461bcd60e51b815260206004820152602660248201527f53616665436173743a2076616c756520646f65736e27742066697420696e203360448201526532206269747360d01b606482015260840162000230565b620006438383836200053860201b62000c4d1760201c565b6001600160a01b038381166000908152600760205260408082205485841683529120546200053892918216911683818314801590620006825750600081115b1562000538576001600160a01b038316156200070f576001600160a01b038316600090815260086020908152604082208291620006cc91906200079a901b62000c52178562000362565b91509150846001600160a01b03166000805160206200254c833981519152838360405162000704929190918252602082015260400190565b60405180910390a250505b6001600160a01b0382161562000538576001600160a01b0382166000908152600860209081526040822082916200075391906200034d901b62000b54178562000362565b91509150836001600160a01b03166000805160206200254c83398151915283836040516200078b929190918252602082015260400190565b60405180910390a25050505050565b60006200035b82846200085f565b828054620007b69062000879565b90600052602060002090601f016020900481019282620007da576000855562000825565b82601f10620007f557805160ff191683800117855562000825565b8280016001018555821562000825579182015b828111156200082557825182559160200191906001019062000808565b50620005c09291505b80821115620005c057600081556001016200082e565b600082198211156200085a576200085a620008b6565b500190565b600082821015620008745762000874620008b6565b500390565b600181811c908216806200088e57607f821691505b60208210811415620008b057634e487b7160e01b600052602260045260246000fd5b50919050565b634e487b7160e01b600052601160045260246000fd5b60805160a05160c05160601c60e0516101005161012051611c2d6200091f6000396000611054015260006110a30152600061107e01526000610fd7015260006110010152600061102b0152611c2d6000f3fe608060405234801561001057600080fd5b506004361061014d5760003560e01c806370a08231116100c3578063a9059cbb1161007c578063a9059cbb146102da578063c3cda520146102ed578063d505accf14610300578063d5abeb0114610313578063dd62ed3e1461031c578063f1127ed81461032f57600080fd5b806370a082311461025d5780637ecebe00146102865780638e539e8c1461029957806395d89b41146102ac5780639ab24eb0146102b4578063a457c2d7146102c757600080fd5b80633644e515116101155780633644e515146101c757806339509351146101cf5780633a46b1a8146101e2578063587cde1e146101f55780635c19a95c146102205780636fcfff451461023557600080fd5b806306fdde0314610152578063095ea7b31461017057806318160ddd1461019357806323b872dd146101a5578063313ce567146101b8575b600080fd5b61015a61036c565b6040516101679190611ad3565b60405180910390f35b61018361017e3660046119fd565b6103fe565b6040519015158152602001610167565b6002545b604051908152602001610167565b6101836101b3366004611959565b610416565b60405160128152602001610167565b61019761043a565b6101836101dd3660046119fd565b610449565b6101976101f03660046119fd565b61046b565b61020861020336600461190d565b6104be565b6040516001600160a01b039091168152602001610167565b61023361022e36600461190d565b6104dc565b005b61024861024336600461190d565b6104e9565b60405163ffffffff9091168152602001610167565b61019761026b36600461190d565b6001600160a01b031660009081526020819052604090205490565b61019761029436600461190d565b610511565b6101976102a7366004611abb565b61052f565b61015a61055b565b6101976102c236600461190d565b61056a565b6101836102d53660046119fd565b6105fe565b6101836102e83660046119fd565b610679565b6102336102fb366004611a26565b610687565b61023361030e366004611994565b6107b9565b610197600a5481565b61019761032a366004611927565b61091d565b61034261033d366004611a7d565b610948565b60408051825163ffffffff1681526020928301516001600160e01b03169281019290925201610167565b60606003805461037b90611bac565b80601f01602080910402602001604051908101604052809291908181526020018280546103a790611bac565b80156103f45780601f106103c9576101008083540402835291602001916103f4565b820191906000526020600020905b8154815290600101906020018083116103d757829003601f168201915b5050505050905090565b60003361040c818585610c5e565b5060019392505050565b600033610424858285610d82565b61042f858585610df6565b506001949350505050565b6000610444610fca565b905090565b60003361040c81858561045c838361091d565b6104669190611b5d565b610c5e565b60004382106104955760405162461bcd60e51b815260040161048c90611b26565b60405180910390fd5b6001600160a01b03831660009081526008602052604090206104b790836110f1565b9392505050565b6001600160a01b039081166000908152600760205260409020541690565b6104e633826111c9565b50565b6001600160a01b03811660009081526008602052604081205461050b90610bcd565b92915050565b6001600160a01b03811660009081526005602052604081205461050b565b60004382106105505760405162461bcd60e51b815260040161048c90611b26565b61050b6009836110f1565b60606004805461037b90611bac565b6001600160a01b03811660009081526008602052604081205480156105eb576001600160a01b03831660009081526008602052604090206105ac600183611b95565b815481106105ca57634e487b7160e01b600052603260045260246000fd5b600091825260209091200154600160201b90046001600160e01b03166105ee565b60005b6001600160e01b03169392505050565b6000338161060c828661091d565b90508381101561066c5760405162461bcd60e51b815260206004820152602560248201527f45524332303a2064656372656173656420616c6c6f77616e63652062656c6f77604482015264207a65726f60d81b606482015260840161048c565b61042f8286868403610c5e565b60003361040c818585610df6565b834211156106d75760405162461bcd60e51b815260206004820152601d60248201527f4552433230566f7465733a207369676e61747572652065787069726564000000604482015260640161048c565b604080517fe48329057bfd03d55e49b547132e39cffd9c1820ad7b9d4c5307691425d15adf60208201526001600160a01b038816918101919091526060810186905260808101859052600090610751906107499060a0016040516020818303038152906040528051906020012061125f565b8585856112ad565b905061075c816112d5565b86146107a65760405162461bcd60e51b81526020600482015260196024820152784552433230566f7465733a20696e76616c6964206e6f6e636560381b604482015260640161048c565b6107b081886111c9565b50505050505050565b834211156108095760405162461bcd60e51b815260206004820152601d60248201527f45524332305065726d69743a206578706972656420646561646c696e65000000604482015260640161048c565b60007f6e71edae12b1b97f4d1f60370fef10105fa2faae0126114a169c64845d6126c98888886108388c6112d5565b6040805160208101969096526001600160a01b0394851690860152929091166060840152608083015260a082015260c0810186905260e00160405160208183030381529060405280519060200120905060006108938261125f565b905060006108a3828787876112ad565b9050896001600160a01b0316816001600160a01b0316146109065760405162461bcd60e51b815260206004820152601e60248201527f45524332305065726d69743a20696e76616c6964207369676e61747572650000604482015260640161048c565b6109118a8a8a610c5e565b50505050505050505050565b6001600160a01b03918216600090815260016020908152604080832093909416825291909152205490565b60408051808201909152600080825260208201526001600160a01b0383166000908152600860205260409020805463ffffffff841690811061099a57634e487b7160e01b600052603260045260246000fd5b60009182526020918290206040805180820190915291015463ffffffff81168252600160201b90046001600160e01b0316918101919091529392505050565b6109e38282610a69565b6002546001600160e01b031015610a555760405162461bcd60e51b815260206004820152603060248201527f4552433230566f7465733a20746f74616c20737570706c79207269736b73206f60448201526f766572666c6f77696e6720766f74657360801b606482015260840161048c565b610a636009610b54836112fd565b50505050565b6001600160a01b038216610abf5760405162461bcd60e51b815260206004820152601f60248201527f45524332303a206d696e7420746f20746865207a65726f206164647265737300604482015260640161048c565b8060026000828254610ad19190611b5d565b90915550506001600160a01b03821660009081526020819052604081208054839290610afe908490611b5d565b90915550506040518181526001600160a01b038316906000907fddf252ad1be2c89b69c2b068fc378daa952ba7f163c4a11628f55a4df523b3ef9060200160405180910390a3610b506000838361149e565b5050565b60006104b78284611b5d565b60006001600160e01b03821115610bc95760405162461bcd60e51b815260206004820152602760248201527f53616665436173743a2076616c756520646f65736e27742066697420696e20326044820152663234206269747360c81b606482015260840161048c565b5090565b600063ffffffff821115610bc95760405162461bcd60e51b815260206004820152602660248201527f53616665436173743a2076616c756520646f65736e27742066697420696e203360448201526532206269747360d01b606482015260840161048c565b610c4d610c3e846104be565b610c47846104be565b836114a9565b505050565b60006104b78284611b95565b6001600160a01b038316610cc05760405162461bcd60e51b8152602060048201526024808201527f45524332303a20617070726f76652066726f6d20746865207a65726f206164646044820152637265737360e01b606482015260840161048c565b6001600160a01b038216610d215760405162461bcd60e51b815260206004820152602260248201527f45524332303a20617070726f766520746f20746865207a65726f206164647265604482015261737360f01b606482015260840161048c565b6001600160a01b0383811660008181526001602090815260408083209487168084529482529182902085905590518481527f8c5be1e5ebec7d5bd14f71427d1e84f3dd0314c0f7b2291e5b200ac8c7c3b925910160405180910390a3505050565b6000610d8e848461091d565b90506000198114610a635781811015610de95760405162461bcd60e51b815260206004820152601d60248201527f45524332303a20696e73756666696369656e7420616c6c6f77616e6365000000604482015260640161048c565b610a638484848403610c5e565b6001600160a01b038316610e5a5760405162461bcd60e51b815260206004820152602560248201527f45524332303a207472616e736665722066726f6d20746865207a65726f206164604482015264647265737360d81b606482015260840161048c565b6001600160a01b038216610ebc5760405162461bcd60e51b815260206004820152602360248201527f45524332303a207472616e7366657220746f20746865207a65726f206164647260448201526265737360e81b606482015260840161048c565b6001600160a01b03831660009081526020819052604090205481811015610f345760405162461bcd60e51b815260206004820152602660248201527f45524332303a207472616e7366657220616d6f756e7420657863656564732062604482015265616c616e636560d01b606482015260840161048c565b6001600160a01b03808516600090815260208190526040808220858503905591851681529081208054849290610f6b908490611b5d565b92505081905550826001600160a01b0316846001600160a01b03167fddf252ad1be2c89b69c2b068fc378daa952ba7f163c4a11628f55a4df523b3ef84604051610fb791815260200190565b60405180910390a3610a6384848461149e565b6000306001600160a01b037f00000000000000000000000000000000000000000000000000000000000000001614801561102357507f000000000000000000000000000000000000000000000000000000000000000046145b1561104d57507f000000000000000000000000000000000000000000000000000000000000000090565b50604080517f00000000000000000000000000000000000000000000000000000000000000006020808301919091527f0000000000000000000000000000000000000000000000000000000000000000828401527f000000000000000000000000000000000000000000000000000000000000000060608301524660808301523060a0808401919091528351808403909101815260c0909201909252805191012090565b8154600090815b8181101561116357600061110c82846115e6565b90508486828154811061112f57634e487b7160e01b600052603260045260246000fd5b60009182526020909120015463ffffffff16111561114f5780925061115d565b61115a816001611b5d565b91505b506110f8565b81156111b45784611175600184611b95565b8154811061119357634e487b7160e01b600052603260045260246000fd5b600091825260209091200154600160201b90046001600160e01b03166111b7565b60005b6001600160e01b031695945050505050565b60006111d4836104be565b905060006111f7846001600160a01b031660009081526020819052604090205490565b6001600160a01b0385811660008181526007602052604080822080546001600160a01b031916898616908117909155905194955093928616927f3134e8a2e6d97e929a7e54011ea5485d7d196dd5f0ba4d4ef95803e8e3fc257f9190a4610a638284836114a9565b600061050b61126c610fca565b8360405161190160f01b6020820152602281018390526042810182905260009060620160405160208183030381529060405280519060200120905092915050565b60008060006112be87878787611601565b915091506112cb816116e4565b5095945050505050565b6001600160a01b03811660009081526005602052604090208054600181018255905b50919050565b8254600090819080156113555785611316600183611b95565b8154811061133457634e487b7160e01b600052603260045260246000fd5b600091825260209091200154600160201b90046001600160e01b0316611358565b60005b6001600160e01b0316925061137183858763ffffffff16565b91506000811180156113bd5750438661138b600184611b95565b815481106113a957634e487b7160e01b600052603260045260246000fd5b60009182526020909120015463ffffffff16145b1561142b576113cb82610b60565b866113d7600184611b95565b815481106113f557634e487b7160e01b600052603260045260246000fd5b9060005260206000200160000160046101000a8154816001600160e01b0302191690836001600160e01b03160217905550611495565b85604051806040016040528061144043610bcd565b63ffffffff16815260200161145485610b60565b6001600160e01b039081169091528254600181018455600093845260209384902083519490930151909116600160201b0263ffffffff909316929092179101555b50935093915050565b610c4d838383610c32565b816001600160a01b0316836001600160a01b0316141580156114cb5750600081115b15610c4d576001600160a01b03831615611559576001600160a01b0383166000908152600860205260408120819061150690610c52856112fd565b91509150846001600160a01b03167fdec2bacdd2f05b59de34da9b523dff8be42e5e38e818c82fdb0bae774387a724838360405161154e929190918252602082015260400190565b60405180910390a250505b6001600160a01b03821615610c4d576001600160a01b0382166000908152600860205260408120819061158f90610b54856112fd565b91509150836001600160a01b03167fdec2bacdd2f05b59de34da9b523dff8be42e5e38e818c82fdb0bae774387a72483836040516115d7929190918252602082015260400190565b60405180910390a25050505050565b60006115f56002848418611b75565b6104b790848416611b5d565b6000806fa2a8918ca85bafe22016d0b997e4df60600160ff1b0383111561162e57506000905060036116db565b8460ff16601b1415801561164657508460ff16601c14155b1561165757506000905060046116db565b6040805160008082526020820180845289905260ff881692820192909252606081018690526080810185905260019060a0016020604051602081039080840390855afa1580156116ab573d6000803e3d6000fd5b5050604051601f1901519150506001600160a01b0381166116d4576000600192509250506116db565b9150600090505b94509492505050565b600081600481111561170657634e487b7160e01b600052602160045260246000fd5b141561170f5750565b600181600481111561173157634e487b7160e01b600052602160045260246000fd5b141561177a5760405162461bcd60e51b815260206004820152601860248201527745434453413a20696e76616c6964207369676e617475726560401b604482015260640161048c565b600281600481111561179c57634e487b7160e01b600052602160045260246000fd5b14156117ea5760405162461bcd60e51b815260206004820152601f60248201527f45434453413a20696e76616c6964207369676e6174757265206c656e67746800604482015260640161048c565b600381600481111561180c57634e487b7160e01b600052602160045260246000fd5b14156118655760405162461bcd60e51b815260206004820152602260248201527f45434453413a20696e76616c6964207369676e6174757265202773272076616c604482015261756560f01b606482015260840161048c565b600481600481111561188757634e487b7160e01b600052602160045260246000fd5b14156104e65760405162461bcd60e51b815260206004820152602260248201527f45434453413a20696e76616c6964207369676e6174757265202776272076616c604482015261756560f01b606482015260840161048c565b80356001600160a01b03811681146118f757600080fd5b919050565b803560ff811681146118f757600080fd5b60006020828403121561191e578081fd5b6104b7826118e0565b60008060408385031215611939578081fd5b611942836118e0565b9150611950602084016118e0565b90509250929050565b60008060006060848603121561196d578081fd5b611976846118e0565b9250611984602085016118e0565b9150604084013590509250925092565b600080600080600080600060e0888a0312156119ae578283fd5b6119b7886118e0565b96506119c5602089016118e0565b955060408801359450606088013593506119e1608089016118fc565b925060a0880135915060c0880135905092959891949750929550565b60008060408385031215611a0f578182fd5b611a18836118e0565b946020939093013593505050565b60008060008060008060c08789031215611a3e578182fd5b611a47876118e0565b95506020870135945060408701359350611a63606088016118fc565b92506080870135915060a087013590509295509295509295565b60008060408385031215611a8f578182fd5b611a98836118e0565b9150602083013563ffffffff81168114611ab0578182fd5b809150509250929050565b600060208284031215611acc578081fd5b5035919050565b6000602080835283518082850152825b81811015611aff57858101830151858201604001528201611ae3565b81811115611b105783604083870101525b50601f01601f1916929092016040019392505050565b6020808252601f908201527f4552433230566f7465733a20626c6f636b206e6f7420796574206d696e656400604082015260600190565b60008219821115611b7057611b70611be1565b500190565b600082611b9057634e487b7160e01b81526012600452602481fd5b500490565b600082821015611ba757611ba7611be1565b500390565b600181811c90821680611bc057607f821691505b602082108114156112f757634e487b7160e01b600052602260045260246000fd5b634e487b7160e01b600052601160045260246000fdfea26469706673582212206350edbf02a54cdff108b157e1c29679b2d06c1d867f8fb93f5147685b2c28f364736f6c63430008040033dec2bacdd2f05b59de34da9b523dff8be42e5e38e818c82fdb0bae774387a724",
  "linkReferences": {},
  "deployedLinkReferences": {}
}