{
  "_format": "hh-sol-artifact-1",
  "contractName": "MyDao",
  "sourceName": "contracts/dao/governance_standard/dao.sol",
  "abi": [
    {
      "anonymous": false,
      "inputs": [
        {
          "indexed": false,
          "internalType": "uint256",
          "name": "voteUp",
          "type": "uint256"
        },
        {
          "indexed": false,
          "internalType": "uint256",
          "name": "voteDown",
          "type": "uint256"
        },
        {
          "indexed": false,
          "internalType": "bool",
          "name": "votedFor",
          "type": "bool"
        },
        {
          "indexed": false,
          "internalType": "uint256",
          "name": "proposal",
          "type": "uint256"
        },
        {
          "indexed": false,
          "internalType": "address",
          "name": "voter",
          "type": "address"
        }
      ],
      "name": "NewVote",
      "type": "event"
    },
    {
      "anonymous": false,
      "inputs": [
        {
          "indexed": false,
          "internalType": "uint256",
          "name": "id",
          "type": "uint256"
        },
        {
          "indexed": false,
          "internalType": "bool",
          "name": "passed",
          "type": "bool"
        }
      ],
      "name": "ProposalCount",
      "type": "event"
    },
    {
      "anonymous": false,
      "inputs": [
        {
          "indexed": false,
          "internalType": "uint256",
          "name": "id",
          "type": "uint256"
        },
        {
          "indexed": false,
          "internalType": "string",
          "name": "description",
          "type": "string"
        },
        {
          "indexed": false,
          "internalType": "bool",
          "name": "exists",
          "type": "bool"
        },
        {
          "indexed": false,
          "internalType": "uint256",
          "name": "maxVote",
          "type": "uint256"
        },
        {
          "indexed": false,
          "internalType": "address",
          "name": "proposer",
          "type": "address"
        }
      ],
      "name": "ProposalCreated",
      "type": "event"
    },
    {
      "inputs": [
        {
          "internalType": "uint256",
          "name": "id",
          "type": "uint256"
        }
      ],
      "name": "addTokenId",
      "outputs": [],
      "stateMutability": "nonpayable",
      "type": "function"
    },
    {
      "inputs": [
        {
          "internalType": "uint256",
          "name": "id",
          "type": "uint256"
        }
      ],
      "name": "countVotes",
      "outputs": [],
      "stateMutability": "nonpayable",
      "type": "function"
    },
    {
      "inputs": [
        {
          "internalType": "string",
          "name": "_description",
          "type": "string"
        },
        {
          "internalType": "address[]",
          "name": "_canVote",
          "type": "address[]"
        },
        {
          "internalType": "address",
          "name": "nftAddress",
          "type": "address"
        }
      ],
      "name": "createProposal",
      "outputs": [],
      "stateMutability": "nonpayable",
      "type": "function"
    },
    {
      "inputs": [],
      "name": "owner",
      "outputs": [
        {
          "internalType": "address",
          "name": "",
          "type": "address"
        }
      ],
      "stateMutability": "view",
      "type": "function"
    },
    {
      "inputs": [
        {
          "internalType": "uint256",
          "name": "",
          "type": "uint256"
        }
      ],
      "name": "proposals",
      "outputs": [
        {
          "internalType": "uint256",
          "name": "id",
          "type": "uint256"
        },
        {
          "internalType": "uint256",
          "name": "voteUp",
          "type": "uint256"
        },
        {
          "internalType": "uint256",
          "name": "voteDown",
          "type": "uint256"
        },
        {
          "internalType": "uint256",
          "name": "deadline",
          "type": "uint256"
        },
        {
          "internalType": "uint256",
          "name": "maxVote",
          "type": "uint256"
        },
        {
          "internalType": "string",
          "name": "description",
          "type": "string"
        },
        {
          "internalType": "bool",
          "name": "exists",
          "type": "bool"
        },
        {
          "internalType": "bool",
          "name": "countConducted",
          "type": "bool"
        },
        {
          "internalType": "bool",
          "name": "passed",
          "type": "bool"
        }
      ],
      "stateMutability": "view",
      "type": "function"
    },
    {
      "inputs": [
        {
          "internalType": "uint256",
          "name": "",
          "type": "uint256"
        }
      ],
      "name": "vaidToken",
      "outputs": [
        {
          "internalType": "uint256",
          "name": "",
          "type": "uint256"
        }
      ],
      "stateMutability": "view",
      "type": "function"
    },
    {
      "inputs": [
        {
          "internalType": "uint256",
          "name": "id",
          "type": "uint256"
        },
        {
          "internalType": "bool",
          "name": "_vote",
          "type": "bool"
        }
      ],
      "name": "voteProposal",
      "outputs": [],
      "stateMutability": "nonpayable",
      "type": "function"
    }
  ],
  "bytecode": "0x608060405234801561001057600080fd5b50610da4806100206000396000f3fe608060405234801561001057600080fd5b506004361061006d5760003560e01c8063013cf08b146100725780631840f0ca146100a357806371f4578d146100b857806379b36a8f146100d95780638da5cb5b146100ec578063bcfb9b6114610117578063fd0d101f1461012a575b600080fd5b610085610080366004610b5f565b61013d565b60405161009a99989796959493929190610c4c565b60405180910390f35b6100b66100b1366004610b5f565b61021c565b005b6100cb6100c6366004610b5f565b6103b1565b60405190815260200161009a565b6100b66100e7366004610aa0565b6103d2565b6001546100ff906001600160a01b031681565b6040516001600160a01b03909116815260200161009a565b6100b6610125366004610b8f565b6104f7565b6100b6610138366004610b5f565b610739565b600360205280600052604060002060009150905080600001549080600101549080600201549080600301549080600401549080600501805461017e90610cec565b80601f01602080910402602001604051908101604052809291908181526020018280546101aa90610cec565b80156101f75780601f106101cc576101008083540402835291602001916101f7565b820191906000526020600020905b8154815290600101906020018083116101da57829003601f168201915b505050506006830154600990930154919260ff80821693610100909204811692501689565b60008181526003602052604090206001546001600160a01b031633146102895760405162461bcd60e51b815260206004820152601e60248201527f4f6e6c79206f776e65722063616e20636f756e74207468652020766f7465000060448201526064015b60405180910390fd5b806003015443116102d55760405162461bcd60e51b8152602060048201526016602482015275141c9bdc1bdcd85b081a185cc81b9bdd08195b99195960521b6044820152606401610280565b6006810154610100900460ff161561032f5760405162461bcd60e51b815260206004820152601b60248201527f436f756e742068617320616c7265616479206265656e20646f6e6500000000006044820152606401610280565b80600201548160010154111561034f5760098101805460ff191660011790555b60068101805461ff001916610100908117918290556040517fa5833ab43e4bc2008eeed8da9ba765f8ff721bca2757d7bdb0680e615177f722926103a5928692910460ff16909182521515602082015260400190565b60405180910390a15050565b600281815481106103c157600080fd5b600091825260209091200154905081565b6103dc33826107c1565b6104345760405162461bcd60e51b815260206004820152602360248201527f4f6e6c79204e465420686f6c6465722063616e206372656174652070726f706f6044820152621cd85b60ea1b6064820152608401610280565b610442600080546001019055565b6000805480825260036020908152604090922084519192909161046d9160088401919087019061090c565b5084516104839060058301906020880190610971565b5061048f436064610cd4565b600382015560068101805460ff191660019081179091558451600483018190558383556040517fb1334d5558f8aebed3f5bf3610990537be54b7c1738259116989d07fb2f73636926104e89286928a9291903390610c0d565b60405180910390a15050505050565b60008281526003602052604090206006015460ff1661054e5760405162461bcd60e51b8152602060048201526013602482015272125b9d985b1a59081c1c9bdc1bdcd85b081a59606a1b6044820152606401610280565b6105588233610880565b6105a45760405162461bcd60e51b815260206004820152601b60248201527f596f7520617265206e6f7420616c6c6f77656420746f20766f746500000000006044820152606401610280565b600082815260036020908152604080832033845260070190915290205460ff161561060a5760405162461bcd60e51b8152602060048201526016602482015275165bdd481a185d9948185b1c9958591e481d9bdd195960521b6044820152606401610280565b6000828152600360208190526040909120015443106106625760405162461bcd60e51b8152602060048201526014602482015273141c9bdc1bdcd85b081a185cc8195e1c1a5c995960621b6044820152606401610280565b600082815260036020526040902081156106925760018101805490600061068883610d27565b91905055506106aa565b6002810180549060006106a483610d27565b91905055505b33600081815260078301602052604090819020805460ff19166001908117909155830154600284015491517f362e8435f45bfefc6917180b43834c114902fcc8271a936921ab05d751d832499361072c9391879189919485526020850193909352901515604084015260608301526001600160a01b0316608082015260a00190565b60405180910390a1505050565b6001546001600160a01b0316331461078c5760405162461bcd60e51b8152602060048201526016602482015275165bdd48185c99481b9bdd08185d5d1a1bdc9a5e995960521b6044820152606401610280565b600280546001810182556000919091527f405787fa12a823e0f2b7631cc41b3ba8828b3321ca811111fa75cd3aa3bb5ace0155565b6000805b600254811015610874576040516370a0823160e01b81526001600160a01b038581166004830152600091908516906370a082319060240160206040518083038186803b15801561081457600080fd5b505afa158015610828573d6000803e3d6000fd5b505050506040513d601f19601f8201168201806040525081019061084c9190610b77565b9050600181106108615760019250505061087a565b508061086c81610d27565b9150506107c5565b50600090505b92915050565b6000828152600360205260408120815b600882015481101561090157836001600160a01b03168260080182815481106108c957634e487b7160e01b600052603260045260246000fd5b6000918252602090912001546001600160a01b031614156108ef5760019250505061087a565b806108f981610d27565b915050610890565b506000949350505050565b828054828255906000526020600020908101928215610961579160200282015b8281111561096157825182546001600160a01b0319166001600160a01b0390911617825560209092019160019091019061092c565b5061096d9291506109e5565b5090565b82805461097d90610cec565b90600052602060002090601f01602090048101928261099f5760008555610961565b82601f106109b857805160ff1916838001178555610961565b82800160010185558215610961579182015b828111156109615782518255916020019190600101906109ca565b5b8082111561096d57600081556001016109e6565b80356001600160a01b0381168114610a1157600080fd5b919050565b600082601f830112610a26578081fd5b8135602067ffffffffffffffff821115610a4257610a42610d58565b8160051b610a51828201610ca3565b838152828101908684018388018501891015610a6b578687fd5b8693505b85841015610a9457610a80816109fa565b835260019390930192918401918401610a6f565b50979650505050505050565b600080600060608486031215610ab4578283fd5b833567ffffffffffffffff80821115610acb578485fd5b818601915086601f830112610ade578485fd5b8135602082821115610af257610af2610d58565b610b04601f8301601f19168201610ca3565b8281528982848701011115610b17578788fd5b828286018383013791820181019690965294860135915080821115610b3a578384fd5b50610b4786828701610a16565b925050610b56604085016109fa565b90509250925092565b600060208284031215610b70578081fd5b5035919050565b600060208284031215610b88578081fd5b5051919050565b60008060408385031215610ba1578182fd5b8235915060208301358015158114610bb7578182fd5b809150509250929050565b60008151808452815b81811015610be757602081850181015186830182015201610bcb565b81811115610bf85782602083870101525b50601f01601f19169290920160200192915050565b85815260a060208201526000610c2660a0830187610bc2565b94151560408301525060608101929092526001600160a01b031660809091015292915050565b60006101208b83528a60208401528960408401528860608401528760808401528060a0840152610c7e81840188610bc2565b95151560c0840152505091151560e08301521515610100909101529695505050505050565b604051601f8201601f1916810167ffffffffffffffff81118282101715610ccc57610ccc610d58565b604052919050565b60008219821115610ce757610ce7610d42565b500190565b600181811c90821680610d0057607f821691505b60208210811415610d2157634e487b7160e01b600052602260045260246000fd5b50919050565b6000600019821415610d3b57610d3b610d42565b5060010190565b634e487b7160e01b600052601160045260246000fd5b634e487b7160e01b600052604160045260246000fdfea2646970667358221220506a85f8fb4ac60afc380d148e1fccee216522b372aeb6dcd671eee7ce60b92764736f6c63430008040033",
  "linkReferences": {},
  "deployedLinkReferences": {}
}