{
  "_format": "hh-sol-artifact-1",
  "contractName": "MyDao",
  "sourceName": "contracts/dao.sol",
  "abi": [
    {
      "inputs": [],
      "stateMutability": "nonpayable",
      "type": "constructor"
    },
    {
      "anonymous": false,
      "inputs": [
        {
          "indexed": false,
          "internalType": "uint256",
          "name": "voteUp",
          "type": "uint256"
        },
        {
          "indexed": false,
          "internalType": "uint256",
          "name": "voteDown",
          "type": "uint256"
        },
        {
          "indexed": false,
          "internalType": "bool",
          "name": "votedFor",
          "type": "bool"
        },
        {
          "indexed": false,
          "internalType": "uint256",
          "name": "proposal",
          "type": "uint256"
        },
        {
          "indexed": false,
          "internalType": "address",
          "name": "voter",
          "type": "address"
        }
      ],
      "name": "NewVote",
      "type": "event"
    },
    {
      "anonymous": false,
      "inputs": [
        {
          "indexed": false,
          "internalType": "uint256",
          "name": "id",
          "type": "uint256"
        },
        {
          "indexed": false,
          "internalType": "bool",
          "name": "passed",
          "type": "bool"
        }
      ],
      "name": "ProposalCount",
      "type": "event"
    },
    {
      "anonymous": false,
      "inputs": [
        {
          "indexed": false,
          "internalType": "uint256",
          "name": "id",
          "type": "uint256"
        },
        {
          "indexed": false,
          "internalType": "string",
          "name": "description",
          "type": "string"
        },
        {
          "indexed": false,
          "internalType": "bool",
          "name": "exists",
          "type": "bool"
        },
        {
          "indexed": false,
          "internalType": "uint256",
          "name": "maxVote",
          "type": "uint256"
        },
        {
          "indexed": false,
          "internalType": "address",
          "name": "proposer",
          "type": "address"
        }
      ],
      "name": "ProposalCreated",
      "type": "event"
    },
    {
      "inputs": [
        {
          "internalType": "uint256",
          "name": "id",
          "type": "uint256"
        }
      ],
      "name": "addTokenId",
      "outputs": [],
      "stateMutability": "nonpayable",
      "type": "function"
    },
    {
      "inputs": [
        {
          "internalType": "uint256",
          "name": "",
          "type": "uint256"
        }
      ],
      "name": "countConductedIds",
      "outputs": [
        {
          "internalType": "uint256",
          "name": "",
          "type": "uint256"
        }
      ],
      "stateMutability": "view",
      "type": "function"
    },
    {
      "inputs": [
        {
          "internalType": "uint256",
          "name": "id",
          "type": "uint256"
        },
        {
          "internalType": "address",
          "name": "nftAddress",
          "type": "address"
        }
      ],
      "name": "countVotes",
      "outputs": [],
      "stateMutability": "nonpayable",
      "type": "function"
    },
    {
      "inputs": [
        {
          "internalType": "string",
          "name": "_description",
          "type": "string"
        },
        {
          "internalType": "address",
          "name": "nftAddress",
          "type": "address"
        }
      ],
      "name": "createProposal",
      "outputs": [],
      "stateMutability": "nonpayable",
      "type": "function"
    },
    {
      "inputs": [],
      "name": "fetchOngoingProposals",
      "outputs": [
        {
          "components": [
            {
              "internalType": "uint256",
              "name": "id",
              "type": "uint256"
            },
            {
              "internalType": "uint256",
              "name": "voteUp",
              "type": "uint256"
            },
            {
              "internalType": "uint256",
              "name": "voteDown",
              "type": "uint256"
            },
            {
              "internalType": "uint256",
              "name": "deadline",
              "type": "uint256"
            },
            {
              "internalType": "uint256",
              "name": "maxVote",
              "type": "uint256"
            },
            {
              "internalType": "string",
              "name": "description",
              "type": "string"
            },
            {
              "internalType": "bool",
              "name": "exists",
              "type": "bool"
            },
            {
              "internalType": "bool",
              "name": "countConducted",
              "type": "bool"
            },
            {
              "components": [
                {
                  "internalType": "address",
                  "name": "voter",
                  "type": "address"
                },
                {
                  "internalType": "bool",
                  "name": "status",
                  "type": "bool"
                }
              ],
              "internalType": "struct MyDao.VotedAddress[]",
              "name": "canVote",
              "type": "tuple[]"
            },
            {
              "internalType": "address",
              "name": "owner",
              "type": "address"
            },
            {
              "internalType": "bool",
              "name": "passed",
              "type": "bool"
            }
          ],
          "internalType": "struct MyDao.Proposal[]",
          "name": "",
          "type": "tuple[]"
        }
      ],
      "stateMutability": "view",
      "type": "function"
    },
    {
      "inputs": [],
      "name": "fetchProposal",
      "outputs": [
        {
          "components": [
            {
              "internalType": "uint256",
              "name": "id",
              "type": "uint256"
            },
            {
              "internalType": "uint256",
              "name": "voteUp",
              "type": "uint256"
            },
            {
              "internalType": "uint256",
              "name": "voteDown",
              "type": "uint256"
            },
            {
              "internalType": "uint256",
              "name": "deadline",
              "type": "uint256"
            },
            {
              "internalType": "uint256",
              "name": "maxVote",
              "type": "uint256"
            },
            {
              "internalType": "string",
              "name": "description",
              "type": "string"
            },
            {
              "internalType": "bool",
              "name": "exists",
              "type": "bool"
            },
            {
              "internalType": "bool",
              "name": "countConducted",
              "type": "bool"
            },
            {
              "components": [
                {
                  "internalType": "address",
                  "name": "voter",
                  "type": "address"
                },
                {
                  "internalType": "bool",
                  "name": "status",
                  "type": "bool"
                }
              ],
              "internalType": "struct MyDao.VotedAddress[]",
              "name": "canVote",
              "type": "tuple[]"
            },
            {
              "internalType": "address",
              "name": "owner",
              "type": "address"
            },
            {
              "internalType": "bool",
              "name": "passed",
              "type": "bool"
            }
          ],
          "internalType": "struct MyDao.Proposal[]",
          "name": "",
          "type": "tuple[]"
        }
      ],
      "stateMutability": "view",
      "type": "function"
    },
    {
      "inputs": [
        {
          "internalType": "uint256",
          "name": "id",
          "type": "uint256"
        }
      ],
      "name": "fetchProposalItem",
      "outputs": [
        {
          "components": [
            {
              "internalType": "uint256",
              "name": "id",
              "type": "uint256"
            },
            {
              "internalType": "uint256",
              "name": "voteUp",
              "type": "uint256"
            },
            {
              "internalType": "uint256",
              "name": "voteDown",
              "type": "uint256"
            },
            {
              "internalType": "uint256",
              "name": "deadline",
              "type": "uint256"
            },
            {
              "internalType": "uint256",
              "name": "maxVote",
              "type": "uint256"
            },
            {
              "internalType": "string",
              "name": "description",
              "type": "string"
            },
            {
              "internalType": "bool",
              "name": "exists",
              "type": "bool"
            },
            {
              "internalType": "bool",
              "name": "countConducted",
              "type": "bool"
            },
            {
              "components": [
                {
                  "internalType": "address",
                  "name": "voter",
                  "type": "address"
                },
                {
                  "internalType": "bool",
                  "name": "status",
                  "type": "bool"
                }
              ],
              "internalType": "struct MyDao.VotedAddress[]",
              "name": "canVote",
              "type": "tuple[]"
            },
            {
              "internalType": "address",
              "name": "owner",
              "type": "address"
            },
            {
              "internalType": "bool",
              "name": "passed",
              "type": "bool"
            }
          ],
          "internalType": "struct MyDao.Proposal",
          "name": "",
          "type": "tuple"
        }
      ],
      "stateMutability": "view",
      "type": "function"
    },
    {
      "inputs": [],
      "name": "owner",
      "outputs": [
        {
          "internalType": "address",
          "name": "",
          "type": "address"
        }
      ],
      "stateMutability": "view",
      "type": "function"
    },
    {
      "inputs": [
        {
          "internalType": "uint256",
          "name": "",
          "type": "uint256"
        }
      ],
      "name": "proposals",
      "outputs": [
        {
          "internalType": "uint256",
          "name": "id",
          "type": "uint256"
        },
        {
          "internalType": "uint256",
          "name": "voteUp",
          "type": "uint256"
        },
        {
          "internalType": "uint256",
          "name": "voteDown",
          "type": "uint256"
        },
        {
          "internalType": "uint256",
          "name": "deadline",
          "type": "uint256"
        },
        {
          "internalType": "uint256",
          "name": "maxVote",
          "type": "uint256"
        },
        {
          "internalType": "string",
          "name": "description",
          "type": "string"
        },
        {
          "internalType": "bool",
          "name": "exists",
          "type": "bool"
        },
        {
          "internalType": "bool",
          "name": "countConducted",
          "type": "bool"
        },
        {
          "internalType": "address",
          "name": "owner",
          "type": "address"
        },
        {
          "internalType": "bool",
          "name": "passed",
          "type": "bool"
        }
      ],
      "stateMutability": "view",
      "type": "function"
    },
    {
      "inputs": [
        {
          "internalType": "uint256",
          "name": "",
          "type": "uint256"
        }
      ],
      "name": "vaidToken",
      "outputs": [
        {
          "internalType": "uint256",
          "name": "",
          "type": "uint256"
        }
      ],
      "stateMutability": "view",
      "type": "function"
    },
    {
      "inputs": [
        {
          "internalType": "uint256",
          "name": "id",
          "type": "uint256"
        },
        {
          "internalType": "bool",
          "name": "_vote",
          "type": "bool"
        },
        {
          "internalType": "address",
          "name": "nftAddress",
          "type": "address"
        }
      ],
      "name": "voteProposal",
      "outputs": [],
      "stateMutability": "nonpayable",
      "type": "function"
    },
    {
      "inputs": [
        {
          "internalType": "uint256",
          "name": "",
          "type": "uint256"
        },
        {
          "internalType": "address",
          "name": "",
          "type": "address"
        }
      ],
      "name": "voteStatus",
      "outputs": [
        {
          "internalType": "bool",
          "name": "",
          "type": "bool"
        }
      ],
      "stateMutability": "view",
      "type": "function"
    },
    {
      "inputs": [
        {
          "internalType": "uint256",
          "name": "",
          "type": "uint256"
        },
        {
          "internalType": "uint256",
          "name": "",
          "type": "uint256"
        }
      ],
      "name": "votedNftId",
      "outputs": [
        {
          "internalType": "bool",
          "name": "",
          "type": "bool"
        }
      ],
      "stateMutability": "view",
      "type": "function"
    }
  ],
  "bytecode": "0x608060405234801561001057600080fd5b50600280546001600160a01b03191633179055611d84806100326000396000f3fe608060405234801561001057600080fd5b50600436106100be5760003560e01c80636c98586f1161007c5780636c98586f1461019057806371f4578d1461019857806383bd65aa146101b95780638da5cb5b146101cc578063af30cf9b146101ec578063f432a34d1461021a578063fd0d101f1461023a57600080fd5b80621a6e8f146100c3578063013cf08b146100e1578063171da6431461010a5780633ed8e9b41461012a57806361daa07a1461013f57806363c47f1314610152575b600080fd5b6100cb61024d565b6040516100d89190611ac8565b60405180910390f35b6100f46100ef3660046118a3565b6104ec565b6040516100d89a99989796959493929190611c34565b61011d6101183660046118a3565b6105dd565b6040516100d89190611bdb565b61013d6101383660046117e6565b610794565b005b61013d61014d3660046118f5565b6109fb565b6101806101603660046118d3565b600660209081526000928352604080842090915290825290205460ff1681565b60405190151581526020016100d8565b6100cb610df2565b6101ab6101a63660046118a3565b61107f565b6040519081526020016100d8565b61013d6101c73660046118d3565b6110a0565b6002546101df906001600160a01b031681565b6040516100d89190611ab4565b6101806101fa366004611936565b600760209081526000928352604080842090915290825290205460ff1681565b6101ab6102283660046118a3565b60056020526000908152604090205481565b61013d6102483660046118a3565b6113c5565b6060600061025a60005490565b9050600061026760015490565b905060006102758284611cb5565b90506000808267ffffffffffffffff8111156102a157634e487b7160e01b600052604160045260246000fd5b6040519080825280602002602001820160405280156102da57816020015b6102c76116c8565b8152602001906001900390816102bf5790505b50905060005b858110156104e25760006004816102f8846001611c9d565b815260200190815260200160002060405180610160016040529081600082015481526020016001820154815260200160028201548152602001600382015481526020016004820154815260200160058201805461035490611ccc565b80601f016020809104026020016040519081016040528092919081815260200182805461038090611ccc565b80156103cd5780601f106103a2576101008083540402835291602001916103cd565b820191906000526020600020905b8154815290600101906020018083116103b057829003601f168201915b5050509183525050600682015460ff8082161515602080850191909152610100909204161515604080840191909152600784018054825181850281018501909352808352606090940193919290919060009084015b8282101561046d57600084815260209081902060408051808201909152908401546001600160a01b0381168252600160a01b900460ff16151581830152825260019092019101610422565b50505090825250600891909101546001600160a01b0381166020830152600160a01b900460ff16151560409091015260e08101519091506104d557808385815181106104c957634e487b7160e01b600052603260045260246000fd5b60200260200101819052505b50600192830192016102e0565b5095945050505050565b600460205280600052604060002060009150905080600001549080600101549080600201549080600301549080600401549080600501805461052d90611ccc565b80601f016020809104026020016040519081016040528092919081815260200182805461055990611ccc565b80156105a65780601f1061057b576101008083540402835291602001916105a6565b820191906000526020600020905b81548152906001019060200180831161058957829003601f168201915b505050506006830154600890930154919260ff80821693610100909204811692506001600160a01b03821691600160a01b9004168a565b6105e56116c8565b6004600083815260200190815260200160002060405180610160016040529081600082015481526020016001820154815260200160028201548152602001600382015481526020016004820154815260200160058201805461064690611ccc565b80601f016020809104026020016040519081016040528092919081815260200182805461067290611ccc565b80156106bf5780601f10610694576101008083540402835291602001916106bf565b820191906000526020600020905b8154815290600101906020018083116106a257829003601f168201915b5050509183525050600682015460ff8082161515602080850191909152610100909204161515604080840191909152600784018054825181850281018501909352808352606090940193919290919060009084015b8282101561075f57600084815260209081902060408051808201909152908401546001600160a01b0381168252600160a01b900460ff16151581830152825260019092019101610714565b50505090825250600891909101546001600160a01b0381166020830152600160a01b900460ff16151560409091015292915050565b806107c16040518060400160405280600a8152602001696e66744164647265737360b01b8152508261144d565b6040516370a0823160e01b81526000906001600160a01b038316906370a08231906107f0903390600401611ab4565b60206040518083038186803b15801561080857600080fd5b505afa15801561081c573d6000803e3d6000fd5b505050506040513d601f19601f8201168201806040525081019061084091906118bb565b905061086a60405180604001604052806006815260200165185b5bdd5b9d60d21b81525082611496565b6040516370a0823160e01b81526000906001600160a01b038416906370a0823190610899903390600401611ab4565b60206040518083038186803b1580156108b157600080fd5b505afa1580156108c5573d6000803e3d6000fd5b505050506040513d601f19601f820116820180604052508101906108e991906118bb565b1161090f5760405162461bcd60e51b815260040161090690611bb3565b60405180910390fd5b61093a604051806040016040528060088152602001671c1c9bdc1bdcd85b60c21b81525085856114db565b610948600080546001019055565b6000805480825260046020908152604090922086519192909161097391600584019190890190611731565b5061098042610258611c9d565b600382015560068101805460ff191660019081179091556008820180546001600160a01b0319163390811790915583835560078301546040517fb1334d5558f8aebed3f5bf3610990537be54b7c1738259116989d07fb2f73636936109eb9387938c93909190611bf5565b60405180910390a1505050505050565b80610a286040518060400160405280600a8152602001696e66744164647265737360b01b8152508261144d565b6040516370a0823160e01b81526000906001600160a01b038316906370a0823190610a57903390600401611ab4565b60206040518083038186803b158015610a6f57600080fd5b505afa158015610a83573d6000803e3d6000fd5b505050506040513d601f19601f82011682018060405250810190610aa791906118bb565b9050610ad160405180604001604052806006815260200165185b5bdd5b9d60d21b81525082611496565b6040516370a0823160e01b81526000906001600160a01b038416906370a0823190610b00903390600401611ab4565b60206040518083038186803b158015610b1857600080fd5b505afa158015610b2c573d6000803e3d6000fd5b505050506040513d601f19601f82011682018060405250810190610b5091906118bb565b11610b6d5760405162461bcd60e51b815260040161090690611bb3565b60008581526004602052604090206006015460ff16610bc45760405162461bcd60e51b8152602060048201526013602482015272125b9d985b1a59081c1c9bdc1bdcd85b081a59606a1b6044820152606401610906565b600085815260066020908152604080832033845290915290205460ff1615610c275760405162461bcd60e51b8152602060048201526016602482015275165bdd481a185d9948185b1c9958591e481d9bdd195960521b6044820152606401610906565b6000610c338685611527565b11610c805760405162461bcd60e51b815260206004820152601b60248201527f596f7520617265206e6f7420616c6c6f77656420746f20766f746500000000006044820152606401610906565b6000858152600460205260409020600301544210610cd75760405162461bcd60e51b8152602060048201526014602482015273141c9bdc1bdcd85b081a185cc8195e1c1a5c995960621b6044820152606401610906565b60008581526004602052604090208415610d0757600181018054906000610cfd83611d07565b9190505550610d1f565b600281018054906000610d1983611d07565b91905055505b604080518082018252338082528715156020808401828152600787018054600180820183556000928352848320975197909101805493511515600160a01b026001600160a81b03199094166001600160a01b0390981697909717929092179095558b855260068252858520848652825293859020805460ff191685179055928501546002860154855191825293810193909352928201929092526060810188905260808101919091527f362e8435f45bfefc6917180b43834c114902fcc8271a936921ab05d751d832499060a0016109eb565b60606000610dff60005490565b90506000808267ffffffffffffffff811115610e2b57634e487b7160e01b600052604160045260246000fd5b604051908082528060200260200182016040528015610e6457816020015b610e516116c8565b815260200190600190039081610e495790505b50905060005b83811015611077576000600481610e82846001611c9d565b8152602001908152602001600020905080604051806101600160405290816000820154815260200160018201548152602001600282015481526020016003820154815260200160048201548152602001600582018054610ee190611ccc565b80601f0160208091040260200160405190810160405280929190818152602001828054610f0d90611ccc565b8015610f5a5780601f10610f2f57610100808354040283529160200191610f5a565b820191906000526020600020905b815481529060010190602001808311610f3d57829003601f168201915b5050509183525050600682015460ff8082161515602080850191909152610100909204161515604080840191909152600784018054825181850281018501909352808352606090940193919290919060009084015b82821015610ffa57600084815260209081902060408051808201909152908401546001600160a01b0381168252600160a01b900460ff16151581830152825260019092019101610faf565b50505090825250600891909101546001600160a01b0381166020830152600160a01b900460ff161515604090910152835184908690811061104b57634e487b7160e01b600052603260045260246000fd5b6020908102919091010152611061600185611c9d565b935050808061106f90611d07565b915050610e6a565b509392505050565b6003818154811061108f57600080fd5b600091825260209091200154905081565b806110cd6040518060400160405280600a8152602001696e66744164647265737360b01b8152508261144d565b6040516370a0823160e01b81526000906001600160a01b038316906370a08231906110fc903390600401611ab4565b60206040518083038186803b15801561111457600080fd5b505afa158015611128573d6000803e3d6000fd5b505050506040513d601f19601f8201168201806040525081019061114c91906118bb565b905061117660405180604001604052806006815260200165185b5bdd5b9d60d21b81525082611496565b6040516370a0823160e01b81526000906001600160a01b038416906370a08231906111a5903390600401611ab4565b60206040518083038186803b1580156111bd57600080fd5b505afa1580156111d1573d6000803e3d6000fd5b505050506040513d601f19601f820116820180604052508101906111f591906118bb565b116112125760405162461bcd60e51b815260040161090690611bb3565b600084815260046020526040902060088101546001600160a01b031633146112735760405162461bcd60e51b815260206004820152601460248201527327b7363c9031b0b71031b7bab73a103b37ba329760611b6044820152606401610906565b806003015442116112bf5760405162461bcd60e51b8152602060048201526016602482015275141c9bdc1bdcd85b081a185cc81b9bdd08195b99195960521b6044820152606401610906565b6006810154610100900460ff16156113195760405162461bcd60e51b815260206004820152601b60248201527f436f756e742068617320616c7265616479206265656e20646f6e6500000000006044820152606401610906565b80600201548160010154111561133f5760088101805460ff60a01b1916600160a01b1790555b60068101805461ff00191661010017905561135e600180546001019055565b600061136960015490565b600087815260056020908152604091829020839055600685015482518a815261010090910460ff161515918101919091529192507fa5833ab43e4bc2008eeed8da9ba765f8ff721bca2757d7bdb0680e615177f72291016109eb565b6002546001600160a01b031633146114185760405162461bcd60e51b8152602060048201526016602482015275165bdd48185c99481b9bdd08185d5d1a1bdc9a5e995960521b6044820152606401610906565b600380546001810182556000919091527fc2575a0e9e593c00f959f8c92f12db2869c3395a3b0502d05e2516446f71f85b0155565b6114928282604051602401611463929190611b29565b60408051601f198184030181529190526020810180516001600160e01b031663319af33360e01b1790526116a7565b5050565b61149282826040516024016114ac929190611b91565b60408051601f198184030181529190526020810180516001600160e01b03166309710a9d60e41b1790526116a7565b6115228383836040516024016114f393929190611b53565b60408051601f198184030181529190526020810180516001600160e01b03166395ed019560e01b1790526116a7565b505050565b600080826001600160a01b03166370a08231336040518263ffffffff1660e01b81526004016115569190611ab4565b60206040518083038186803b15801561156e57600080fd5b505afa158015611582573d6000803e3d6000fd5b505050506040513d601f19601f820116820180604052508101906115a691906118bb565b90506000805b8281101561169e57604051632f745c5960e01b8152336004820152602481018290526000906001600160a01b03871690632f745c599060440160206040518083038186803b1580156115fd57600080fd5b505afa158015611611573d6000803e3d6000fd5b505050506040513d601f19601f8201168201806040525081019061163591906118bb565b600088815260076020908152604080832084845290915290205490915060ff1661168b578261166381611d07565b60008981526007602090815260408083208684529091529020805460ff191660011790559350505b508061169681611d07565b9150506115ac565b50949350505050565b80516a636f6e736f6c652e6c6f67602083016000808483855afa5050505050565b6040518061016001604052806000815260200160008152602001600081526020016000815260200160008152602001606081526020016000151581526020016000151581526020016060815260200160006001600160a01b031681526020016000151581525090565b82805461173d90611ccc565b90600052602060002090601f01602090048101928261175f57600085556117a5565b82601f1061177857805160ff19168380011785556117a5565b828001600101855582156117a5579182015b828111156117a557825182559160200191906001019061178a565b506117b19291506117b5565b5090565b5b808211156117b157600081556001016117b6565b80356001600160a01b03811681146117e157600080fd5b919050565b600080604083850312156117f8578182fd5b823567ffffffffffffffff8082111561180f578384fd5b818501915085601f830112611822578384fd5b81358181111561183457611834611d38565b604051601f8201601f19908116603f0116810190838211818310171561185c5761185c611d38565b81604052828152886020848701011115611874578687fd5b826020860160208301378660208483010152809650505050505061189a602084016117ca565b90509250929050565b6000602082840312156118b4578081fd5b5035919050565b6000602082840312156118cc578081fd5b5051919050565b600080604083850312156118e5578182fd5b8235915061189a602084016117ca565b600080600060608486031215611909578081fd5b833592506020840135801515811461191f578182fd5b915061192d604085016117ca565b90509250925092565b60008060408385031215611948578182fd5b50508035926020909101359150565b6000815180845260208085019450808401835b8381101561199c57815180516001600160a01b031688528301511515838801526040909601959082019060010161196a565b509495945050505050565b60008151808452815b818110156119cc576020818501810151868301820152016119b0565b818111156119dd5782602083870101525b50601f01601f19169290920160200192915050565b6000610160825184526020830151602085015260408301516040850152606083015160608501526080830151608085015260a08301518160a0860152611a3a828601826119a7565b91505060c0830151611a5060c086018215159052565b5060e0830151611a6460e086018215159052565b506101008084015185830382870152611a7d8382611957565b9250505061012080840151611a9c828701826001600160a01b03169052565b50506101409283015115159390920192909252919050565b6001600160a01b0391909116815260200190565b6000602080830181845280855180835260408601915060408160051b8701019250838701855b82811015611b1c57603f19888603018452611b0a8583516119f2565b94509285019290850190600101611aee565b5092979650505050505050565b604081526000611b3c60408301856119a7565b905060018060a01b03831660208301529392505050565b606081526000611b6660608301866119a7565b8281036020840152611b7881866119a7565b91505060018060a01b0383166040830152949350505050565b604081526000611ba460408301856119a7565b90508260208301529392505050565b6020808252600e908201526d2737ba1027333a103437b63232b960911b604082015260600190565b602081526000611bee60208301846119f2565b9392505050565b85815260a060208201526000611c0e60a08301876119a7565b94151560408301525060608101929092526001600160a01b031660809091015292915050565b60006101408c83528b60208401528a60408401528960608401528860808401528060a0840152611c66818401896119a7565b96151560c0840152505092151560e08401526001600160a01b03919091166101008301521515610120909101529695505050505050565b60008219821115611cb057611cb0611d22565b500190565b600082821015611cc757611cc7611d22565b500390565b600181811c90821680611ce057607f821691505b60208210811415611d0157634e487b7160e01b600052602260045260246000fd5b50919050565b6000600019821415611d1b57611d1b611d22565b5060010190565b634e487b7160e01b600052601160045260246000fd5b634e487b7160e01b600052604160045260246000fdfea2646970667358221220df67a6b34941177ee3de9d6b22730e501c52545141b26ece0729fec023faa6c564736f6c63430008040033",
  "linkReferences": {},
  "deployedLinkReferences": {}
}