{
  "_format": "hh-sol-artifact-1",
  "contractName": "MyDao",
  "sourceName": "contracts/dao.sol",
  "abi": [
    {
      "inputs": [],
      "stateMutability": "nonpayable",
      "type": "constructor"
    },
    {
      "anonymous": false,
      "inputs": [
        {
          "indexed": false,
          "internalType": "uint256",
          "name": "voteUp",
          "type": "uint256"
        },
        {
          "indexed": false,
          "internalType": "uint256",
          "name": "voteDown",
          "type": "uint256"
        },
        {
          "indexed": false,
          "internalType": "bool",
          "name": "votedFor",
          "type": "bool"
        },
        {
          "indexed": false,
          "internalType": "uint256",
          "name": "proposal",
          "type": "uint256"
        },
        {
          "indexed": false,
          "internalType": "address",
          "name": "voter",
          "type": "address"
        }
      ],
      "name": "NewVote",
      "type": "event"
    },
    {
      "anonymous": false,
      "inputs": [
        {
          "indexed": false,
          "internalType": "uint256",
          "name": "id",
          "type": "uint256"
        },
        {
          "indexed": false,
          "internalType": "bool",
          "name": "passed",
          "type": "bool"
        }
      ],
      "name": "ProposalCount",
      "type": "event"
    },
    {
      "anonymous": false,
      "inputs": [
        {
          "indexed": false,
          "internalType": "uint256",
          "name": "id",
          "type": "uint256"
        },
        {
          "indexed": false,
          "internalType": "string",
          "name": "description",
          "type": "string"
        },
        {
          "indexed": false,
          "internalType": "bool",
          "name": "exists",
          "type": "bool"
        },
        {
          "indexed": false,
          "internalType": "uint256",
          "name": "maxVote",
          "type": "uint256"
        },
        {
          "indexed": false,
          "internalType": "address",
          "name": "proposer",
          "type": "address"
        }
      ],
      "name": "ProposalCreated",
      "type": "event"
    },
    {
      "inputs": [
        {
          "internalType": "uint256",
          "name": "id",
          "type": "uint256"
        }
      ],
      "name": "addTokenId",
      "outputs": [],
      "stateMutability": "nonpayable",
      "type": "function"
    },
    {
      "inputs": [
        {
          "internalType": "uint256",
          "name": "id",
          "type": "uint256"
        }
      ],
      "name": "countVotes",
      "outputs": [],
      "stateMutability": "nonpayable",
      "type": "function"
    },
    {
      "inputs": [
        {
          "internalType": "string",
          "name": "_description",
          "type": "string"
        },
        {
          "internalType": "address",
          "name": "nftAddress",
          "type": "address"
        }
      ],
      "name": "createProposal",
      "outputs": [],
      "stateMutability": "nonpayable",
      "type": "function"
    },
    {
      "inputs": [],
      "name": "fetchProposal",
      "outputs": [
        {
          "components": [
            {
              "internalType": "uint256",
              "name": "id",
              "type": "uint256"
            },
            {
              "internalType": "uint256",
              "name": "voteUp",
              "type": "uint256"
            },
            {
              "internalType": "uint256",
              "name": "voteDown",
              "type": "uint256"
            },
            {
              "internalType": "uint256",
              "name": "deadline",
              "type": "uint256"
            },
            {
              "internalType": "uint256",
              "name": "maxVote",
              "type": "uint256"
            },
            {
              "internalType": "string",
              "name": "description",
              "type": "string"
            },
            {
              "internalType": "bool",
              "name": "exists",
              "type": "bool"
            },
            {
              "internalType": "bool",
              "name": "countConducted",
              "type": "bool"
            },
            {
              "components": [
                {
                  "internalType": "address",
                  "name": "voter",
                  "type": "address"
                },
                {
                  "internalType": "bool",
                  "name": "status",
                  "type": "bool"
                }
              ],
              "internalType": "struct MyDao.VotedAddress[]",
              "name": "canVote",
              "type": "tuple[]"
            },
            {
              "internalType": "bool",
              "name": "passed",
              "type": "bool"
            }
          ],
          "internalType": "struct MyDao.Proposal[]",
          "name": "",
          "type": "tuple[]"
        }
      ],
      "stateMutability": "view",
      "type": "function"
    },
    {
      "inputs": [
        {
          "internalType": "uint256",
          "name": "id",
          "type": "uint256"
        }
      ],
      "name": "fetchProposalItem",
      "outputs": [
        {
          "components": [
            {
              "internalType": "uint256",
              "name": "id",
              "type": "uint256"
            },
            {
              "internalType": "uint256",
              "name": "voteUp",
              "type": "uint256"
            },
            {
              "internalType": "uint256",
              "name": "voteDown",
              "type": "uint256"
            },
            {
              "internalType": "uint256",
              "name": "deadline",
              "type": "uint256"
            },
            {
              "internalType": "uint256",
              "name": "maxVote",
              "type": "uint256"
            },
            {
              "internalType": "string",
              "name": "description",
              "type": "string"
            },
            {
              "internalType": "bool",
              "name": "exists",
              "type": "bool"
            },
            {
              "internalType": "bool",
              "name": "countConducted",
              "type": "bool"
            },
            {
              "components": [
                {
                  "internalType": "address",
                  "name": "voter",
                  "type": "address"
                },
                {
                  "internalType": "bool",
                  "name": "status",
                  "type": "bool"
                }
              ],
              "internalType": "struct MyDao.VotedAddress[]",
              "name": "canVote",
              "type": "tuple[]"
            },
            {
              "internalType": "bool",
              "name": "passed",
              "type": "bool"
            }
          ],
          "internalType": "struct MyDao.Proposal",
          "name": "",
          "type": "tuple"
        }
      ],
      "stateMutability": "view",
      "type": "function"
    },
    {
      "inputs": [],
      "name": "owner",
      "outputs": [
        {
          "internalType": "address",
          "name": "",
          "type": "address"
        }
      ],
      "stateMutability": "view",
      "type": "function"
    },
    {
      "inputs": [
        {
          "internalType": "uint256",
          "name": "",
          "type": "uint256"
        }
      ],
      "name": "proposals",
      "outputs": [
        {
          "internalType": "uint256",
          "name": "id",
          "type": "uint256"
        },
        {
          "internalType": "uint256",
          "name": "voteUp",
          "type": "uint256"
        },
        {
          "internalType": "uint256",
          "name": "voteDown",
          "type": "uint256"
        },
        {
          "internalType": "uint256",
          "name": "deadline",
          "type": "uint256"
        },
        {
          "internalType": "uint256",
          "name": "maxVote",
          "type": "uint256"
        },
        {
          "internalType": "string",
          "name": "description",
          "type": "string"
        },
        {
          "internalType": "bool",
          "name": "exists",
          "type": "bool"
        },
        {
          "internalType": "bool",
          "name": "countConducted",
          "type": "bool"
        },
        {
          "internalType": "bool",
          "name": "passed",
          "type": "bool"
        }
      ],
      "stateMutability": "view",
      "type": "function"
    },
    {
      "inputs": [
        {
          "internalType": "uint256",
          "name": "",
          "type": "uint256"
        }
      ],
      "name": "vaidToken",
      "outputs": [
        {
          "internalType": "uint256",
          "name": "",
          "type": "uint256"
        }
      ],
      "stateMutability": "view",
      "type": "function"
    },
    {
      "inputs": [
        {
          "internalType": "uint256",
          "name": "id",
          "type": "uint256"
        },
        {
          "internalType": "bool",
          "name": "_vote",
          "type": "bool"
        },
        {
          "internalType": "address",
          "name": "nftAddress",
          "type": "address"
        }
      ],
      "name": "voteProposal",
      "outputs": [],
      "stateMutability": "nonpayable",
      "type": "function"
    },
    {
      "inputs": [
        {
          "internalType": "uint256",
          "name": "",
          "type": "uint256"
        },
        {
          "internalType": "address",
          "name": "",
          "type": "address"
        }
      ],
      "name": "voteStatus",
      "outputs": [
        {
          "internalType": "bool",
          "name": "",
          "type": "bool"
        }
      ],
      "stateMutability": "view",
      "type": "function"
    },
    {
      "inputs": [
        {
          "internalType": "uint256",
          "name": "",
          "type": "uint256"
        },
        {
          "internalType": "uint256",
          "name": "",
          "type": "uint256"
        }
      ],
      "name": "votedNftId",
      "outputs": [
        {
          "internalType": "bool",
          "name": "",
          "type": "bool"
        }
      ],
      "stateMutability": "view",
      "type": "function"
    }
  ],
  "bytecode": "0x608060405234801561001057600080fd5b50600180546001600160a01b031916331790556115e3806100326000396000f3fe608060405234801561001057600080fd5b50600436106100a95760003560e01c806363c47f131161007157806363c47f131461013a5780636c98586f1461017857806371f4578d1461018d5780638da5cb5b146101ae578063af30cf9b146101ce578063fd0d101f146101fc57600080fd5b8063013cf08b146100ae578063171da643146100df5780631840f0ca146100ff5780633ed8e9b41461011457806361daa07a14610127575b600080fd5b6100c16100bc36600461118c565b61020f565b6040516100d6999897969594939291906114bc565b60405180910390f35b6100f26100ed36600461118c565b6102ee565b6040516100d69190611463565b61011261010d36600461118c565b61048f565b005b6101126101223660046110cf565b610624565b6101126101353660046111de565b610795565b6101686101483660046111bc565b600460209081526000928352604080842090915290825290205460ff1681565b60405190151581526020016100d6565b610180610ab4565b6040516100d6919061139c565b6101a061019b36600461118c565b610d2b565b6040519081526020016100d6565b6001546101c1906001600160a01b031681565b6040516100d69190611388565b6101686101dc36600461121f565b600560209081526000928352604080842090915290825290205460ff1681565b61011261020a36600461118c565b610d4c565b60036020528060005260406000206000915090508060000154908060010154908060020154908060030154908060040154908060050180546102509061152b565b80601f016020809104026020016040519081016040528092919081815260200182805461027c9061152b565b80156102c95780601f1061029e576101008083540402835291602001916102c9565b820191906000526020600020905b8154815290600101906020018083116102ac57829003601f168201915b505050506006830154600890930154919260ff80821693610100909204811692501689565b6102f6610fc1565b600360008381526020019081526020016000206040518061014001604052908160008201548152602001600182015481526020016002820154815260200160038201548152602001600482015481526020016005820180546103579061152b565b80601f01602080910402602001604051908101604052809291908181526020018280546103839061152b565b80156103d05780601f106103a5576101008083540402835291602001916103d0565b820191906000526020600020905b8154815290600101906020018083116103b357829003601f168201915b5050509183525050600682015460ff8082161515602080850191909152610100909204161515604080840191909152600784018054825181850281018501909352808352606090940193919290919060009084015b8282101561047057600084815260209081902060408051808201909152908401546001600160a01b0381168252600160a01b900460ff16151581830152825260019092019101610425565b505050908252506008919091015460ff16151560209091015292915050565b60008181526003602052604090206001546001600160a01b031633146104fc5760405162461bcd60e51b815260206004820152601e60248201527f4f6e6c79206f776e65722063616e20636f756e74207468652020766f7465000060448201526064015b60405180910390fd5b806003015442116105485760405162461bcd60e51b8152602060048201526016602482015275141c9bdc1bdcd85b081a185cc81b9bdd08195b99195960521b60448201526064016104f3565b6006810154610100900460ff16156105a25760405162461bcd60e51b815260206004820152601b60248201527f436f756e742068617320616c7265616479206265656e20646f6e65000000000060448201526064016104f3565b8060020154816001015411156105c25760088101805460ff191660011790555b60068101805461ff001916610100908117918290556040517fa5833ab43e4bc2008eeed8da9ba765f8ff721bca2757d7bdb0680e615177f72292610618928692910460ff16909182521515602082015260400190565b60405180910390a15050565b806000816001600160a01b03166370a08231336040518263ffffffff1660e01b81526004016106539190611388565b60206040518083038186803b15801561066b57600080fd5b505afa15801561067f573d6000803e3d6000fd5b505050506040513d601f19601f820116820180604052508101906106a391906111a4565b116106c05760405162461bcd60e51b81526004016104f39061143b565b6106eb604051806040016040528060088152602001671c1c9bdc1bdcd85b60c21b8152508484610dd4565b6106f9600080546001019055565b600080548082526003602090815260409092208551919290916107249160058401919088019061101a565b5061073142610258611513565b600382015560068101805460ff1916600190811790915582825560078201546040517fb1334d5558f8aebed3f5bf3610990537be54b7c1738259116989d07fb2f73636926107869286928a929190339061147d565b60405180910390a15050505050565b806000816001600160a01b03166370a08231336040518263ffffffff1660e01b81526004016107c49190611388565b60206040518083038186803b1580156107dc57600080fd5b505afa1580156107f0573d6000803e3d6000fd5b505050506040513d601f19601f8201168201806040525081019061081491906111a4565b116108315760405162461bcd60e51b81526004016104f39061143b565b60008481526003602052604090206006015460ff166108885760405162461bcd60e51b8152602060048201526013602482015272125b9d985b1a59081c1c9bdc1bdcd85b081a59606a1b60448201526064016104f3565b600084815260046020908152604080832033845290915290205460ff16156108eb5760405162461bcd60e51b8152602060048201526016602482015275165bdd481a185d9948185b1c9958591e481d9bdd195960521b60448201526064016104f3565b60006108f78584610e20565b116109445760405162461bcd60e51b815260206004820152601b60248201527f596f7520617265206e6f7420616c6c6f77656420746f20766f7465000000000060448201526064016104f3565b60008481526003602081905260409091200154421061099c5760405162461bcd60e51b8152602060048201526014602482015273141c9bdc1bdcd85b081a185cc8195e1c1a5c995960621b60448201526064016104f3565b600084815260036020526040902083156109cc576001810180549060006109c283611566565b91905055506109e4565b6002810180549060006109de83611566565b91905055505b60408051808201825233808252600160208084018281526007870180548085018255600091825283822096519601805492511515600160a01b026001600160a81b03199093166001600160a01b03909716969096179190911790945589845260048152848420838552815292849020805460ff1916821790558401546002850154845191825292810192909252861515928201929092526060810187905260808101919091527f362e8435f45bfefc6917180b43834c114902fcc8271a936921ab05d751d832499060a001610786565b60606000610ac160005490565b90506000808267ffffffffffffffff811115610aed57634e487b7160e01b600052604160045260246000fd5b604051908082528060200260200182016040528015610b2657816020015b610b13610fc1565b815260200190600190039081610b0b5790505b50905060005b83811015610d23576000600381610b44846001611513565b8152602001908152602001600020905080604051806101400160405290816000820154815260200160018201548152602001600282015481526020016003820154815260200160048201548152602001600582018054610ba39061152b565b80601f0160208091040260200160405190810160405280929190818152602001828054610bcf9061152b565b8015610c1c5780601f10610bf157610100808354040283529160200191610c1c565b820191906000526020600020905b815481529060010190602001808311610bff57829003601f168201915b5050509183525050600682015460ff8082161515602080850191909152610100909204161515604080840191909152600784018054825181850281018501909352808352606090940193919290919060009084015b82821015610cbc57600084815260209081902060408051808201909152908401546001600160a01b0381168252600160a01b900460ff16151581830152825260019092019101610c71565b505050908252506008919091015460ff1615156020909101528351849086908110610cf757634e487b7160e01b600052603260045260246000fd5b6020908102919091010152610d0d600185611513565b9350508080610d1b90611566565b915050610b2c565b509392505050565b60028181548110610d3b57600080fd5b600091825260209091200154905081565b6001546001600160a01b03163314610d9f5760405162461bcd60e51b8152602060048201526016602482015275165bdd48185c99481b9bdd08185d5d1a1bdc9a5e995960521b60448201526064016104f3565b600280546001810182556000919091527f405787fa12a823e0f2b7631cc41b3ba8828b3321ca811111fa75cd3aa3bb5ace0155565b610e1b838383604051602401610dec939291906113fd565b60408051601f198184030181529190526020810180516001600160e01b03166395ed019560e01b179052610fa0565b505050565b600080826001600160a01b03166370a08231336040518263ffffffff1660e01b8152600401610e4f9190611388565b60206040518083038186803b158015610e6757600080fd5b505afa158015610e7b573d6000803e3d6000fd5b505050506040513d601f19601f82011682018060405250810190610e9f91906111a4565b90506000805b82811015610f9757604051632f745c5960e01b8152336004820152602481018290526000906001600160a01b03871690632f745c599060440160206040518083038186803b158015610ef657600080fd5b505afa158015610f0a573d6000803e3d6000fd5b505050506040513d601f19601f82011682018060405250810190610f2e91906111a4565b600088815260056020908152604080832084845290915290205490915060ff16610f845782610f5c81611566565b60008981526005602090815260408083208684529091529020805460ff191660011790559350505b5080610f8f81611566565b915050610ea5565b50949350505050565b80516a636f6e736f6c652e6c6f67602083016000808483855afa5050505050565b604051806101400160405280600081526020016000815260200160008152602001600081526020016000815260200160608152602001600015158152602001600015158152602001606081526020016000151581525090565b8280546110269061152b565b90600052602060002090601f016020900481019282611048576000855561108e565b82601f1061106157805160ff191683800117855561108e565b8280016001018555821561108e579182015b8281111561108e578251825591602001919060010190611073565b5061109a92915061109e565b5090565b5b8082111561109a576000815560010161109f565b80356001600160a01b03811681146110ca57600080fd5b919050565b600080604083850312156110e1578182fd5b823567ffffffffffffffff808211156110f8578384fd5b818501915085601f83011261110b578384fd5b81358181111561111d5761111d611597565b604051601f8201601f19908116603f0116810190838211818310171561114557611145611597565b8160405282815288602084870101111561115d578687fd5b8260208601602083013786602084830101528096505050505050611183602084016110b3565b90509250929050565b60006020828403121561119d578081fd5b5035919050565b6000602082840312156111b5578081fd5b5051919050565b600080604083850312156111ce578182fd5b82359150611183602084016110b3565b6000806000606084860312156111f2578081fd5b8335925060208401358015158114611208578182fd5b9150611216604085016110b3565b90509250925092565b60008060408385031215611231578182fd5b50508035926020909101359150565b6000815180845260208085019450808401835b8381101561128557815180516001600160a01b0316885283015115158388015260409096019590820190600101611253565b509495945050505050565b60008151808452815b818110156112b557602081850181015186830182015201611299565b818111156112c65782602083870101525b50601f01601f19169290920160200192915050565b6000610140825184526020830151602085015260408301516040850152606083015160608501526080830151608085015260a08301518160a086015261132382860182611290565b91505060c083015161133960c086018215159052565b5060e083015161134d60e086018215159052565b5061010080840151858303828701526113668382611240565b925050506101208084015161137e8287018215159052565b5090949350505050565b6001600160a01b0391909116815260200190565b6000602080830181845280855180835260408601915060408160051b8701019250838701855b828110156113f057603f198886030184526113de8583516112db565b945092850192908501906001016113c2565b5092979650505050505050565b6060815260006114106060830186611290565b82810360208401526114228186611290565b91505060018060a01b0383166040830152949350505050565b6020808252600e908201526d2737ba1027333a103437b63232b960911b604082015260600190565b60208152600061147660208301846112db565b9392505050565b85815260a06020820152600061149660a0830187611290565b94151560408301525060608101929092526001600160a01b031660809091015292915050565b60006101208b83528a60208401528960408401528860608401528760808401528060a08401526114ee81840188611290565b95151560c0840152505091151560e08301521515610100909101529695505050505050565b6000821982111561152657611526611581565b500190565b600181811c9082168061153f57607f821691505b6020821081141561156057634e487b7160e01b600052602260045260246000fd5b50919050565b600060001982141561157a5761157a611581565b5060010190565b634e487b7160e01b600052601160045260246000fd5b634e487b7160e01b600052604160045260246000fdfea2646970667358221220a29c428400ec7dc3346d3a3b03693994f06c0b85c6bf7a78837dc4f99f9a5e4664736f6c63430008040033",
  "linkReferences": {},
  "deployedLinkReferences": {}
}