{
  "_format": "hh-sol-artifact-1",
  "contractName": "MyDao",
  "sourceName": "contracts/dao.sol",
  "abi": [
    {
      "anonymous": false,
      "inputs": [
        {
          "indexed": false,
          "internalType": "uint256",
          "name": "voteUp",
          "type": "uint256"
        },
        {
          "indexed": false,
          "internalType": "uint256",
          "name": "voteDown",
          "type": "uint256"
        },
        {
          "indexed": false,
          "internalType": "bool",
          "name": "votedFor",
          "type": "bool"
        },
        {
          "indexed": false,
          "internalType": "uint256",
          "name": "proposal",
          "type": "uint256"
        },
        {
          "indexed": false,
          "internalType": "address",
          "name": "voter",
          "type": "address"
        }
      ],
      "name": "NewVote",
      "type": "event"
    },
    {
      "anonymous": false,
      "inputs": [
        {
          "indexed": false,
          "internalType": "uint256",
          "name": "id",
          "type": "uint256"
        },
        {
          "indexed": false,
          "internalType": "bool",
          "name": "passed",
          "type": "bool"
        }
      ],
      "name": "ProposalCount",
      "type": "event"
    },
    {
      "anonymous": false,
      "inputs": [
        {
          "indexed": false,
          "internalType": "uint256",
          "name": "id",
          "type": "uint256"
        },
        {
          "indexed": false,
          "internalType": "string",
          "name": "description",
          "type": "string"
        },
        {
          "indexed": false,
          "internalType": "bool",
          "name": "exists",
          "type": "bool"
        },
        {
          "indexed": false,
          "internalType": "uint256",
          "name": "maxVote",
          "type": "uint256"
        },
        {
          "indexed": false,
          "internalType": "address",
          "name": "proposer",
          "type": "address"
        }
      ],
      "name": "ProposalCreated",
      "type": "event"
    },
    {
      "inputs": [
        {
          "internalType": "uint256",
          "name": "id",
          "type": "uint256"
        }
      ],
      "name": "addTokenId",
      "outputs": [],
      "stateMutability": "nonpayable",
      "type": "function"
    },
    {
      "inputs": [
        {
          "internalType": "uint256",
          "name": "id",
          "type": "uint256"
        }
      ],
      "name": "countVotes",
      "outputs": [],
      "stateMutability": "nonpayable",
      "type": "function"
    },
    {
      "inputs": [
        {
          "internalType": "string",
          "name": "_description",
          "type": "string"
        },
        {
          "internalType": "address",
          "name": "nftAddress",
          "type": "address"
        }
      ],
      "name": "createProposal",
      "outputs": [],
      "stateMutability": "nonpayable",
      "type": "function"
    },
    {
      "inputs": [],
      "name": "fetchProposal",
      "outputs": [
        {
          "components": [
            {
              "internalType": "uint256",
              "name": "id",
              "type": "uint256"
            },
            {
              "internalType": "uint256",
              "name": "voteUp",
              "type": "uint256"
            },
            {
              "internalType": "uint256",
              "name": "voteDown",
              "type": "uint256"
            },
            {
              "internalType": "uint256",
              "name": "deadline",
              "type": "uint256"
            },
            {
              "internalType": "uint256",
              "name": "maxVote",
              "type": "uint256"
            },
            {
              "internalType": "string",
              "name": "description",
              "type": "string"
            },
            {
              "internalType": "bool",
              "name": "exists",
              "type": "bool"
            },
            {
              "internalType": "bool",
              "name": "countConducted",
              "type": "bool"
            },
            {
              "internalType": "address[]",
              "name": "canVote",
              "type": "address[]"
            },
            {
              "internalType": "bool",
              "name": "passed",
              "type": "bool"
            }
          ],
          "internalType": "struct MyDao.Proposal[]",
          "name": "",
          "type": "tuple[]"
        }
      ],
      "stateMutability": "view",
      "type": "function"
    },
    {
      "inputs": [],
      "name": "owner",
      "outputs": [
        {
          "internalType": "address",
          "name": "",
          "type": "address"
        }
      ],
      "stateMutability": "view",
      "type": "function"
    },
    {
      "inputs": [
        {
          "internalType": "uint256",
          "name": "",
          "type": "uint256"
        }
      ],
      "name": "proposals",
      "outputs": [
        {
          "internalType": "uint256",
          "name": "id",
          "type": "uint256"
        },
        {
          "internalType": "uint256",
          "name": "voteUp",
          "type": "uint256"
        },
        {
          "internalType": "uint256",
          "name": "voteDown",
          "type": "uint256"
        },
        {
          "internalType": "uint256",
          "name": "deadline",
          "type": "uint256"
        },
        {
          "internalType": "uint256",
          "name": "maxVote",
          "type": "uint256"
        },
        {
          "internalType": "string",
          "name": "description",
          "type": "string"
        },
        {
          "internalType": "bool",
          "name": "exists",
          "type": "bool"
        },
        {
          "internalType": "bool",
          "name": "countConducted",
          "type": "bool"
        },
        {
          "internalType": "bool",
          "name": "passed",
          "type": "bool"
        }
      ],
      "stateMutability": "view",
      "type": "function"
    },
    {
      "inputs": [
        {
          "internalType": "uint256",
          "name": "",
          "type": "uint256"
        }
      ],
      "name": "vaidToken",
      "outputs": [
        {
          "internalType": "uint256",
          "name": "",
          "type": "uint256"
        }
      ],
      "stateMutability": "view",
      "type": "function"
    },
    {
      "inputs": [
        {
          "internalType": "uint256",
          "name": "id",
          "type": "uint256"
        },
        {
          "internalType": "bool",
          "name": "_vote",
          "type": "bool"
        }
      ],
      "name": "voteProposal",
      "outputs": [],
      "stateMutability": "nonpayable",
      "type": "function"
    },
    {
      "inputs": [
        {
          "internalType": "uint256",
          "name": "",
          "type": "uint256"
        },
        {
          "internalType": "address",
          "name": "",
          "type": "address"
        }
      ],
      "name": "voteStatus",
      "outputs": [
        {
          "internalType": "bool",
          "name": "",
          "type": "bool"
        }
      ],
      "stateMutability": "view",
      "type": "function"
    }
  ],
  "bytecode": "0x608060405234801561001057600080fd5b50611155806100206000396000f3fe608060405234801561001057600080fd5b50600436106100835760003560e01c8063013cf08b146100885780631840f0ca146100b95780633ed8e9b4146100ce57806363c47f13146100e15780636c98586f1461011f57806371f4578d146101345780638da5cb5b14610155578063bcfb9b6114610180578063fd0d101f14610193575b600080fd5b61009b610096366004610da8565b6101a6565b6040516100b09998979695949392919061102e565b60405180910390f35b6100cc6100c7366004610da8565b610285565b005b6100cc6100dc366004610ceb565b61041a565b61010f6100ef366004610dd8565b600460209081526000928352604080842090915290825290205460ff1681565b60405190151581526020016100b0565b6101276105a8565b6040516100b09190610ebb565b610147610142366004610da8565b61085c565b6040519081526020016100b0565b600154610168906001600160a01b031681565b6040516001600160a01b0390911681526020016100b0565b6100cc61018e366004610dfa565b61087d565b6100cc6101a1366004610da8565b610ab3565b60036020528060005260406000206000915090508060000154908060010154908060020154908060030154908060040154908060050180546101e79061109d565b80601f01602080910402602001604051908101604052809291908181526020018280546102139061109d565b80156102605780601f1061023557610100808354040283529160200191610260565b820191906000526020600020905b81548152906001019060200180831161024357829003601f168201915b505050506006830154600890930154919260ff80821693610100909204811692501689565b60008181526003602052604090206001546001600160a01b031633146102f25760405162461bcd60e51b815260206004820152601e60248201527f4f6e6c79206f776e65722063616e20636f756e74207468652020766f7465000060448201526064015b60405180910390fd5b8060030154431161033e5760405162461bcd60e51b8152602060048201526016602482015275141c9bdc1bdcd85b081a185cc81b9bdd08195b99195960521b60448201526064016102e9565b6006810154610100900460ff16156103985760405162461bcd60e51b815260206004820152601b60248201527f436f756e742068617320616c7265616479206265656e20646f6e65000000000060448201526064016102e9565b8060020154816001015411156103b85760088101805460ff191660011790555b60068101805461ff001916610100908117918290556040517fa5833ab43e4bc2008eeed8da9ba765f8ff721bca2757d7bdb0680e615177f7229261040e928692910460ff16909182521515602082015260400190565b60405180910390a15050565b6040516370a0823160e01b815233600482015281906000906001600160a01b038316906370a082319060240160206040518083038186803b15801561045e57600080fd5b505afa158015610472573d6000803e3d6000fd5b505050506040513d601f19601f820116820180604052508101906104969190610dc0565b116104d45760405162461bcd60e51b815260206004820152600e60248201526d2737ba1027333a103437b63232b960911b60448201526064016102e9565b6104ff604051806040016040528060088152602001671c1c9bdc1bdcd85b60c21b8152508484610b3b565b61050d600080546001019055565b6000805480825260036020908152604090922085519192909161053891600584019190880190610c36565b50610544436064611085565b600382015560068101805460ff1916600190811790915582825560078201546040517fb1334d5558f8aebed3f5bf3610990537be54b7c1738259116989d07fb2f73636926105999286928a9291903390610fef565b60405180910390a15050505050565b606060006105b560005490565b90506000808267ffffffffffffffff8111156105e157634e487b7160e01b600052604160045260246000fd5b60405190808252806020026020018201604052801561066e57816020015b61065b604051806101400160405280600081526020016000815260200160008152602001600081526020016000815260200160608152602001600015158152602001600015158152602001606081526020016000151581525090565b8152602001906001900390816105ff5790505b50905060005b8381101561085457600060038161068c846001611085565b81526020019081526020016000209050806040518061014001604052908160008201548152602001600182015481526020016002820154815260200160038201548152602001600482015481526020016005820180546106eb9061109d565b80601f01602080910402602001604051908101604052809291908181526020018280546107179061109d565b80156107645780601f1061073957610100808354040283529160200191610764565b820191906000526020600020905b81548152906001019060200180831161074757829003601f168201915b5050509183525050600682015460ff808216151560208085019190915261010090920416151560408084019190915260078401805482518185028101850190935280835260609094019391929091908301828280156107ec57602002820191906000526020600020905b81546001600160a01b031681526001909101906020018083116107ce575b50505091835250506008919091015460ff161515602090910152835184908690811061082857634e487b7160e01b600052603260045260246000fd5b602090810291909101015261083e600185611085565b935050808061084c906110d8565b915050610674565b509392505050565b6002818154811061086c57600080fd5b600091825260209091200154905081565b60008281526003602052604090206006015460ff166108d45760405162461bcd60e51b8152602060048201526013602482015272125b9d985b1a59081c1c9bdc1bdcd85b081a59606a1b60448201526064016102e9565b6108de8233610b87565b61092a5760405162461bcd60e51b815260206004820152601b60248201527f596f7520617265206e6f7420616c6c6f77656420746f20766f7465000000000060448201526064016102e9565b600082815260046020908152604080832033845290915290205460ff161561098d5760405162461bcd60e51b8152602060048201526016602482015275165bdd481a185d9948185b1c9958591e481d9bdd195960521b60448201526064016102e9565b6000828152600360208190526040909120015443106109e55760405162461bcd60e51b8152602060048201526014602482015273141c9bdc1bdcd85b081a185cc8195e1c1a5c995960621b60448201526064016102e9565b60008281526003602052604090208115610a1557600181018054906000610a0b836110d8565b9190505550610a2d565b600281018054906000610a27836110d8565b91905055505b60008381526004602090815260408083203380855290835292819020805460ff191660019081179091558401546002850154825191825292810192909252841515908201526060810185905260808101919091527f362e8435f45bfefc6917180b43834c114902fcc8271a936921ab05d751d832499060a00160405180910390a1505050565b6001546001600160a01b03163314610b065760405162461bcd60e51b8152602060048201526016602482015275165bdd48185c99481b9bdd08185d5d1a1bdc9a5e995960521b60448201526064016102e9565b600280546001810182556000919091527f405787fa12a823e0f2b7631cc41b3ba8828b3321ca811111fa75cd3aa3bb5ace0155565b610b82838383604051602401610b5393929190610fb1565b60408051601f198184030181529190526020810180516001600160e01b03166395ed019560e01b179052610c15565b505050565b6000828152600360205260408120815b6007820154811015610c0857836001600160a01b0316826007018281548110610bd057634e487b7160e01b600052603260045260246000fd5b6000918252602090912001546001600160a01b03161415610bf657600192505050610c0f565b80610c00816110d8565b915050610b97565b5060009150505b92915050565b80516a636f6e736f6c652e6c6f67602083016000808483855afa5050505050565b828054610c429061109d565b90600052602060002090601f016020900481019282610c645760008555610caa565b82601f10610c7d57805160ff1916838001178555610caa565b82800160010185558215610caa579182015b82811115610caa578251825591602001919060010190610c8f565b50610cb6929150610cba565b5090565b5b80821115610cb65760008155600101610cbb565b80356001600160a01b0381168114610ce657600080fd5b919050565b60008060408385031215610cfd578182fd5b823567ffffffffffffffff80821115610d14578384fd5b818501915085601f830112610d27578384fd5b813581811115610d3957610d39611109565b604051601f8201601f19908116603f01168101908382118183101715610d6157610d61611109565b81604052828152886020848701011115610d79578687fd5b8260208601602083013786602084830101528096505050505050610d9f60208401610ccf565b90509250929050565b600060208284031215610db9578081fd5b5035919050565b600060208284031215610dd1578081fd5b5051919050565b60008060408385031215610dea578182fd5b82359150610d9f60208401610ccf565b60008060408385031215610e0c578182fd5b8235915060208301358015158114610e22578182fd5b809150509250929050565b6000815180845260208085019450808401835b83811015610e655781516001600160a01b031687529582019590820190600101610e40565b509495945050505050565b60008151808452815b81811015610e9557602081850181015186830182015201610e79565b81811115610ea65782602083870101525b50601f01601f19169290920160200192915050565b60006020808301818452808551808352604092508286019150828160051b870101848801865b83811015610fa357603f19898403018552815161014081518552888201518986015287820151888601526060808301518187015250608080830151818701525060a0808301518282880152610f3883880182610e70565b9250505060c080830151610f4f8288018215159052565b505060e0828101511515908601526101008083015186830382880152610f758382610e2d565b92505050610120808301519250610f8f8187018415159052565b509588019593505090860190600101610ee1565b509098975050505050505050565b606081526000610fc46060830186610e70565b8281036020840152610fd68186610e70565b91505060018060a01b0383166040830152949350505050565b85815260a06020820152600061100860a0830187610e70565b94151560408301525060608101929092526001600160a01b031660809091015292915050565b60006101208b83528a60208401528960408401528860608401528760808401528060a084015261106081840188610e70565b95151560c0840152505091151560e08301521515610100909101529695505050505050565b60008219821115611098576110986110f3565b500190565b600181811c908216806110b157607f821691505b602082108114156110d257634e487b7160e01b600052602260045260246000fd5b50919050565b60006000198214156110ec576110ec6110f3565b5060010190565b634e487b7160e01b600052601160045260246000fd5b634e487b7160e01b600052604160045260246000fdfea26469706673582212207373f2fdbc827c6350b9b4beaa2b1facd4a51ff5cfb76cdc20987e864c44ced264736f6c63430008040033",
  "linkReferences": {},
  "deployedLinkReferences": {}
}