{
  "_format": "hh-sol-artifact-1",
  "contractName": "NftMarket",
  "sourceName": "contracts/NFtMarket.sol",
  "abi": [
    {
      "inputs": [
        {
          "internalType": "address",
          "name": "_auditAddress",
          "type": "address"
        }
      ],
      "stateMutability": "nonpayable",
      "type": "constructor"
    },
    {
      "anonymous": false,
      "inputs": [
        {
          "indexed": true,
          "internalType": "uint256",
          "name": "itemId",
          "type": "uint256"
        },
        {
          "indexed": false,
          "internalType": "address",
          "name": "nftContract",
          "type": "address"
        },
        {
          "indexed": true,
          "internalType": "uint256",
          "name": "tokenId",
          "type": "uint256"
        },
        {
          "indexed": false,
          "internalType": "address",
          "name": "onwer",
          "type": "address"
        },
        {
          "indexed": false,
          "internalType": "address",
          "name": "seller",
          "type": "address"
        },
        {
          "indexed": false,
          "internalType": "uint256",
          "name": "price",
          "type": "uint256"
        },
        {
          "indexed": false,
          "internalType": "bool",
          "name": "sold",
          "type": "bool"
        }
      ],
      "name": "MarketItemCreated",
      "type": "event"
    },
    {
      "inputs": [
        {
          "internalType": "address",
          "name": "nftContract",
          "type": "address"
        },
        {
          "internalType": "address",
          "name": "auctionAddress",
          "type": "address"
        }
      ],
      "name": "approveAuction",
      "outputs": [],
      "stateMutability": "nonpayable",
      "type": "function"
    },
    {
      "inputs": [
        {
          "internalType": "address",
          "name": "nftAddress",
          "type": "address"
        },
        {
          "internalType": "uint256",
          "name": "_price",
          "type": "uint256"
        },
        {
          "internalType": "uint256",
          "name": "_tokenId",
          "type": "uint256"
        }
      ],
      "name": "createMarketItem",
      "outputs": [],
      "stateMutability": "payable",
      "type": "function"
    },
    {
      "inputs": [
        {
          "internalType": "uint256",
          "name": "itemId",
          "type": "uint256"
        },
        {
          "internalType": "address",
          "name": "nftContract",
          "type": "address"
        }
      ],
      "name": "createmarketSale",
      "outputs": [],
      "stateMutability": "payable",
      "type": "function"
    },
    {
      "inputs": [],
      "name": "fetchMarketItem",
      "outputs": [
        {
          "components": [
            {
              "internalType": "uint256",
              "name": "itemId",
              "type": "uint256"
            },
            {
              "internalType": "address",
              "name": "nftContract",
              "type": "address"
            },
            {
              "internalType": "uint256",
              "name": "tokenId",
              "type": "uint256"
            },
            {
              "internalType": "address payable",
              "name": "onwer",
              "type": "address"
            },
            {
              "internalType": "address payable",
              "name": "seller",
              "type": "address"
            },
            {
              "internalType": "uint256",
              "name": "price",
              "type": "uint256"
            },
            {
              "internalType": "bool",
              "name": "sold",
              "type": "bool"
            }
          ],
          "internalType": "struct NftMarket.MarketItem[]",
          "name": "",
          "type": "tuple[]"
        }
      ],
      "stateMutability": "view",
      "type": "function"
    },
    {
      "inputs": [],
      "name": "fetchMyNFT",
      "outputs": [
        {
          "components": [
            {
              "internalType": "uint256",
              "name": "itemId",
              "type": "uint256"
            },
            {
              "internalType": "address",
              "name": "nftContract",
              "type": "address"
            },
            {
              "internalType": "uint256",
              "name": "tokenId",
              "type": "uint256"
            },
            {
              "internalType": "address payable",
              "name": "onwer",
              "type": "address"
            },
            {
              "internalType": "address payable",
              "name": "seller",
              "type": "address"
            },
            {
              "internalType": "uint256",
              "name": "price",
              "type": "uint256"
            },
            {
              "internalType": "bool",
              "name": "sold",
              "type": "bool"
            }
          ],
          "internalType": "struct NftMarket.MarketItem[]",
          "name": "",
          "type": "tuple[]"
        }
      ],
      "stateMutability": "view",
      "type": "function"
    },
    {
      "inputs": [],
      "name": "fetchitemcreated",
      "outputs": [
        {
          "components": [
            {
              "internalType": "uint256",
              "name": "itemId",
              "type": "uint256"
            },
            {
              "internalType": "address",
              "name": "nftContract",
              "type": "address"
            },
            {
              "internalType": "uint256",
              "name": "tokenId",
              "type": "uint256"
            },
            {
              "internalType": "address payable",
              "name": "onwer",
              "type": "address"
            },
            {
              "internalType": "address payable",
              "name": "seller",
              "type": "address"
            },
            {
              "internalType": "uint256",
              "name": "price",
              "type": "uint256"
            },
            {
              "internalType": "bool",
              "name": "sold",
              "type": "bool"
            }
          ],
          "internalType": "struct NftMarket.MarketItem[]",
          "name": "",
          "type": "tuple[]"
        }
      ],
      "stateMutability": "view",
      "type": "function"
    },
    {
      "inputs": [],
      "name": "getListingPrice",
      "outputs": [
        {
          "internalType": "uint256",
          "name": "",
          "type": "uint256"
        }
      ],
      "stateMutability": "view",
      "type": "function"
    },
    {
      "inputs": [
        {
          "internalType": "uint256",
          "name": "itemId",
          "type": "uint256"
        }
      ],
      "name": "getMarketItemDetail",
      "outputs": [
        {
          "components": [
            {
              "internalType": "uint256",
              "name": "itemId",
              "type": "uint256"
            },
            {
              "internalType": "address",
              "name": "nftContract",
              "type": "address"
            },
            {
              "internalType": "uint256",
              "name": "tokenId",
              "type": "uint256"
            },
            {
              "internalType": "address payable",
              "name": "onwer",
              "type": "address"
            },
            {
              "internalType": "address payable",
              "name": "seller",
              "type": "address"
            },
            {
              "internalType": "uint256",
              "name": "price",
              "type": "uint256"
            },
            {
              "internalType": "bool",
              "name": "sold",
              "type": "bool"
            }
          ],
          "internalType": "struct NftMarket.MarketItem",
          "name": "",
          "type": "tuple"
        }
      ],
      "stateMutability": "view",
      "type": "function"
    },
    {
      "inputs": [
        {
          "internalType": "uint256",
          "name": "",
          "type": "uint256"
        }
      ],
      "name": "idToMarketItem",
      "outputs": [
        {
          "internalType": "uint256",
          "name": "itemId",
          "type": "uint256"
        },
        {
          "internalType": "address",
          "name": "nftContract",
          "type": "address"
        },
        {
          "internalType": "uint256",
          "name": "tokenId",
          "type": "uint256"
        },
        {
          "internalType": "address payable",
          "name": "onwer",
          "type": "address"
        },
        {
          "internalType": "address payable",
          "name": "seller",
          "type": "address"
        },
        {
          "internalType": "uint256",
          "name": "price",
          "type": "uint256"
        },
        {
          "internalType": "bool",
          "name": "sold",
          "type": "bool"
        }
      ],
      "stateMutability": "view",
      "type": "function"
    },
    {
      "inputs": [
        {
          "internalType": "uint256",
          "name": "marketId",
          "type": "uint256"
        },
        {
          "internalType": "address",
          "name": "bidder",
          "type": "address"
        }
      ],
      "name": "updateOwner",
      "outputs": [],
      "stateMutability": "nonpayable",
      "type": "function"
    }
  ],
  "bytecode": "0x6080604052662386f26fc1000060055534801561001b57600080fd5b5060405161120938038061120983398101604081905261003a91610072565b600160005560038054336001600160a01b031991821617909155600480549091166001600160a01b03929092169190911790556100a0565b600060208284031215610083578081fd5b81516001600160a01b0381168114610099578182fd5b9392505050565b61115a806100af6000396000f3fe6080604052600436106100915760003560e01c80637192711f116100595780637192711f146101305780638fafd02114610150578063c18763f714610165578063e61a70c01461017a578063eb7b1c8e1461022757600080fd5b806312e85585146100965780631578577c146100b95780631d6dcc70146100ce57806330f08829146100f057806358eb2df51461011d575b600080fd5b3480156100a257600080fd5b506005546040519081526020015b60405180910390f35b6100cc6100c7366004610f24565b610247565b005b3480156100da57600080fd5b506100e361041b565b6040516100b09190610fc0565b3480156100fc57600080fd5b5061011061010b366004610f0c565b61061b565b6040516100b091906110b0565b6100cc61012b366004610eda565b610697565b34801561013c57600080fd5b506100cc61014b366004610f24565b610902565b34801561015c57600080fd5b506100e3610998565b34801561017157600080fd5b506100e3610b13565b34801561018657600080fd5b506101e3610195366004610f0c565b6006602081905260009182526040909120805460018201546002830154600384015460048501546005860154959096015493956001600160a01b039384169592949184169316919060ff1687565b604080519788526001600160a01b0396871660208901528701949094529184166060860152909216608084015260a0830191909152151560c082015260e0016100b0565b34801561023357600080fd5b506100cc610242366004610ea8565b610d33565b600260005414156102735760405162461bcd60e51b815260040161026a90611079565b60405180910390fd5b6002600081815583815260066020526040902060058101549101543482146102e95760405162461bcd60e51b8152602060048201526024808201527f416d6f756e74206973206c657373207468616e207468652061736b696e6720706044820152637269636560e01b606482015260840161026a565b6000848152600660205260408082206004015490516001600160a01b03909116913480156108fc02929091818181858888f19350505050158015610331573d6000803e3d6000fd5b506040516323b872dd60e01b81526001600160a01b038416906323b872dd9061036290309033908690600401610f9c565b600060405180830381600087803b15801561037c57600080fd5b505af1158015610390573d6000803e3d6000fd5b50505060008581526006602081905260409091206003810180546001600160a01b0319163317905501805460ff19166001179055506103d3600280546001019055565b6003546005546040516001600160a01b039092169181156108fc0291906000818181858888f1935050505015801561040f573d6000803e3d6000fd5b50506001600055505050565b6060600061042860015490565b9050600080805b8381101561048a5733600660006104478460016110c4565b81526020810191909152604001600020600401546001600160a01b03161415610478576104756001846110c4565b92505b80610482816110f3565b91505061042f565b5060008267ffffffffffffffff8111156104b457634e487b7160e01b600052604160045260246000fd5b6040519080825280602002602001820160405280156104ed57816020015b6104da610e50565b8152602001906001900390816104d25790505b50905060005b8381101561061257336006600061050b8460016110c4565b81526020810191909152604001600020600401546001600160a01b0316141561060057600060068161053e8460016110c4565b81526020808201929092526040908101600090812054808252600680855291839020835160e0810185528154815260018201546001600160a01b039081169682019690965260028201549481019490945260038101548516606085015260048101549094166080840152600584015460a08401529083015460ff16151560c083015285519093508590879081106105e557634e487b7160e01b600052603260045260246000fd5b60209081029190910101526105fb6001866110c4565b945050505b8061060a816110f3565b9150506104f3565b50949350505050565b610623610e50565b50600090815260066020818152604092839020835160e0810185528154815260018201546001600160a01b039081169382019390935260028201549481019490945260038101548216606085015260048101549091166080840152600581015460a0840152015460ff16151560c082015290565b600260005414156106ba5760405162461bcd60e51b815260040161026a90611079565b60026000558161070c5760405162461bcd60e51b815260206004820152601f60248201527f5072696365206d7573742062652067726561746572207468616e207a65726f00604482015260640161026a565b600554341461076e5760405162461bcd60e51b815260206004820152602860248201527f416d6f756e74206d75737420626520657175616c20746f20746865206c697374604482015267696e67207269636560c01b606482015260840161026a565b61077c600180546001019055565b600061078760015490565b6040805160e0810182528281526001600160a01b038781166020808401828152848601898152600060608701818152336080890181815260a08a018f815260c08b018581528d8652600698899052948c90209a518b55955160018b0180546001600160a01b0319908116928c16929092179055945160028b0155915160038a0180548616918a1691909117905590516004808a018054909516919098161790925591516005870155905194909101805460ff19169415159490941790935592516323b872dd60e01b815293945091926323b872dd9261086b92913091889101610f9c565b600060405180830381600087803b15801561088557600080fd5b505af1158015610899573d6000803e3d6000fd5b5050604080516001600160a01b0388168152600060208201819052338284015260608201889052608082015290518593508492507f045dfa01dcba2b36aba1d3dc4a874f4b0c5d2fbeb8d2c4b34a7d88c8d8f929d19181900360a00190a3505060016000555050565b6004546001600160a01b0316331461094a5760405162461bcd60e51b815260206004820152600b60248201526a139bdd08185b1b1bddd95960aa1b604482015260640161026a565b600082815260066020526040902080546109649084610d99565b6003810180546001600160a01b0319166001600160a01b039390931692909217909155600601805460ff1916600117905550565b606060006109a560015490565b905060006109b260025490565b6109bc90836110dc565b90506000808267ffffffffffffffff8111156109e857634e487b7160e01b600052604160045260246000fd5b604051908082528060200260200182016040528015610a2157816020015b610a0e610e50565b815260200190600190039081610a065790505b50905060005b84811015610612576000600681610a3f8460016110c4565b81526020808201929092526040908101600090812054808252600680855291839020835160e0810185528154815260018201546001600160a01b039081169682019690965260028201549481019490945260038101548516606085015260048101549094166080840152600584015460a08401529083015460ff16151560c08301528551909350859087908110610ae657634e487b7160e01b600052603260045260246000fd5b6020908102919091010152610afc6001866110c4565b945050508080610b0b906110f3565b915050610a27565b60606000610b2060015490565b9050610b4b6040518060400160405280600681526020016539b2b73232b960d11b8152503383610de3565b600080805b83811015610bab573360066000610b688460016110c4565b81526020810191909152604001600020600301546001600160a01b03161415610b9957610b966001846110c4565b92505b80610ba3816110f3565b915050610b50565b5060008267ffffffffffffffff811115610bd557634e487b7160e01b600052604160045260246000fd5b604051908082528060200260200182016040528015610c0e57816020015b610bfb610e50565b815260200190600190039081610bf35790505b50905060005b83811015610612573360066000610c2c8460016110c4565b81526020810191909152604001600020600301546001600160a01b03161415610d21576000600681610c5f8460016110c4565b81526020808201929092526040908101600090812054808252600680855291839020835160e0810185528154815260018201546001600160a01b039081169682019690965260028201549481019490945260038101548516606085015260048101549094166080840152600584015460a08401529083015460ff16151560c08301528551909350859087908110610d0657634e487b7160e01b600052603260045260246000fd5b6020908102919091010152610d1c6001866110c4565b945050505b80610d2b816110f3565b915050610c14565b60405163a22cb46560e01b81526001600160a01b0382811660048301526001602483015283169063a22cb46590604401600060405180830381600087803b158015610d7d57600080fd5b505af1158015610d91573d6000803e3d6000fd5b505050505050565b6040516024810183905260448101829052610ddf9060640160408051601f198184030181529190526020810180516001600160e01b031662d81ed360e71b179052610e2f565b5050565b610e2a838383604051602401610dfb9392919061100e565b60408051601f198184030181529190526020810180516001600160e01b03166307c8121760e01b179052610e2f565b505050565b80516a636f6e736f6c652e6c6f67602083016000808483855afa5050505050565b6040805160e081018252600080825260208201819052918101829052606081018290526080810182905260a0810182905260c081019190915290565b80356001600160a01b0381168114610ea357600080fd5b919050565b60008060408385031215610eba578182fd5b610ec383610e8c565b9150610ed160208401610e8c565b90509250929050565b600080600060608486031215610eee578081fd5b610ef784610e8c565b95602085013595506040909401359392505050565b600060208284031215610f1d578081fd5b5035919050565b60008060408385031215610f36578182fd5b82359150610ed160208401610e8c565b80518252602081015160018060a01b03808216602085015260408301516040850152806060840151166060850152806080840151166080850152505060a081015160a083015260c0810151151560c08301525050565b6001600160a01b039384168152919092166020820152604081019190915260600190565b6020808252825182820181905260009190848201906040850190845b8181101561100257610fef838551610f46565b9284019260e09290920191600101610fdc565b50909695505050505050565b6060815260008451806060840152815b8181101561103b576020818801810151608086840101520161101e565b8181111561104c5782608083860101525b506001600160a01b039490941660208301525060408101919091526080601f909201601f19160101919050565b6020808252601f908201527f5265656e7472616e637947756172643a207265656e7472616e742063616c6c00604082015260600190565b60e081016110be8284610f46565b92915050565b600082198211156110d7576110d761110e565b500190565b6000828210156110ee576110ee61110e565b500390565b60006000198214156111075761110761110e565b5060010190565b634e487b7160e01b600052601160045260246000fdfea2646970667358221220ea485fa62fa33b559a5f62df0d1b77898a721bf8535cafebc86a93c7ef72aecd64736f6c63430008040033",
  "linkReferences": {},
  "deployedLinkReferences": {}
}