{
  "_format": "hh-sol-artifact-1",
  "contractName": "NftMarket",
  "sourceName": "contracts/NFtMarket.sol",
  "abi": [
    {
      "inputs": [],
      "stateMutability": "nonpayable",
      "type": "constructor"
    },
    {
      "anonymous": false,
      "inputs": [
        {
          "indexed": true,
          "internalType": "uint256",
          "name": "itemId",
          "type": "uint256"
        },
        {
          "indexed": false,
          "internalType": "address",
          "name": "nftContract",
          "type": "address"
        },
        {
          "indexed": true,
          "internalType": "uint256",
          "name": "tokenId",
          "type": "uint256"
        },
        {
          "indexed": false,
          "internalType": "address",
          "name": "onwer",
          "type": "address"
        },
        {
          "indexed": false,
          "internalType": "address",
          "name": "seller",
          "type": "address"
        },
        {
          "indexed": false,
          "internalType": "uint256",
          "name": "price",
          "type": "uint256"
        },
        {
          "indexed": false,
          "internalType": "bool",
          "name": "sold",
          "type": "bool"
        }
      ],
      "name": "MarketItemCreated",
      "type": "event"
    },
    {
      "inputs": [
        {
          "internalType": "address",
          "name": "nftContract",
          "type": "address"
        },
        {
          "internalType": "address",
          "name": "auctionAddress",
          "type": "address"
        }
      ],
      "name": "approveAuction",
      "outputs": [],
      "stateMutability": "nonpayable",
      "type": "function"
    },
    {
      "inputs": [
        {
          "internalType": "address",
          "name": "nftAddress",
          "type": "address"
        },
        {
          "internalType": "uint256",
          "name": "_price",
          "type": "uint256"
        },
        {
          "internalType": "uint256",
          "name": "_tokenId",
          "type": "uint256"
        }
      ],
      "name": "createMarketItem",
      "outputs": [],
      "stateMutability": "payable",
      "type": "function"
    },
    {
      "inputs": [
        {
          "internalType": "uint256",
          "name": "itemId",
          "type": "uint256"
        },
        {
          "internalType": "address",
          "name": "nftContract",
          "type": "address"
        }
      ],
      "name": "createmarketSale",
      "outputs": [],
      "stateMutability": "payable",
      "type": "function"
    },
    {
      "inputs": [],
      "name": "fetchMarketItem",
      "outputs": [
        {
          "components": [
            {
              "internalType": "uint256",
              "name": "itemId",
              "type": "uint256"
            },
            {
              "internalType": "address",
              "name": "nftContract",
              "type": "address"
            },
            {
              "internalType": "uint256",
              "name": "tokenId",
              "type": "uint256"
            },
            {
              "internalType": "address payable",
              "name": "onwer",
              "type": "address"
            },
            {
              "internalType": "address payable",
              "name": "seller",
              "type": "address"
            },
            {
              "internalType": "uint256",
              "name": "price",
              "type": "uint256"
            },
            {
              "internalType": "bool",
              "name": "sold",
              "type": "bool"
            }
          ],
          "internalType": "struct NftMarket.MarketItem[]",
          "name": "",
          "type": "tuple[]"
        }
      ],
      "stateMutability": "view",
      "type": "function"
    },
    {
      "inputs": [],
      "name": "fetchMyNFT",
      "outputs": [
        {
          "components": [
            {
              "internalType": "uint256",
              "name": "itemId",
              "type": "uint256"
            },
            {
              "internalType": "address",
              "name": "nftContract",
              "type": "address"
            },
            {
              "internalType": "uint256",
              "name": "tokenId",
              "type": "uint256"
            },
            {
              "internalType": "address payable",
              "name": "onwer",
              "type": "address"
            },
            {
              "internalType": "address payable",
              "name": "seller",
              "type": "address"
            },
            {
              "internalType": "uint256",
              "name": "price",
              "type": "uint256"
            },
            {
              "internalType": "bool",
              "name": "sold",
              "type": "bool"
            }
          ],
          "internalType": "struct NftMarket.MarketItem[]",
          "name": "",
          "type": "tuple[]"
        }
      ],
      "stateMutability": "view",
      "type": "function"
    },
    {
      "inputs": [],
      "name": "fetchitemcreated",
      "outputs": [
        {
          "components": [
            {
              "internalType": "uint256",
              "name": "itemId",
              "type": "uint256"
            },
            {
              "internalType": "address",
              "name": "nftContract",
              "type": "address"
            },
            {
              "internalType": "uint256",
              "name": "tokenId",
              "type": "uint256"
            },
            {
              "internalType": "address payable",
              "name": "onwer",
              "type": "address"
            },
            {
              "internalType": "address payable",
              "name": "seller",
              "type": "address"
            },
            {
              "internalType": "uint256",
              "name": "price",
              "type": "uint256"
            },
            {
              "internalType": "bool",
              "name": "sold",
              "type": "bool"
            }
          ],
          "internalType": "struct NftMarket.MarketItem[]",
          "name": "",
          "type": "tuple[]"
        }
      ],
      "stateMutability": "view",
      "type": "function"
    },
    {
      "inputs": [],
      "name": "getListingPrice",
      "outputs": [
        {
          "internalType": "uint256",
          "name": "",
          "type": "uint256"
        }
      ],
      "stateMutability": "view",
      "type": "function"
    },
    {
      "inputs": [
        {
          "internalType": "uint256",
          "name": "itemId",
          "type": "uint256"
        }
      ],
      "name": "getMarketItemDetail",
      "outputs": [
        {
          "components": [
            {
              "internalType": "uint256",
              "name": "itemId",
              "type": "uint256"
            },
            {
              "internalType": "address",
              "name": "nftContract",
              "type": "address"
            },
            {
              "internalType": "uint256",
              "name": "tokenId",
              "type": "uint256"
            },
            {
              "internalType": "address payable",
              "name": "onwer",
              "type": "address"
            },
            {
              "internalType": "address payable",
              "name": "seller",
              "type": "address"
            },
            {
              "internalType": "uint256",
              "name": "price",
              "type": "uint256"
            },
            {
              "internalType": "bool",
              "name": "sold",
              "type": "bool"
            }
          ],
          "internalType": "struct NftMarket.MarketItem",
          "name": "",
          "type": "tuple"
        }
      ],
      "stateMutability": "view",
      "type": "function"
    }
  ],
  "bytecode": "0x6080604052662386f26fc1000060045534801561001b57600080fd5b506001600055600380546001600160a01b03191633179055610e8a806100426000396000f3fe60806040526004361061006b5760003560e01c806312e85585146100705780631578577c146100935780631d6dcc70146100a857806330f08829146100ca57806358eb2df5146100f75780638fafd0211461010a578063c18763f71461011f578063eb7b1c8e14610134575b600080fd5b34801561007c57600080fd5b506004546040519081526020015b60405180910390f35b6100a66100a1366004610cbf565b610154565b005b3480156100b457600080fd5b506100bd610329565b60405161008a9190610d5b565b3480156100d657600080fd5b506100ea6100e5366004610ca7565b610529565b60405161008a9190610de0565b6100a6610105366004610c75565b6105a6565b34801561011657600080fd5b506100bd610813565b34801561012b57600080fd5b506100bd61098e565b34801561014057600080fd5b506100a661014f366004610c43565b610b85565b600260005414156101805760405162461bcd60e51b815260040161017790610da9565b60405180910390fd5b60026000818155838152600560208190526040909120908101549101543482146101f85760405162461bcd60e51b8152602060048201526024808201527f416d6f756e74206973206c657373207468616e207468652061736b696e6720706044820152637269636560e01b6064820152608401610177565b6000848152600560205260408082206004015490516001600160a01b03909116913480156108fc02929091818181858888f19350505050158015610240573d6000803e3d6000fd5b506040516323b872dd60e01b81526001600160a01b038416906323b872dd9061027190309033908690600401610d37565b600060405180830381600087803b15801561028b57600080fd5b505af115801561029f573d6000803e3d6000fd5b50505060008581526005602052604090206003810180546001600160a01b03191633179055600601805460ff19166001179055506102e1600280546001019055565b6003546004546040516001600160a01b039092169181156108fc0291906000818181858888f1935050505015801561031d573d6000803e3d6000fd5b50506001600055505050565b6060600061033660015490565b9050600080805b83811015610398573360056000610355846001610df4565b81526020810191909152604001600020600401546001600160a01b0316141561038657610383600184610df4565b92505b8061039081610e23565b91505061033d565b5060008267ffffffffffffffff8111156103c257634e487b7160e01b600052604160045260246000fd5b6040519080825280602002602001820160405280156103fb57816020015b6103e8610beb565b8152602001906001900390816103e05790505b50905060005b83811015610520573360056000610419846001610df4565b81526020810191909152604001600020600401546001600160a01b0316141561050e57600060058161044c846001610df4565b81526020808201929092526040908101600090812054808252600580855291839020835160e0810185528154815260018201546001600160a01b0390811696820196909652600282015494810194909452600381015485166060850152600481015490941660808401529083015460a0830152600683015460ff16151560c083015285519093508590879081106104f357634e487b7160e01b600052603260045260246000fd5b6020908102919091010152610509600186610df4565b945050505b8061051881610e23565b915050610401565b50949350505050565b610531610beb565b50600090815260056020818152604092839020835160e0810185528154815260018201546001600160a01b0390811693820193909352600282015494810194909452600381015482166060850152600481015490911660808401529081015460a08301526006015460ff16151560c082015290565b600260005414156105c95760405162461bcd60e51b815260040161017790610da9565b60026000558161061b5760405162461bcd60e51b815260206004820152601f60248201527f5072696365206d7573742062652067726561746572207468616e207a65726f006044820152606401610177565b600454341461067d5760405162461bcd60e51b815260206004820152602860248201527f416d6f756e74206d75737420626520657175616c20746f20746865206c697374604482015267696e67207269636560c01b6064820152608401610177565b61068b600180546001019055565b600061069660015490565b6040805160e0810182528281526001600160a01b038781166020808401828152848601898152600060608701818152336080890181815260a08a018f815260c08b018581528d8652600598899052948c90209a518b55955160018b0180546001600160a01b0319908116928c16929092179055945160028b0155915160038a0180548616918a1691909117905590516004808a0180549095169190981617909255915192860192909255516006909401805460ff19169415159490941790935592516323b872dd60e01b815293945091926323b872dd9261077c92913091889101610d37565b600060405180830381600087803b15801561079657600080fd5b505af11580156107aa573d6000803e3d6000fd5b5050604080516001600160a01b0388168152600060208201819052338284015260608201889052608082015290518593508492507f045dfa01dcba2b36aba1d3dc4a874f4b0c5d2fbeb8d2c4b34a7d88c8d8f929d19181900360a00190a3505060016000555050565b6060600061082060015490565b9050600061082d60025490565b6108379083610e0c565b90506000808267ffffffffffffffff81111561086357634e487b7160e01b600052604160045260246000fd5b60405190808252806020026020018201604052801561089c57816020015b610889610beb565b8152602001906001900390816108815790505b50905060005b848110156105205760006005816108ba846001610df4565b81526020808201929092526040908101600090812054808252600580855291839020835160e0810185528154815260018201546001600160a01b0390811696820196909652600282015494810194909452600381015485166060850152600481015490941660808401529083015460a0830152600683015460ff16151560c0830152855190935085908790811061096157634e487b7160e01b600052603260045260246000fd5b6020908102919091010152610977600186610df4565b94505050808061098690610e23565b9150506108a2565b6060600061099b60015490565b9050600080805b838110156109fd5733600560006109ba846001610df4565b81526020810191909152604001600020600301546001600160a01b031614156109eb576109e8600184610df4565b92505b806109f581610e23565b9150506109a2565b5060008267ffffffffffffffff811115610a2757634e487b7160e01b600052604160045260246000fd5b604051908082528060200260200182016040528015610a6057816020015b610a4d610beb565b815260200190600190039081610a455790505b50905060005b83811015610520573360056000610a7e846001610df4565b81526020810191909152604001600020600301546001600160a01b03161415610b73576000600581610ab1846001610df4565b81526020808201929092526040908101600090812054808252600580855291839020835160e0810185528154815260018201546001600160a01b0390811696820196909652600282015494810194909452600381015485166060850152600481015490941660808401529083015460a0830152600683015460ff16151560c08301528551909350859087908110610b5857634e487b7160e01b600052603260045260246000fd5b6020908102919091010152610b6e600186610df4565b945050505b80610b7d81610e23565b915050610a66565b60405163a22cb46560e01b81526001600160a01b0382811660048301526001602483015283169063a22cb46590604401600060405180830381600087803b158015610bcf57600080fd5b505af1158015610be3573d6000803e3d6000fd5b505050505050565b6040805160e081018252600080825260208201819052918101829052606081018290526080810182905260a0810182905260c081019190915290565b80356001600160a01b0381168114610c3e57600080fd5b919050565b60008060408385031215610c55578182fd5b610c5e83610c27565b9150610c6c60208401610c27565b90509250929050565b600080600060608486031215610c89578081fd5b610c9284610c27565b95602085013595506040909401359392505050565b600060208284031215610cb8578081fd5b5035919050565b60008060408385031215610cd1578182fd5b82359150610c6c60208401610c27565b80518252602081015160018060a01b03808216602085015260408301516040850152806060840151166060850152806080840151166080850152505060a081015160a083015260c0810151151560c08301525050565b6001600160a01b039384168152919092166020820152604081019190915260600190565b6020808252825182820181905260009190848201906040850190845b81811015610d9d57610d8a838551610ce1565b9284019260e09290920191600101610d77565b50909695505050505050565b6020808252601f908201527f5265656e7472616e637947756172643a207265656e7472616e742063616c6c00604082015260600190565b60e08101610dee8284610ce1565b92915050565b60008219821115610e0757610e07610e3e565b500190565b600082821015610e1e57610e1e610e3e565b500390565b6000600019821415610e3757610e37610e3e565b5060010190565b634e487b7160e01b600052601160045260246000fdfea26469706673582212209434fb0a439bee9086f8dc4af052d099ebbe61bbc4c10b83676233f690d2df9464736f6c63430008040033",
  "linkReferences": {},
  "deployedLinkReferences": {}
}