{
  "_format": "hh-sol-artifact-1",
  "contractName": "NftMarket",
  "sourceName": "contracts/NFtMarket.sol",
  "abi": [
    {
      "inputs": [],
      "stateMutability": "nonpayable",
      "type": "constructor"
    },
    {
      "anonymous": false,
      "inputs": [
        {
          "indexed": true,
          "internalType": "uint256",
          "name": "itemId",
          "type": "uint256"
        },
        {
          "indexed": false,
          "internalType": "address",
          "name": "nftContract",
          "type": "address"
        },
        {
          "indexed": true,
          "internalType": "uint256",
          "name": "tokenId",
          "type": "uint256"
        },
        {
          "indexed": false,
          "internalType": "address",
          "name": "onwer",
          "type": "address"
        },
        {
          "indexed": false,
          "internalType": "address",
          "name": "seller",
          "type": "address"
        },
        {
          "indexed": false,
          "internalType": "uint256",
          "name": "price",
          "type": "uint256"
        },
        {
          "indexed": false,
          "internalType": "bool",
          "name": "sold",
          "type": "bool"
        }
      ],
      "name": "MarketItemCreated",
      "type": "event"
    },
    {
      "inputs": [
        {
          "internalType": "address",
          "name": "nftContract",
          "type": "address"
        },
        {
          "internalType": "address",
          "name": "auctionAddress",
          "type": "address"
        }
      ],
      "name": "approveAuction",
      "outputs": [],
      "stateMutability": "nonpayable",
      "type": "function"
    },
    {
      "inputs": [
        {
          "internalType": "address",
          "name": "nftAddress",
          "type": "address"
        },
        {
          "internalType": "uint256",
          "name": "_price",
          "type": "uint256"
        },
        {
          "internalType": "uint256",
          "name": "_tokenId",
          "type": "uint256"
        }
      ],
      "name": "createMarketItem",
      "outputs": [],
      "stateMutability": "payable",
      "type": "function"
    },
    {
      "inputs": [
        {
          "internalType": "uint256",
          "name": "itemId",
          "type": "uint256"
        },
        {
          "internalType": "address",
          "name": "nftContract",
          "type": "address"
        }
      ],
      "name": "createmarketSale",
      "outputs": [],
      "stateMutability": "payable",
      "type": "function"
    },
    {
      "inputs": [],
      "name": "fetchMarketItem",
      "outputs": [
        {
          "components": [
            {
              "internalType": "uint256",
              "name": "itemId",
              "type": "uint256"
            },
            {
              "internalType": "address",
              "name": "nftContract",
              "type": "address"
            },
            {
              "internalType": "uint256",
              "name": "tokenId",
              "type": "uint256"
            },
            {
              "internalType": "address payable",
              "name": "onwer",
              "type": "address"
            },
            {
              "internalType": "address payable",
              "name": "seller",
              "type": "address"
            },
            {
              "internalType": "uint256",
              "name": "price",
              "type": "uint256"
            },
            {
              "internalType": "bool",
              "name": "sold",
              "type": "bool"
            }
          ],
          "internalType": "struct NftMarket.MarketItem[]",
          "name": "",
          "type": "tuple[]"
        }
      ],
      "stateMutability": "view",
      "type": "function"
    },
    {
      "inputs": [],
      "name": "fetchMyNFT",
      "outputs": [
        {
          "components": [
            {
              "internalType": "uint256",
              "name": "itemId",
              "type": "uint256"
            },
            {
              "internalType": "address",
              "name": "nftContract",
              "type": "address"
            },
            {
              "internalType": "uint256",
              "name": "tokenId",
              "type": "uint256"
            },
            {
              "internalType": "address payable",
              "name": "onwer",
              "type": "address"
            },
            {
              "internalType": "address payable",
              "name": "seller",
              "type": "address"
            },
            {
              "internalType": "uint256",
              "name": "price",
              "type": "uint256"
            },
            {
              "internalType": "bool",
              "name": "sold",
              "type": "bool"
            }
          ],
          "internalType": "struct NftMarket.MarketItem[]",
          "name": "",
          "type": "tuple[]"
        }
      ],
      "stateMutability": "view",
      "type": "function"
    },
    {
      "inputs": [],
      "name": "fetchitemcreated",
      "outputs": [
        {
          "components": [
            {
              "internalType": "uint256",
              "name": "itemId",
              "type": "uint256"
            },
            {
              "internalType": "address",
              "name": "nftContract",
              "type": "address"
            },
            {
              "internalType": "uint256",
              "name": "tokenId",
              "type": "uint256"
            },
            {
              "internalType": "address payable",
              "name": "onwer",
              "type": "address"
            },
            {
              "internalType": "address payable",
              "name": "seller",
              "type": "address"
            },
            {
              "internalType": "uint256",
              "name": "price",
              "type": "uint256"
            },
            {
              "internalType": "bool",
              "name": "sold",
              "type": "bool"
            }
          ],
          "internalType": "struct NftMarket.MarketItem[]",
          "name": "",
          "type": "tuple[]"
        }
      ],
      "stateMutability": "view",
      "type": "function"
    },
    {
      "inputs": [],
      "name": "getListingPrice",
      "outputs": [
        {
          "internalType": "uint256",
          "name": "",
          "type": "uint256"
        }
      ],
      "stateMutability": "view",
      "type": "function"
    },
    {
      "inputs": [
        {
          "internalType": "uint256",
          "name": "itemId",
          "type": "uint256"
        }
      ],
      "name": "getMarketItemDetail",
      "outputs": [
        {
          "components": [
            {
              "internalType": "uint256",
              "name": "itemId",
              "type": "uint256"
            },
            {
              "internalType": "address",
              "name": "nftContract",
              "type": "address"
            },
            {
              "internalType": "uint256",
              "name": "tokenId",
              "type": "uint256"
            },
            {
              "internalType": "address payable",
              "name": "onwer",
              "type": "address"
            },
            {
              "internalType": "address payable",
              "name": "seller",
              "type": "address"
            },
            {
              "internalType": "uint256",
              "name": "price",
              "type": "uint256"
            },
            {
              "internalType": "bool",
              "name": "sold",
              "type": "bool"
            }
          ],
          "internalType": "struct NftMarket.MarketItem",
          "name": "",
          "type": "tuple"
        }
      ],
      "stateMutability": "view",
      "type": "function"
    }
  ],
  "bytecode": "0x6080604052662386f26fc1000060045534801561001b57600080fd5b50600160008190555033600360006101000a81548173ffffffffffffffffffffffffffffffffffffffff021916908373ffffffffffffffffffffffffffffffffffffffff160217905550611c94806100746000396000f3fe60806040526004361061007b5760003560e01c806358eb2df51161004e57806358eb2df51461012f5780638fafd0211461014b578063c18763f714610176578063eb7b1c8e146101a15761007b565b806312e85585146100805780631578577c146100ab5780631d6dcc70146100c757806330f08829146100f2575b600080fd5b34801561008c57600080fd5b506100956101ca565b6040516100a2919061197f565b60405180910390f35b6100c560048036038101906100c0919061154c565b6101d4565b005b3480156100d357600080fd5b506100dc61048d565b6040516100e991906118c2565b60405180910390f35b3480156100fe57600080fd5b5061011960048036038101906101149190611523565b610841565b6040516101269190611964565b60405180910390f35b610149600480360381019061014491906114d4565b6109a9565b005b34801561015757600080fd5b50610160610cf8565b60405161016d91906118c2565b60405180910390f35b34801561018257600080fd5b5061018b610fa3565b60405161019891906118c2565b60405180910390f35b3480156101ad57600080fd5b506101c860048036038101906101c39190611498565b611357565b005b6000600454905090565b6002600054141561021a576040517f08c379a000000000000000000000000000000000000000000000000000000000815260040161021190611944565b60405180910390fd5b600260008190555060006005600084815260200190815260200160002060050154905060006005600085815260200190815260200160002060020154905081341461029a576040517f08c379a000000000000000000000000000000000000000000000000000000000815260040161029190611904565b60405180910390fd5b6005600085815260200190815260200160002060040160009054906101000a900473ffffffffffffffffffffffffffffffffffffffff1673ffffffffffffffffffffffffffffffffffffffff166108fc349081150290604051600060405180830381858888f19350505050158015610316573d6000803e3d6000fd5b508273ffffffffffffffffffffffffffffffffffffffff166323b872dd3033846040518463ffffffff1660e01b815260040161035493929190611862565b600060405180830381600087803b15801561036e57600080fd5b505af1158015610382573d6000803e3d6000fd5b50505050336005600086815260200190815260200160002060030160006101000a81548173ffffffffffffffffffffffffffffffffffffffff021916908373ffffffffffffffffffffffffffffffffffffffff16021790555060016005600086815260200190815260200160002060060160006101000a81548160ff02191690831515021790555061041460026113c9565b600360009054906101000a900473ffffffffffffffffffffffffffffffffffffffff1673ffffffffffffffffffffffffffffffffffffffff166108fc6004549081150290604051600060405180830381858888f1935050505015801561047e573d6000803e3d6000fd5b50505060016000819055505050565b6060600061049b60016113df565b90506000806000905060005b83811015610548573373ffffffffffffffffffffffffffffffffffffffff16600560006001846104d791906119e4565b815260200190815260200160002060040160009054906101000a900473ffffffffffffffffffffffffffffffffffffffff1673ffffffffffffffffffffffffffffffffffffffff1614156105355760018361053291906119e4565b92505b808061054090611ac8565b9150506104a7565b5060008267ffffffffffffffff81111561058b577f4e487b7100000000000000000000000000000000000000000000000000000000600052604160045260246000fd5b6040519080825280602002602001820160405280156105c457816020015b6105b16113ed565b8152602001906001900390816105a95790505b50905060005b83811015610836573373ffffffffffffffffffffffffffffffffffffffff16600560006001846105fa91906119e4565b815260200190815260200160002060040160009054906101000a900473ffffffffffffffffffffffffffffffffffffffff1673ffffffffffffffffffffffffffffffffffffffff1614156108235760006005600060018461065b91906119e4565b81526020019081526020016000206000015490506000600560008381526020019081526020016000209050806040518060e0016040529081600082015481526020016001820160009054906101000a900473ffffffffffffffffffffffffffffffffffffffff1673ffffffffffffffffffffffffffffffffffffffff1673ffffffffffffffffffffffffffffffffffffffff168152602001600282015481526020016003820160009054906101000a900473ffffffffffffffffffffffffffffffffffffffff1673ffffffffffffffffffffffffffffffffffffffff1673ffffffffffffffffffffffffffffffffffffffff1681526020016004820160009054906101000a900473ffffffffffffffffffffffffffffffffffffffff1673ffffffffffffffffffffffffffffffffffffffff1673ffffffffffffffffffffffffffffffffffffffff168152602001600582015481526020016006820160009054906101000a900460ff161515151581525050848681518110610806577f4e487b7100000000000000000000000000000000000000000000000000000000600052603260045260246000fd5b602002602001018190525060018561081e91906119e4565b945050505b808061082e90611ac8565b9150506105ca565b508094505050505090565b6108496113ed565b600560008381526020019081526020016000206040518060e0016040529081600082015481526020016001820160009054906101000a900473ffffffffffffffffffffffffffffffffffffffff1673ffffffffffffffffffffffffffffffffffffffff1673ffffffffffffffffffffffffffffffffffffffff168152602001600282015481526020016003820160009054906101000a900473ffffffffffffffffffffffffffffffffffffffff1673ffffffffffffffffffffffffffffffffffffffff1673ffffffffffffffffffffffffffffffffffffffff1681526020016004820160009054906101000a900473ffffffffffffffffffffffffffffffffffffffff1673ffffffffffffffffffffffffffffffffffffffff1673ffffffffffffffffffffffffffffffffffffffff168152602001600582015481526020016006820160009054906101000a900460ff1615151515815250509050919050565b600260005414156109ef576040517f08c379a00000000000000000000000000000000000000000000000000000000081526004016109e690611944565b60405180910390fd5b600260008190555060008211610a3a576040517f08c379a0000000000000000000000000000000000000000000000000000000008152600401610a31906118e4565b60405180910390fd5b6004543414610a7e576040517f08c379a0000000000000000000000000000000000000000000000000000000008152600401610a7590611924565b60405180910390fd5b610a8860016113c9565b6000610a9460016113df565b90506040518060e001604052808281526020018573ffffffffffffffffffffffffffffffffffffffff168152602001838152602001600073ffffffffffffffffffffffffffffffffffffffff1681526020013373ffffffffffffffffffffffffffffffffffffffff16815260200184815260200160001515815250600560008381526020019081526020016000206000820151816000015560208201518160010160006101000a81548173ffffffffffffffffffffffffffffffffffffffff021916908373ffffffffffffffffffffffffffffffffffffffff1602179055506040820151816002015560608201518160030160006101000a81548173ffffffffffffffffffffffffffffffffffffffff021916908373ffffffffffffffffffffffffffffffffffffffff16021790555060808201518160040160006101000a81548173ffffffffffffffffffffffffffffffffffffffff021916908373ffffffffffffffffffffffffffffffffffffffff16021790555060a0820151816005015560c08201518160060160006101000a81548160ff0219169083151502179055509050508373ffffffffffffffffffffffffffffffffffffffff166323b872dd3330856040518463ffffffff1660e01b8152600401610c7593929190611862565b600060405180830381600087803b158015610c8f57600080fd5b505af1158015610ca3573d6000803e3d6000fd5b5050505081817f045dfa01dcba2b36aba1d3dc4a874f4b0c5d2fbeb8d2c4b34a7d88c8d8f929d186600033886000604051610ce295949392919061180f565b60405180910390a3506001600081905550505050565b60606000610d0660016113df565b90506000610d1460026113df565b82610d1f9190611a3a565b90506000808267ffffffffffffffff811115610d64577f4e487b7100000000000000000000000000000000000000000000000000000000600052604160045260246000fd5b604051908082528060200260200182016040528015610d9d57816020015b610d8a6113ed565b815260200190600190039081610d825790505b50905060005b84811015610f9857600060056000600184610dbe91906119e4565b81526020019081526020016000206000015490506000600560008381526020019081526020016000209050806040518060e0016040529081600082015481526020016001820160009054906101000a900473ffffffffffffffffffffffffffffffffffffffff1673ffffffffffffffffffffffffffffffffffffffff1673ffffffffffffffffffffffffffffffffffffffff168152602001600282015481526020016003820160009054906101000a900473ffffffffffffffffffffffffffffffffffffffff1673ffffffffffffffffffffffffffffffffffffffff1673ffffffffffffffffffffffffffffffffffffffff1681526020016004820160009054906101000a900473ffffffffffffffffffffffffffffffffffffffff1673ffffffffffffffffffffffffffffffffffffffff1673ffffffffffffffffffffffffffffffffffffffff168152602001600582015481526020016006820160009054906101000a900460ff161515151581525050848681518110610f69577f4e487b7100000000000000000000000000000000000000000000000000000000600052603260045260246000fd5b6020026020010181905250600185610f8191906119e4565b945050508080610f9090611ac8565b915050610da3565b508094505050505090565b60606000610fb160016113df565b90506000806000905060005b8381101561105e573373ffffffffffffffffffffffffffffffffffffffff1660056000600184610fed91906119e4565b815260200190815260200160002060030160009054906101000a900473ffffffffffffffffffffffffffffffffffffffff1673ffffffffffffffffffffffffffffffffffffffff16141561104b5760018361104891906119e4565b92505b808061105690611ac8565b915050610fbd565b5060008267ffffffffffffffff8111156110a1577f4e487b7100000000000000000000000000000000000000000000000000000000600052604160045260246000fd5b6040519080825280602002602001820160405280156110da57816020015b6110c76113ed565b8152602001906001900390816110bf5790505b50905060005b8381101561134c573373ffffffffffffffffffffffffffffffffffffffff166005600060018461111091906119e4565b815260200190815260200160002060030160009054906101000a900473ffffffffffffffffffffffffffffffffffffffff1673ffffffffffffffffffffffffffffffffffffffff1614156113395760006005600060018461117191906119e4565b81526020019081526020016000206000015490506000600560008381526020019081526020016000209050806040518060e0016040529081600082015481526020016001820160009054906101000a900473ffffffffffffffffffffffffffffffffffffffff1673ffffffffffffffffffffffffffffffffffffffff1673ffffffffffffffffffffffffffffffffffffffff168152602001600282015481526020016003820160009054906101000a900473ffffffffffffffffffffffffffffffffffffffff1673ffffffffffffffffffffffffffffffffffffffff1673ffffffffffffffffffffffffffffffffffffffff1681526020016004820160009054906101000a900473ffffffffffffffffffffffffffffffffffffffff1673ffffffffffffffffffffffffffffffffffffffff1673ffffffffffffffffffffffffffffffffffffffff168152602001600582015481526020016006820160009054906101000a900460ff16151515158152505084868151811061131c577f4e487b7100000000000000000000000000000000000000000000000000000000600052603260045260246000fd5b602002602001018190525060018561133491906119e4565b945050505b808061134490611ac8565b9150506110e0565b508094505050505090565b8173ffffffffffffffffffffffffffffffffffffffff1663a22cb4658260016040518363ffffffff1660e01b8152600401611393929190611899565b600060405180830381600087803b1580156113ad57600080fd5b505af11580156113c1573d6000803e3d6000fd5b505050505050565b6001816000016000828254019250508190555050565b600081600001549050919050565b6040518060e0016040528060008152602001600073ffffffffffffffffffffffffffffffffffffffff16815260200160008152602001600073ffffffffffffffffffffffffffffffffffffffff168152602001600073ffffffffffffffffffffffffffffffffffffffff168152602001600081526020016000151581525090565b60008135905061147d81611c30565b92915050565b60008135905061149281611c47565b92915050565b600080604083850312156114ab57600080fd5b60006114b98582860161146e565b92505060206114ca8582860161146e565b9150509250929050565b6000806000606084860312156114e957600080fd5b60006114f78682870161146e565b935050602061150886828701611483565b925050604061151986828701611483565b9150509250925092565b60006020828403121561153557600080fd5b600061154384828501611483565b91505092915050565b6000806040838503121561155f57600080fd5b600061156d85828601611483565b925050602061157e8582860161146e565b9150509250929050565b600061159483836116d5565b60e08301905092915050565b6115a981611a80565b82525050565b6115b881611a6e565b82525050565b6115c781611a6e565b82525050565b60006115d8826119aa565b6115e281856119c2565b93506115ed8361199a565b8060005b8381101561161e5781516116058882611588565b9750611610836119b5565b9250506001810190506115f1565b5085935050505092915050565b61163481611a92565b82525050565b61164381611a92565b82525050565b6000611656601f836119d3565b915061166182611b40565b602082019050919050565b60006116796024836119d3565b915061168482611b69565b604082019050919050565b600061169c6028836119d3565b91506116a782611bb8565b604082019050919050565b60006116bf601f836119d3565b91506116ca82611c07565b602082019050919050565b60e0820160008201516116eb60008501826117f1565b5060208201516116fe60208501826115af565b50604082015161171160408501826117f1565b50606082015161172460608501826115a0565b50608082015161173760808501826115a0565b5060a082015161174a60a08501826117f1565b5060c082015161175d60c085018261162b565b50505050565b60e08201600082015161177960008501826117f1565b50602082015161178c60208501826115af565b50604082015161179f60408501826117f1565b5060608201516117b260608501826115a0565b5060808201516117c560808501826115a0565b5060a08201516117d860a08501826117f1565b5060c08201516117eb60c085018261162b565b50505050565b6117fa81611abe565b82525050565b61180981611abe565b82525050565b600060a08201905061182460008301886115be565b61183160208301876115be565b61183e60408301866115be565b61184b6060830185611800565b611858608083018461163a565b9695505050505050565b600060608201905061187760008301866115be565b61188460208301856115be565b6118916040830184611800565b949350505050565b60006040820190506118ae60008301856115be565b6118bb602083018461163a565b9392505050565b600060208201905081810360008301526118dc81846115cd565b905092915050565b600060208201905081810360008301526118fd81611649565b9050919050565b6000602082019050818103600083015261191d8161166c565b9050919050565b6000602082019050818103600083015261193d8161168f565b9050919050565b6000602082019050818103600083015261195d816116b2565b9050919050565b600060e0820190506119796000830184611763565b92915050565b60006020820190506119946000830184611800565b92915050565b6000819050602082019050919050565b600081519050919050565b6000602082019050919050565b600082825260208201905092915050565b600082825260208201905092915050565b60006119ef82611abe565b91506119fa83611abe565b9250827fffffffffffffffffffffffffffffffffffffffffffffffffffffffffffffffff03821115611a2f57611a2e611b11565b5b828201905092915050565b6000611a4582611abe565b9150611a5083611abe565b925082821015611a6357611a62611b11565b5b828203905092915050565b6000611a7982611a9e565b9050919050565b6000611a8b82611a9e565b9050919050565b60008115159050919050565b600073ffffffffffffffffffffffffffffffffffffffff82169050919050565b6000819050919050565b6000611ad382611abe565b91507fffffffffffffffffffffffffffffffffffffffffffffffffffffffffffffffff821415611b0657611b05611b11565b5b600182019050919050565b7f4e487b7100000000000000000000000000000000000000000000000000000000600052601160045260246000fd5b7f5072696365206d7573742062652067726561746572207468616e207a65726f00600082015250565b7f416d6f756e74206973206c657373207468616e207468652061736b696e67207060008201527f7269636500000000000000000000000000000000000000000000000000000000602082015250565b7f416d6f756e74206d75737420626520657175616c20746f20746865206c69737460008201527f696e672072696365000000000000000000000000000000000000000000000000602082015250565b7f5265656e7472616e637947756172643a207265656e7472616e742063616c6c00600082015250565b611c3981611a6e565b8114611c4457600080fd5b50565b611c5081611abe565b8114611c5b57600080fd5b5056fea264697066735822122056414187e61d15dc99aec595dcb7782c53953e030aad97bcabd097e7372b593f64736f6c63430008040033",
  "linkReferences": {},
  "deployedLinkReferences": {}
}