{
  "_format": "hh-sol-artifact-1",
  "contractName": "NftMarket",
  "sourceName": "contracts/NFtMarket.sol",
  "abi": [
    {
      "inputs": [],
      "stateMutability": "nonpayable",
      "type": "constructor"
    },
    {
      "anonymous": false,
      "inputs": [
        {
          "indexed": true,
          "internalType": "uint256",
          "name": "itemId",
          "type": "uint256"
        },
        {
          "indexed": false,
          "internalType": "address",
          "name": "nftContract",
          "type": "address"
        },
        {
          "indexed": true,
          "internalType": "uint256",
          "name": "tokenId",
          "type": "uint256"
        },
        {
          "indexed": false,
          "internalType": "address",
          "name": "onwer",
          "type": "address"
        },
        {
          "indexed": false,
          "internalType": "address",
          "name": "seller",
          "type": "address"
        },
        {
          "indexed": false,
          "internalType": "uint256",
          "name": "price",
          "type": "uint256"
        },
        {
          "indexed": false,
          "internalType": "bool",
          "name": "sold",
          "type": "bool"
        }
      ],
      "name": "MarketItemCreated",
      "type": "event"
    },
    {
      "inputs": [
        {
          "internalType": "address",
          "name": "nftAddress",
          "type": "address"
        },
        {
          "internalType": "uint256",
          "name": "_price",
          "type": "uint256"
        },
        {
          "internalType": "uint256",
          "name": "_tokenId",
          "type": "uint256"
        }
      ],
      "name": "createMarketItem",
      "outputs": [],
      "stateMutability": "payable",
      "type": "function"
    },
    {
      "inputs": [
        {
          "internalType": "uint256",
          "name": "itemId",
          "type": "uint256"
        },
        {
          "internalType": "address",
          "name": "nftContract",
          "type": "address"
        }
      ],
      "name": "createmarketSale",
      "outputs": [],
      "stateMutability": "payable",
      "type": "function"
    },
    {
      "inputs": [],
      "name": "fetchMarketItem",
      "outputs": [
        {
          "components": [
            {
              "internalType": "uint256",
              "name": "itemId",
              "type": "uint256"
            },
            {
              "internalType": "address",
              "name": "nftContract",
              "type": "address"
            },
            {
              "internalType": "uint256",
              "name": "tokenId",
              "type": "uint256"
            },
            {
              "internalType": "address payable",
              "name": "onwer",
              "type": "address"
            },
            {
              "internalType": "address payable",
              "name": "seller",
              "type": "address"
            },
            {
              "internalType": "uint256",
              "name": "price",
              "type": "uint256"
            },
            {
              "internalType": "bool",
              "name": "sold",
              "type": "bool"
            }
          ],
          "internalType": "struct NftMarket.MarketItem[]",
          "name": "",
          "type": "tuple[]"
        }
      ],
      "stateMutability": "view",
      "type": "function"
    },
    {
      "inputs": [],
      "name": "fetchMyNFT",
      "outputs": [
        {
          "components": [
            {
              "internalType": "uint256",
              "name": "itemId",
              "type": "uint256"
            },
            {
              "internalType": "address",
              "name": "nftContract",
              "type": "address"
            },
            {
              "internalType": "uint256",
              "name": "tokenId",
              "type": "uint256"
            },
            {
              "internalType": "address payable",
              "name": "onwer",
              "type": "address"
            },
            {
              "internalType": "address payable",
              "name": "seller",
              "type": "address"
            },
            {
              "internalType": "uint256",
              "name": "price",
              "type": "uint256"
            },
            {
              "internalType": "bool",
              "name": "sold",
              "type": "bool"
            }
          ],
          "internalType": "struct NftMarket.MarketItem[]",
          "name": "",
          "type": "tuple[]"
        }
      ],
      "stateMutability": "view",
      "type": "function"
    },
    {
      "inputs": [],
      "name": "fetchitemcreated",
      "outputs": [
        {
          "components": [
            {
              "internalType": "uint256",
              "name": "itemId",
              "type": "uint256"
            },
            {
              "internalType": "address",
              "name": "nftContract",
              "type": "address"
            },
            {
              "internalType": "uint256",
              "name": "tokenId",
              "type": "uint256"
            },
            {
              "internalType": "address payable",
              "name": "onwer",
              "type": "address"
            },
            {
              "internalType": "address payable",
              "name": "seller",
              "type": "address"
            },
            {
              "internalType": "uint256",
              "name": "price",
              "type": "uint256"
            },
            {
              "internalType": "bool",
              "name": "sold",
              "type": "bool"
            }
          ],
          "internalType": "struct NftMarket.MarketItem[]",
          "name": "",
          "type": "tuple[]"
        }
      ],
      "stateMutability": "view",
      "type": "function"
    },
    {
      "inputs": [],
      "name": "getListingPrice",
      "outputs": [
        {
          "internalType": "uint256",
          "name": "",
          "type": "uint256"
        }
      ],
      "stateMutability": "view",
      "type": "function"
    }
  ],
  "bytecode": "0x6080604052662386f26fc1000060045534801561001b57600080fd5b50600160008190555033600360006101000a81548173ffffffffffffffffffffffffffffffffffffffff021916908373ffffffffffffffffffffffffffffffffffffffff1602179055506118f7806100746000396000f3fe6080604052600436106100555760003560e01c806312e855851461005a5780631578577c146100855780631d6dcc70146100a157806358eb2df5146100cc5780638fafd021146100e8578063c18763f714610113575b600080fd5b34801561006657600080fd5b5061006f61013e565b60405161007c91906115e2565b60405180910390f35b61009f600480360381019061009a9190611281565b610148565b005b3480156100ad57600080fd5b506100b6610401565b6040516100c39190611540565b60405180910390f35b6100e660048036038101906100e19190611232565b6107b5565b005b3480156100f457600080fd5b506100fd610b04565b60405161010a9190611540565b60405180910390f35b34801561011f57600080fd5b50610128610daf565b6040516101359190611540565b60405180910390f35b6000600454905090565b6002600054141561018e576040517f08c379a0000000000000000000000000000000000000000000000000000000008152600401610185906115c2565b60405180910390fd5b600260008190555060006005600084815260200190815260200160002060050154905060006005600085815260200190815260200160002060020154905081341461020e576040517f08c379a000000000000000000000000000000000000000000000000000000000815260040161020590611582565b60405180910390fd5b6005600085815260200190815260200160002060040160009054906101000a900473ffffffffffffffffffffffffffffffffffffffff1673ffffffffffffffffffffffffffffffffffffffff166108fc349081150290604051600060405180830381858888f1935050505015801561028a573d6000803e3d6000fd5b508273ffffffffffffffffffffffffffffffffffffffff166323b872dd3033846040518463ffffffff1660e01b81526004016102c893929190611509565b600060405180830381600087803b1580156102e257600080fd5b505af11580156102f6573d6000803e3d6000fd5b50505050336005600086815260200190815260200160002060030160006101000a81548173ffffffffffffffffffffffffffffffffffffffff021916908373ffffffffffffffffffffffffffffffffffffffff16021790555060016005600086815260200190815260200160002060060160006101000a81548160ff0219169083151502179055506103886002611163565b600360009054906101000a900473ffffffffffffffffffffffffffffffffffffffff1673ffffffffffffffffffffffffffffffffffffffff166108fc6004549081150290604051600060405180830381858888f193505050501580156103f2573d6000803e3d6000fd5b50505060016000819055505050565b6060600061040f6001611179565b90506000806000905060005b838110156104bc573373ffffffffffffffffffffffffffffffffffffffff166005600060018461044b9190611647565b815260200190815260200160002060040160009054906101000a900473ffffffffffffffffffffffffffffffffffffffff1673ffffffffffffffffffffffffffffffffffffffff1614156104a9576001836104a69190611647565b92505b80806104b49061172b565b91505061041b565b5060008267ffffffffffffffff8111156104ff577f4e487b7100000000000000000000000000000000000000000000000000000000600052604160045260246000fd5b60405190808252806020026020018201604052801561053857816020015b610525611187565b81526020019060019003908161051d5790505b50905060005b838110156107aa573373ffffffffffffffffffffffffffffffffffffffff166005600060018461056e9190611647565b815260200190815260200160002060040160009054906101000a900473ffffffffffffffffffffffffffffffffffffffff1673ffffffffffffffffffffffffffffffffffffffff161415610797576000600560006001846105cf9190611647565b81526020019081526020016000206000015490506000600560008381526020019081526020016000209050806040518060e0016040529081600082015481526020016001820160009054906101000a900473ffffffffffffffffffffffffffffffffffffffff1673ffffffffffffffffffffffffffffffffffffffff1673ffffffffffffffffffffffffffffffffffffffff168152602001600282015481526020016003820160009054906101000a900473ffffffffffffffffffffffffffffffffffffffff1673ffffffffffffffffffffffffffffffffffffffff1673ffffffffffffffffffffffffffffffffffffffff1681526020016004820160009054906101000a900473ffffffffffffffffffffffffffffffffffffffff1673ffffffffffffffffffffffffffffffffffffffff1673ffffffffffffffffffffffffffffffffffffffff168152602001600582015481526020016006820160009054906101000a900460ff16151515158152505084868151811061077a577f4e487b7100000000000000000000000000000000000000000000000000000000600052603260045260246000fd5b60200260200101819052506001856107929190611647565b945050505b80806107a29061172b565b91505061053e565b508094505050505090565b600260005414156107fb576040517f08c379a00000000000000000000000000000000000000000000000000000000081526004016107f2906115c2565b60405180910390fd5b600260008190555060008211610846576040517f08c379a000000000000000000000000000000000000000000000000000000000815260040161083d90611562565b60405180910390fd5b600454341461088a576040517f08c379a0000000000000000000000000000000000000000000000000000000008152600401610881906115a2565b60405180910390fd5b6108946001611163565b60006108a06001611179565b90506040518060e001604052808281526020018573ffffffffffffffffffffffffffffffffffffffff168152602001838152602001600073ffffffffffffffffffffffffffffffffffffffff1681526020013373ffffffffffffffffffffffffffffffffffffffff16815260200184815260200160001515815250600560008381526020019081526020016000206000820151816000015560208201518160010160006101000a81548173ffffffffffffffffffffffffffffffffffffffff021916908373ffffffffffffffffffffffffffffffffffffffff1602179055506040820151816002015560608201518160030160006101000a81548173ffffffffffffffffffffffffffffffffffffffff021916908373ffffffffffffffffffffffffffffffffffffffff16021790555060808201518160040160006101000a81548173ffffffffffffffffffffffffffffffffffffffff021916908373ffffffffffffffffffffffffffffffffffffffff16021790555060a0820151816005015560c08201518160060160006101000a81548160ff0219169083151502179055509050508373ffffffffffffffffffffffffffffffffffffffff166323b872dd3330856040518463ffffffff1660e01b8152600401610a8193929190611509565b600060405180830381600087803b158015610a9b57600080fd5b505af1158015610aaf573d6000803e3d6000fd5b5050505081817f045dfa01dcba2b36aba1d3dc4a874f4b0c5d2fbeb8d2c4b34a7d88c8d8f929d186600033886000604051610aee9594939291906114b6565b60405180910390a3506001600081905550505050565b60606000610b126001611179565b90506000610b206002611179565b82610b2b919061169d565b90506000808267ffffffffffffffff811115610b70577f4e487b7100000000000000000000000000000000000000000000000000000000600052604160045260246000fd5b604051908082528060200260200182016040528015610ba957816020015b610b96611187565b815260200190600190039081610b8e5790505b50905060005b84811015610da457600060056000600184610bca9190611647565b81526020019081526020016000206000015490506000600560008381526020019081526020016000209050806040518060e0016040529081600082015481526020016001820160009054906101000a900473ffffffffffffffffffffffffffffffffffffffff1673ffffffffffffffffffffffffffffffffffffffff1673ffffffffffffffffffffffffffffffffffffffff168152602001600282015481526020016003820160009054906101000a900473ffffffffffffffffffffffffffffffffffffffff1673ffffffffffffffffffffffffffffffffffffffff1673ffffffffffffffffffffffffffffffffffffffff1681526020016004820160009054906101000a900473ffffffffffffffffffffffffffffffffffffffff1673ffffffffffffffffffffffffffffffffffffffff1673ffffffffffffffffffffffffffffffffffffffff168152602001600582015481526020016006820160009054906101000a900460ff161515151581525050848681518110610d75577f4e487b7100000000000000000000000000000000000000000000000000000000600052603260045260246000fd5b6020026020010181905250600185610d8d9190611647565b945050508080610d9c9061172b565b915050610baf565b508094505050505090565b60606000610dbd6001611179565b90506000806000905060005b83811015610e6a573373ffffffffffffffffffffffffffffffffffffffff1660056000600184610df99190611647565b815260200190815260200160002060030160009054906101000a900473ffffffffffffffffffffffffffffffffffffffff1673ffffffffffffffffffffffffffffffffffffffff161415610e5757600183610e549190611647565b92505b8080610e629061172b565b915050610dc9565b5060008267ffffffffffffffff811115610ead577f4e487b7100000000000000000000000000000000000000000000000000000000600052604160045260246000fd5b604051908082528060200260200182016040528015610ee657816020015b610ed3611187565b815260200190600190039081610ecb5790505b50905060005b83811015611158573373ffffffffffffffffffffffffffffffffffffffff1660056000600184610f1c9190611647565b815260200190815260200160002060030160009054906101000a900473ffffffffffffffffffffffffffffffffffffffff1673ffffffffffffffffffffffffffffffffffffffff16141561114557600060056000600184610f7d9190611647565b81526020019081526020016000206000015490506000600560008381526020019081526020016000209050806040518060e0016040529081600082015481526020016001820160009054906101000a900473ffffffffffffffffffffffffffffffffffffffff1673ffffffffffffffffffffffffffffffffffffffff1673ffffffffffffffffffffffffffffffffffffffff168152602001600282015481526020016003820160009054906101000a900473ffffffffffffffffffffffffffffffffffffffff1673ffffffffffffffffffffffffffffffffffffffff1673ffffffffffffffffffffffffffffffffffffffff1681526020016004820160009054906101000a900473ffffffffffffffffffffffffffffffffffffffff1673ffffffffffffffffffffffffffffffffffffffff1673ffffffffffffffffffffffffffffffffffffffff168152602001600582015481526020016006820160009054906101000a900460ff161515151581525050848681518110611128577f4e487b7100000000000000000000000000000000000000000000000000000000600052603260045260246000fd5b60200260200101819052506001856111409190611647565b945050505b80806111509061172b565b915050610eec565b508094505050505090565b6001816000016000828254019250508190555050565b600081600001549050919050565b6040518060e0016040528060008152602001600073ffffffffffffffffffffffffffffffffffffffff16815260200160008152602001600073ffffffffffffffffffffffffffffffffffffffff168152602001600073ffffffffffffffffffffffffffffffffffffffff168152602001600081526020016000151581525090565b60008135905061121781611893565b92915050565b60008135905061122c816118aa565b92915050565b60008060006060848603121561124757600080fd5b600061125586828701611208565b93505060206112668682870161121d565b92505060406112778682870161121d565b9150509250925092565b6000806040838503121561129457600080fd5b60006112a28582860161121d565b92505060206112b385828601611208565b9150509250929050565b60006112c9838361140a565b60e08301905092915050565b6112de816116e3565b82525050565b6112ed816116d1565b82525050565b6112fc816116d1565b82525050565b600061130d8261160d565b6113178185611625565b9350611322836115fd565b8060005b8381101561135357815161133a88826112bd565b975061134583611618565b925050600181019050611326565b5085935050505092915050565b611369816116f5565b82525050565b611378816116f5565b82525050565b600061138b601f83611636565b9150611396826117a3565b602082019050919050565b60006113ae602483611636565b91506113b9826117cc565b604082019050919050565b60006113d1602883611636565b91506113dc8261181b565b604082019050919050565b60006113f4601f83611636565b91506113ff8261186a565b602082019050919050565b60e0820160008201516114206000850182611498565b50602082015161143360208501826112e4565b5060408201516114466040850182611498565b50606082015161145960608501826112d5565b50608082015161146c60808501826112d5565b5060a082015161147f60a0850182611498565b5060c082015161149260c0850182611360565b50505050565b6114a181611721565b82525050565b6114b081611721565b82525050565b600060a0820190506114cb60008301886112f3565b6114d860208301876112f3565b6114e560408301866112f3565b6114f260608301856114a7565b6114ff608083018461136f565b9695505050505050565b600060608201905061151e60008301866112f3565b61152b60208301856112f3565b61153860408301846114a7565b949350505050565b6000602082019050818103600083015261155a8184611302565b905092915050565b6000602082019050818103600083015261157b8161137e565b9050919050565b6000602082019050818103600083015261159b816113a1565b9050919050565b600060208201905081810360008301526115bb816113c4565b9050919050565b600060208201905081810360008301526115db816113e7565b9050919050565b60006020820190506115f760008301846114a7565b92915050565b6000819050602082019050919050565b600081519050919050565b6000602082019050919050565b600082825260208201905092915050565b600082825260208201905092915050565b600061165282611721565b915061165d83611721565b9250827fffffffffffffffffffffffffffffffffffffffffffffffffffffffffffffffff0382111561169257611691611774565b5b828201905092915050565b60006116a882611721565b91506116b383611721565b9250828210156116c6576116c5611774565b5b828203905092915050565b60006116dc82611701565b9050919050565b60006116ee82611701565b9050919050565b60008115159050919050565b600073ffffffffffffffffffffffffffffffffffffffff82169050919050565b6000819050919050565b600061173682611721565b91507fffffffffffffffffffffffffffffffffffffffffffffffffffffffffffffffff82141561176957611768611774565b5b600182019050919050565b7f4e487b7100000000000000000000000000000000000000000000000000000000600052601160045260246000fd5b7f5072696365206d7573742062652067726561746572207468616e207a65726f00600082015250565b7f416d6f756e74206973206c657373207468616e207468652061736b696e67207060008201527f7269636500000000000000000000000000000000000000000000000000000000602082015250565b7f416d6f756e74206d75737420626520657175616c20746f20746865206c69737460008201527f696e672072696365000000000000000000000000000000000000000000000000602082015250565b7f5265656e7472616e637947756172643a207265656e7472616e742063616c6c00600082015250565b61189c816116d1565b81146118a757600080fd5b50565b6118b381611721565b81146118be57600080fd5b5056fea2646970667358221220a8753161b05cdd09c83844cae13835585c304de2351e611e7b10cb8a0e8a74b464736f6c63430008040033",
  "linkReferences": {},
  "deployedLinkReferences": {}
}