{
  "_format": "hh-sol-artifact-1",
  "contractName": "NftMarket",
  "sourceName": "contracts/NFtMarket.sol",
  "abi": [
    {
      "inputs": [
        {
          "internalType": "address",
          "name": "_auditAddress",
          "type": "address"
        }
      ],
      "stateMutability": "nonpayable",
      "type": "constructor"
    },
    {
      "anonymous": false,
      "inputs": [
        {
          "indexed": true,
          "internalType": "uint256",
          "name": "itemId",
          "type": "uint256"
        },
        {
          "indexed": false,
          "internalType": "address",
          "name": "nftContract",
          "type": "address"
        },
        {
          "indexed": true,
          "internalType": "uint256",
          "name": "tokenId",
          "type": "uint256"
        },
        {
          "indexed": false,
          "internalType": "address",
          "name": "onwer",
          "type": "address"
        },
        {
          "indexed": false,
          "internalType": "address",
          "name": "seller",
          "type": "address"
        },
        {
          "indexed": false,
          "internalType": "uint256",
          "name": "price",
          "type": "uint256"
        },
        {
          "indexed": false,
          "internalType": "bool",
          "name": "sold",
          "type": "bool"
        }
      ],
      "name": "MarketItemCreated",
      "type": "event"
    },
    {
      "inputs": [
        {
          "internalType": "address",
          "name": "nftContract",
          "type": "address"
        },
        {
          "internalType": "address",
          "name": "auctionAddress",
          "type": "address"
        }
      ],
      "name": "approveAuction",
      "outputs": [],
      "stateMutability": "nonpayable",
      "type": "function"
    },
    {
      "inputs": [
        {
          "internalType": "address",
          "name": "nftAddress",
          "type": "address"
        },
        {
          "internalType": "uint256",
          "name": "_price",
          "type": "uint256"
        },
        {
          "internalType": "uint256",
          "name": "_tokenId",
          "type": "uint256"
        }
      ],
      "name": "createMarketItem",
      "outputs": [],
      "stateMutability": "payable",
      "type": "function"
    },
    {
      "inputs": [
        {
          "internalType": "uint256",
          "name": "itemId",
          "type": "uint256"
        },
        {
          "internalType": "address",
          "name": "nftContract",
          "type": "address"
        }
      ],
      "name": "createmarketSale",
      "outputs": [],
      "stateMutability": "payable",
      "type": "function"
    },
    {
      "inputs": [],
      "name": "fetchMarketItem",
      "outputs": [
        {
          "components": [
            {
              "internalType": "uint256",
              "name": "itemId",
              "type": "uint256"
            },
            {
              "internalType": "address",
              "name": "nftContract",
              "type": "address"
            },
            {
              "internalType": "uint256",
              "name": "tokenId",
              "type": "uint256"
            },
            {
              "internalType": "address payable",
              "name": "onwer",
              "type": "address"
            },
            {
              "internalType": "address payable",
              "name": "seller",
              "type": "address"
            },
            {
              "internalType": "uint256",
              "name": "price",
              "type": "uint256"
            },
            {
              "internalType": "bool",
              "name": "sold",
              "type": "bool"
            }
          ],
          "internalType": "struct NftMarket.MarketItem[]",
          "name": "",
          "type": "tuple[]"
        }
      ],
      "stateMutability": "view",
      "type": "function"
    },
    {
      "inputs": [],
      "name": "fetchMyNFT",
      "outputs": [
        {
          "components": [
            {
              "internalType": "uint256",
              "name": "itemId",
              "type": "uint256"
            },
            {
              "internalType": "address",
              "name": "nftContract",
              "type": "address"
            },
            {
              "internalType": "uint256",
              "name": "tokenId",
              "type": "uint256"
            },
            {
              "internalType": "address payable",
              "name": "onwer",
              "type": "address"
            },
            {
              "internalType": "address payable",
              "name": "seller",
              "type": "address"
            },
            {
              "internalType": "uint256",
              "name": "price",
              "type": "uint256"
            },
            {
              "internalType": "bool",
              "name": "sold",
              "type": "bool"
            }
          ],
          "internalType": "struct NftMarket.MarketItem[]",
          "name": "",
          "type": "tuple[]"
        }
      ],
      "stateMutability": "view",
      "type": "function"
    },
    {
      "inputs": [],
      "name": "fetchitemcreated",
      "outputs": [
        {
          "components": [
            {
              "internalType": "uint256",
              "name": "itemId",
              "type": "uint256"
            },
            {
              "internalType": "address",
              "name": "nftContract",
              "type": "address"
            },
            {
              "internalType": "uint256",
              "name": "tokenId",
              "type": "uint256"
            },
            {
              "internalType": "address payable",
              "name": "onwer",
              "type": "address"
            },
            {
              "internalType": "address payable",
              "name": "seller",
              "type": "address"
            },
            {
              "internalType": "uint256",
              "name": "price",
              "type": "uint256"
            },
            {
              "internalType": "bool",
              "name": "sold",
              "type": "bool"
            }
          ],
          "internalType": "struct NftMarket.MarketItem[]",
          "name": "",
          "type": "tuple[]"
        }
      ],
      "stateMutability": "view",
      "type": "function"
    },
    {
      "inputs": [],
      "name": "getListingPrice",
      "outputs": [
        {
          "internalType": "uint256",
          "name": "",
          "type": "uint256"
        }
      ],
      "stateMutability": "view",
      "type": "function"
    },
    {
      "inputs": [
        {
          "internalType": "uint256",
          "name": "itemId",
          "type": "uint256"
        }
      ],
      "name": "getMarketItemDetail",
      "outputs": [
        {
          "components": [
            {
              "internalType": "uint256",
              "name": "itemId",
              "type": "uint256"
            },
            {
              "internalType": "address",
              "name": "nftContract",
              "type": "address"
            },
            {
              "internalType": "uint256",
              "name": "tokenId",
              "type": "uint256"
            },
            {
              "internalType": "address payable",
              "name": "onwer",
              "type": "address"
            },
            {
              "internalType": "address payable",
              "name": "seller",
              "type": "address"
            },
            {
              "internalType": "uint256",
              "name": "price",
              "type": "uint256"
            },
            {
              "internalType": "bool",
              "name": "sold",
              "type": "bool"
            }
          ],
          "internalType": "struct NftMarket.MarketItem",
          "name": "",
          "type": "tuple"
        }
      ],
      "stateMutability": "view",
      "type": "function"
    },
    {
      "inputs": [
        {
          "internalType": "uint256",
          "name": "",
          "type": "uint256"
        }
      ],
      "name": "idToMarketItem",
      "outputs": [
        {
          "internalType": "uint256",
          "name": "itemId",
          "type": "uint256"
        },
        {
          "internalType": "address",
          "name": "nftContract",
          "type": "address"
        },
        {
          "internalType": "uint256",
          "name": "tokenId",
          "type": "uint256"
        },
        {
          "internalType": "address payable",
          "name": "onwer",
          "type": "address"
        },
        {
          "internalType": "address payable",
          "name": "seller",
          "type": "address"
        },
        {
          "internalType": "uint256",
          "name": "price",
          "type": "uint256"
        },
        {
          "internalType": "bool",
          "name": "sold",
          "type": "bool"
        }
      ],
      "stateMutability": "view",
      "type": "function"
    },
    {
      "inputs": [
        {
          "internalType": "uint256",
          "name": "marketId",
          "type": "uint256"
        },
        {
          "internalType": "address",
          "name": "bidder",
          "type": "address"
        }
      ],
      "name": "updateOwner",
      "outputs": [],
      "stateMutability": "nonpayable",
      "type": "function"
    }
  ],
  "bytecode": "0x6080604052662386f26fc1000060055534801561001b57600080fd5b5060405161129338038061129383398101604081905261003a91610072565b600160005560038054336001600160a01b031991821617909155600480549091166001600160a01b03929092169190911790556100a0565b600060208284031215610083578081fd5b81516001600160a01b0381168114610099578182fd5b9392505050565b6111e4806100af6000396000f3fe6080604052600436106100915760003560e01c80637192711f116100595780637192711f146101305780638fafd02114610150578063c18763f714610165578063e61a70c01461017a578063eb7b1c8e1461022757600080fd5b806312e85585146100965780631578577c146100b95780631d6dcc70146100ce57806330f08829146100f057806358eb2df51461011d575b600080fd5b3480156100a257600080fd5b506005546040519081526020015b60405180910390f35b6100cc6100c7366004610f68565b610247565b005b3480156100da57600080fd5b506100e361041b565b6040516100b0919061104f565b3480156100fc57600080fd5b5061011061010b366004610f50565b61062f565b6040516100b0919061113a565b6100cc61012b366004610f1e565b6106ab565b34801561013c57600080fd5b506100cc61014b366004610f68565b610917565b34801561015c57600080fd5b506100e36109ad565b34801561017157600080fd5b506100e3610b28565b34801561018657600080fd5b506101e3610195366004610f50565b6006602081905260009182526040909120805460018201546002830154600384015460048501546005860154959096015493956001600160a01b039384169592949184169316919060ff1687565b604080519788526001600160a01b0396871660208901528701949094529184166060860152909216608084015260a0830191909152151560c082015260e0016100b0565b34801561023357600080fd5b506100cc610242366004610eec565b610d28565b600260005414156102735760405162461bcd60e51b815260040161026a90611103565b60405180910390fd5b6002600081815583815260066020526040902060058101549101543482146102e95760405162461bcd60e51b8152602060048201526024808201527f416d6f756e74206973206c657373207468616e207468652061736b696e6720706044820152637269636560e01b606482015260840161026a565b6000848152600660205260408082206004015490516001600160a01b03909116913480156108fc02929091818181858888f19350505050158015610331573d6000803e3d6000fd5b506040516323b872dd60e01b81526001600160a01b038416906323b872dd906103629030903390869060040161102b565b600060405180830381600087803b15801561037c57600080fd5b505af1158015610390573d6000803e3d6000fd5b50505060008581526006602081905260409091206003810180546001600160a01b0319163317905501805460ff19166001179055506103d3600280546001019055565b6003546005546040516001600160a01b039092169181156108fc0291906000818181858888f1935050505015801561040f573d6000803e3d6000fd5b50506001600055505050565b6060600061042860015490565b9050600080805b8381101561048057336006600061044784600161114e565b81526020810191909152604001600020600401546001600160a01b031614156104785761047560018461114e565b92505b60010161042f565b506104b56040518060400160405280601081526020016f19995d18da1a5d195b58dc99585d195960821b815250848433610d8e565b60008267ffffffffffffffff8111156104de57634e487b7160e01b600052604160045260246000fd5b60405190808252806020026020018201604052801561051757816020015b610504610e94565b8152602001906001900390816104fc5790505b50905060005b8481101561062657336006600061053584600161114e565b81526020810191909152604001600020600401546001600160a01b0316141561061e57600060068161056884600161114e565b81526020808201929092526040908101600020815160e0810183528154815260018201546001600160a01b039081169482019490945260028201549281019290925260038101548316606083015260048101549092166080820152600582015460a082015260069091015460ff16151560c08201528351909150819084908690811061060457634e487b7160e01b600052603260045260246000fd5b602090810291909101015261061a60018561114e565b9350505b60010161051d565b50949350505050565b610637610e94565b50600090815260066020818152604092839020835160e0810185528154815260018201546001600160a01b039081169382019390935260028201549481019490945260038101548216606085015260048101549091166080840152600581015460a0840152015460ff16151560c082015290565b600260005414156106ce5760405162461bcd60e51b815260040161026a90611103565b6002600055816107205760405162461bcd60e51b815260206004820152601f60248201527f5072696365206d7573742062652067726561746572207468616e207a65726f00604482015260640161026a565b6005543410156107835760405162461bcd60e51b815260206004820152602860248201527f416d6f756e74206d75737420626520657175616c20746f20746865206c697374604482015267696e67207269636560c01b606482015260840161026a565b610791600180546001019055565b600061079c60015490565b6040805160e0810182528281526001600160a01b038781166020808401828152848601898152600060608701818152336080890181815260a08a018f815260c08b018581528d8652600698899052948c90209a518b55955160018b0180546001600160a01b0319908116928c16929092179055945160028b0155915160038a0180548616918a1691909117905590516004808a018054909516919098161790925591516005870155905194909101805460ff19169415159490941790935592516323b872dd60e01b815293945091926323b872dd926108809291309188910161102b565b600060405180830381600087803b15801561089a57600080fd5b505af11580156108ae573d6000803e3d6000fd5b5050604080516001600160a01b0388168152600060208201819052338284015260608201889052608082015290518593508492507f045dfa01dcba2b36aba1d3dc4a874f4b0c5d2fbeb8d2c4b34a7d88c8d8f929d19181900360a00190a3505060016000555050565b6004546001600160a01b0316331461095f5760405162461bcd60e51b815260206004820152600b60248201526a139bdd08185b1b1bddd95960aa1b604482015260640161026a565b600082815260066020526040902080546109799084610ddd565b6003810180546001600160a01b0319166001600160a01b039390931692909217909155600601805460ff1916600117905550565b606060006109ba60015490565b905060006109c760025490565b6109d19083611166565b90506000808267ffffffffffffffff8111156109fd57634e487b7160e01b600052604160045260246000fd5b604051908082528060200260200182016040528015610a3657816020015b610a23610e94565b815260200190600190039081610a1b5790505b50905060005b84811015610626576000600681610a5484600161114e565b81526020808201929092526040908101600090812054808252600680855291839020835160e0810185528154815260018201546001600160a01b039081169682019690965260028201549481019490945260038101548516606085015260048101549094166080840152600584015460a08401529083015460ff16151560c08301528551909350859087908110610afb57634e487b7160e01b600052603260045260246000fd5b6020908102919091010152610b1160018661114e565b945050508080610b209061117d565b915050610a3c565b60606000610b3560015490565b9050610b606040518060400160405280600681526020016539b2b73232b960d11b8152503383610e27565b600080805b83811015610bb6573360066000610b7d84600161114e565b81526020810191909152604001600020600301546001600160a01b03161415610bae57610bab60018461114e565b92505b600101610b65565b5060008267ffffffffffffffff811115610be057634e487b7160e01b600052604160045260246000fd5b604051908082528060200260200182016040528015610c1957816020015b610c06610e94565b815260200190600190039081610bfe5790505b50905060005b84811015610626573360066000610c3784600161114e565b81526020810191909152604001600020600301546001600160a01b03161415610d20576000600681610c6a84600161114e565b81526020808201929092526040908101600020815160e0810183528154815260018201546001600160a01b039081169482019490945260028201549281019290925260038101548316606083015260048101549092166080820152600582015460a082015260069091015460ff16151560c082015283519091508190849086908110610d0657634e487b7160e01b600052603260045260246000fd5b6020908102919091010152610d1c60018561114e565b9350505b600101610c1f565b60405163a22cb46560e01b81526001600160a01b0382811660048301526001602483015283169063a22cb46590604401600060405180830381600087803b158015610d7257600080fd5b505af1158015610d86573d6000803e3d6000fd5b505050505050565b610dd784848484604051602401610da894939291906110cb565b60408051601f198184030181529190526020810180516001600160e01b031663bed728bf60e01b179052610e73565b50505050565b6040516024810183905260448101829052610e239060640160408051601f198184030181529190526020810180516001600160e01b031662d81ed360e71b179052610e73565b5050565b610e6e838383604051602401610e3f9392919061109d565b60408051601f198184030181529190526020810180516001600160e01b03166307c8121760e01b179052610e73565b505050565b80516a636f6e736f6c652e6c6f67602083016000808483855afa5050505050565b6040805160e081018252600080825260208201819052918101829052606081018290526080810182905260a0810182905260c081019190915290565b80356001600160a01b0381168114610ee757600080fd5b919050565b60008060408385031215610efe578182fd5b610f0783610ed0565b9150610f1560208401610ed0565b90509250929050565b600080600060608486031215610f32578081fd5b610f3b84610ed0565b95602085013595506040909401359392505050565b600060208284031215610f61578081fd5b5035919050565b60008060408385031215610f7a578182fd5b82359150610f1560208401610ed0565b60008151808452815b81811015610faf57602081850181015186830182015201610f93565b81811115610fc05782602083870101525b50601f01601f19169290920160200192915050565b80518252602081015160018060a01b03808216602085015260408301516040850152806060840151166060850152806080840151166080850152505060a081015160a083015260c0810151151560c08301525050565b6001600160a01b039384168152919092166020820152604081019190915260600190565b6020808252825182820181905260009190848201906040850190845b818110156110915761107e838551610fd5565b9284019260e0929092019160010161106b565b50909695505050505050565b6060815260006110b06060830186610f8a565b6001600160a01b039490941660208301525060400152919050565b6080815260006110de6080830187610f8a565b60208301959095525060408101929092526001600160a01b0316606090910152919050565b6020808252601f908201527f5265656e7472616e637947756172643a207265656e7472616e742063616c6c00604082015260600190565b60e081016111488284610fd5565b92915050565b6000821982111561116157611161611198565b500190565b60008282101561117857611178611198565b500390565b600060001982141561119157611191611198565b5060010190565b634e487b7160e01b600052601160045260246000fdfea2646970667358221220863ad575ac2b8b9d4e0c01df17b9e7ea9e1cccd8bf501342238701d250b1beb764736f6c63430008040033",
  "linkReferences": {},
  "deployedLinkReferences": {}
}