{
  "_format": "hh-sol-artifact-1",
  "contractName": "TimelockController",
  "sourceName": "@openzeppelin/contracts/governance/TimelockController.sol",
  "abi": [
    {
      "inputs": [
        {
          "internalType": "uint256",
          "name": "minDelay",
          "type": "uint256"
        },
        {
          "internalType": "address[]",
          "name": "proposers",
          "type": "address[]"
        },
        {
          "internalType": "address[]",
          "name": "executors",
          "type": "address[]"
        }
      ],
      "stateMutability": "nonpayable",
      "type": "constructor"
    },
    {
      "anonymous": false,
      "inputs": [
        {
          "indexed": true,
          "internalType": "bytes32",
          "name": "id",
          "type": "bytes32"
        },
        {
          "indexed": true,
          "internalType": "uint256",
          "name": "index",
          "type": "uint256"
        },
        {
          "indexed": false,
          "internalType": "address",
          "name": "target",
          "type": "address"
        },
        {
          "indexed": false,
          "internalType": "uint256",
          "name": "value",
          "type": "uint256"
        },
        {
          "indexed": false,
          "internalType": "bytes",
          "name": "data",
          "type": "bytes"
        }
      ],
      "name": "CallExecuted",
      "type": "event"
    },
    {
      "anonymous": false,
      "inputs": [
        {
          "indexed": true,
          "internalType": "bytes32",
          "name": "id",
          "type": "bytes32"
        },
        {
          "indexed": true,
          "internalType": "uint256",
          "name": "index",
          "type": "uint256"
        },
        {
          "indexed": false,
          "internalType": "address",
          "name": "target",
          "type": "address"
        },
        {
          "indexed": false,
          "internalType": "uint256",
          "name": "value",
          "type": "uint256"
        },
        {
          "indexed": false,
          "internalType": "bytes",
          "name": "data",
          "type": "bytes"
        },
        {
          "indexed": false,
          "internalType": "bytes32",
          "name": "predecessor",
          "type": "bytes32"
        },
        {
          "indexed": false,
          "internalType": "uint256",
          "name": "delay",
          "type": "uint256"
        }
      ],
      "name": "CallScheduled",
      "type": "event"
    },
    {
      "anonymous": false,
      "inputs": [
        {
          "indexed": true,
          "internalType": "bytes32",
          "name": "id",
          "type": "bytes32"
        }
      ],
      "name": "Cancelled",
      "type": "event"
    },
    {
      "anonymous": false,
      "inputs": [
        {
          "indexed": false,
          "internalType": "uint256",
          "name": "oldDuration",
          "type": "uint256"
        },
        {
          "indexed": false,
          "internalType": "uint256",
          "name": "newDuration",
          "type": "uint256"
        }
      ],
      "name": "MinDelayChange",
      "type": "event"
    },
    {
      "anonymous": false,
      "inputs": [
        {
          "indexed": true,
          "internalType": "bytes32",
          "name": "role",
          "type": "bytes32"
        },
        {
          "indexed": true,
          "internalType": "bytes32",
          "name": "previousAdminRole",
          "type": "bytes32"
        },
        {
          "indexed": true,
          "internalType": "bytes32",
          "name": "newAdminRole",
          "type": "bytes32"
        }
      ],
      "name": "RoleAdminChanged",
      "type": "event"
    },
    {
      "anonymous": false,
      "inputs": [
        {
          "indexed": true,
          "internalType": "bytes32",
          "name": "role",
          "type": "bytes32"
        },
        {
          "indexed": true,
          "internalType": "address",
          "name": "account",
          "type": "address"
        },
        {
          "indexed": true,
          "internalType": "address",
          "name": "sender",
          "type": "address"
        }
      ],
      "name": "RoleGranted",
      "type": "event"
    },
    {
      "anonymous": false,
      "inputs": [
        {
          "indexed": true,
          "internalType": "bytes32",
          "name": "role",
          "type": "bytes32"
        },
        {
          "indexed": true,
          "internalType": "address",
          "name": "account",
          "type": "address"
        },
        {
          "indexed": true,
          "internalType": "address",
          "name": "sender",
          "type": "address"
        }
      ],
      "name": "RoleRevoked",
      "type": "event"
    },
    {
      "inputs": [],
      "name": "CANCELLER_ROLE",
      "outputs": [
        {
          "internalType": "bytes32",
          "name": "",
          "type": "bytes32"
        }
      ],
      "stateMutability": "view",
      "type": "function"
    },
    {
      "inputs": [],
      "name": "DEFAULT_ADMIN_ROLE",
      "outputs": [
        {
          "internalType": "bytes32",
          "name": "",
          "type": "bytes32"
        }
      ],
      "stateMutability": "view",
      "type": "function"
    },
    {
      "inputs": [],
      "name": "EXECUTOR_ROLE",
      "outputs": [
        {
          "internalType": "bytes32",
          "name": "",
          "type": "bytes32"
        }
      ],
      "stateMutability": "view",
      "type": "function"
    },
    {
      "inputs": [],
      "name": "PROPOSER_ROLE",
      "outputs": [
        {
          "internalType": "bytes32",
          "name": "",
          "type": "bytes32"
        }
      ],
      "stateMutability": "view",
      "type": "function"
    },
    {
      "inputs": [],
      "name": "TIMELOCK_ADMIN_ROLE",
      "outputs": [
        {
          "internalType": "bytes32",
          "name": "",
          "type": "bytes32"
        }
      ],
      "stateMutability": "view",
      "type": "function"
    },
    {
      "inputs": [
        {
          "internalType": "bytes32",
          "name": "id",
          "type": "bytes32"
        }
      ],
      "name": "cancel",
      "outputs": [],
      "stateMutability": "nonpayable",
      "type": "function"
    },
    {
      "inputs": [
        {
          "internalType": "address",
          "name": "target",
          "type": "address"
        },
        {
          "internalType": "uint256",
          "name": "value",
          "type": "uint256"
        },
        {
          "internalType": "bytes",
          "name": "data",
          "type": "bytes"
        },
        {
          "internalType": "bytes32",
          "name": "predecessor",
          "type": "bytes32"
        },
        {
          "internalType": "bytes32",
          "name": "salt",
          "type": "bytes32"
        }
      ],
      "name": "execute",
      "outputs": [],
      "stateMutability": "payable",
      "type": "function"
    },
    {
      "inputs": [
        {
          "internalType": "address[]",
          "name": "targets",
          "type": "address[]"
        },
        {
          "internalType": "uint256[]",
          "name": "values",
          "type": "uint256[]"
        },
        {
          "internalType": "bytes[]",
          "name": "payloads",
          "type": "bytes[]"
        },
        {
          "internalType": "bytes32",
          "name": "predecessor",
          "type": "bytes32"
        },
        {
          "internalType": "bytes32",
          "name": "salt",
          "type": "bytes32"
        }
      ],
      "name": "executeBatch",
      "outputs": [],
      "stateMutability": "payable",
      "type": "function"
    },
    {
      "inputs": [],
      "name": "getMinDelay",
      "outputs": [
        {
          "internalType": "uint256",
          "name": "duration",
          "type": "uint256"
        }
      ],
      "stateMutability": "view",
      "type": "function"
    },
    {
      "inputs": [
        {
          "internalType": "bytes32",
          "name": "role",
          "type": "bytes32"
        }
      ],
      "name": "getRoleAdmin",
      "outputs": [
        {
          "internalType": "bytes32",
          "name": "",
          "type": "bytes32"
        }
      ],
      "stateMutability": "view",
      "type": "function"
    },
    {
      "inputs": [
        {
          "internalType": "bytes32",
          "name": "id",
          "type": "bytes32"
        }
      ],
      "name": "getTimestamp",
      "outputs": [
        {
          "internalType": "uint256",
          "name": "timestamp",
          "type": "uint256"
        }
      ],
      "stateMutability": "view",
      "type": "function"
    },
    {
      "inputs": [
        {
          "internalType": "bytes32",
          "name": "role",
          "type": "bytes32"
        },
        {
          "internalType": "address",
          "name": "account",
          "type": "address"
        }
      ],
      "name": "grantRole",
      "outputs": [],
      "stateMutability": "nonpayable",
      "type": "function"
    },
    {
      "inputs": [
        {
          "internalType": "bytes32",
          "name": "role",
          "type": "bytes32"
        },
        {
          "internalType": "address",
          "name": "account",
          "type": "address"
        }
      ],
      "name": "hasRole",
      "outputs": [
        {
          "internalType": "bool",
          "name": "",
          "type": "bool"
        }
      ],
      "stateMutability": "view",
      "type": "function"
    },
    {
      "inputs": [
        {
          "internalType": "address",
          "name": "target",
          "type": "address"
        },
        {
          "internalType": "uint256",
          "name": "value",
          "type": "uint256"
        },
        {
          "internalType": "bytes",
          "name": "data",
          "type": "bytes"
        },
        {
          "internalType": "bytes32",
          "name": "predecessor",
          "type": "bytes32"
        },
        {
          "internalType": "bytes32",
          "name": "salt",
          "type": "bytes32"
        }
      ],
      "name": "hashOperation",
      "outputs": [
        {
          "internalType": "bytes32",
          "name": "hash",
          "type": "bytes32"
        }
      ],
      "stateMutability": "pure",
      "type": "function"
    },
    {
      "inputs": [
        {
          "internalType": "address[]",
          "name": "targets",
          "type": "address[]"
        },
        {
          "internalType": "uint256[]",
          "name": "values",
          "type": "uint256[]"
        },
        {
          "internalType": "bytes[]",
          "name": "payloads",
          "type": "bytes[]"
        },
        {
          "internalType": "bytes32",
          "name": "predecessor",
          "type": "bytes32"
        },
        {
          "internalType": "bytes32",
          "name": "salt",
          "type": "bytes32"
        }
      ],
      "name": "hashOperationBatch",
      "outputs": [
        {
          "internalType": "bytes32",
          "name": "hash",
          "type": "bytes32"
        }
      ],
      "stateMutability": "pure",
      "type": "function"
    },
    {
      "inputs": [
        {
          "internalType": "bytes32",
          "name": "id",
          "type": "bytes32"
        }
      ],
      "name": "isOperation",
      "outputs": [
        {
          "internalType": "bool",
          "name": "pending",
          "type": "bool"
        }
      ],
      "stateMutability": "view",
      "type": "function"
    },
    {
      "inputs": [
        {
          "internalType": "bytes32",
          "name": "id",
          "type": "bytes32"
        }
      ],
      "name": "isOperationDone",
      "outputs": [
        {
          "internalType": "bool",
          "name": "done",
          "type": "bool"
        }
      ],
      "stateMutability": "view",
      "type": "function"
    },
    {
      "inputs": [
        {
          "internalType": "bytes32",
          "name": "id",
          "type": "bytes32"
        }
      ],
      "name": "isOperationPending",
      "outputs": [
        {
          "internalType": "bool",
          "name": "pending",
          "type": "bool"
        }
      ],
      "stateMutability": "view",
      "type": "function"
    },
    {
      "inputs": [
        {
          "internalType": "bytes32",
          "name": "id",
          "type": "bytes32"
        }
      ],
      "name": "isOperationReady",
      "outputs": [
        {
          "internalType": "bool",
          "name": "ready",
          "type": "bool"
        }
      ],
      "stateMutability": "view",
      "type": "function"
    },
    {
      "inputs": [
        {
          "internalType": "address",
          "name": "",
          "type": "address"
        },
        {
          "internalType": "address",
          "name": "",
          "type": "address"
        },
        {
          "internalType": "uint256[]",
          "name": "",
          "type": "uint256[]"
        },
        {
          "internalType": "uint256[]",
          "name": "",
          "type": "uint256[]"
        },
        {
          "internalType": "bytes",
          "name": "",
          "type": "bytes"
        }
      ],
      "name": "onERC1155BatchReceived",
      "outputs": [
        {
          "internalType": "bytes4",
          "name": "",
          "type": "bytes4"
        }
      ],
      "stateMutability": "nonpayable",
      "type": "function"
    },
    {
      "inputs": [
        {
          "internalType": "address",
          "name": "",
          "type": "address"
        },
        {
          "internalType": "address",
          "name": "",
          "type": "address"
        },
        {
          "internalType": "uint256",
          "name": "",
          "type": "uint256"
        },
        {
          "internalType": "uint256",
          "name": "",
          "type": "uint256"
        },
        {
          "internalType": "bytes",
          "name": "",
          "type": "bytes"
        }
      ],
      "name": "onERC1155Received",
      "outputs": [
        {
          "internalType": "bytes4",
          "name": "",
          "type": "bytes4"
        }
      ],
      "stateMutability": "nonpayable",
      "type": "function"
    },
    {
      "inputs": [
        {
          "internalType": "address",
          "name": "",
          "type": "address"
        },
        {
          "internalType": "address",
          "name": "",
          "type": "address"
        },
        {
          "internalType": "uint256",
          "name": "",
          "type": "uint256"
        },
        {
          "internalType": "bytes",
          "name": "",
          "type": "bytes"
        }
      ],
      "name": "onERC721Received",
      "outputs": [
        {
          "internalType": "bytes4",
          "name": "",
          "type": "bytes4"
        }
      ],
      "stateMutability": "nonpayable",
      "type": "function"
    },
    {
      "inputs": [
        {
          "internalType": "bytes32",
          "name": "role",
          "type": "bytes32"
        },
        {
          "internalType": "address",
          "name": "account",
          "type": "address"
        }
      ],
      "name": "renounceRole",
      "outputs": [],
      "stateMutability": "nonpayable",
      "type": "function"
    },
    {
      "inputs": [
        {
          "internalType": "bytes32",
          "name": "role",
          "type": "bytes32"
        },
        {
          "internalType": "address",
          "name": "account",
          "type": "address"
        }
      ],
      "name": "revokeRole",
      "outputs": [],
      "stateMutability": "nonpayable",
      "type": "function"
    },
    {
      "inputs": [
        {
          "internalType": "address",
          "name": "target",
          "type": "address"
        },
        {
          "internalType": "uint256",
          "name": "value",
          "type": "uint256"
        },
        {
          "internalType": "bytes",
          "name": "data",
          "type": "bytes"
        },
        {
          "internalType": "bytes32",
          "name": "predecessor",
          "type": "bytes32"
        },
        {
          "internalType": "bytes32",
          "name": "salt",
          "type": "bytes32"
        },
        {
          "internalType": "uint256",
          "name": "delay",
          "type": "uint256"
        }
      ],
      "name": "schedule",
      "outputs": [],
      "stateMutability": "nonpayable",
      "type": "function"
    },
    {
      "inputs": [
        {
          "internalType": "address[]",
          "name": "targets",
          "type": "address[]"
        },
        {
          "internalType": "uint256[]",
          "name": "values",
          "type": "uint256[]"
        },
        {
          "internalType": "bytes[]",
          "name": "payloads",
          "type": "bytes[]"
        },
        {
          "internalType": "bytes32",
          "name": "predecessor",
          "type": "bytes32"
        },
        {
          "internalType": "bytes32",
          "name": "salt",
          "type": "bytes32"
        },
        {
          "internalType": "uint256",
          "name": "delay",
          "type": "uint256"
        }
      ],
      "name": "scheduleBatch",
      "outputs": [],
      "stateMutability": "nonpayable",
      "type": "function"
    },
    {
      "inputs": [
        {
          "internalType": "bytes4",
          "name": "interfaceId",
          "type": "bytes4"
        }
      ],
      "name": "supportsInterface",
      "outputs": [
        {
          "internalType": "bool",
          "name": "",
          "type": "bool"
        }
      ],
      "stateMutability": "view",
      "type": "function"
    },
    {
      "inputs": [
        {
          "internalType": "uint256",
          "name": "newDelay",
          "type": "uint256"
        }
      ],
      "name": "updateDelay",
      "outputs": [],
      "stateMutability": "nonpayable",
      "type": "function"
    },
    {
      "stateMutability": "payable",
      "type": "receive"
    }
  ],
  "bytecode": "0x60806040523480156200001157600080fd5b506040516200229d3803806200229d833981016040819052620000349162000408565b6200004f6000805160206200221d8339815191528062000240565b620000796000805160206200223d8339815191526000805160206200221d83398151915262000240565b620000a36000805160206200225d8339815191526000805160206200221d83398151915262000240565b620000cd6000805160206200227d8339815191526000805160206200221d83398151915262000240565b620000e86000805160206200221d833981519152336200028b565b620001036000805160206200221d833981519152306200028b565b60005b8251811015620001a157620001596000805160206200223d8339815191528483815181106200014557634e487b7160e01b600052603260045260246000fd5b60200260200101516200028b60201b60201c565b6200018e6000805160206200227d8339815191528483815181106200014557634e487b7160e01b600052603260045260246000fd5b620001998162000479565b905062000106565b5060005b8151811015620001f757620001e46000805160206200225d8339815191528383815181106200014557634e487b7160e01b600052603260045260246000fd5b620001ef8162000479565b9050620001a5565b5060028390556040805160008152602081018590527f11c24f4ead16507c69ac467fbd5e4eed5fb5c699626d2cc6d66421df253886d5910160405180910390a1505050620004b7565b600082815260208190526040808220600101805490849055905190918391839186917fbd79b86ffe0ab8e8776151514217cd7cacd52c909f66475c3af44e129f0b00ff9190a4505050565b6200029782826200029b565b5050565b6000828152602081815260408083206001600160a01b038516845290915290205460ff1662000297576000828152602081815260408083206001600160a01b03851684529091529020805460ff19166001179055620002f73390565b6001600160a01b0316816001600160a01b0316837f2f8788117e7eff1d82e926ec794901d17c78024a50270940304540a733656f0d60405160405180910390a45050565b80516001600160a01b03811681146200035357600080fd5b919050565b600082601f83011262000369578081fd5b815160206001600160401b0380831115620003885762000388620004a1565b8260051b604051601f19603f83011681018181108482111715620003b057620003b0620004a1565b60405284815283810192508684018288018501891015620003cf578687fd5b8692505b85831015620003fc57620003e7816200033b565b845292840192600192909201918401620003d3565b50979650505050505050565b6000806000606084860312156200041d578283fd5b835160208501519093506001600160401b03808211156200043c578384fd5b6200044a8783880162000358565b9350604086015191508082111562000460578283fd5b506200046f8682870162000358565b9150509250925092565b60006000198214156200049a57634e487b7160e01b81526011600452602481fd5b5060010190565b634e487b7160e01b600052604160045260246000fd5b611d5680620004c76000396000f3fe60806040526004361061017b5760003560e01c80638065657f116100cc578063bc197c811161007a578063bc197c81146104a5578063c4d252f5146104d1578063d45c4435146104f1578063d547741f1461051e578063e38335e51461053e578063f23a6e6114610551578063f27a0c921461057d57600080fd5b80638065657f146103ba5780638f2a0bb0146103da5780638f61f4f5146103fa57806391d148541461041c578063a217fddf1461043c578063b08e51c014610451578063b1c5f4271461048557600080fd5b8063248a9ca311610129578063248a9ca3146102b95780632ab0f529146102e95780632f2ff15d1461031a57806331d507501461033a57806336568abe1461035a578063584b153e1461037a57806364d623531461039a57600080fd5b806301d5062a1461018757806301ffc9a7146101a957806307bd0265146101de5780630d3cf6fc1461020e578063134008d31461024257806313bc9f2014610255578063150b7a021461027557600080fd5b3661018257005b600080fd5b34801561019357600080fd5b506101a76101a2366004611671565b610592565b005b3480156101b557600080fd5b506101c96101c4366004611877565b610615565b60405190151581526020015b60405180910390f35b3480156101ea57600080fd5b50610200600080516020611d0183398151915281565b6040519081526020016101d5565b34801561021a57600080fd5b506102007f5f58e3a2316349923ce3780f8d587db2d72378aed66a8261c916544fa6846ca581565b6101a7610250366004611608565b610640565b34801561026157600080fd5b506101c9610270366004611834565b6106a6565b34801561028157600080fd5b506102a0610290366004611541565b630a85bd0160e11b949350505050565b6040516001600160e01b031990911681526020016101d5565b3480156102c557600080fd5b506102006102d4366004611834565b60009081526020819052604090206001015490565b3480156102f557600080fd5b506101c9610304366004611834565b6000908152600160208190526040909120541490565b34801561032657600080fd5b506101a761033536600461184c565b6106cc565b34801561034657600080fd5b506101c9610355366004611834565b6106f6565b34801561036657600080fd5b506101a761037536600461184c565b61070f565b34801561038657600080fd5b506101c9610395366004611834565b610792565b3480156103a657600080fd5b506101a76103b5366004611834565b6107a8565b3480156103c657600080fd5b506102006103d5366004611608565b61084c565b3480156103e657600080fd5b506101a76103f5366004611787565b61088b565b34801561040657600080fd5b50610200600080516020611ce183398151915281565b34801561042857600080fd5b506101c961043736600461184c565b6109f5565b34801561044857600080fd5b50610200600081565b34801561045d57600080fd5b506102007ffd643c72710c63c0180259aba6b2d05451e3591a24e58b62239378085726f78381565b34801561049157600080fd5b506102006104a03660046116e3565b610a1e565b3480156104b157600080fd5b506102a06104c036600461149c565b63bc197c8160e01b95945050505050565b3480156104dd57600080fd5b506101a76104ec366004611834565b610a63565b3480156104fd57600080fd5b5061020061050c366004611834565b60009081526001602052604090205490565b34801561052a57600080fd5b506101a761053936600461184c565b610b38565b6101a761054c3660046116e3565b610b5d565b34801561055d57600080fd5b506102a061056c3660046115a6565b63f23a6e6160e01b95945050505050565b34801561058957600080fd5b50600254610200565b600080516020611ce18339815191526105aa81610caa565b60006105ba89898989898961084c565b90506105c68184610cb7565b6000817f4cf4410cc57040e44862ef0f45f3dd5a5e02db8eb8add648d4b0e236f1d07dca8b8b8b8b8b8a60405161060296959493929190611a05565b60405180910390a3505050505050505050565b60006001600160e01b03198216630271189760e51b148061063a575061063a82610da6565b92915050565b600080516020611d0183398151915261065a8160006109f5565b610668576106688133610ddb565b600061067888888888888861084c565b90506106848185610e3f565b6106938160008a8a8a8a610edb565b61069c81610fef565b5050505050505050565b6000818152600160205260408120546001811180156106c55750428111155b9392505050565b6000828152602081905260409020600101546106e781610caa565b6106f18383611028565b505050565b60008181526001602052604081205481905b1192915050565b6001600160a01b03811633146107845760405162461bcd60e51b815260206004820152602f60248201527f416363657373436f6e74726f6c3a2063616e206f6e6c792072656e6f756e636560448201526e103937b632b9903337b91039b2b63360891b60648201526084015b60405180910390fd5b61078e82826110ac565b5050565b6000818152600160208190526040822054610708565b33301461080b5760405162461bcd60e51b815260206004820152602b60248201527f54696d656c6f636b436f6e74726f6c6c65723a2063616c6c6572206d7573742060448201526a62652074696d656c6f636b60a81b606482015260840161077b565b60025460408051918252602082018390527f11c24f4ead16507c69ac467fbd5e4eed5fb5c699626d2cc6d66421df253886d5910160405180910390a1600255565b600086868686868660405160200161086996959493929190611a05565b6040516020818303038152906040528051906020012090509695505050505050565b600080516020611ce18339815191526108a381610caa565b8887146108c25760405162461bcd60e51b815260040161077b90611b1a565b8885146108e15760405162461bcd60e51b815260040161077b90611b1a565b60006108f38b8b8b8b8b8b8b8b610a1e565b90506108ff8184610cb7565b60005b8a8110156109e75780827f4cf4410cc57040e44862ef0f45f3dd5a5e02db8eb8add648d4b0e236f1d07dca8e8e8581811061094d57634e487b7160e01b600052603260045260246000fd5b90506020020160208101906109629190611482565b8d8d8681811061098257634e487b7160e01b600052603260045260246000fd5b905060200201358c8c878181106109a957634e487b7160e01b600052603260045260246000fd5b90506020028101906109bb9190611ba7565b8c8b6040516109cf96959493929190611a05565b60405180910390a36109e081611c99565b9050610902565b505050505050505050505050565b6000918252602082815260408084206001600160a01b0393909316845291905290205460ff1690565b60008888888888888888604051602001610a3f989796959493929190611a42565b60405160208183030381529060405280519060200120905098975050505050505050565b7ffd643c72710c63c0180259aba6b2d05451e3591a24e58b62239378085726f783610a8d81610caa565b610a9682610792565b610afc5760405162461bcd60e51b815260206004820152603160248201527f54696d656c6f636b436f6e74726f6c6c65723a206f7065726174696f6e2063616044820152701b9b9bdd0818994818d85b98d95b1b1959607a1b606482015260840161077b565b6000828152600160205260408082208290555183917fbaa1eb22f2a492ba1a5fea61b8df4d27c6c8b5f3971e63bb58fa14ff72eedb7091a25050565b600082815260208190526040902060010154610b5381610caa565b6106f183836110ac565b600080516020611d01833981519152610b778160006109f5565b610b8557610b858133610ddb565b878614610ba45760405162461bcd60e51b815260040161077b90611b1a565b878414610bc35760405162461bcd60e51b815260040161077b90611b1a565b6000610bd58a8a8a8a8a8a8a8a610a1e565b9050610be18185610e3f565b60005b89811015610c9457610c8482828d8d85818110610c1157634e487b7160e01b600052603260045260246000fd5b9050602002016020810190610c269190611482565b8c8c86818110610c4657634e487b7160e01b600052603260045260246000fd5b905060200201358b8b87818110610c6d57634e487b7160e01b600052603260045260246000fd5b9050602002810190610c7f9190611ba7565b610edb565b610c8d81611c99565b9050610be4565b50610c9e81610fef565b50505050505050505050565b610cb48133610ddb565b50565b610cc0826106f6565b15610d255760405162461bcd60e51b815260206004820152602f60248201527f54696d656c6f636b436f6e74726f6c6c65723a206f7065726174696f6e20616c60448201526e1c9958591e481cd8da19591d5b1959608a1b606482015260840161077b565b600254811015610d865760405162461bcd60e51b815260206004820152602660248201527f54696d656c6f636b436f6e74726f6c6c65723a20696e73756666696369656e746044820152652064656c617960d01b606482015260840161077b565b610d908142611c1b565b6000928352600160205260409092209190915550565b60006001600160e01b03198216637965db0b60e01b148061063a57506301ffc9a760e01b6001600160e01b031983161461063a565b610de582826109f5565b61078e57610dfd816001600160a01b03166014611111565b610e08836020611111565b604051602001610e19929190611964565b60408051601f198184030181529082905262461bcd60e51b825261077b91600401611ae7565b610e48826106a6565b610e645760405162461bcd60e51b815260040161077b90611b5d565b801580610e805750600081815260016020819052604090912054145b61078e5760405162461bcd60e51b815260206004820152602660248201527f54696d656c6f636b436f6e74726f6c6c65723a206d697373696e6720646570656044820152656e64656e637960d01b606482015260840161077b565b6000846001600160a01b0316848484604051610ef8929190611954565b60006040518083038185875af1925050503d8060008114610f35576040519150601f19603f3d011682016040523d82523d6000602084013e610f3a565b606091505b5050905080610fa75760405162461bcd60e51b815260206004820152603360248201527f54696d656c6f636b436f6e74726f6c6c65723a20756e6465726c79696e6720746044820152721c985b9cd858dd1a5bdb881c995d995c9d1959606a1b606482015260840161077b565b85877fc2617efa69bab66782fa219543714338489c4e9e178271560a91b82c3f612b5887878787604051610fde94939291906119d3565b60405180910390a350505050505050565b610ff8816106a6565b6110145760405162461bcd60e51b815260040161077b90611b5d565b600090815260016020819052604090912055565b61103282826109f5565b61078e576000828152602081815260408083206001600160a01b03851684529091529020805460ff191660011790556110683390565b6001600160a01b0316816001600160a01b0316837f2f8788117e7eff1d82e926ec794901d17c78024a50270940304540a733656f0d60405160405180910390a45050565b6110b682826109f5565b1561078e576000828152602081815260408083206001600160a01b0385168085529252808320805460ff1916905551339285917ff6391f5c32d9c69d2a47ea670b442974b53935d1edc7fd64eb21e047a839171b9190a45050565b60606000611120836002611c33565b61112b906002611c1b565b6001600160401b0381111561115057634e487b7160e01b600052604160045260246000fd5b6040519080825280601f01601f19166020018201604052801561117a576020820181803683370190505b509050600360fc1b816000815181106111a357634e487b7160e01b600052603260045260246000fd5b60200101906001600160f81b031916908160001a905350600f60fb1b816001815181106111e057634e487b7160e01b600052603260045260246000fd5b60200101906001600160f81b031916908160001a9053506000611204846002611c33565b61120f906001611c1b565b90505b60018111156112a3576f181899199a1a9b1b9c1cb0b131b232b360811b85600f166010811061125157634e487b7160e01b600052603260045260246000fd5b1a60f81b82828151811061127557634e487b7160e01b600052603260045260246000fd5b60200101906001600160f81b031916908160001a90535060049490941c9361129c81611c82565b9050611212565b5083156106c55760405162461bcd60e51b815260206004820181905260248201527f537472696e67733a20686578206c656e67746820696e73756666696369656e74604482015260640161077b565b80356001600160a01b038116811461130957600080fd5b919050565b60008083601f84011261131f578182fd5b5081356001600160401b03811115611335578182fd5b6020830191508360208260051b850101111561135057600080fd5b9250929050565b600082601f830112611367578081fd5b813560206001600160401b0382111561138257611382611cca565b8160051b611391828201611beb565b8381528281019086840183880185018910156113ab578687fd5b8693505b858410156113cd5780358352600193909301929184019184016113af565b50979650505050505050565b60008083601f8401126113ea578182fd5b5081356001600160401b03811115611400578182fd5b60208301915083602082850101111561135057600080fd5b600082601f830112611428578081fd5b81356001600160401b0381111561144157611441611cca565b611454601f8201601f1916602001611beb565b818152846020838601011115611468578283fd5b816020850160208301379081016020019190915292915050565b600060208284031215611493578081fd5b6106c5826112f2565b600080600080600060a086880312156114b3578081fd5b6114bc866112f2565b94506114ca602087016112f2565b935060408601356001600160401b03808211156114e5578283fd5b6114f189838a01611357565b94506060880135915080821115611506578283fd5b61151289838a01611357565b93506080880135915080821115611527578283fd5b5061153488828901611418565b9150509295509295909350565b60008060008060808587031215611556578384fd5b61155f856112f2565b935061156d602086016112f2565b92506040850135915060608501356001600160401b0381111561158e578182fd5b61159a87828801611418565b91505092959194509250565b600080600080600060a086880312156115bd578081fd5b6115c6866112f2565b94506115d4602087016112f2565b9350604086013592506060860135915060808601356001600160401b038111156115fc578182fd5b61153488828901611418565b60008060008060008060a08789031215611620578081fd5b611629876112f2565b95506020870135945060408701356001600160401b0381111561164a578182fd5b61165689828a016113d9565b979a9699509760608101359660809091013595509350505050565b600080600080600080600060c0888a03121561168b578081fd5b611694886112f2565b96506020880135955060408801356001600160401b038111156116b5578182fd5b6116c18a828b016113d9565b989b979a50986060810135976080820135975060a09091013595509350505050565b60008060008060008060008060a0898b0312156116fe578182fd5b88356001600160401b0380821115611714578384fd5b6117208c838d0161130e565b909a50985060208b0135915080821115611738578384fd5b6117448c838d0161130e565b909850965060408b013591508082111561175c578384fd5b506117698b828c0161130e565b999c989b509699959896976060870135966080013595509350505050565b600080600080600080600080600060c08a8c0312156117a4578283fd5b89356001600160401b03808211156117ba578485fd5b6117c68d838e0161130e565b909b50995060208c01359150808211156117de578485fd5b6117ea8d838e0161130e565b909950975060408c0135915080821115611802578485fd5b5061180f8c828d0161130e565b9a9d999c50979a969997986060880135976080810135975060a0013595509350505050565b600060208284031215611845578081fd5b5035919050565b6000806040838503121561185e578182fd5b8235915061186e602084016112f2565b90509250929050565b600060208284031215611888578081fd5b81356001600160e01b0319811681146106c5578182fd5b81835260006020808501808196508560051b8101915084845b8781101561191e5782840389528135601e198836030181126118d8578687fd5b870180356001600160401b038111156118ef578788fd5b8036038913156118fd578788fd5b61190a868289850161192b565b9a87019a95505050908401906001016118b8565b5091979650505050505050565b81835281816020850137506000828201602090810191909152601f909101601f19169091010190565b8183823760009101908152919050565b76020b1b1b2b9b9a1b7b73a3937b61d1030b1b1b7bab73a1604d1b815260008351611996816017850160208801611c52565b7001034b99036b4b9b9b4b733903937b6329607d1b60179184019182015283516119c7816028840160208801611c52565b01602801949350505050565b60018060a01b03851681528360208201526060604082015260006119fb60608301848661192b565b9695505050505050565b60018060a01b038716815285602082015260a060408201526000611a2d60a08301868861192b565b60608301949094525060800152949350505050565b60a0808252810188905260008960c08301825b8b811015611a83576001600160a01b03611a6e846112f2565b16825260209283019290910190600101611a55565b5083810360208501528881526001600160fb1b03891115611aa2578283fd5b8860051b9150818a60208301370160208181018381528483039091016040850152611ace81888a61189f565b6060850196909652505050608001529695505050505050565b6020815260008251806020840152611b06816040850160208701611c52565b601f01601f19169190910160400192915050565b60208082526023908201527f54696d656c6f636b436f6e74726f6c6c65723a206c656e677468206d69736d616040820152620e8c6d60eb1b606082015260800190565b6020808252602a908201527f54696d656c6f636b436f6e74726f6c6c65723a206f7065726174696f6e206973604082015269206e6f7420726561647960b01b606082015260800190565b6000808335601e19843603018112611bbd578283fd5b8301803591506001600160401b03821115611bd6578283fd5b60200191503681900382131561135057600080fd5b604051601f8201601f191681016001600160401b0381118282101715611c1357611c13611cca565b604052919050565b60008219821115611c2e57611c2e611cb4565b500190565b6000816000190483118215151615611c4d57611c4d611cb4565b500290565b60005b83811015611c6d578181015183820152602001611c55565b83811115611c7c576000848401525b50505050565b600081611c9157611c91611cb4565b506000190190565b6000600019821415611cad57611cad611cb4565b5060010190565b634e487b7160e01b600052601160045260246000fd5b634e487b7160e01b600052604160045260246000fdfeb09aa5aeb3702cfd50b6b62bc4532604938f21248a27a1d5ca736082b6819cc1d8aa0f3194971a2a116679f7c2090f6939c8d4e01a2a8d7e41d55e5351469e63a2646970667358221220b91b13db5b553af3744d570447ba301b22303d15ba515bd83e5718dc3863174b64736f6c634300080400335f58e3a2316349923ce3780f8d587db2d72378aed66a8261c916544fa6846ca5b09aa5aeb3702cfd50b6b62bc4532604938f21248a27a1d5ca736082b6819cc1d8aa0f3194971a2a116679f7c2090f6939c8d4e01a2a8d7e41d55e5351469e63fd643c72710c63c0180259aba6b2d05451e3591a24e58b62239378085726f783",
  "linkReferences": {},
  "deployedLinkReferences": {}
}