{
  "_format": "hh-sol-artifact-1",
  "contractName": "GovernorContract",
  "sourceName": "contracts/dao/governance_standard/GovernorContract.sol",
  "abi": [
    {
      "inputs": [
        {
          "internalType": "contract IVotes",
          "name": "_token",
          "type": "address"
        },
        {
          "internalType": "contract TimelockController",
          "name": "_timelock",
          "type": "address"
        },
        {
          "internalType": "uint256",
          "name": "_votingDelay",
          "type": "uint256"
        },
        {
          "internalType": "uint256",
          "name": "_votingPeriod",
          "type": "uint256"
        },
        {
          "internalType": "uint256",
          "name": "_quorumPercentage",
          "type": "uint256"
        }
      ],
      "stateMutability": "nonpayable",
      "type": "constructor"
    },
    {
      "inputs": [],
      "name": "Empty",
      "type": "error"
    },
    {
      "anonymous": false,
      "inputs": [
        {
          "indexed": false,
          "internalType": "uint256",
          "name": "proposalId",
          "type": "uint256"
        }
      ],
      "name": "ProposalCanceled",
      "type": "event"
    },
    {
      "anonymous": false,
      "inputs": [
        {
          "indexed": false,
          "internalType": "uint256",
          "name": "proposalId",
          "type": "uint256"
        },
        {
          "indexed": false,
          "internalType": "address",
          "name": "proposer",
          "type": "address"
        },
        {
          "indexed": false,
          "internalType": "address[]",
          "name": "targets",
          "type": "address[]"
        },
        {
          "indexed": false,
          "internalType": "uint256[]",
          "name": "values",
          "type": "uint256[]"
        },
        {
          "indexed": false,
          "internalType": "string[]",
          "name": "signatures",
          "type": "string[]"
        },
        {
          "indexed": false,
          "internalType": "bytes[]",
          "name": "calldatas",
          "type": "bytes[]"
        },
        {
          "indexed": false,
          "internalType": "uint256",
          "name": "startBlock",
          "type": "uint256"
        },
        {
          "indexed": false,
          "internalType": "uint256",
          "name": "endBlock",
          "type": "uint256"
        },
        {
          "indexed": false,
          "internalType": "string",
          "name": "description",
          "type": "string"
        }
      ],
      "name": "ProposalCreated",
      "type": "event"
    },
    {
      "anonymous": false,
      "inputs": [
        {
          "indexed": false,
          "internalType": "uint256",
          "name": "proposalId",
          "type": "uint256"
        }
      ],
      "name": "ProposalExecuted",
      "type": "event"
    },
    {
      "anonymous": false,
      "inputs": [
        {
          "indexed": false,
          "internalType": "uint256",
          "name": "proposalId",
          "type": "uint256"
        },
        {
          "indexed": false,
          "internalType": "uint256",
          "name": "eta",
          "type": "uint256"
        }
      ],
      "name": "ProposalQueued",
      "type": "event"
    },
    {
      "anonymous": false,
      "inputs": [
        {
          "indexed": false,
          "internalType": "uint256",
          "name": "oldProposalThreshold",
          "type": "uint256"
        },
        {
          "indexed": false,
          "internalType": "uint256",
          "name": "newProposalThreshold",
          "type": "uint256"
        }
      ],
      "name": "ProposalThresholdSet",
      "type": "event"
    },
    {
      "anonymous": false,
      "inputs": [
        {
          "indexed": false,
          "internalType": "uint256",
          "name": "oldQuorumNumerator",
          "type": "uint256"
        },
        {
          "indexed": false,
          "internalType": "uint256",
          "name": "newQuorumNumerator",
          "type": "uint256"
        }
      ],
      "name": "QuorumNumeratorUpdated",
      "type": "event"
    },
    {
      "anonymous": false,
      "inputs": [
        {
          "indexed": false,
          "internalType": "address",
          "name": "oldTimelock",
          "type": "address"
        },
        {
          "indexed": false,
          "internalType": "address",
          "name": "newTimelock",
          "type": "address"
        }
      ],
      "name": "TimelockChange",
      "type": "event"
    },
    {
      "anonymous": false,
      "inputs": [
        {
          "indexed": true,
          "internalType": "address",
          "name": "voter",
          "type": "address"
        },
        {
          "indexed": false,
          "internalType": "uint256",
          "name": "proposalId",
          "type": "uint256"
        },
        {
          "indexed": false,
          "internalType": "uint8",
          "name": "support",
          "type": "uint8"
        },
        {
          "indexed": false,
          "internalType": "uint256",
          "name": "weight",
          "type": "uint256"
        },
        {
          "indexed": false,
          "internalType": "string",
          "name": "reason",
          "type": "string"
        }
      ],
      "name": "VoteCast",
      "type": "event"
    },
    {
      "anonymous": false,
      "inputs": [
        {
          "indexed": true,
          "internalType": "address",
          "name": "voter",
          "type": "address"
        },
        {
          "indexed": false,
          "internalType": "uint256",
          "name": "proposalId",
          "type": "uint256"
        },
        {
          "indexed": false,
          "internalType": "uint8",
          "name": "support",
          "type": "uint8"
        },
        {
          "indexed": false,
          "internalType": "uint256",
          "name": "weight",
          "type": "uint256"
        },
        {
          "indexed": false,
          "internalType": "string",
          "name": "reason",
          "type": "string"
        },
        {
          "indexed": false,
          "internalType": "bytes",
          "name": "params",
          "type": "bytes"
        }
      ],
      "name": "VoteCastWithParams",
      "type": "event"
    },
    {
      "anonymous": false,
      "inputs": [
        {
          "indexed": false,
          "internalType": "uint256",
          "name": "oldVotingDelay",
          "type": "uint256"
        },
        {
          "indexed": false,
          "internalType": "uint256",
          "name": "newVotingDelay",
          "type": "uint256"
        }
      ],
      "name": "VotingDelaySet",
      "type": "event"
    },
    {
      "anonymous": false,
      "inputs": [
        {
          "indexed": false,
          "internalType": "uint256",
          "name": "oldVotingPeriod",
          "type": "uint256"
        },
        {
          "indexed": false,
          "internalType": "uint256",
          "name": "newVotingPeriod",
          "type": "uint256"
        }
      ],
      "name": "VotingPeriodSet",
      "type": "event"
    },
    {
      "inputs": [],
      "name": "BALLOT_TYPEHASH",
      "outputs": [
        {
          "internalType": "bytes32",
          "name": "",
          "type": "bytes32"
        }
      ],
      "stateMutability": "view",
      "type": "function"
    },
    {
      "inputs": [],
      "name": "COUNTING_MODE",
      "outputs": [
        {
          "internalType": "string",
          "name": "",
          "type": "string"
        }
      ],
      "stateMutability": "pure",
      "type": "function"
    },
    {
      "inputs": [],
      "name": "EXTENDED_BALLOT_TYPEHASH",
      "outputs": [
        {
          "internalType": "bytes32",
          "name": "",
          "type": "bytes32"
        }
      ],
      "stateMutability": "view",
      "type": "function"
    },
    {
      "inputs": [
        {
          "internalType": "uint256",
          "name": "proposalId",
          "type": "uint256"
        },
        {
          "internalType": "uint8",
          "name": "support",
          "type": "uint8"
        }
      ],
      "name": "castVote",
      "outputs": [
        {
          "internalType": "uint256",
          "name": "",
          "type": "uint256"
        }
      ],
      "stateMutability": "nonpayable",
      "type": "function"
    },
    {
      "inputs": [
        {
          "internalType": "uint256",
          "name": "proposalId",
          "type": "uint256"
        },
        {
          "internalType": "uint8",
          "name": "support",
          "type": "uint8"
        },
        {
          "internalType": "uint8",
          "name": "v",
          "type": "uint8"
        },
        {
          "internalType": "bytes32",
          "name": "r",
          "type": "bytes32"
        },
        {
          "internalType": "bytes32",
          "name": "s",
          "type": "bytes32"
        }
      ],
      "name": "castVoteBySig",
      "outputs": [
        {
          "internalType": "uint256",
          "name": "",
          "type": "uint256"
        }
      ],
      "stateMutability": "nonpayable",
      "type": "function"
    },
    {
      "inputs": [
        {
          "internalType": "uint256",
          "name": "proposalId",
          "type": "uint256"
        },
        {
          "internalType": "uint8",
          "name": "support",
          "type": "uint8"
        },
        {
          "internalType": "string",
          "name": "reason",
          "type": "string"
        }
      ],
      "name": "castVoteWithReason",
      "outputs": [
        {
          "internalType": "uint256",
          "name": "",
          "type": "uint256"
        }
      ],
      "stateMutability": "nonpayable",
      "type": "function"
    },
    {
      "inputs": [
        {
          "internalType": "uint256",
          "name": "proposalId",
          "type": "uint256"
        },
        {
          "internalType": "uint8",
          "name": "support",
          "type": "uint8"
        },
        {
          "internalType": "string",
          "name": "reason",
          "type": "string"
        },
        {
          "internalType": "bytes",
          "name": "params",
          "type": "bytes"
        }
      ],
      "name": "castVoteWithReasonAndParams",
      "outputs": [
        {
          "internalType": "uint256",
          "name": "",
          "type": "uint256"
        }
      ],
      "stateMutability": "nonpayable",
      "type": "function"
    },
    {
      "inputs": [
        {
          "internalType": "uint256",
          "name": "proposalId",
          "type": "uint256"
        },
        {
          "internalType": "uint8",
          "name": "support",
          "type": "uint8"
        },
        {
          "internalType": "string",
          "name": "reason",
          "type": "string"
        },
        {
          "internalType": "bytes",
          "name": "params",
          "type": "bytes"
        },
        {
          "internalType": "uint8",
          "name": "v",
          "type": "uint8"
        },
        {
          "internalType": "bytes32",
          "name": "r",
          "type": "bytes32"
        },
        {
          "internalType": "bytes32",
          "name": "s",
          "type": "bytes32"
        }
      ],
      "name": "castVoteWithReasonAndParamsBySig",
      "outputs": [
        {
          "internalType": "uint256",
          "name": "",
          "type": "uint256"
        }
      ],
      "stateMutability": "nonpayable",
      "type": "function"
    },
    {
      "inputs": [
        {
          "internalType": "address[]",
          "name": "targets",
          "type": "address[]"
        },
        {
          "internalType": "uint256[]",
          "name": "values",
          "type": "uint256[]"
        },
        {
          "internalType": "bytes[]",
          "name": "calldatas",
          "type": "bytes[]"
        },
        {
          "internalType": "bytes32",
          "name": "descriptionHash",
          "type": "bytes32"
        }
      ],
      "name": "execute",
      "outputs": [
        {
          "internalType": "uint256",
          "name": "",
          "type": "uint256"
        }
      ],
      "stateMutability": "payable",
      "type": "function"
    },
    {
      "inputs": [
        {
          "internalType": "address",
          "name": "account",
          "type": "address"
        },
        {
          "internalType": "uint256",
          "name": "blockNumber",
          "type": "uint256"
        }
      ],
      "name": "getVotes",
      "outputs": [
        {
          "internalType": "uint256",
          "name": "",
          "type": "uint256"
        }
      ],
      "stateMutability": "view",
      "type": "function"
    },
    {
      "inputs": [
        {
          "internalType": "address",
          "name": "account",
          "type": "address"
        },
        {
          "internalType": "uint256",
          "name": "blockNumber",
          "type": "uint256"
        },
        {
          "internalType": "bytes",
          "name": "params",
          "type": "bytes"
        }
      ],
      "name": "getVotesWithParams",
      "outputs": [
        {
          "internalType": "uint256",
          "name": "",
          "type": "uint256"
        }
      ],
      "stateMutability": "view",
      "type": "function"
    },
    {
      "inputs": [
        {
          "internalType": "uint256",
          "name": "proposalId",
          "type": "uint256"
        },
        {
          "internalType": "address",
          "name": "account",
          "type": "address"
        }
      ],
      "name": "hasVoted",
      "outputs": [
        {
          "internalType": "bool",
          "name": "",
          "type": "bool"
        }
      ],
      "stateMutability": "view",
      "type": "function"
    },
    {
      "inputs": [
        {
          "internalType": "address[]",
          "name": "targets",
          "type": "address[]"
        },
        {
          "internalType": "uint256[]",
          "name": "values",
          "type": "uint256[]"
        },
        {
          "internalType": "bytes[]",
          "name": "calldatas",
          "type": "bytes[]"
        },
        {
          "internalType": "bytes32",
          "name": "descriptionHash",
          "type": "bytes32"
        }
      ],
      "name": "hashProposal",
      "outputs": [
        {
          "internalType": "uint256",
          "name": "",
          "type": "uint256"
        }
      ],
      "stateMutability": "pure",
      "type": "function"
    },
    {
      "inputs": [],
      "name": "name",
      "outputs": [
        {
          "internalType": "string",
          "name": "",
          "type": "string"
        }
      ],
      "stateMutability": "view",
      "type": "function"
    },
    {
      "inputs": [
        {
          "internalType": "address",
          "name": "",
          "type": "address"
        },
        {
          "internalType": "address",
          "name": "",
          "type": "address"
        },
        {
          "internalType": "uint256[]",
          "name": "",
          "type": "uint256[]"
        },
        {
          "internalType": "uint256[]",
          "name": "",
          "type": "uint256[]"
        },
        {
          "internalType": "bytes",
          "name": "",
          "type": "bytes"
        }
      ],
      "name": "onERC1155BatchReceived",
      "outputs": [
        {
          "internalType": "bytes4",
          "name": "",
          "type": "bytes4"
        }
      ],
      "stateMutability": "nonpayable",
      "type": "function"
    },
    {
      "inputs": [
        {
          "internalType": "address",
          "name": "",
          "type": "address"
        },
        {
          "internalType": "address",
          "name": "",
          "type": "address"
        },
        {
          "internalType": "uint256",
          "name": "",
          "type": "uint256"
        },
        {
          "internalType": "uint256",
          "name": "",
          "type": "uint256"
        },
        {
          "internalType": "bytes",
          "name": "",
          "type": "bytes"
        }
      ],
      "name": "onERC1155Received",
      "outputs": [
        {
          "internalType": "bytes4",
          "name": "",
          "type": "bytes4"
        }
      ],
      "stateMutability": "nonpayable",
      "type": "function"
    },
    {
      "inputs": [
        {
          "internalType": "address",
          "name": "",
          "type": "address"
        },
        {
          "internalType": "address",
          "name": "",
          "type": "address"
        },
        {
          "internalType": "uint256",
          "name": "",
          "type": "uint256"
        },
        {
          "internalType": "bytes",
          "name": "",
          "type": "bytes"
        }
      ],
      "name": "onERC721Received",
      "outputs": [
        {
          "internalType": "bytes4",
          "name": "",
          "type": "bytes4"
        }
      ],
      "stateMutability": "nonpayable",
      "type": "function"
    },
    {
      "inputs": [
        {
          "internalType": "uint256",
          "name": "proposalId",
          "type": "uint256"
        }
      ],
      "name": "proposalDeadline",
      "outputs": [
        {
          "internalType": "uint256",
          "name": "",
          "type": "uint256"
        }
      ],
      "stateMutability": "view",
      "type": "function"
    },
    {
      "inputs": [
        {
          "internalType": "uint256",
          "name": "proposalId",
          "type": "uint256"
        }
      ],
      "name": "proposalEta",
      "outputs": [
        {
          "internalType": "uint256",
          "name": "",
          "type": "uint256"
        }
      ],
      "stateMutability": "view",
      "type": "function"
    },
    {
      "inputs": [
        {
          "internalType": "uint256",
          "name": "proposalId",
          "type": "uint256"
        }
      ],
      "name": "proposalSnapshot",
      "outputs": [
        {
          "internalType": "uint256",
          "name": "",
          "type": "uint256"
        }
      ],
      "stateMutability": "view",
      "type": "function"
    },
    {
      "inputs": [],
      "name": "proposalThreshold",
      "outputs": [
        {
          "internalType": "uint256",
          "name": "",
          "type": "uint256"
        }
      ],
      "stateMutability": "view",
      "type": "function"
    },
    {
      "inputs": [
        {
          "internalType": "uint256",
          "name": "proposalId",
          "type": "uint256"
        }
      ],
      "name": "proposalVotes",
      "outputs": [
        {
          "internalType": "uint256",
          "name": "againstVotes",
          "type": "uint256"
        },
        {
          "internalType": "uint256",
          "name": "forVotes",
          "type": "uint256"
        },
        {
          "internalType": "uint256",
          "name": "abstainVotes",
          "type": "uint256"
        }
      ],
      "stateMutability": "view",
      "type": "function"
    },
    {
      "inputs": [
        {
          "internalType": "address[]",
          "name": "targets",
          "type": "address[]"
        },
        {
          "internalType": "uint256[]",
          "name": "values",
          "type": "uint256[]"
        },
        {
          "internalType": "bytes[]",
          "name": "calldatas",
          "type": "bytes[]"
        },
        {
          "internalType": "string",
          "name": "description",
          "type": "string"
        }
      ],
      "name": "propose",
      "outputs": [
        {
          "internalType": "uint256",
          "name": "",
          "type": "uint256"
        }
      ],
      "stateMutability": "nonpayable",
      "type": "function"
    },
    {
      "inputs": [
        {
          "internalType": "address[]",
          "name": "targets",
          "type": "address[]"
        },
        {
          "internalType": "uint256[]",
          "name": "values",
          "type": "uint256[]"
        },
        {
          "internalType": "bytes[]",
          "name": "calldatas",
          "type": "bytes[]"
        },
        {
          "internalType": "bytes32",
          "name": "descriptionHash",
          "type": "bytes32"
        }
      ],
      "name": "queue",
      "outputs": [
        {
          "internalType": "uint256",
          "name": "",
          "type": "uint256"
        }
      ],
      "stateMutability": "nonpayable",
      "type": "function"
    },
    {
      "inputs": [
        {
          "internalType": "uint256",
          "name": "blockNumber",
          "type": "uint256"
        }
      ],
      "name": "quorum",
      "outputs": [
        {
          "internalType": "uint256",
          "name": "",
          "type": "uint256"
        }
      ],
      "stateMutability": "view",
      "type": "function"
    },
    {
      "inputs": [],
      "name": "quorumDenominator",
      "outputs": [
        {
          "internalType": "uint256",
          "name": "",
          "type": "uint256"
        }
      ],
      "stateMutability": "view",
      "type": "function"
    },
    {
      "inputs": [],
      "name": "quorumNumerator",
      "outputs": [
        {
          "internalType": "uint256",
          "name": "",
          "type": "uint256"
        }
      ],
      "stateMutability": "view",
      "type": "function"
    },
    {
      "inputs": [
        {
          "internalType": "address",
          "name": "target",
          "type": "address"
        },
        {
          "internalType": "uint256",
          "name": "value",
          "type": "uint256"
        },
        {
          "internalType": "bytes",
          "name": "data",
          "type": "bytes"
        }
      ],
      "name": "relay",
      "outputs": [],
      "stateMutability": "nonpayable",
      "type": "function"
    },
    {
      "inputs": [
        {
          "internalType": "uint256",
          "name": "newProposalThreshold",
          "type": "uint256"
        }
      ],
      "name": "setProposalThreshold",
      "outputs": [],
      "stateMutability": "nonpayable",
      "type": "function"
    },
    {
      "inputs": [
        {
          "internalType": "uint256",
          "name": "newVotingDelay",
          "type": "uint256"
        }
      ],
      "name": "setVotingDelay",
      "outputs": [],
      "stateMutability": "nonpayable",
      "type": "function"
    },
    {
      "inputs": [
        {
          "internalType": "uint256",
          "name": "newVotingPeriod",
          "type": "uint256"
        }
      ],
      "name": "setVotingPeriod",
      "outputs": [],
      "stateMutability": "nonpayable",
      "type": "function"
    },
    {
      "inputs": [
        {
          "internalType": "uint256",
          "name": "proposalId",
          "type": "uint256"
        }
      ],
      "name": "state",
      "outputs": [
        {
          "internalType": "enum IGovernor.ProposalState",
          "name": "",
          "type": "uint8"
        }
      ],
      "stateMutability": "view",
      "type": "function"
    },
    {
      "inputs": [
        {
          "internalType": "bytes4",
          "name": "interfaceId",
          "type": "bytes4"
        }
      ],
      "name": "supportsInterface",
      "outputs": [
        {
          "internalType": "bool",
          "name": "",
          "type": "bool"
        }
      ],
      "stateMutability": "view",
      "type": "function"
    },
    {
      "inputs": [],
      "name": "timelock",
      "outputs": [
        {
          "internalType": "address",
          "name": "",
          "type": "address"
        }
      ],
      "stateMutability": "view",
      "type": "function"
    },
    {
      "inputs": [],
      "name": "token",
      "outputs": [
        {
          "internalType": "contract IVotes",
          "name": "",
          "type": "address"
        }
      ],
      "stateMutability": "view",
      "type": "function"
    },
    {
      "inputs": [
        {
          "internalType": "uint256",
          "name": "newQuorumNumerator",
          "type": "uint256"
        }
      ],
      "name": "updateQuorumNumerator",
      "outputs": [],
      "stateMutability": "nonpayable",
      "type": "function"
    },
    {
      "inputs": [
        {
          "internalType": "contract TimelockController",
          "name": "newTimelock",
          "type": "address"
        }
      ],
      "name": "updateTimelock",
      "outputs": [],
      "stateMutability": "nonpayable",
      "type": "function"
    },
    {
      "inputs": [],
      "name": "version",
      "outputs": [
        {
          "internalType": "string",
          "name": "",
          "type": "string"
        }
      ],
      "stateMutability": "view",
      "type": "function"
    },
    {
      "inputs": [],
      "name": "votingDelay",
      "outputs": [
        {
          "internalType": "uint256",
          "name": "",
          "type": "uint256"
        }
      ],
      "stateMutability": "view",
      "type": "function"
    },
    {
      "inputs": [],
      "name": "votingPeriod",
      "outputs": [
        {
          "internalType": "uint256",
          "name": "",
          "type": "uint256"
        }
      ],
      "stateMutability": "view",
      "type": "function"
    },
    {
      "stateMutability": "payable",
      "type": "receive"
    }
  ],
  "bytecode": "0x6101606040523480156200001257600080fd5b5060405162003dbf38038062003dbf833981016040819052620000359162000497565b838186858560006040518060400160405280601081526020016f11dbdd995c9b9bdc90dbdb9d1c9858dd60821b81525080620000766200017a60201b60201c565b815160208084019190912082518383012060e08290526101008190524660a0818152604080517f8b73c3c69bb8fe3d512ecc4cf759cc79239f7b179b0ffacaa9a75d522b39400f81880181905281830187905260608201869052608082019490945230818401528151808203909301835260c00190528051940193909320919290916080523060601b60c05261012052505082516200011f9250600091506020840190620003f1565b506200012d90508362000195565b6200013882620001d6565b62000143816200027d565b50505060601b6001600160601b031916610140526200016281620002be565b506200016e8162000388565b50505050505062000544565b6040805180820190915260018152603160f81b602082015290565b60045460408051918252602082018390527fc565b045403dc03c2eea82b81a0465edad9e2e7fc4d97e11421c209da93d7a93910160405180910390a1600455565b600081116200023c5760405162461bcd60e51b815260206004820152602760248201527f476f7665726e6f7253657474696e67733a20766f74696e6720706572696f6420604482015266746f6f206c6f7760c81b60648201526084015b60405180910390fd5b60055460408051918252602082018390527f7e3f7f0708a84de9203036abaa450dccc85ad5ff52f78c170f3edb55cf5e8828910160405180910390a1600555565b60065460408051918252602082018390527fccb45da8d5717e6c4544694297c4ba5cf151d455c9bb0ed4fc7a38411bc05461910160405180910390a1600655565b6064811115620003435760405162461bcd60e51b815260206004820152604360248201527f476f7665726e6f72566f74657351756f72756d4672616374696f6e3a2071756f60448201527f72756d4e756d657261746f72206f7665722071756f72756d44656e6f6d696e616064820152623a37b960e91b608482015260a40162000233565b600880549082905560408051828152602081018490527f0553476bf02ef2726e8ce5ced78d63e26e602e4a2257b1f559418e24b4633997910160405180910390a15050565b600954604080516001600160a01b03928316815291831660208301527f08f74ea46ef7894f65eabfb5e6e695de773a000b47c529ab559178069b226401910160405180910390a1600980546001600160a01b0319166001600160a01b0392909216919091179055565b828054620003ff90620004ee565b90600052602060002090601f0160209004810192826200042357600085556200046e565b82601f106200043e57805160ff19168380011785556200046e565b828001600101855582156200046e579182015b828111156200046e57825182559160200191906001019062000451565b506200047c92915062000480565b5090565b5b808211156200047c576000815560010162000481565b600080600080600060a08688031215620004af578081fd5b8551620004bc816200052b565b6020870151909550620004cf816200052b565b6040870151606088015160809098015196999198509695945092505050565b600181811c908216806200050357607f821691505b602082108114156200052557634e487b7160e01b600052602260045260246000fd5b50919050565b6001600160a01b03811681146200054157600080fd5b50565b60805160a05160c05160601c60e05161010051610120516101405160601c61380c620005b36000396000818161084b01528181611cf60152611f000152600061208b015260006120da015260006120b50152600061200e0152600061203801526000612062015261380c6000f3fe60806040526004361061023f5760003560e01c80637d5e81e21161012e578063c59057e4116100ab578063eb9019d41161006f578063eb9019d4146107ad578063ece40cc1146107cd578063f23a6e61146107ed578063f8ce560a14610819578063fc0c546a1461083957600080fd5b8063c59057e4146106c1578063d33219b4146106e1578063dd4e2ba514610713578063deaaa7cc14610759578063ea0217cf1461078d57600080fd5b8063ab58fb8e116100f2578063ab58fb8e14610620578063b58131b014610640578063bc197c8114610655578063c01f9e3714610681578063c28bc2fa146106a157600080fd5b80637d5e81e21461059757806397c3d334146105b75780639a802a6d146105cb578063a7713a70146105eb578063a890c9101461060057600080fd5b80633932abb1116101bc57806354fd4d501161018057806354fd4d50146104ed57806356781388146105175780635f398a141461053757806370b0f660146105575780637b3c71d31461057757600080fd5b80633932abb1146103ec5780633bccf4fd146104015780633e4f49e614610421578063438596321461044e578063544ffc9c1461049857600080fd5b8063150b7a0211610203578063150b7a0214610321578063160cbed7146103655780632656227d146103855780632d63f693146103985780632fe3e261146103b857600080fd5b806301ffc9a71461026757806302a251a31461029c57806303420181146102bf57806306f3f9e6146102df57806306fdde03146102ff57600080fd5b36610262573061024d61086d565b6001600160a01b03161461026057600080fd5b005b600080fd5b34801561027357600080fd5b50610287610282366004612f55565b610886565b60405190151581526020015b60405180910390f35b3480156102a857600080fd5b506102b1610897565b604051908152602001610293565b3480156102cb57600080fd5b506102b16102da3660046130b0565b6108a2565b3480156102eb57600080fd5b506102606102fa366004612f99565b61099a565b34801561030b57600080fd5b50610314610a32565b60405161029391906133d7565b34801561032d57600080fd5b5061034c61033c366004612c3b565b630a85bd0160e11b949350505050565b6040516001600160e01b03199091168152602001610293565b34801561037157600080fd5b506102b1610380366004612de4565b610ac4565b6102b1610393366004612de4565b610cf0565b3480156103a457600080fd5b506102b16103b3366004612f99565b610df9565b3480156103c457600080fd5b506102b17fb3b3f3b703cd84ce352197dcff232b1b5d3cfb2025ce47cf04742d0651f1af8881565b3480156103f857600080fd5b506102b1610e30565b34801561040d57600080fd5b506102b161041c366004613153565b610e3b565b34801561042d57600080fd5b5061044161043c366004612f99565b610eb1565b60405161029391906133af565b34801561045a57600080fd5b50610287610469366004612fb1565b60008281526007602090815260408083206001600160a01b038516845260030190915290205460ff1692915050565b3480156104a457600080fd5b506104d26104b3366004612f99565b6000908152600760205260409020805460018201546002909201549092565b60408051938452602084019290925290820152606001610293565b3480156104f957600080fd5b506040805180820190915260018152603160f81b6020820152610314565b34801561052357600080fd5b506102b1610532366004612fe0565b610ebc565b34801561054357600080fd5b506102b161055236600461304a565b610ee5565b34801561056357600080fd5b50610260610572366004612f99565b610f2f565b34801561058357600080fd5b506102b161059236600461300b565b610fbb565b3480156105a357600080fd5b506102b16105b2366004612e6f565b61100d565b3480156105c357600080fd5b5060646102b1565b3480156105d757600080fd5b506102b16105e6366004612d8e565b611024565b3480156105f757600080fd5b506008546102b1565b34801561060c57600080fd5b5061026061061b366004612f7d565b61103b565b34801561062c57600080fd5b506102b161063b366004612f99565b6110c7565b34801561064c57600080fd5b506102b1611170565b34801561066157600080fd5b5061034c610670366004612b92565b63bc197c8160e01b95945050505050565b34801561068d57600080fd5b506102b161069c366004612f99565b61117b565b3480156106ad57600080fd5b506102606106bc366004612d35565b6111aa565b3480156106cd57600080fd5b506102b16106dc366004612de4565b611276565b3480156106ed57600080fd5b506009546001600160a01b03165b6040516001600160a01b039091168152602001610293565b34801561071f57600080fd5b506040805180820190915260208082527f737570706f72743d627261766f2671756f72756d3d666f722c6162737461696e90820152610314565b34801561076557600080fd5b506102b17f150214d74d59b7d1e90c73fc22ef3d991dd0a76b046543d4d80ab92d2a50328f81565b34801561079957600080fd5b506102606107a8366004612f99565b6112b0565b3480156107b957600080fd5b506102b16107c8366004612d0a565b61133c565b3480156107d957600080fd5b506102606107e8366004612f99565b61135d565b3480156107f957600080fd5b5061034c610808366004612ca4565b63f23a6e6160e01b95945050505050565b34801561082557600080fd5b506102b1610834366004612f99565b6113e9565b34801561084557600080fd5b506106fb7f000000000000000000000000000000000000000000000000000000000000000081565b60006108816009546001600160a01b031690565b905090565b6000610891826113f4565b92915050565b600061088160055490565b60008061094661093e7fb3b3f3b703cd84ce352197dcff232b1b5d3cfb2025ce47cf04742d0651f1af888c8c8c8c6040516108de929190613292565b60405180910390208b80519060200120604051602001610923959493929190948552602085019390935260ff9190911660408401526060830152608082015260a00190565b60405160208183030381529060405280519060200120611419565b868686611467565b905061098c8a828b8b8b8080601f0160208091040260200160405190810160405280939291908181526020018383808284376000920191909152508d9250611485915050565b9a9950505050505050505050565b6109a261086d565b6001600160a01b0316336001600160a01b0316146109db5760405162461bcd60e51b81526004016109d2906133ea565b60405180910390fd5b306109e461086d565b6001600160a01b031614610a265760008036604051610a04929190613292565b604051809103902090505b80610a1a60026115f5565b14610a2457610a0f565b505b610a2f81611678565b50565b606060008054610a4190613716565b80601f0160208091040260200160405190810160405280929190818152602001828054610a6d90613716565b8015610aba5780601f10610a8f57610100808354040283529160200191610aba565b820191906000526020600020905b815481529060010190602001808311610a9d57829003601f168201915b5050505050905090565b600080610ad386868686611276565b90506004610ae082610eb1565b6007811115610aff57634e487b7160e01b600052602160045260246000fd5b14610b1c5760405162461bcd60e51b81526004016109d29061345d565b6009546040805163793d064960e11b815290516000926001600160a01b03169163f27a0c92916004808301926020929190829003018186803b158015610b6157600080fd5b505afa158015610b75573d6000803e3d6000fd5b505050506040513d601f19601f82011682018060405250810190610b999190612f3d565b60095460405163b1c5f42760e01b81529192506001600160a01b03169063b1c5f42790610bd3908a908a908a906000908b90600401613309565b60206040518083038186803b158015610beb57600080fd5b505afa158015610bff573d6000803e3d6000fd5b505050506040513d601f19601f82011682018060405250810190610c239190612f3d565b6000838152600a60205260408082209290925560095491516308f2a0bb60e41b81526001600160a01b0390921691638f2a0bb091610c6e918b918b918b91908b908990600401613357565b600060405180830381600087803b158015610c8857600080fd5b505af1158015610c9c573d6000803e3d6000fd5b505050507f9a2e42fd6722813d69113e7d0079d3d940171428df7373df9c7f7617cfda2892828242610cce919061364d565b6040805192835260208301919091520160405180910390a15095945050505050565b600080610cff86868686611276565b90506000610d0c82610eb1565b90506004816007811115610d3057634e487b7160e01b600052602160045260246000fd5b1480610d5b57506005816007811115610d5957634e487b7160e01b600052602160045260246000fd5b145b610d775760405162461bcd60e51b81526004016109d29061345d565b600082815260016020818152604092839020600201805460ff191690921790915590518381527f712ae1383f79ac853f8d882153778e0260ef8f03b504e2866e0593e04d2b291f910160405180910390a1610dd58288888888611740565b610de282888888886117fe565b610def828888888861180b565b5095945050505050565b60008181526001602090815260408083208151928301909152546001600160401b0316908190525b6001600160401b031692915050565b600061088160045490565b604080517f150214d74d59b7d1e90c73fc22ef3d991dd0a76b046543d4d80ab92d2a50328f602082015290810186905260ff851660608201526000908190610e899061093e90608001610923565b9050610ea687828860405180602001604052806000815250611848565b979650505050505050565b60006108918261186b565b600080339050610edd84828560405180602001604052806000815250611848565b949350505050565b600080339050610ea687828888888080601f0160208091040260200160405190810160405280939291908181526020018383808284376000920191909152508a9250611485915050565b610f3761086d565b6001600160a01b0316336001600160a01b031614610f675760405162461bcd60e51b81526004016109d2906133ea565b30610f7061086d565b6001600160a01b031614610fb25760008036604051610f90929190613292565b604051809103902090505b80610fa660026115f5565b14610fb057610f9b565b505b610a2f816119e1565b60008033905061100386828787878080601f01602080910402602001604051908101604052809392919081815260200183838082843760009201919091525061184892505050565b9695505050505050565b600061101b85858585611a22565b95945050505050565b6000611031848484611ccd565b90505b9392505050565b61104361086d565b6001600160a01b0316336001600160a01b0316146110735760405162461bcd60e51b81526004016109d2906133ea565b3061107c61086d565b6001600160a01b0316146110be576000803660405161109c929190613292565b604051809103902090505b806110b260026115f5565b146110bc576110a7565b505b610a2f81611d72565b6009546000828152600a602052604080822054905163d45c443560e01b81526004810191909152909182916001600160a01b039091169063d45c44359060240160206040518083038186803b15801561111f57600080fd5b505afa158015611133573d6000803e3d6000fd5b505050506040513d601f19601f820116820180604052508101906111579190612f3d565b9050806001146111675780611034565b60009392505050565b600061088160065490565b60008181526001602081815260408084208151928301909152909101546001600160401b031690819052610e21565b6111b261086d565b6001600160a01b0316336001600160a01b0316146111e25760405162461bcd60e51b81526004016109d2906133ea565b306111eb61086d565b6001600160a01b03161461122d576000803660405161120b929190613292565b604051809103902090505b8061122160026115f5565b1461122b57611216565b505b61126f8483838080601f016020809104026020016040519081016040528093929190818152602001838380828437600092019190915250889250611ddb915050565b5050505050565b60008484848460405160200161128f94939291906132be565b60408051601f19818403018152919052805160209091012095945050505050565b6112b861086d565b6001600160a01b0316336001600160a01b0316146112e85760405162461bcd60e51b81526004016109d2906133ea565b306112f161086d565b6001600160a01b0316146113335760008036604051611311929190613292565b604051809103902090505b8061132760026115f5565b146113315761131c565b505b610a2f81611e01565b6000611034838361135860408051602081019091526000815290565b611ccd565b61136561086d565b6001600160a01b0316336001600160a01b0316146113955760405162461bcd60e51b81526004016109d2906133ea565b3061139e61086d565b6001600160a01b0316146113e057600080366040516113be929190613292565b604051809103902090505b806113d460026115f5565b146113de576113c9565b505b610a2f81611ea2565b600061089182611ee3565b60006001600160e01b03198216636e665ced60e01b1480610891575061089182611f96565b6000610891611426612001565b8360405161190160f01b6020820152602281018390526042810182905260009060620160405160208183030381529060405280519060200120905092915050565b600080600061147887878787612128565b91509150610def8161220b565b600085815260016020819052604082209061149f88610eb1565b60078111156114be57634e487b7160e01b600052602160045260246000fd5b146115175760405162461bcd60e51b815260206004820152602360248201527f476f7665726e6f723a20766f7465206e6f742063757272656e746c792061637460448201526269766560e81b60648201526084016109d2565b604080516020810190915281546001600160401b03169081905260009061154090889086611ccd565b905061154f8888888488612407565b83516115a157866001600160a01b03167fb8e138887d0aa13bab447e82de9d5c1777041ecd21ca36ba824ff1e6c07ddda489888489604051611594949392919061358c565b60405180910390a2610ea6565b866001600160a01b03167fe2babfbac5889a709b63bb7f598b324e08bc5a4fb9ec647fb3cbc9ec07eb871289888489896040516115e29594939291906135b4565b60405180910390a2979650505050505050565b60006116148254600f81810b810b600160801b909204810b900b131590565b1561163257604051631ed9509560e11b815260040160405180910390fd5b508054600f90810b80820b820b600090815260018085016020526040822080549290558454920190920b6001600160801b03166001600160801b03199091161790915590565b60648111156116fb5760405162461bcd60e51b815260206004820152604360248201527f476f7665726e6f72566f74657351756f72756d4672616374696f6e3a2071756f60448201527f72756d4e756d657261746f72206f7665722071756f72756d44656e6f6d696e616064820152623a37b960e91b608482015260a4016109d2565b600880549082905560408051828152602081018490527f0553476bf02ef2726e8ce5ced78d63e26e602e4a2257b1f559418e24b4633997910160405180910390a15050565b3061174961086d565b6001600160a01b03161461126f5760005b84518110156117f657306001600160a01b031685828151811061178d57634e487b7160e01b600052603260045260246000fd5b60200260200101516001600160a01b031614156117e6576117e68382815181106117c757634e487b7160e01b600052603260045260246000fd5b602002602001015180519060200120600261258690919063ffffffff16565b6117ef81613751565b905061175a565b505050505050565b61126f85858585856125cc565b3061181461086d565b6001600160a01b03161461126f57600254600f81810b810b600160801b909204810b900b131561126f57600060025561126f565b600061101b8585858561186660408051602081019091526000815290565b611485565b60008061187783612640565b9050600481600781111561189b57634e487b7160e01b600052602160045260246000fd5b146118a65792915050565b6000838152600a6020526040902054806118c1575092915050565b600954604051632ab0f52960e01b8152600481018390526001600160a01b0390911690632ab0f5299060240160206040518083038186803b15801561190557600080fd5b505afa158015611919573d6000803e3d6000fd5b505050506040513d601f19601f8201168201806040525081019061193d9190612f1d565b1561194c575060079392505050565b600954604051632c258a9f60e11b8152600481018390526001600160a01b039091169063584b153e9060240160206040518083038186803b15801561199057600080fd5b505afa1580156119a4573d6000803e3d6000fd5b505050506040513d601f19601f820116820180604052508101906119c89190612f1d565b156119d7575060059392505050565b5060029392505050565b60045460408051918252602082018390527fc565b045403dc03c2eea82b81a0465edad9e2e7fc4d97e11421c209da93d7a93910160405180910390a1600455565b6000611a2c611170565b611a3b336107c86001436136cf565b1015611aa35760405162461bcd60e51b815260206004820152603160248201527f476f7665726e6f723a2070726f706f73657220766f7465732062656c6f7720706044820152701c9bdc1bdcd85b081d1a1c995cda1bdb19607a1b60648201526084016109d2565b6000611ab88686868680519060200120611276565b90508451865114611adb5760405162461bcd60e51b81526004016109d29061341c565b8351865114611afc5760405162461bcd60e51b81526004016109d29061341c565b6000865111611b485760405162461bcd60e51b815260206004820152601860248201527711dbdd995c9b9bdc8e88195b5c1d1e481c1c9bdc1bdcd85b60421b60448201526064016109d2565b600081815260016020908152604091829020825191820190925281546001600160401b03169081905215611bc85760405162461bcd60e51b815260206004820152602160248201527f476f7665726e6f723a2070726f706f73616c20616c72656164792065786973746044820152607360f81b60648201526084016109d2565b6000611bda611bd5610e30565b61274c565b611be34361274c565b611bed9190613665565b90506000611bfc611bd5610897565b611c069083613665565b9050611c1283836127b8565b611c1f60018401826127b8565b7f7d84a6263ae0d98d3329bd7b46bb4e8d6f98cd35a7adb45c274c8b7fd5ebd5e084338b8b8d516001600160401b03811115611c6b57634e487b7160e01b600052604160045260246000fd5b604051908082528060200260200182016040528015611c9e57816020015b6060815260200190600190039081611c895790505b508c88888e604051611cb89998979695949392919061349e565b60405180910390a15091979650505050505050565b604051630748d63560e31b81526001600160a01b038481166004830152602482018490526000917f000000000000000000000000000000000000000000000000000000000000000090911690633a46b1a89060440160206040518083038186803b158015611d3a57600080fd5b505afa158015611d4e573d6000803e3d6000fd5b505050506040513d601f19601f820116820180604052508101906110319190612f3d565b600954604080516001600160a01b03928316815291831660208301527f08f74ea46ef7894f65eabfb5e6e695de773a000b47c529ab559178069b226401910160405180910390a1600980546001600160a01b0319166001600160a01b0392909216919091179055565b60606110318484846040518060600160405280602981526020016137ae602991396127d6565b60008111611e615760405162461bcd60e51b815260206004820152602760248201527f476f7665726e6f7253657474696e67733a20766f74696e6720706572696f6420604482015266746f6f206c6f7760c81b60648201526084016109d2565b60055460408051918252602082018390527f7e3f7f0708a84de9203036abaa450dccc85ad5ff52f78c170f3edb55cf5e8828910160405180910390a1600555565b60065460408051918252602082018390527fccb45da8d5717e6c4544694297c4ba5cf151d455c9bb0ed4fc7a38411bc05461910160405180910390a1600655565b60006064600854604051632394e7a360e21b8152600481018590527f00000000000000000000000000000000000000000000000000000000000000006001600160a01b031690638e539e8c9060240160206040518083038186803b158015611f4a57600080fd5b505afa158015611f5e573d6000803e3d6000fd5b505050506040513d601f19601f82011682018060405250810190611f829190612f3d565b611f8c91906136b0565b6108919190613690565b60006001600160e01b0319821663bf26d89760e01b1480611fc757506001600160e01b031982166379dd796f60e01b145b80611fe257506001600160e01b03198216630271189760e51b145b8061089157506301ffc9a760e01b6001600160e01b0319831614610891565b6000306001600160a01b037f00000000000000000000000000000000000000000000000000000000000000001614801561205a57507f000000000000000000000000000000000000000000000000000000000000000046145b1561208457507f000000000000000000000000000000000000000000000000000000000000000090565b50604080517f00000000000000000000000000000000000000000000000000000000000000006020808301919091527f0000000000000000000000000000000000000000000000000000000000000000828401527f000000000000000000000000000000000000000000000000000000000000000060608301524660808301523060a0808401919091528351808403909101815260c0909201909252805191012090565b6000806fa2a8918ca85bafe22016d0b997e4df60600160ff1b038311156121555750600090506003612202565b8460ff16601b1415801561216d57508460ff16601c14155b1561217e5750600090506004612202565b6040805160008082526020820180845289905260ff881692820192909252606081018690526080810185905260019060a0016020604051602081039080840390855afa1580156121d2573d6000803e3d6000fd5b5050604051601f1901519150506001600160a01b0381166121fb57600060019250925050612202565b9150600090505b94509492505050565b600081600481111561222d57634e487b7160e01b600052602160045260246000fd5b14156122365750565b600181600481111561225857634e487b7160e01b600052602160045260246000fd5b14156122a15760405162461bcd60e51b815260206004820152601860248201527745434453413a20696e76616c6964207369676e617475726560401b60448201526064016109d2565b60028160048111156122c357634e487b7160e01b600052602160045260246000fd5b14156123115760405162461bcd60e51b815260206004820152601f60248201527f45434453413a20696e76616c6964207369676e6174757265206c656e6774680060448201526064016109d2565b600381600481111561233357634e487b7160e01b600052602160045260246000fd5b141561238c5760405162461bcd60e51b815260206004820152602260248201527f45434453413a20696e76616c6964207369676e6174757265202773272076616c604482015261756560f01b60648201526084016109d2565b60048160048111156123ae57634e487b7160e01b600052602160045260246000fd5b1415610a2f5760405162461bcd60e51b815260206004820152602260248201527f45434453413a20696e76616c6964207369676e6174757265202776272076616c604482015261756560f01b60648201526084016109d2565b60008581526007602090815260408083206001600160a01b0388168452600381019092529091205460ff161561248f5760405162461bcd60e51b815260206004820152602760248201527f476f7665726e6f72566f74696e6753696d706c653a20766f746520616c726561604482015266191e4818d85cdd60ca1b60648201526084016109d2565b6001600160a01b03851660009081526003820160205260408120805460ff1916600117905560ff168460ff1614156124e057828160000160008282546124d5919061364d565b909155506117f69050565b60ff84166001141561250057828160010160008282546124d5919061364d565b60ff84166002141561252057828160020160008282546124d5919061364d565b60405162461bcd60e51b815260206004820152603560248201527f476f7665726e6f72566f74696e6753696d706c653a20696e76616c69642076616044820152746c756520666f7220656e756d20566f74655479706560581b60648201526084016109d2565b8154600160801b90819004600f90810b80820b820b6000908152600180870160205260409091209490945584549301900b6001600160801b039081169091029116179055565b60095460405163e38335e560e01b81526001600160a01b039091169063e38335e5903490612607908890889088906000908990600401613309565b6000604051808303818588803b15801561262057600080fd5b505af1158015612634573d6000803e3d6000fd5b50505050505050505050565b6000818152600160205260408120600281015460ff16156126645750600792915050565b6002810154610100900460ff161561267f5750600292915050565b600061268a84610df9565b9050806126d95760405162461bcd60e51b815260206004820152601d60248201527f476f7665726e6f723a20756e6b6e6f776e2070726f706f73616c20696400000060448201526064016109d2565b4381106126ea575060009392505050565b60006126f58561117b565b905043811061270957506001949350505050565b612712856128fc565b8015612731575060008581526007602052604090208054600190910154115b1561274157506004949350505050565b506003949350505050565b60006001600160401b038211156127b45760405162461bcd60e51b815260206004820152602660248201527f53616665436173743a2076616c756520646f65736e27742066697420696e203660448201526534206269747360d01b60648201526084016109d2565b5090565b815467ffffffffffffffff19166001600160401b0391909116179055565b6060824710156128375760405162461bcd60e51b815260206004820152602660248201527f416464726573733a20696e73756666696369656e742062616c616e636520666f6044820152651c8818d85b1b60d21b60648201526084016109d2565b6001600160a01b0385163b61288e5760405162461bcd60e51b815260206004820152601d60248201527f416464726573733a2063616c6c20746f206e6f6e2d636f6e747261637400000060448201526064016109d2565b600080866001600160a01b031685876040516128aa91906132a2565b60006040518083038185875af1925050503d80600081146128e7576040519150601f19603f3d011682016040523d82523d6000602084013e6128ec565b606091505b5091509150610ea6828286612933565b60008181526007602052604081206002810154600182015461291e919061364d565b61292a61083485610df9565b11159392505050565b60608315612942575081611034565b8251156129525782518084602001fd5b8160405162461bcd60e51b81526004016109d291906133d7565b60006001600160401b0383111561298557612985613782565b612998601f8401601f19166020016135fa565b90508281528383830111156129ac57600080fd5b828260208301376000602084830101529392505050565b600082601f8301126129d3578081fd5b813560206129e86129e38361362a565b6135fa565b80838252828201915082860187848660051b8901011115612a07578586fd5b855b85811015612a2e578135612a1c81613798565b84529284019290840190600101612a09565b5090979650505050505050565b600082601f830112612a4b578081fd5b81356020612a5b6129e38361362a565b80838252828201915082860187848660051b8901011115612a7a578586fd5b855b85811015612a2e5781356001600160401b03811115612a99578788fd5b612aa78a87838c0101612b5d565b8552509284019290840190600101612a7c565b600082601f830112612aca578081fd5b81356020612ada6129e38361362a565b80838252828201915082860187848660051b8901011115612af9578586fd5b855b85811015612a2e57813584529284019290840190600101612afb565b60008083601f840112612b28578182fd5b5081356001600160401b03811115612b3e578182fd5b602083019150836020828501011115612b5657600080fd5b9250929050565b600082601f830112612b6d578081fd5b6110348383356020850161296c565b803560ff81168114612b8d57600080fd5b919050565b600080600080600060a08688031215612ba9578081fd5b8535612bb481613798565b94506020860135612bc481613798565b935060408601356001600160401b0380821115612bdf578283fd5b612beb89838a01612aba565b94506060880135915080821115612c00578283fd5b612c0c89838a01612aba565b93506080880135915080821115612c21578283fd5b50612c2e88828901612b5d565b9150509295509295909350565b60008060008060808587031215612c50578384fd5b8435612c5b81613798565b93506020850135612c6b81613798565b92506040850135915060608501356001600160401b03811115612c8c578182fd5b612c9887828801612b5d565b91505092959194509250565b600080600080600060a08688031215612cbb578081fd5b8535612cc681613798565b94506020860135612cd681613798565b9350604086013592506060860135915060808601356001600160401b03811115612cfe578182fd5b612c2e88828901612b5d565b60008060408385031215612d1c578182fd5b8235612d2781613798565b946020939093013593505050565b60008060008060608587031215612d4a578182fd5b8435612d5581613798565b93506020850135925060408501356001600160401b03811115612d76578283fd5b612d8287828801612b17565b95989497509550505050565b600080600060608486031215612da2578081fd5b8335612dad81613798565b92506020840135915060408401356001600160401b03811115612dce578182fd5b612dda86828701612b5d565b9150509250925092565b60008060008060808587031215612df9578182fd5b84356001600160401b0380821115612e0f578384fd5b612e1b888389016129c3565b95506020870135915080821115612e30578384fd5b612e3c88838901612aba565b94506040870135915080821115612e51578384fd5b50612e5e87828801612a3b565b949793965093946060013593505050565b60008060008060808587031215612e84578182fd5b84356001600160401b0380821115612e9a578384fd5b612ea6888389016129c3565b95506020870135915080821115612ebb578384fd5b612ec788838901612aba565b94506040870135915080821115612edc578384fd5b612ee888838901612a3b565b93506060870135915080821115612efd578283fd5b508501601f81018713612f0e578182fd5b612c988782356020840161296c565b600060208284031215612f2e578081fd5b81518015158114611034578182fd5b600060208284031215612f4e578081fd5b5051919050565b600060208284031215612f66578081fd5b81356001600160e01b031981168114611034578182fd5b600060208284031215612f8e578081fd5b813561103481613798565b600060208284031215612faa578081fd5b5035919050565b60008060408385031215612fc3578182fd5b823591506020830135612fd581613798565b809150509250929050565b60008060408385031215612ff2578182fd5b8235915061300260208401612b7c565b90509250929050565b60008060008060608587031215613020578182fd5b8435935061303060208601612b7c565b925060408501356001600160401b03811115612d76578283fd5b600080600080600060808688031215613061578283fd5b8535945061307160208701612b7c565b935060408601356001600160401b038082111561308c578485fd5b61309889838a01612b17565b90955093506060880135915080821115612c21578283fd5b60008060008060008060008060e0898b0312156130cb578586fd5b883597506130db60208a01612b7c565b965060408901356001600160401b03808211156130f6578788fd5b6131028c838d01612b17565b909850965060608b013591508082111561311a578485fd5b506131278b828c01612b5d565b94505061313660808a01612b7c565b925060a0890135915060c089013590509295985092959890939650565b600080600080600060a0868803121561316a578283fd5b8535945061317a60208701612b7c565b935061318860408701612b7c565b94979396509394606081013594506080013592915050565b6000815180845260208085019450808401835b838110156131d85781516001600160a01b0316875295820195908201906001016131b3565b509495945050505050565b600081518084526020808501808196508360051b81019150828601855b8581101561322a578284038952613218848351613266565b98850198935090840190600101613200565b5091979650505050505050565b6000815180845260208085019450808401835b838110156131d85781518752958201959082019060010161324a565b6000815180845261327e8160208601602086016136e6565b601f01601f19169290920160200192915050565b8183823760009101908152919050565b600082516132b48184602087016136e6565b9190910192915050565b6080815260006132d160808301876131a0565b82810360208401526132e38187613237565b905082810360408401526132f781866131e3565b91505082606083015295945050505050565b60a08152600061331c60a08301886131a0565b828103602084015261332e8188613237565b9050828103604084015261334281876131e3565b60608401959095525050608001529392505050565b60c08152600061336a60c08301896131a0565b828103602084015261337c8189613237565b9050828103604084015261339081886131e3565b60608401969096525050608081019290925260a0909101529392505050565b60208101600883106133d157634e487b7160e01b600052602160045260246000fd5b91905290565b6020815260006110346020830184613266565b602080825260189082015277476f7665726e6f723a206f6e6c79476f7665726e616e636560401b604082015260600190565b60208082526021908201527f476f7665726e6f723a20696e76616c69642070726f706f73616c206c656e67746040820152600d60fb1b606082015260800190565b60208082526021908201527f476f7665726e6f723a2070726f706f73616c206e6f74207375636365737366756040820152601b60fa1b606082015260800190565b60006101208b8352602060018060a01b038c16818501528160408501526134c78285018c6131a0565b915083820360608501526134db828b613237565b915083820360808501528189518084528284019150828160051b850101838c01865b8381101561352b57601f19878403018552613519838351613266565b948601949250908501906001016134fd565b505086810360a088015261353f818c6131e3565b94505050505061355a60c08401876001600160401b03169052565b6001600160401b03851660e084015282810361010084015261357c8185613266565b9c9b505050505050505050505050565b84815260ff841660208201528260408201526080606082015260006110036080830184613266565b85815260ff8516602082015283604082015260a0606082015260006135dc60a0830185613266565b82810360808401526135ee8185613266565b98975050505050505050565b604051601f8201601f191681016001600160401b038111828210171561362257613622613782565b604052919050565b60006001600160401b0382111561364357613643613782565b5060051b60200190565b600082198211156136605761366061376c565b500190565b60006001600160401b038083168185168083038211156136875761368761376c565b01949350505050565b6000826136ab57634e487b7160e01b81526012600452602481fd5b500490565b60008160001904831182151516156136ca576136ca61376c565b500290565b6000828210156136e1576136e161376c565b500390565b60005b838110156137015781810151838201526020016136e9565b83811115613710576000848401525b50505050565b600181811c9082168061372a57607f821691505b6020821081141561374b57634e487b7160e01b600052602260045260246000fd5b50919050565b60006000198214156137655761376561376c565b5060010190565b634e487b7160e01b600052601160045260246000fd5b634e487b7160e01b600052604160045260246000fd5b6001600160a01b0381168114610a2f57600080fdfe416464726573733a206c6f772d6c6576656c2063616c6c20776974682076616c7565206661696c6564a2646970667358221220c184d82a6b9540eb007c0775b8a470ca1e8117e6be22c888d80b752ff569333c64736f6c63430008040033",
  "linkReferences": {},
  "deployedLinkReferences": {}
}